S0170000786732365F7466745F7370695F4C69622E733337C8
S31508000000001000209D2C010877F8020877F80208EE
S3150800001077F8020877F8020877F8020877F80208EE
S3150800002077F8020877F8020877F8020877F80208DE
S3150800003077F8020877F8020877F802083BF402080E
S3150800004077F8020877F8020877F8020877F80208BE
S3150800005077F8020877F8020877F8020877F80208AE
S3150800006077F8020877F8020877F8020877F802089E
S3150800007077F8020877F8020877F8020877F802088E
S3150800008077F8020877F8020877F8020877F802087E
S31508000090C92A0108C9F7020877F8020877F802089A
S315080000A077F8020877F8020877F8020877F802085E
S315080000B077F8020877F8020877F8020877F802084E
S315080000C077F8020877F8020877F80208B1340108C9
S315080000D077F8020877F8020877F80208F13001087D
S315080000E0D130010877F8020877F8020877F802088D
S315080000F077F8020877F8020877F8020877F802080E
S3150800010077F8020877F8020877F8020877F80208FD
S3150800011077F8020877F8020877F8020877F80208ED
S3150800012077F8020877F8020877F8020877F80208DD
S3150800013077F8020877F8020877F8020877F80208CD
S3150800014077F8020877F8020877F8020877F80208BD
S3150800015077F8020877F8020877F8020877F80208AD
S3150800016077F8020877F8020877F8020877F802089D
S3150800017077F8020877F8020877F8020877F802088D
S3150800018077F8020877F8020877F80208C909030819
S3150800019077F8020877F8020877F8020877F802086D
S315080001A077F8020877F8020877F8020877F802085D
S309080001B077F80208C4
S315080001C0013800D0FCE770470348044B834202D04D
S315080001D0034B03B118477047143D0120143D012015
S315080001E000000000064B0749C91A891048BF0131AB
S315080001F0491003D0044B0BB101481847704700BF9C
S31508000200143D0120143D01200000000010B5064CE5
S31508000210237843B9FFF7D8FF044B13B10448AFF36B
S3150800022000800123237010BDC82B012000000000A8
S31508000230E85F030808B5054B1BB105490548AFF348
S315080002400080BDE80840FFF7CDBF00BF00000000F2
S3150800025000100020E85F0308A3F5803A704700BF46
S31508000260174B002B08BF134B9D46FFF7F5FF0021E0
S315080002708B460F461348144A121A2FF068FD0E4B88
S31508000280002B00D098470D4B002B00D09847002034
S31508000290002104000D000D48002802D00C48AFF3D9
S315080002A0008018F083F9200029002FF0EBF818F0E9
S315080002B04BF900BF00000800000000000000000025
S315080002C00010002000100020FC3B01200000000068
S315080002D0000000002021014828F0A6B94C10002093
S315080002E0014B186C704700BF1810002010B5044663
S315080002F000B9FEE7064A074918F0C0FC63692BB146
S3150800030020B92046BDE810400121184710BD00BF9E
S31508000310858702087987020810B5044600B9FEE702
S315080003200649074A18F0AAFC6369014623B118B9B9
S315080003302046BDE81040184710BD00BF7F87020859
S315080003408D87020810B50146044800F009F80446EE
S3150800035000B9FEE719F04BFB204610BD1C0A03083E
S3150800036070B506460D462B4A20B1036A1A4212D0CA
S31508000370C3F30F1008F0C8FF044648B1C0E900658A
S315080003807DBB02F081FB064638B9204608F0CEFF51
S315080003900024204670BD0068E6E7D0F8B40208B924
S315080003A0C6F8D052D6F8D0120131890008F0C8FF35
S315080003B000B9FEE70025D6F8D032C6F8B4025A1CB2
S315080003C0C6F8D02240F823402846C4E9055502F06D
S315080003D06BFB0138E061284602F076FB01382062A3
S315080003E0D7E7AB6813B9284619F0B5FAAE68318D68
S315080003F03068013189B23185890008F0A1FFAA6801
S315080004003060138D126803F18043013B42F82340A4
S31508000410BFE700BFF0FF0F0038B5044605F062FFDE
S3150800042028B1237E13F002003ED1DD073DD42368B0
S315080004309D6805B1083501222146284627F0D3FED6
S31508000440012832D1207E10F002002DD1214619F064
S3150800045011FF012829D1227E12F0020224D1214659
S31508000460284627F0C0FE01281FD1237E99071BD4F2
S3150800047020681BF0ABFF0546B0B1237E5A0713D49C
S315080004802389283B012B11D94FF48041206819F0A4
S315080004902EF848B12389133B9BB21E2B06D8044A73
S315080004A022FA03F3DB0701D5012038BD2560B5E73D
S315080004B0F19F785837B50B49054619F01EF80446DA
S315080004C010B1002003B030BD28461BF07FFF00287E
S315080004D0F7D0162221461BF0BEFA80B2003818BFA4
S315080004E00120EFE70100060007B50022054B312180
S315080004F0CDE900236A4619F0D2FE009803B05DF8EC
S3150800050004FB00BF010000E007B50023054A3121BE
S31508000510CDE900236A4619F0C2FE019803B05DF8DA
S3150800052004FB00BF010000E02DE9F04F87B08146CB
S31508000530FFF7C0FF0446002840F0FE8048461BF03F
S3150800054045FF21460822824648461BF084FA214682
S31508000550059005468346092248461BF07CFA044660
S3150800056005900090BAF1000F07D102462946484681
S3150800057007B0BDE8F04F1AF020BB50461AF04AF90A
S31508000580804650461AF056F905F0C043B3F1005FAD
S31508000590074614D16FF0604325F0C0459D420ED042
S315080005A04FF0640BB5F1805FA2BFC5F17F6505F515
S315080005B07F2505F6FF7505FB08F595FBFBFB04F0A3
S315080005C0C043B3F1005F13D16FF0604324F0C04419
S315080005D09C420DD06423B4F1805FA2BFC4F17F644E
S315080005E004F57F2404F6FF747C4394FBF3F300932D
S315080005F06A22002148461BF02EFA6B22002105903C
S315080006000390064648461BF026FA09F11404CDE97C
S3150800061001000590204627F069FB0546204627F08D
S315080006206AFBDDE90112039B044603F0C040B0F102
S31508000630005F12D16FF0604023F0C04383420CD0B4
S315080006406426B3F1805FA2BFC3F17F6303F57F23FE
S3150800065003F6FF736B4393FBF6F602F0C043B3F160
S31508000660005F12D16FF0604322F0C0429A420CD06C
S315080006706423B2F1805FA2BFC2F17F6202F57F22D6
S3150800068002F6FF72624392FBF3F1009B0A220B44C7
S31508000690484600215E449B461BF0DDF9059010F0A4
S315080006A0FF0007D1504619F0C0FE012820D1A8EB5B
S315080006B005051CE0023807281AD801A353F820F0CC
S315080006C0E1060008AF06000807070008F706000855
S315080006D00D0700081907000813070008290700086E
S315080006E005EBD57508EBD8786D10C5EB68052E4473
S315080006F05A4631463BE705EBD57508EBD8786D10B9
S31508000700C5EB68052E443C1BA344F1E7A8EB050599
S31508000710F8E7A8EB05052E4404EBD47407EBD77766
S315080007206410C4EB6704EFE705EBD57508EBD878DA
S315080007306D10C5EB6805EEE707B0BDE8F08F00BFA2
S315080007402DE9F04F91B090F82B30044603F00C03D6
S315080007500C2B03D1002011B0BDE8F08F1BF036FE3C
S3150800076006460028F6D094F82B1004F1140311F06D
S315080007700801019363D0184627F0B8FA94F82B10AD
S31508000780074611F0040100F0AF81019827F0B3FA8B
S315080007900546019827F0AAFA874200F08A82204681
S315080007A01AF0F4F9636930460893A3690CA909930A
S315080007B0E3690A93236A0B931AF04CF800220CA9F2
S315080007C008A827F008F8804610B930461AF0B9FF8D
S315080007D0A36920461D44013D256219F026FE01281D
S315080007E00BBFE3696369DB1BFF180BBF013307F116
S315080007F0FF376361E7612E2108AA204619F04FFDED
S3150800080022462721304619F04AFD20461AF0BEF93D
S3150800081094F82A30002243F00203019884F82A301B
S315080008200CA926F0D8FFB8F1000F00D110B1304658
S315080008301AF087FF204619F0F5FC01208BE7012204
S3150800084020461BF008F900F0C043B3F1005F80466C
S3150800085005460C90304605D16FF0604328F0C04736
S315080008609F4234D119F0D6FF6FF040439845029065
S3150800087040F0A48020461AF090FBA36803900BB1C1
S3150800088000229A61204619F0C1FE8046204619F0DA
S31508000890D5FD82462046FFF727FE0AEB00052046CF
S315080008A01BF0CAFD0490204619F0BFFD01284FF041
S315080008B0000BDFF82C92454475D0049AA3685A4574
S315080008C040F0A080864A914574D0C8448EE06FF007
S315080008D0404819F09FFF45450290CBD096F82B105B
S315080008E011F0080140F0DD80012230461BF0B3F814
S315080008F040450C9040F0D580204619F09FFD0546EE
S31508000900204619F083FE054458E01B68754953F8DC
S315080009102B70384618F0F1FD002842D13846FFF70B
S31508000920C9FD014660B90A2238461BF094F80C90B6
S31508000930C0B2082809D840F24913C340DA0704D5DB
S31508000940E3697A699B1A013317E0082200213846C1
S315080009501BF081F80C90002844D1069007F114008A
S3150800096027F0C4F91A2208EB0003069938460593BE
S315080009701BF071F8059B0C9003441A220021384697
S3150800098005931BF068F8059B0C901844484508DB4E
S315080009901A22002138461BF05EF8059B0C9003EBE3
S315080009A000090BF1010B049AA3685A45ADD14C4ACC
S315080009B0914519D113B1039A52429A610422002132
S315080009C020461BF048F8052207460C9000212046D1
S315080009D01BF041F8394602460C90029B28461AF04D
S315080009E099F9CBE63E4BC8E70AEB0908A26812B1AB
S315080009F0039B5B4293613A4B9845DFD04545B8BFA8
S31508000A004546DBE71B68374953F82B70384618F01C
S31508000A1074FD002840D13846FFF74CFD014658B909
S31508000A200A2238461BF017F80C90C0B2072808D8D7
S31508000A309323C340DB0704D5FB6962699B1A01331C
S31508000A4016E00822002138461BF005F80C9030BB4A
S31508000A50069007F1140027F049F91B220AEB000358
S31508000A600699384605931AF0F6FF059B0C90034441
S31508000A701B220021384605931AF0EDFF059B0C90C2
S31508000A801844484508DB1B22002138461AF0E3FFC4
S31508000A90059B0C9003EB00090BF1010B0DE7104BBE
S31508000AA0E6E7B7F1805FA4BFC7F17F6707F57F2741
S31508000AB0029BA8BF07F6FF775F4364231A2200212B
S31508000AC0204697FBF3F71AF0C6FF1B2205460C9043
S31508000AD0002120461AF0BFFF0C9028443D1A6DE706
S31508000AE0010000E001000400022220461AF0B3FFCC
S31508000AF000F0C043B3F1005F814605460C903046CE
S31508000B0005D16FF0604329F0C048984549D119F0DE
S31508000B1091FE6FF04043994582462ED120461AF041
S31508000B2041FAA36804900BB10022DA61204619F055
S31508000B3053FD0290204619F035FD03902046FFF735
S31508000B40E3FC029B4FF0000B1D18039B20461D4437
S31508000B501BF072FCDFF868910590059AA3685A4560
S31508000B603BD113B1049A5242DA61554B994504D0E8
S31508000B70039B4B449D42B8BF1D46062200212046D2
S31508000B801AF069FF072280460C90002120461AF0C9
S31508000B9062FF534602460C90414628461AF0BAF8B8
S31508000BA0F6E56FF0404919F045FE4D458246B5D049
S31508000BB096F82B1011F004015CD1022230461AF087
S31508000BC04AFF48450C9055D1204619F005FD0546C3
S31508000BD0204619F0E7FC0544CFE71B68394953F866
S31508000BE02B80404618F089FC00283ED14046FFF786
S31508000BF061FC014648B906900A2240461AF02BFFC6
S31508000C000C90C0B20328069905D8D8F82030A269F6
S31508000C109B1A013315E0092240461AF01CFF0C9076
S31508000C2030BB079008F1140027F065F8029B1822DC
S31508000C3003440799404606931AF00DFF069B0C904D
S31508000C40034419220021404606931AF004FF069B26
S31508000C500C901844484508DB1922002140461AF032
S31508000C60FAFE069B0C9003EB00090BF1010B74E7E7
S31508000C70134BE6E76422B8F1805FA2BFC8F17F682C
S31508000C8008F57F2808F6FF780AFB08F3002193FB8E
S31508000C90F2F8204618221AF0DEFE192205460C90B4
S31508000CA0002120461AF0D7FE0C902844A8EB000530
S31508000CB063E7019827F01FF885427FF470AD49E590
S31508000CC0010000E00100040038B50D4D95F86030CC
S31508000CD063B9012385F860301BF070FB044694F86D
S31508000CE02A3013F0040202D185F8602038BD6FF36C
S31508000CF08203204684F82A301AF046F8EFE700BF48
S31508000D00181000202DE9F04F85B00E460746934689
S31508000D109846DDF83890FFF7D7FF1EB938461BF01E
S31508000D2055FB064638461BF051FB824619F086FBF2
S31508000D300190504619F050FC0290304619F07EFB9F
S31508000D400546304619F048FC0446BBF1000F10D1A1
S31508000D50304619F06AFB012874D1304619F05AFD5D
S31508000D60834607F1140026F0C1FFABEB000B5D4488
S31508000D7068E00BF1FF3BBBF1140F2DD801A353F824
S31508000D802BF000BF450E0008250E00085B0D000875
S31508000D901B0F0008330F00086D0F0008950F000899
S31508000DA0B50F0008DF0D0008DD0F0008E90F000881
S31508000DB0151000082D1000083910000865100008E5
S31508000DC07D1000088B100008B7100008D71000081F
S31508000DD0E3100008FD1000080024002532E0304624
S31508000DE019F018FD07F1140B0390584626F07EFFFC
S31508000DF0039B00EBD07003EBD3734010C0EB63008A
S31508000E000544304619F016FD0390584626F073FF40
S31508000E10039B00EBD07003EBD3734010C0EB630069
S31508000E2004440FE0304619F0F5FC834607F1140038
S31508000E3026F05CFF00EBD0700BEBDB7B4010C0EBC1
S31508000E406B00054408F0C043B3F1005F18D16FF09A
S31508000E50604328F0C04B9B4512D006F1140026F0DB
S31508000E6045FF4FF06408BBF1805FA2BFCBF17F6BF3
S31508000E700BF57F2B0BF6FF7B00FB0BFB9BFBF8F8B8
S31508000E8009F0C043B3F1005F18D16FF0604329F051
S31508000E90C04B9B4512D006F1140026F02CFF4FF0EC
S31508000EA06409BBF1805FA2BFCBF17F6B0BF57F2B8B
S31508000EB00BF6FF7B00FB0BFB9BFBF9F9504619F081
S31508000EC0B4FA01287369DAF8142040F024814344FF
S31508000ED05046A3EB020800F0C9F9019B8044A8EB31
S31508000EE00308B36950469944DAF818304544A9EB23
S31508000EF003091AF05CF8029B8144A9EB03093846FA
S31508000F00002201214C441BF0BCF9224629463846EA
S31508000F1005B0BDE8F04F19F0C1BB304619F08AFCA0
S31508000F20834607F1140026F0E6FEABEB000B5C44A3
S31508000F3088E7304619F06EFC07F1140B0390584603
S31508000F4026F0D4FE039B00EBD07003EBD37340105E
S31508000F50C0EB63000544304619F06CFC0390584614
S31508000F6026F0C9FE039B1B1A1C446BE7304619F092
S31508000F7051FC07F1140383461846039326F0B6FE80
S31508000F80ABEB000B304619F055FC039B5D448346DA
S31508000F901846C8E7304619F04DFC834607F1140099
S31508000FA026F0A9FE00EBD0700BEBDB7B4010C0EB04
S31508000FB06B0035E7304619F02DFC07F1140383461C
S31508000FC01846039326F092FEABEB000B304619F059
S31508000FD031FC039B5D4483461846E1E707F114009C
S31508000FE026F089FE4442F8E606F1140026F07EFE55
S31508000FF007F114040546204626F078FE05EBD5735E
S3150800100000EBD0756D10C5EB6305204626F073FE20
S31508001010444217E706F1140026F068FE07F11404A7
S315080010200546204626F062FE2D1AEEE706F1140064
S3150800103026F061FE0446D0E606F11404204626F0A2
S3150800104055FE054607F1140026F050FE05EBD5734C
S3150800105000EBD0756D10C5EB6305204626F04BFEF8
S315080010600446EFE606F11404204626F03FFE054640
S3150800107007F1140026F03AFE2D1AEEE707F11400E0
S3150800108026F034FE45420024DCE607F1140B5846E8
S3150800109026F02CFE454206F1140026F02CFE0446E6
S315080010A0584626F028FE04EBD47300EBD07464107F
S315080010B0C4EB6304C6E607F1140B584626F016FE81
S315080010C0454206F1140026F016FE0446584626F058
S315080010D012FE241AB6E606F1140026F007FE0546A7
S315080010E0D1E706F11404204626F000FE0546204600
S315080010F026F001FE044607F11400D2E706F11404AF
S31508001100204626F0F3FD0546204626F0F4FD044663
S3150800111007F11400DBE798445046A8EB020800F0F4
S315080011204DF8DAE62DE9F34704461BF085F9002564
S315080011300746204EDFF88080BD4223D1204619F0AD
S315080011409AFE8046204619F07CFE1A4B07469E42B8
S315080011501CBF236A1B1A204618BFF61AFFF7D4F9D4
S315080011600546204619F053FBA0EB0800C01B2D1AB4
S31508001170204619F017FF281AB042B8BF304602B009
S31508001180BDE8F087A36841461B6853F825A050467A
S3150800119018F0B3F9014650B919225046DAF82090EA
S315080011A01AF059FC81444E45B8BF4E4601900135A8
S315080011B0C2E700BF010000E0010004002DE9F74F77
S315080011C00021054619F011FE012806D0A86808B1C5
S315080011D08069404203B0BDE8F08F284619F065FEE5
S315080011E08046284619F013FE074628461BF024F9C0
S315080011F06FF0604481460026B1451BD16FF060430D
S315080012009C4218BF6E6928461ABFF619361B154E3A
S31508001210FFF76AF90446284619F0F6FAA0EB080023
S31508001220C01B241A284619F0B8FE2044B042B8BF9D
S315080012303046CFE7AB680C491B6853F826A05046E2
S3150800124018F05BF9014658B91A225046DAF814B074
S315080012501AF001FCABEB000B5C45A8BF5C4601909D
S315080012600136C9E7010000E0010004002DE9F34753
S315080012700021054619F0B9FD012805D1A86800B175
S31508001280806902B0BDE8F08728461BF0D5F800242F
S3150800129007461F4EDFF87C80A74221D1284619F061
S315080012A004FE0746284619F0B2FD194B80469E42B1
S315080012B018BFEB6928461CBFDB1BF61AFFF714F9A3
S315080012C00446284619F0A0FAC01BA0EB0800241A09
S315080012D0284619F062FE201AB042B8BF3046D0E759
S315080012E0AB6841461B6853F824A0504618F005F928
S315080012F0014650B91B225046DAF81C901AF0ABFB8F
S3150800130081444E45B8BF4E4601900134C4E700BF3C
S31508001310010000E00100040038B50D460C490446FA
S3150800132006F0EEFF58B1C06A4042286009492046D7
S3150800133006F0E6FF38B1C06A4042686038BD20460C
S3150800134019F02BFEF1E7204619F02CFEF5E700BF51
S315080013500DB00108F7AF0108F0B597B0164651EA87
S31508001360060204460D465FD0012B5FD100F0F8FC5B
S315080013700746684606F040FF2146684626F0EFF81D
S315080013806846394926F000F935B3384601F08CFB32
S315080013904FF4C872C821401026F09DF801466846E9
S315080013A026F0E1F8204619F0F8FD2A1A4142684667
S315080013B026F0DEF868462D4926F0D3F868462C490B
S315080013C026F0DCF86A460921204618F068FF01284D
S315080013D02AD1684606F02AFF36B3384601F074FB70
S315080013E04FF4C872C821401026F075F801466846C1
S315080013F026F0B9F8204619F0D5FD321A414268465A
S3150800140026F0B6F868461B4926F0ABF86846184930
S3150800141026F0B4F86A460921204618F040FF01284C
S3150800142002D1684606F002FF17B0F0BD114906F072
S3150800143043FF0E49204606F03FFF002209212046B9
S3150800144018F02DFF0128EFD132462946204619F01B
S31508001450B0FD0128E8D100220B21204617B0BDE8CF
S31508001460F04018F01CBF00BFFBAD01080DB0010825
S3150800147019750208F7AF010870B504460D46074905
S31508001480164606F019FF204619F087FD3346411B1C
S3150800149000222046BDE8704019F0C3BD0DB0010812
S315080014A070B504460D460749164606F005FF204660
S315080014B019F078FD3346421B00212046BDE87040EE
S315080014C019F0AFBDF7AF01082DE9F04F89B0804696
S315080014D008460291914603931AF078FF10210646B2
S315080014E018F005F8002800F00681304619F03FFD8F
S315080014F00190304619F04AFD8246002800F09E8089
S31508001500029B03F11407304619F0B5FC0446304631
S3150800151019F097FCB5697B682544ED1A336AF968B2
S31508001520D9F804201B1A5B1AD11A83463046CDE92E
S315080015300623AD1A059119F06AF9DDE90512002DA1
S31508001540079B0490C0F28580002979DB0025BAF153
S31508001550020F00F08980BAF1030F00F08A80BAF111
S31508001560010F03D1B5697B682544ED1A304619F099
S3150800157006FD824610B1029B03F11408304619F0A5
S3150800158046FC0746304619F090FC7469D8F80030D6
S315080015903C44E41AF369D9F80020D8F808101B1A55
S315080015A05B1AA41A8346A2EB03017ED4002974DBD6
S315080015B00024304619F028F9BAF1020F7FD0BAF1A3
S315080015C0030F00F08280BAF1010F04D17469D8F8CC
S315080015D000303C44E41A4949304606F06DFE484955
S315080015E0304606F069FE019BD807019B58BF24EADE
S315080015F0E4749907019B58BF04EAE4745A07019BEF
S3150800160058BF25EAE5751B07039BD9F8042058BF80
S3150800161005EAE575002B6CD0D9F800302344C9F8E3
S3150800162000302B46134421462A463046C9F8043072
S31508001630039B09B0BDE8F04FFFF78EBE474662E749
S31508001640002D83D0304619F0ADFCA842BFF67FAF17
S315080016507CE700297FF77AAF30469D1AFFF762FDCF
S31508001660C5427FF574AF71E7356AFB68A5EB0B05D4
S315080016707BE7049BB2691B1BA3EB0B0303EBD3733A
S315080016801444384604EB630426F035FB7D6800EB0A
S31508001690D07005EB6005651B68E7002C88D03046DE
S315080016A0FFF78CFDA04284DA82E7002980DD304608
S315080016B09C1AFFF7DBFDC4427FF57BAF78E7F46938
S315080016C0D8F80830A4EB0B0484E77369C01BA0EBB9
S315080016D00B0000EBD0701F4407EB6007404626F06E
S315080016E005FBD8F8004000EBD07004EB60043C1B07
S315080016F071E7039B96E709B0BDE8F08FF7AF0108DD
S315080017000DB00108F8B5044615461E4601F47F07D4
S315080017101AF0A2F8012828D08C2D10D8154B5B5D3D
S31508001720DA0716D477B96B1E012B0BD822684AB193
S31508001730012D0CBF9369D369CBB1336015E00E4B0D
S315080017401B6B0BB90020F8BD2B4413F88D3CDB0747
S31508001750F8D507B96468002CF4D033462A462046E3
S31508001760218D1AF079F80128F4D10120EBE71268E7
S31508001770DDE700BF7B430308181000202DE9F84F6A
S31508001780074625480D469046994626F0F8FF044632
S31508001790DFF884B00CB9BDE8F88F4C45FBD021467C
S315080017A0584626F0F3FF23688246BB421CD1A3683D
S315080017B0AB4202D0B5F5702F16D12379434502D036
S315080017C0B8F1FF0F10D100267B8DC3F305139E4297
S315080017D00CD30021204606F06FFD0F48214626F05F
S315080017E08BFF204607F0A2FD5446D3E7FA68F000BF
S315080017F002EBC603D97989070BD5B5F5702F04D046
S315080018005B68C3F317039D4203D12179105827F06B
S31508001810DEFA0136D8E700BF30100020142101484F
S3150800182026F002BF30100020014B83F824007047D1
S31508001830181000202DE9F3475E4B044693F8243030
S315080018400E461546002B00F0838019F09FF92846AE
S3150800185006F040FF00F0040A284606F03BFF00F0B9
S315080018600208284606F036FF00F00109284606F069
S3150800187031FF06F47F0600F01007BAF1000F53D0C7
S31508001880B6F5702F3FD056B30222002120461AF033
S31508001890E2F86FF04047B842019007D001220021D4
S315080018A020461AF0D8F8B842019007D100222F2115
S315080018B0204618F0F4FC204618F034FFFF2D3ED1E0
S315080018C0204618F0AFFC204619F060F9B6F5803FBF
S315080018D03ED0204602B0BDE8F0471AF029B8324695
S315080018E02F21204618F0DBFC204618F01BFFFF2DA1
S315080018F03BD120461AF06AFD98B9002FE0D0204661
S315080019001AF041FADCE700222F21204618F0C7FC1E
S31508001910204618F007FFFF2D204627D11AF056FD5E
S31508001920E8B118F0FFFE25E0B6F5702F13D0002EAB
S31508001930C4D1FF2DDDD00FB320461AF024FAB8F132
S31508001940000F28D1204619F021F9B9F1000F2CD142
S3150800195002B0BDE8F087FF2D0FD12046DEE7002F45
S31508001960AED020461AF00FFAA8E720461AF02EFD48
S315080019700028D6D1002FA1D0F3E747B9B8F1000F58
S3150800198009D1204602B0BDE8F04719F0FFB8204655
S315080019901AF0F9F9F2E7204618F044FC204619F047
S315080019A0F5F8B9F1000FD3D090E7BAF1000F8DD151
S315080019B0CEE700BF181000200021014A1AF048BAE5
S315080019C0FFFF0F002DE9F0410468274825682779AD
S315080019D026F0D2FE0146244E19B96A8DC2F30512C5
S315080019E03DE0A1420BD00A6823689A4207D18A686B
S315080019F0A3689A4203D10A7923799A4231D03046AC
S31508001A0026F0C0FE0146E7E7EB68CE0003EBC1030C
S31508001A10D879800722D55B68A068C3F31703834289
S31508001A201CD12146104826F067FE204607F07EFCAA
S31508001A30EC683946A05927F0CAF9EB6804EB0608A2
S31508001A40985927F067FA60B1D8F804202846A159B2
S31508001A5022F07F42BDE8F0411AF0FAB901318A4214
S31508001A60D2D8BDE8F08100BF3010002070B50D4B0C
S31508001A70064693F8243023B1002001F00BF80446FB
S31508001A8070B970BDD4F8B432304653F825101AF040
S31508001A90D5FA0135D4F8D032AB42F3D82046ECE774
S31508001AA00025F7E7181000202DE9F04399B01E46E7
S31508001AB090F82A30209D43F0080380F82A300285E2
S31508001AC0044691462A7A0F4619F0C5FF26850090E6
S31508001AD0394620462A7A19F0BEFF94F82A308046FD
S31508001AE06FF3C30384F82A30009B0190834205D123
S31508001AF0014626F008FA002840F08380A4F82890CA
S31508001B002A7A3946204619F0A6FF394600902685D6
S31508001B10204619F02AFF009A297A006827F092F9D8
S31508001B2020462A7A6968FFF785FE2B7A0C2B20D186
S31508001B3047F6FF73DDF80090994501D0984518D10E
S31508001B40204618F061FE00EBD0704610204618F0CB
S31508001B505EFE47F6FF7200EBD07391454FEA6303CA
S31508001B6013D19E420BDA731CC845009301D1731C2E
S31508001B700193254826F060FD064658B9FEE75A1C2B
S31508001B80C8450092F5D10133F2E79045F1D19E425E
S31508001B90EDDBF8E7009B0460C360019B03612B7AC9
S31508001BA08760037102A806F027FB314602A825F0D4
S31508001BB0D6FC164902A825F0D4FC154902A825F03A
S31508001BC0DFFC144902A825F0DDFCFF22002102A84B
S31508001BD025F0CEFC298802A825F0C5FC698802A84C
S31508001BE025F0C3FCE96802A825F0C8FC002102A874
S31508001BF025F0D4FC02A8296925F0D7FC02A806F02E
S31508001C0015FB19B0BDE8F08330100020191C000838
S31508001C10F3C10108C5190008F7B50023066804468C
S31508001C20708DC0F3051098423ED9F268DD0002EBCC
S31508001C30C302D779BF0705D55268A768C2F317024A
S31508001C40BA4201D00133EEE7002300932379612BD2
S31508001C5053D04CD8392B29D81B2B3DD901221C3BF4
S31508001C60DBB202FA03F33C4A1A4052BB13F0407F38
S31508001C7032D0FE293FDCE368009300230193F36822
S31508001C802179585901AA27F023F9002854D10127A8
S31508001C90F368009A2179585927F0D4F827B12279A0
S31508001CA0A1682068FFF7C6FD03B0F0BD582B11D810
S31508001CB03C2B11D9294A3D3BDBB222FA03F3DB0759
S31508001CC00AD5002924DCE368ADF800301B0C8DF832
S31508001CD00230D2E75A2BCCD00029CCD0FF290AD023
S31508001CE0D4E903239B1A4B4302EB23220AE0662B13
S31508001CF0BFD0672BEFE72369BEE7D4E90323002AA1
S31508001D00BAD00BB90092B8E77F29D8BF1346B3E714
S31508001D10FE2901DD2369D7E7CAB2D4E9031026F004
S31508001D20E8F9C0F307238DF80000C0F307408DF8E3
S31508001D3001308DF80200A0E7DDE900739F42A6D1C5
S31508001D403946384626F0DFF80028A0D0019BFF1A4E
S31508001D5018BF01279CE700BF810020200101000869
S31508001D6010B54368044613B11AF028FB04460B481D
S31508001D7026F002FD88B10023D0F8D02206E0D0F87C
S31508001D80B41251F82310A14207D001339A42F6D172
S31508001D900146024826F0F6FCECE710BD1C100020B0
S31508001DA0F8B590F82B30044613F010020DD143F025
S31508001DB01003262180F82B3018F071FA30B994F800
S31508001DC02B3060F3041384F82B30F8BDA06810B1EB
S31508001DD0083026F075FA002120461AF0FAFA064667
S31508001DE0A8BB204617F091FB0746304604F070FA68
S31508001DF0054680BB3D4D2146284606F0ADFA01282A
S31508001E00F9D0204617F0D0FD65682046002D53D13D
S31508001E10FFF7A6FF2B460646D0F8D012D0F8B40234
S31508001E208B4203D050F8232094423ED100EB830224
S31508001E3001398B423BD3C6F8D012890007F080FAE5
S31508001E40C6F8B4022046BDE8F84007F06FBA304637
S31508001E50FFF7A6FFBFE7284624F02AFE00F0FD0399
S31508001E60012B14D1AB6E9C4205D0EB6E9C4202D07E
S31508001E702B6F9C4203D1214628461AF090FA6B6FC5
S31508001E809C42AB6F08BF6E679C4208BFAE67D5F829
S31508001E90A8309F4207D104F02BFA844203D1214689
S31508001EA028461AF07CFA2846A0E70133B8E75568B1
S31508001EB0013342F8045BBCE71AF0D6FA83B26268CB
S31508001EC09568298D286801398B4206DB89B22985F0
S31508001ED0890007F035FA2860B4E7013350F8232063
S31508001EE000EB830040F8042C9BB2E8E7F9C401082C
S31508001EF02DE9F04FB3B00C4680460121204617F075
S31508001F00F6FA8146002865D101466022204619F076
S31508001F10A2FDC3B2012B179003935BD9204618F094
S31508001F20A2F9074630B92146404633B0BDE8F04F1E
S31508001F301AF0FBBB204618F071F906460BAD294688
S31508001F40204618F01FFC32463146284625F06DFB20
S31508001F50022F42D195E80F0013AE86E80F004A46D5
S31508001F60314620460DF13C0918F024FD3246484614
S31508001F7008F1180125F073FB60B399E80F0017AE56
S31508001F8086E80F003A463146204618F013FD2A46E1
S31508001F903146304625F063FBE0B196E80F0007AFFF
S31508001FA087E80F0005223846114625F03EFB3846DD
S31508001FB025F0A1FE0190384625F09DFE0290079B6C
S31508001FC01393099B1593089B149316930A9A169BC9
S31508001FD09A422CDC33B0BDE8F08F012FFAD117AF47
S31508001FE02A46384608F1180125F039FB0028F1D0B1
S31508001FF097E80F0007AE86E80F00304625F07BFE0F
S31508002000304625F078FE304625F070FE864B0646AB
S315080020101B6993F83B0025F068FF4FF4C04393FB18
S31508002020F6F393FBF0F29B0801920293C7E7149B21
S315080020300199013B04F1140B0DF14C0A0B4450466F
S3150800204059469342D4BF1693169225F0AFFB002843
S3150800205040F0D1801021149B029A013B13440A9A3E
S315080020609A42D4BF16921693524640461AF070FE0C
S31508002070214681461AF059FB6F220021204619F0A5
S31508002080EAFC70220021179004900746204619F0B2
S31508002090E2FC049B024603F0C041B1F1005F06462C
S315080020A017901AD16FF0604123F0C0438B4214D0C9
S315080020B0B3F1805FA2BFC3F17F6303F57F2303F605
S315080020C0FF73CDE90430584625F010FE049B059AA7
S315080020D003FB00F7642397FBF3F702F0C043B3F161
S315080020E0005F18D122F0C0436FF06042934212D0CD
S315080020F0B3F1805FA2BFC3F17F6303F57F2303F6C5
S31508002100FF735846049325F0F6FD049B03FB00F67F
S31508002110642396FBF3F617A801F08CFD63696E221B
S315080021201F44D9F804300021FF1AA36920461E442B
S31508002130D9F808302797F61A039B28968DF8A83001
S3150800214019F089FC002203460F90B3F5616F63DC32
S31508002150002A08BF034600222293002B60DB02B147
S3150800216022936C220021204619F075FC6D2200216D
S315080021700F902390204619F06EFC712200210F90D3
S315080021802490204619F067FC722200210F902590B2
S31508002190204619F060FC672200210F902690204601
S315080021A019F059FC204B0F901B6900F00F0093F8AB
S315080021B03A307322C3F3000340EA03109DF8A930AE
S315080021C0002123F01F0318438DF8A900204619F0B3
S315080021D042FC2CAE31900F9095E80F0086E80F0070
S315080021E05246404617A9CDF878901BF055F8169B2D
S315080021F001331493EAE600231721204617AA8DF81F
S315080022005C30CDF860A018F04AF89DF85C30002BD9
S315080022107FF420AF122127E70122A3F5616394E733
S31508002220012203F5616398E7181000202DE9F843A9
S3150800223006460D4629B91F4B186900F085FC054668
S3150800224040B130462946FFF753FE28461AF0BEF835
S31508002250044608B9BDE8F88320461AF0EDF80027C9
S315080022608046B946474513D132461C21204618F008
S3150800227016F832461D21204618F011F832461E215E
S31508002280204618F00CF820461AF0A0F82546DFE795
S31508002290A3681B6853F82710B9F1000F06D16B1A0B
S315080022A0D3F1000949EB03090137DBE73046FFF7AD
S315080022B01FFEF9E7181000202DE9FF41754D00F1C2
S315080022C018082F69064698E80F0007F5407484E851
S315080022D00F0038461AF0DAFC10B928691AF0B7F96F
S315080022E02B6993F83B0025F0C7FDA0B16C462F6912
S315080022F007F540730FCB84E80F0097F8393033B9E8
S31508002300D7E9C01220465242494225F09BF9214698
S3150800231030681AF064FE286900F016FC014640464B
S315080023201AF0AFF92B690746D3F8C842A4B90028B2
S3150800233035D1286900F030FC01463046FFF776FFB4
S315080023402B6993F8D422D0072FD4D3F8C842A4B95E
S315080023502B69D3F8C07226E0214640461AF091F957
S315080023602B69044687B90028E3D093F8D422D1070D
S315080023701CD4D3F8C832002BEAD021463046FFF7E2
S3150800238055FF002FE4D00EE093F8D422D2070FD4DD
S31508002390D3F8C8323BB1002808BF1C46EDE793F8CE
S315080023A0D432D80704D439460DE00024D3F8C072D5
S315080023B039463046FFF73AFF2B69D3F8C81229B1D8
S315080023C0002C18BF21463046FFF730FF286900F079
S315080023D0CFFB01463046FFF729FF286900F0D2FBFC
S315080023E001463046FFF722FF2C69D4F8A862B36B82
S315080023F0002B47D120461AF049FC10B128691AF07B
S3150800240026F901232363A26BD10740D5A26B920755
S315080024103DD56363A36A656B13B3336821691E6987
S31508002420D4F8003362690B440093D4F80433204689
S3150800243013440193D4F808330B440293D4F80C33AD
S315080024403A2113446A4603931AF02BFC324669462E
S315080024502046A36A98476A463B2120461AF021FC83
S3150800246020461AF013FC50B194F83930012B00D1EC
S315080024702DB1E369626A9A4208BF236A636204B0AF
S31508002480BDE8F08100F04CFF00F0EAFEAFE700235C
S31508002490BFE700BF18100020014B1869704700BF3E
S315080024A0181000202DE9F04F9DB0002842D0C068D2
S315080024B0C14C2061002800F0E282436A002B00F03C
S315080024C0DE821A69002A00F0DA82DB68002B00F047
S315080024D0D682002236211AF0E4FB2369D3F8C0021B
S315080024E0FEF7F2FB2369D3F8C80208B1FEF7ECFB46
S315080024F02369D3F8C402FEF7E7FB2369D3F8BC02C5
S31508002500FEF7E2FB2369D3F8B802FEF7DDFB236981
S31508002510D3F8C022002A40F0FD80C3F85C2203F0FD
S3150800252015FA00223721A44B18691DB0BDE8F04FF3
S315080025301AF0B7BB00F0A8FABAE7304490F83C5254
S31508002540002D00F0A48001362069D0F85C329E4246
S31508002550F3D390F83930012B42D11AF097FB0028B3
S315080025603ED0206900F5197026F046F9002837D1C3
S3150800257020691AF06CF820694FF00009D0F81C8021
S31508002580D0F824B0C34508BFD0F8208000F08CFAF4
S315080025900390206900F098FA4022049000210CA8C4
S315080025A02DF0D5FB23691FFA89F6D3F85C2203F5CB
S315080025B01970B24200F2B2800023CDE90833039BBA
S315080025C0013B0A93049B013B0B9326F0D5F805467D
S315080025D0002840F0DE80206900F5197026F018F909
S315080025E02069D0F85C3283B3013B039300F50F737F
S315080025F0039A002A80F2E280002303930027002230
S3150800260038211AF04EFB2369DFF8AC9193F838208D
S315080026106FF3000283F8382093F838206FF34102ED
S3150800262083F8382093F83A2042F0020283F83A20D9
S31508002630D9F81060D6F85C329F42C0F2C88096F886
S315080026403A306FF3410386F83A305B4C2069D0F88C
S315080026505C32002B3FF463AF002239211AF021FBCC
S3150800266020691AF013FB002840F0EA8120694FF42C
S31508002670007200213C3027F0E7FB20692022002168
S3150800268000F50F7027F0E0FB0022236945E74FEAC3
S31508002690061A0AF13C092069D0F85C329D42BFF45B
S315080026A052AF431993F83C32002B31D1AE422FD0AA
S315080026B04FEA051B0BF13C0B00EB0B01484425F0D8
S315080026C075F828B321690CA801EB0B02494424F0DC
S315080026D0E8FF0CA824F09FFF03902069484424F0E3
S315080026E09AFF07462069584424F095FF039B074440
S315080026F0BB420DD223690C9903EB0A02D1630D99EB
S315080027002B4411640E9951640F99916483F83C82A5
S315080027100135C0E700264FF0010815E7334493F862
S315080027203C3213B109F101093CE726F025F80546C4
S31508002730360106F13C030593206900F51970002D52
S31508002740F0D0294626F01EF8059B226982461A44CF
S3150800275029460CA825F07BF8431C064617D0002707
S3150800276009E025F084FF84460CAB03EB07130FCB77
S315080027708CE80F00013720697BB29E42294600F596
S315080027801970EEDC25F0B8FF284606F0CFFD554651
S31508002790D2E7294608AA284624F061FF2946584662
S315080027A02B4642461AF064FC2069294600F5197042
S315080027B025F0E8FF0BE700BF18100020039A9A5C83
S315080027C0002A3FF41BAF039A013A039210E7F31964
S315080027D093F83C32002B54D1039BD6F8A8529F425B
S315080027E002BF96F8383043F0010386F8383096F879
S315080027F038306FF3410386F83830736A2B6096F8E1
S315080028003930002B5DD000233046C5E9013300F08E
S315080028104BF90138E860206900F056F9013828615B
S31508002820206900F041F98246206900F04DF900223E
S3150800283001380DF13008114600900AF1FF33404681
S3150800284024F0D9FE236993F83920022A1BD193F87C
S315080028503820284642F0020283F838202B6805F112
S315080028601806198919F046FF98E80F0086E80F0040
S3150800287005F1280698E80F0086E80F002846FFF7B6
S315080028801BFD0137D4E6012AFBD1996B93F8382052
S31508002890284661F3410283F838202B6806EB0716B1
S315080028A0198919F027FF3C3605F1180C96E80F0030
S315080028B08CE80F0005F1280C96E80F008CE80F004D
S315080028C0DCE73B0103F13C08B0444046079325F09A
S315080028D00DFA8246404625F00EFA3B01F318834668
S315080028E0D9F81000D3F84880049300F0EDF8804535
S315080028F03FDBD9F8100000F0E7F800F1FF38D9F807
S315080029001030504693F83B10CDE9051300F0AAFFA6
S315080029100599069B072930D00839C9B202292ED84D
S31508002920584A32F811205B6ADB68A3EB020ABAFB45
S31508002930F0FADA45A8BFDA460023D346CDE90D33C7
S315080029400C933221CDF814B00CAAD9F810000BF16B
S31508002950FF3BCDF83CB01AF0A4F90CA825F0CBF94A
S315080029608245059B0DDABBF1000FEADC4FF0000B40
S315080029700CE0049BD3F84880C1E70822D3E700227D
S31508002980D1E7002BF2DD0F9B03F1010B002106EBCB
S31508002990071306931B6C0BEB030202F1FF3AC245C1
S315080029A00592D9F8102023DD88453FF46AAF0799C8
S315080029B0526A3144C86B0499496CC5E90020C5E9D7
S315080029C00231C5E90603C5E90A03C5E90818C5E9D8
S315080029D00C1828460021C5F8108019F08BFED9F886
S315080029E0102092F8383043F0020382F8383045E771
S315080029F00699526AC86B0499496CC5E90603C5E984
S31508002A000231C5E90A03C5E90020C5E9081A2846BE
S31508002A10C5E90C1AC5F810A0002119F06BFEC245CD
S31508002A2008BFD9F81020284602BF92F8383043F07C
S31508002A30020382F83830FFF73FFC5146059BAAE7A8
S31508002A40236993F83930012B7FF410AE002510E086
S31508002A50431993F83C325BB900F5197025F030FE3E
S31508002A600646236903EB05133C330FCB86E80F00B4
S31508002A7001352069D0F85C32AB42E9D8F6E51DB0DD
S31508002A80BDE8F08F400A0308014B5869704700BF3C
S31508002A90181000200146034809B925F06DBE25F037
S31508002AA071BE00BF1C10002010B9064B586940B112
S31508002AB090F8F03203F00503012B01D14068704706
S31508002AC0006870471810002010B9064B586940B1C5
S31508002AD090F8F03203F00503012B01D10068704726
S31508002AE0406870471810002010B9034B586908B1A0
S31508002AF080697047822070471810002010B9034B70
S31508002B00586910B1C0E907124162704718100020D1
S31508002B1010B9034B586908B180F83910704700BFDF
S31508002B201810002010B9024B586900B1816270472D
S31508002B301810002010B9034B586908B190F83B00EB
S31508002B40704700BF1810002010B9034B586908B128
S31508002B50D0F8C002704700BF1810002010B9034B08
S31508002B60586908B1D0F8C802704700BF181000208D
S31508002B7010B9034B586908B1D0F8BC02704700BFBA
S31508002B801810002010B9034B586908B1D0F8B802DC
S31508002B90704700BF1810002010B9034B586908B1D8
S31508002BA0D0F8C402704700BF181000202DE9F04F76
S31508002BB0AFB006468B46914698469DF8E0A0FFF7CB
S31508002BC0CFF8D0F8C0520446AE4200F0D080D0F814
S31508002BD0CC02B04200F0CB80C8B1A84217D0002181
S31508002BE005F06AFB0022D4F8CC02114617F056FD10
S31508002BF000225F21D4F8CC0219F0D1FAD4F8C032F9
S31508002C00D4F8CC52C4F8C832284619F0AFFFD4F825
S31508002C10C802C4F8CC6228B194F8D4329B0701D50F
S31508002C2019F037FCABF10A02042A8CBF00220122F4
S31508002C30002794F8D432394662F300036AF3410355
S31508002C4084F8D4323046C4F8C87205F035FB49EA30
S31508002C50080301938DB92A462946304617F01EFD0A
S31508002C602A465F21304619F09AFA019B5BBB30462B
S31508002C702FB0BDE8F04F19F079BF3946284605F060
S31508002C801BFB3A463946304617F008FD3A463946A0
S31508002C90284617F003FD3A465F21304619F07FFAB9
S31508002CA03A465F21284619F07AFA019B5BB9304605
S31508002CB019F05CFFBAF1000F59D028462FB0BDE8CD
S31508002CC0F04F19F0E6BB02A805F096FA314602A8BD
S31508002CD024F045FC02A8664924F052FC02A865497E
S31508002CE024F050FC494602A824F03DFC414602A8BF
S31508002CF024F03BFC18A805F07FFA294618A824F00A
S31508002D002EFC494618A824F02EFC414618A824F0A3
S31508002D102CFCBBF10E0F1CD8DFE80BF0080F2C3685
S31508002D203E465C7185999F52687D9100524902A87A
S31508002D3024F017FC0022002108E002A84E4924F0DE
S31508002D4010FC2046FFF7B0FE0146002202A824F038
S31508002D500FFC002D00F0898000222A21284617F052
S31508002D609EFA02A805F062FA18A805F05FFA2FB0D5
S31508002D70BDE8F08F02A8404924F0F3FB2046FFF790
S31508002D8093FE00224142E1E702A83C4924F0E9FB10
S31508002D902046FFF799FED7E702A8384924F0E1FB59
S31508002DA02046FFF791FEECE7334902A824F0D9FB49
S31508002DB02046FFF779FE0022014602A824F0D8FB38
S31508002DC018A82D4924F0CDFB2046FFF76DFE424298
S31508002DD0002148E0284902A824F0C3FB2046FFF753
S31508002DE063FE0022414202A824F0C2FB18A8224929
S31508002DF024F0B7FB2046FFF757FE0246E8E71F49CF
S31508002E0002A824F0AEFB2046FFF75EFE002201462C
S31508002E1002A824F0ADFB18A8184924F0A2FB204606
S31508002E20FFF752FED3E7154902A824F09AFB20467D
S31508002E30FFF74AFE0022414202A824F099FB18A88F
S31508002E400E4924F08EFB2046FFF73EFED5E70C49D7
S31508002E5002A824F086FBFF226DE7094918A824F08A
S31508002E6080FB0022FF2118A871E702A87DE700BFB2
S31508002E70D7CA0108FDCA010869CB010865CB010854
S31508002E805DCB0108F0B585B0064666480D4625F0C7
S31508002E90D3FB044600B9FEE700214FF4647226F01E
S31508002EA0D3FF4FF0FF33C4E902330023C4E90433E8
S31508002EB08223A361638F4C2003F0FE0343F49053EF
S31508002EC043F00103C4E90065638706F01DFA01466D
S31508002ED0C4F8A80200B9FEE7D4F8AC320BB1204614
S31508002EE098470022D4F8A832013EC3E90122013DE1
S31508002EF0DE601D6194F83B204B4E1A750123C4F819
S31508002F00603208F08BFD1021C4F8FC0204F5197034
S31508002F1025F08AFB2246212144487569746105F02B
S31508002F2005FDC4F8F80200B9FEE707F047F90746B9
S31508002F30002874D1052005F0F9FAC0F30723C0F379
S31508002F4007428DF8080038468DF809308DF80A20B2
S31508002F5005F0ECFAC0F30723C0F307428DF80D30ED
S31508002F60334B8DF80C008DF80E2000932046DDE9D2
S31508002F7002123B4607F02CF9C4F8F4020020FDF7CC
S31508002F80E1F9C4F8C4020020FDF7DCF9C4F8C00270
S31508002F900020FDF7D7F9C4F8BC020020FDF7D2F9E6
S31508002FA0002D08BF2546C4F8B802D4F8C402FEF7B7
S31508002FB003FDD4F8BC02FEF7FFFCD4F8B802FEF70E
S31508002FC0FBFCD4F8BC02022116F030FAD4F8B80299
S31508002FD0022116F02BFAD4F8C402002117F07FFF5D
S31508002FE0D4F8BC02002117F07AFF0021D4F8B80201
S31508002FF017F075FFD4F8C00217F0C8FD0023352274
S315080030000C492046756119F046FED4F8F80226F0F8
S3150800301015FB204605F050FE204605B0F0BD08F029
S31508003020E7FCA9E71C10002018100020A5240008BA
S315080030309C0A0308B3CA010810B9094B586970B14C
S31508003040D0F8A83280F83B101975C36903B15970D6
S31508003050036A03B159700022342119F022BE704761
S315080030601810002010B5044610B9114B5C69F4B16C
S31508003070D4F8D032C4F8F412042B18D1D4F8B432E8
S31508003080186819F0D9F990B9D4F8B432586819F013
S31508003090D3F960B9D4F8B432986819F0CDF930B9D3
S315080030A0D4F8B432BDE81040186827F034BA10BD19
S315080030B01810002008B9024B5869D0F8F402704776
S315080030C01810002010B9074B586948B100290CBFE1
S315080030D04FF0FF320122D0F860321344C0F8603254
S315080030E0704700BF1810002010B9054B586928B161
S315080030F0D0F860020028D4BF00200120704700BF26
S315080031001810002010B9034B586908B1D0F8F80216
S31508003110704700BF1810002008B506F0F5F8064BF2
S31508003120D3F82821D3F8241101320160C3F8240109
S31508003130C3F8282108BD00BF181000202DE9F84360
S315080031404FF0000807460D468C6BF4B9EB6B002B65
S3150800315074D095F84420002A70D0AA6B002A6DD145
S315080031609B6B73B11A79062A66D19A6C002A63D1C9
S31508003170DA6CD269AA425FD101229A64374BC3F846
S31508003180302100263046BDE8F883A36CD4F80090B9
S31508003190032B49D1B8F1000F49D0C8F8009023791C
S315080031A0062B2CD1E36CDE693368B3B1301D24F0ED
S315080031B0A2FD31680B894343B3F5806F38BF0123FD
S315080031C0264828BF9B0AD0F82C21D21AC0F82C21F1
S315080031D0084619F0F0FE0023336087B1D7F8A83205
S315080031E023B11A6CB24225D1326C1A64D7F8B032C0
S315080031F013B1314638469847304606F097F82046C8
S315080032001AF069F9064640B190F84C305B0604D5C9
S31508003210C06906F08BF80023F361E06C06F086F8C7
S31508003220204606F083F84446A0464C468DE7C5F886
S315080032303890B4E71346D3E71B6892E70026074B96
S31508003240D3F82441002C9DD02046E36829469847A8
S31508003250013018BF01262468F4E700BF18100020C3
S315080032602DE9F0410020FFF715FC002604464FF033
S3150800327001080C4F0CB9BDE8F081D4F8A8523DB945
S315080032800EB9C7F830812046FFF704FC0446F1E77B
S3150800329029462046FFF752FF2D6C002818BF064620
S315080032A0EDE700BF18100020F8B51C4DCE6C95F858
S315080032B038710C46306117BB306870B14FF4002185
S315080032C016F015F948B1012322461F21306885F802
S315080032D0383116F0E4FF85F838714FF4C843A4F87E
S315080032E05030D5F824511DB9BDE8F840FFF7B8BFEE
S315080032F02B6913B12146284698472D68F3E74FF402
S31508003300C843A1F85030D5F8245105B9F8BD2B6942
S3150800331013B12146284698472D68F6E7181000206D
S31508003320044BD3F8302102B9FEE70022C3F8302156
S31508003330704700BF181000200122024BC3F8302145
S31508003340704700BF181000202DE9FF412E4B064696
S31508003350D3F828310D46012B1746846B14D803225F
S315080033606CB1A36C012B07D194F8503023B1BB4242
S3150800337002D0A2642468F3E7A36C012B00D00024D2
S31508003380204604B0BDE8F081F4B9002D38D1B56BFC
S31508003390002DF4D0AB6C012B32D195F850300BB11F
S315080033A0BB422DD1B46B05F118085CB3A542E7D032
S315080033B0A36C032B06D04246684604F1180124F094
S315080033C04EF9E8B92468F0E7FFF766F8FFF76CFBF3
S315080033D00446FFF761F8FFF777FBB36B9A6C012A8F
S315080033E0D3D09A68002AD0DC1A69013CA242CCDB09
S315080033F0DA68002AC9DC5B6901388342C5DBBEE7A7
S315080034002D68C5E72C46BBE7181000202DE9F041CA
S31508003410D0F800800446B8F1000F03D0D8F81000A1
S31508003420BDE8F081051D284624F060FC06462846BE
S3150800343024F061FC217D0746304600F013FA434626
S31508003440394607FB00F5227D304600F071FA206008
S315080034500028E5D0B5F5806F38BF0125094A28BF91
S31508003460AD0AD2F82C312B44C2F82C31207D24F039
S3150800347003FD18B10021206819F0B1FD2368186909
S31508003480CEE700BF181000202DE9F04F85B098460A
S31508003490DDE90E43164608F5B472A24281468A460D
S315080034A09DF84070119D0AD1A9EB06032B60AAEB83
S315080034B006036B6006EB0903AB60564469E1B8F591
S315080034C0B47FC8BFA8F5B478B4F5B47FC8BFA4F56F
S315080034D0B474A6EB030B1FB103EBD3735B105F1C2D
S315080034E05A2398FBF3F294FBF3F3D2B2042ADBB225
S315080034F029D1042B5FD1A045D6DC08F15A0000B2C9
S3150800350004F0D2FF0BFB00F009EBE030C01B28608B
S315080035100FFA88F004F0C8FF70430AEBE030C01BCE
S31508003520686004F15A0000B204F0BEFF704309EB6C
S31508003530E0303844A86020B204F0B6FF0BFB00F078
S315080035400AEBE03034E0042B67D1032AD3D0022AF1
S31508003550AAD108F15A0000B204F0A6FF704309EB9D
S31508003560E030C01BAAEB0603DB1B286004F15A00F7
S315080035706B6000B204F098FF704309EBE030384402
S3150800358024B2A860204604F08FFF0FFA88F80BFBD8
S3150800359000F6404604F088FF0BFB00F08642CCBFDD
S315080035A02046404604F080FF0BFB00F0C013504451
S315080035B03844E8606BE0032B9DD0002B7FF474AF92
S315080035C004F15A0212B21046039204F06DFF08F194
S315080035D05A031BB202901846019304F065FF02993C
S315080035E0019B8142B6BF039A1846104604F05CFF59
S315080035F00BFB00F009EBE030C01B28600FFA88F0DF
S3150800360004F052FF7043B1440AEBE030C01B09EBEB
S3150800361007036860AB6020B2EBE09A4240F0868010
S31508003620A04500F38380032A31D801A353F822F07A
S315080036304136000895360008DD360008FB340008D8
S315080036400FFA88F004F030FF0BFB00F00AEBE030CD
S31508003650C01B686008F15A0000B204F025FF7043E9
S3150800366009EBE0303844A86020B204F01DFF70432F
S315080036700AEBE0303844E86004F15A0000B204F07E
S3150800368013FF0BFB00F009EBE030C01B286005B008
S31508003690BDE8F08F0FFA88F004F006FF70430AEBD6
S315080036A0E0303844E86008F15A0000B204F0FCFE45
S315080036B00BFB00F009EBE0303844A86020B204F0B8
S315080036C0F3FE0BFB00F00AEBE030C01B686004F168
S315080036D05A0000B204F0E8FE7043D4E708F15A0035
S315080036E000B204F0E1FE704309EBE030C01B28602D
S315080036F00FFA88F004F0D8FE0BFB00F00AEBE03076
S315080037003844E86020B204F0CFFE70430AEBE0309C
S31508003710C01B686004F15A0000B204F0C5FE0BFB3A
S3150800372000F009EBE0303844A860B0E79ABB012BFB
S315080037307FF4BAAE04F15A0000B204F0B5FE704345
S3150800374009EBE030C01B24B22860204604F0ACFE2A
S315080037500FFA88F302901846019304F0A5FE029A20
S31508003760019B8242B4BF2046184604F09DFE0BFB1F
S3150800377000F00AEBE030C01B686008F15A0000B29E
S3150800378004F092FE704309EBE03038445644A860D2
S315080037903E44EE607BE7012A2FD1022B7FF484AEEC
S315080037A0A9EB0603DB1B2B6020B204F07DFE7043F9
S315080037B008F15A030AEBE0301BB2C01B68601846D2
S315080037C0029304F071FE5A3424B20190204604F0A4
S315080037D06BFE019A8242CABF029B2046184604F035
S315080037E063FE0BFB00F009EBE0303844A8600FFAE3
S315080037F088F004F059FE7043A2E6022A01D1032B91
S31508003800A6E6032A7FF450AED7E600BF10B50446F5
S315080038101822002126F018FB054B2360054B636030
S31508003820054BA3600023C4E90333044B636110BD51
S3150800383061CE01085DCE010841CE01084BCE0108D4
S3150800384010B5074C2046FFF7E1FF04F11800FFF713
S31508003850DDFF04F13000BDE81040FFF7D7BF00BF19
S31508003860E01000200A460146014819F0FCBA00BFDC
S31508003870E010002038B50D4614461BB91146FFF76F
S31508003880F1FF0346142C05FB03F003D15B0805FB87
S31508003890030038BD073CE4B2032CFAD80EBF4FF438
S315080038A08063024B1B5D1844F3E700BF500A030808
S315080038B00A460146014819F0DEBA00BFE0100020AA
S315080038C02DE9F0478A46DDE9085791461E46044623
S315080038D0DDF8288000B9FEE71C22002126F0B4FA9C
S315080038E025B931465046FFF7BDFF054605FB09F3E6
S315080038F0984518D366702368314603F47F4343F02E
S3150800390019032360094B3846C4E90477A4F804A0D0
S31508003910A4F806902581A361C4F80C80FFF7C8FFB8
S315080039200120BDE8F0870020FBE700BFE01000207B
S3150800393007B5009313460A460146034819F0BEFA2E
S3150800394003B05DF804FB00BFE010002070B50E461A
S31508003950034600B9FEE704694078072813D0A0F1AA
S315080039600801C9B2022910D8094D35F811501B892A
S3150800397002FB03552C4426B104F01CFD704304EBEE
S31508003980D004204670BD0825F1E70025EFE700BF03
S315080039904A0A03082DE9F0470D46044600B9FEE732
S315080039A0036903B9FEE7438886889B06B0F8068054
S315080039B002D40020BDE8F08721B941783046FFF7E8
S315080039C051FF05462389AB422DD0607804F0F2FCFE
S315080039D070430730B5EBD00F4FEAD009E9D32B4631
S315080039E0414630466278FFF745FFE3688342E0D3F5
S315080039F06378072B19D0083BDBB2022B17D81A4A73
S31508003A0032F8133027892669AF421DD24FF0000AD3
S31508003A1008F1FF3202FB073705FB023337441E4421
S31508003A20C24506D325810120C4E70823EAE7002317
S31508003A30E8E7394630464A4626F032FA2389761BA5
S31508003A40FF1A0AF1010AEBE71E44B246002747456A
S31508003A50E8D2314650464A4626F022FA2389AA4435
S31508003A601E440137F3E700BF4A0A03082DE9F74F5A
S31508003A70044600B9FEE7408810F0010571D110F040
S31508003A80200014D06378DA1FD2B2032A17D80CBFE5
S31508003A904FF48073344B256918BF9B5605EB830694
S31508003AA0AE4207D10120638843F00103638003B067
S31508003AB0BDE8F08F284624F07CFA0435F0E7102B91
S31508003AC014D1B4F80680B4F80490B4F808A02769AD
S31508003AD04545E7D2002602E024F06BFA01364E454A
S31508003AE007EB8600F8D357440135F1E7142B1DD1AF
S31508003AF0B4F80890B4F806A02769B4F804B009FB2E
S31508003B000A784FEA59035545CCD2002606E018F83C
S31508003B100610019324F064FA019B01365E4507EB13
S31508003B204600F4D34F4498440135ECE7132BB9D13A
S31508003B30B4F80690B4F804A0B4F808B027694D455F
S31508003B40B0D23E464FF0000806E03046B17824F081
S31508003B5047FA033608F10108D045F6D35F44013524
S31508003B60EDE70020A3E700BF460A03082DE9F04F5A
S31508003B7097B015461C468B6C8246ADF80C301B0C6C
S31508003B808DF80E30136B526B0493BDF814308846CB
S31508003B9062F30803ADF81430EB6ADDF8809083B160
S31508003BA01CB12268224B9A420BD1219B2A46CDE9A9
S31508003BB0009341465046229C03ABA04717B0BDE888
S31508003BC0F08F219B06AE0FCB86E80F00D9E90012CD
S31508003BD030465242494223F035FD04B90AAC144B2B
S31508003BE00EAEC4E90033C4E902330DF1480B224690
S31508003BF006A9284619F0C8FF074694E80F0086E884
S31508003C000F00D9E90012304623F01CFD012FD5D14B
S31508003C1032465846219923F022FD0028E7D02A4645
S31508003C2041465046CDE9006B229F03ABB847DEE715
S31508003C30010000E010B56C220021044626F004F9C4
S31508003C4024F09DF9C0F3072384F849304FF48073B4
S31508003C50C4E90C33B4F84C3084F8480043F487536D
S31508003C6043F01F03A4F84C30044BC0F30740E36548
S31508003C706C2384F84A00636110BD00BF010000E0B0
S31508003C802DE9F04FA9B00E461546069005939BB34D
S31508003C900022C96915A800F04BFC01282CD106F1B1
S31508003CA0540A5046B78CB6F8269024F01FF809AC8B
S31508003CB00028ACBF9AE80F0095E80F0084E80F00CB
S31508003CC03946204623F09DFC4946204623F09EFCB3
S31508003CD0DDF824A01D4B0DF134080FCB88E80F0042
S31508003CE007EB0A030DF1440B0793EB680A9A9A420D
S31508003CF01BDD15A819F056FF29B0BDE8F08F2A4636
S31508003D002146584623F0ABFC48B1059B3146CDE920
S31508003D1001B306984346009415AAFFF727FF099BA7
S31508003D203B4409930B9B3B440B93AB68099A9A4215
S31508003D30E5DD0A9BCDF824A04B440A930C9B4B4423
S31508003D400C93079B013B0B93CFE700BF540A03086C
S31508003D5010B554220021044626F076F8FF2384F88D
S31508003D60483024F00CF9C0F3072384F82D30154B9E
S31508003D7084F82C0023624FF6FF73C0F30740C4E9AA
S31508003D80093384F82E0024F0FAF8C0F3072384F8E0
S31508003D902F00C0F3074084F8303084F8310005203E
S31508003DA004F0C4FBC0F3072384F83330002384F8F7
S31508003DB04930542384F83200C0F3074084F83400AD
S31508003DC0636110BD9C0A03082DE9F04FBBB090460D
S31508003DD081460C460D6A8268414615A80B9323F066
S31508003DE03EFC002800F0CB8094F84A30E16908933D
S31508003DF094F84B30D80700F1C580404623F076FF8B
S31508003E000990284622F03CFED8E90012A36B8246A8
S31508003E10C31813A80A9323F07DFF236C1499626CC8
S31508003E200F93236D1144149113B1002A00F0B88042
S31508003E30002304934FF0000B94F84B30E069049E7E
S31508003E400193CDF800B0099B2946E26B304404F093
S31508003E5059FC049BC718D9F80820149B5268534488
S31508003E609342C0F2B980089B022B40F0DA80E069E1
S31508003E700499049EE36B2A46791A304425F04AFBD6
S31508003E808246404623F032FF139BA0EB0A0000EB64
S31508003E90D07003EB60031393636A27A80593A36A9C
S31508003EA00693DDE90532934288BFCDE9052319F06B
S31508003EB018FB94F848302EA88DF8B33019AB2A931E
S31508003EC0E36AADF8B0301B0C8DF8B23019F0C5FBBB
S31508003ED094F848308DF8D83095F91630002B08BF7D
S31508003EE001230793E369049A9A180E92049A9B5C35
S31508003EF0002B40D0139B0F9AD3180C9313930023CF
S31508003F001093049BFB1A0D9310990D9B8B4200F29C
S31508003F109E8094F84B30E06901930023009329466C
S31508003F20099BE26B384404F0EDFBD8F800300146F3
S31508003F301393089B07EB000A022B40F0BA81E0694D
S31508003F40E36B2A46384425F0E5FA0646404623F050
S31508003F50CDFE139B801B00EBD07003EB600313931D
S31508003F60149B0A9A04971344D9F808201493D26824
S31508003F70934240F3B0812D98002840F0AE813BB0C3
S31508003F80BDE8F08F02936FF060430193A36B2EA8F0
S31508003F900093E36B226A25F0E9FA2E9B099330E732
S31508003FA0D8F804000028BFF643AF9A68121A0A9890
S31508003FB0002AB8BF5242C0F50070B2EB400FC4BF2A
S31508003FC04FF0FF321A601E68002EFFF631AF5B68AD
S31508003FD004960B4414932DE794F84B30E069CDE929
S31508003FE000B32946099BE26B384404F08BFB149B0B
S31508003FF00A9A38441344226D14935AB113F5806F04
S3150800400008DB11680029BFBFD8F8041017605B1ACF
S31508004010C2E90131E3690497DB5D002BAFD007469F
S3150800402019E7089B032B7FF437AFE0690499049ED0
S31508004030E36B2A46791A304425F06CFA82464046E4
S3150800404023F054FE139BA0EB0A00034423E74FF624
S31508004050FF72059B934200F0D980069B934200F0BD
S31508004060D580049A9E4BE0691B681144984783469D
S3150800407010AB0E9812AA11A925F03BFADDE9111228
S31508004080284622F0C8FC149B0A99139A5918013934
S31508004090824619921C91024410990D98013A814260
S315080040A01A931B924AD394F84C10C9071BD523922E
S315080040B0EA680C9913442A6921919B1A95F91520E7
S315080040C000219B1A079A22931344013BA28D24933D
S315080040D094F82E30ADF8D9208DF8DB3048460B9E83
S315080040E021AB2EAAB04794F84C309B0726D50C9BDB
S315080040F000212193139B48465344013B2393D5E95A
S3150800410003329B1A03225B0093FBF2F3149A0B9E6D
S31508004110134495F9162002EBD27203EB6203079A51
S3150800412022931344013BA28D249394F82E30ADF8C4
S31508004130D9208DF8DB302EAA21ABB0474FF6FF7297
S31508004140059B934265D0069B934262D0059B5B45CF
S315080041505FD8069B5B455CD994F83130B4F82F20BC
S315080041608DF8B230638EADF8B020ADF8D93094F83A
S31508004170343000218DF8DB3048460B9E19AB2EAA49
S31508004180B0471199084619F07CF9834600284FD1A3
S315080041900A46034621A9284622F0F4FBBDF88C20DE
S315080041A0002A45D0BDF88A30002B41D01398BDF9B6
S315080041B08E1001440B44013B1D911F93D5E9033131
S315080041C05B1A14991DA80B44BDF990109B1A5B1A2B
S315080041D01A44013A2092D9F808105A461E9323F039
S315080041E0A9FBE8B9219868BB1DAB299300230DF1FB
S315080041F0840B8DF8A0001A4648460B9ECDF8ACB045
S3150800420027A9B047584622F0B6FB11E04FF0000B3D
S315080042102EE7E36AADF8B0301B0C8DF8B230B0E784
S315080042205A46D9F808102A9823F084FB0028D9D0D2
S31508004230BAF1000F3FF468AEE36B9A44139B5344FC
S31508004240139361E69DF89230013B072B2FD8002384
S3150800425000210093BDF88A20BDF88C302D9818F0FF
S3150800426087FE0146D0B92D9808B118F0A4FEBDF80E
S315080042708C20BDF88A101B4801FB02F33F2B4FF038
S31508004280000398BF520000930E2318F017FE01464C
S3150800429000B9FEE7BDF88C30C3802D9021A822F026
S315080042A065FB279000289FD09DF892009CE7002187
S315080042B0F4E7089B032B7FF453AEE069E36B2A46C9
S315080042C0384425F027F90646404623F00FFD139B90
S315080042D0801B034443E6574604E618F06CFE4EE698
S315080042E018440308F810002038B570220021044647
S315080042F025F0AAFD23F035FEC0F3072384F8210034
S31508004300C0F3074084F8223084F8230023F029FEFE
S31508004310C0F3072384F82400C0F3074084F8253047
S3150800432084F8260023F02BFEC0F30723FF2584F824
S315080043302A30022384F82900C0F3074084F82E3077
S3150800434084F82B0084F82D5023F019FEC0F30723B8
S3150800435084F83E00C0F3074084F83F3084F84000F4
S3150800436023F00DFEC0F3072384F85A300E4B84F869
S3150800437059006363B4F84830C0F3074023F4FF5389
S3150800438023F01F036FEA13336FEA033384F82050D0
S3150800439084F83B5084F8585084F86C50A4F8483098
S315080043A084F85B0038BD00BF9C0A03082DE9F04F6E
S315080043B087B00D4606460C220021284625F044FD06
S315080043C096F81080D6F80C90B8F1000F18D1D9F8E5
S315080043D01030002B44D003F0C5FD0746494824F0A9
S315080043E0CBF90446DFF81CB106F1140A002C3CD1BF
S315080043F0B8F1010F34D106F1140023F086FF2FE03F
S3150800440003F0B0FD074600B3B8F1010FE6D1DFF8B7
S31508004410F8B000226946DBF820018DF80480CDF853
S31508004420009022F08FFD824690B122F011FE0346DD
S3150800443000F1080207CA85E80700002251465C69B0
S31508004440DBF8200122F0A0FD0BE0B8F1010FC5D181
S315080044500222494606F1140024F08DF80028BDD042
S315080044600024204607B0BDE8F08F2368002B3FD014
S315080044706368002B3CD000225046114624F042F8CF
S315080044802A463146204623689847012830D12B8989
S315080044900BB3B8F1010FE4D1504623F036FF002FD5
S315080044A0DFD0012348468DF8043025F035FD00900D
S315080044B095E80700144D02AB059483E807006946A2
S315080044C00022D5F8200122F084FD0146B0B90098F3
S315080044D004F02CFFC4E76878AE88142802D1760069
S315080044E02E81D6E703F066FF46430736F608F7E758
S315080044F02146584624F046F9044677E70022D5F8BF
S3150800450020019FE7281100201810002038B505461D
S315080045100C460648182124F087F8284603F0BEFC06
S315080045202046BDE8384003F0EFBC00BF2811002044
S3150800453070B586B00E46154600214C22044625F075
S3150800454083FC16B9002006B070BD3046E66018F048
S315080045501DFE207403F0D0FC002836D0224BD3F879
S315080045601C012064EDB1AB78DBB1204604F12001D3
S31508004570FFF71CFF034620600028E3D02868606028
S315080045802A7922725A68214618469047227A002AC2
S31508004590D9D00128D7D1E06AA8B1002118F073FC58
S315080045A011E0237C00228DF80830E3686946019300
S315080045B022F0C8FC064640B122F04AFDC368E36211
S315080045C00369666423600120BDE7204604F12001E3
S315080045D0FFF7ECFE034620600028B3D0002DCDD1AE
S315080045E065602572CEE700BF1810002010B5064892
S315080045F024F022F8044600B9FEE71822002125F027
S3150800460023FC204610BD00BF281100202DE9F041EB
S315080046101F460D4B06469046D3F81C01002222F091
S31508004620D8FC054668B122F013FD037A0446012B2F
S31508004630C0F80C8003D1406825F06EFC6060C4E9C0
S3150800464004672846BDE8F0811810002073B50646B1
S315080046500D46002941D00379CBB92C467379002B36
S315080046603CD06078A0F10B03032B37D923F004FC68
S31508004670A0B30121204618F070FD78BB2021204602
S3150800468018F06BFD10B32046FFF7F0F926E04978DD
S315080046901429E2D0A888FFF7E5F82B890446834257
S315080046A0DBD001462846FFF775F90128D5D00094D6
S315080046B06B78EA88A9880B4818F000FC044660B1B4
S315080046C000232A46194618F0D3FCC7E721460548B1
S315080046D018F033FC04460028D6D10024204602B040
S315080046E070BD00BF10110020F0B597B00B7D0646CF
S315080046F0022B0C4667D98B6913B10B7F002B62D04E
S3150800470001AD2846B268216822F0A9FF00285AD0D0
S31508004710766833681F896368002B6DD1284623F0B5
S31508004720E5FA0690284623F0E6FA237DB4F8152024
S315080047308DF82F30E37DCDE907078DF82E30A36974
S31508004740ADF82C201BB1227F012A08BF00230CAF2D
S31508004750099395E80F0087E80F00D6E90112384655
S315080047605242494222F06EFFD6E90132029930469A
S315080047708A1A0199C91A18F01BFB099B05908BB177
S31508004780606A10B9206A23F0B1FA216A029B4A6866
S3150800479009689A1A019B0A905B1A00FB0233099A68
S315080047A01A440992337D063B0F2B0CD8DFE803F039
S315080047B018200B0B0B0B0B0B0B110D16080B0B1CF8
S315080047C005A81CF0D7FD17B0F0BD05A81AF0B9FA70
S315080047D0F9E7032105A81DF082FEF4E70421F9E7AD
S315080047E005A81CF052F9EEE705A819F077FBEAE7E9
S315080047F005A81BF0AEF9E6E729462846226922F005
S315080048002EFF0028DFD0226A002A73D1284623F01B
S315080048106DFA0690284623F06EFA237DCDE9070740
S315080048208DF8353094F82830207B8DF83630A3681B
S3150800483067680C938DF8340003F0BCFD2169029B70
S315080048404A6809689A1A019B5B1A43430C99DB0864
S3150800485001FB02331F44A3690B97002B51D10EAFFE
S31508004860099395E80F0087E80F00D6E90112384644
S315080048705242494222F0E6FE236912AC0FCB84E885
S315080048800F00D6E9011220465242494222F0DAFECA
S31508004890D6E90132029930468A1A0199C91A18F0DE
S315080048A087FA0590337D063B0F2B8CD801A252F868
S315080048B023F000BF5149000861490008C7470008AE
S315080048C0C7470008C7470008C7470008C747000882
S315080048D0C7470008C7470008434900083B4900087E
S315080048E04D49000833490008C747000833490008FE
S315080048F0594900082946284622F0B1FE002885D1E4
S3150800490061E7227F012A12D0606A099310B9206AEA
S3150800491023F0ECF9216A029B4A6809689A1A019BF6
S315080049200A905B1A00FB0232099B134497E700239F
S3150800493095E705A81CF068FE45E705A81AF0D1FA20
S3150800494041E7032105A81DF09AFE3CE70421F9E793
S3150800495005A81CF03BF936E705A819F09AFB32E7DB
S3150800496005A81BF0D9F92EE7044BC20003EA002379
S3150800497002F4FC6243EAD0001043704700F8FFFFD8
S3150800498030B5034608466AB1FF2A4FEAD3010AD171
S31508004990A2F6FF0202EA0322DB0003F4FC631343D8
S315080049A0194488B230BDD4439B0813FB02F311FBAC
S315080049B002F1E4B2C0F3451504FB0533C50A04FB4E
S315080049C0051500F01F0004FB0011054ADB1003F46F
S315080049D0FC6302EAC502134303EB112398B2E1E72D
S315080049E000F8FFFF70B5044608467AB12178FF2A19
S315080049F0A57863784FEAD10109D11448DB0000EAAB
S31508004A00052003F4FC631843084480B270BDD44300
S31508004A109B0813FB02F3E4B2C0F3451604FB063306
S31508004A20EE08C50A654306FB025512FB01F200F0C3
S31508004A301F0004FB0022054EDB1003F4FC6306EAA4
S31508004A40C5052B4303EB122398B2DFE700F8FFFFF7
S31508004A502DE9F04F89B0436890F822700193836876
S31508004A6082460293C3688946039390F82180D0E969
S31508004A70065306680493D0E904430793002F40F0D1
S31508004A802281002C3ED1B8F1FC0F26D8029B9C420D
S31508004A9080F21B81AA460027A6F1020B29E0577867
S31508004AA09378FF0007F4FC6700EA03233B43177873
S31508004AB04A4403EBD70326F811300131019B99428A
S31508004AC0EDDB039B01341E44049B1D44029B9C4260
S31508004AD080F2FB802A460021F0E77D48F6E750463B
S31508004AE03BF8021F4246FFF77DFF0137ABF800008F
S31508004AF0CA44019B9F42F2DB039B01341E44049B7C
S31508004B001D44C3E7B8F1FC0F1ED8029B9F4280F2F2
S31508004B10DC80AB464FF0000AB31E2FE014F80820DD
S31508004B2050463BF8021FFFF75DFF08F10108ABF896
S31508004B300000CA44019B9845F0DB039B01371E44DD
S31508004B40049B1D44079B1C44029B9F4280F2BD8028
S31508004B50AA464FF00008A6F1020BEBE714F80A2064
S31508004B6033F8021F12FB08F25846120A0593FFF79C
S31508004B7039FF059B0AF1010A1880CB44019A924530
S31508004B80ECDB039B01371E44049B1D44079B1C4416
S31508004B90BBE79AF82230022B4BD0032B6AD0012BA5
S31508004BA040F093807B789BF80220DB0803EBD20366
S31508004BB01F2BA8BF1F23D8023B889BF80120C3F3ED
S31508004BC0451303EB92033F2BA8BF3F2380B200EBAC
S31508004BD043103B789BF8002003F01F0380B203EBD9
S31508004BE0D2031F2BD4BFC0181F30398880B2002CBF
S31508004BF060D1424603F0E8FB059B27F8020B013318
S31508004C000593CB44059B019A9342C2DB039B1E4442
S31508004C10049B1D440CB1079B1C44069B0133069359
S31508004C20069B029A934250DA00233746AB46059311
S31508004C30E8E79BF802307A78DB08C3EBD20323EA6D
S31508004C40E373D8023B889BF80120C3F34513A3EB13
S31508004C50920323EAE37380B200EB43103B789BF898
S31508004C60002003F01F0380B2A3EBD203002BA8BFDA
S31508004C70C018BAE79BF802307A78DB08D20813FB2B
S31508004C8002F39BF801003A888008C2F3451210FB2C
S31508004C9002F080115B11400100EBC3203A789BF8C3
S31508004CA0003002F01F02DB0813FB02F380B200EBB0
S31508004CB053109AE7059BB8F1FC0FE25C9CBF12FB08
S31508004CC008F2120A96E70023A9E709B0BDE8F08FB3
S31508004CD000F8FFFF08B500F015FE2420FEF71CFAC1
S31508004CE0034BC360034B036100230362836108BD62
S31508004CF0E92F0208992F02082DE9F04FBBB015934A
S31508004D00CB6A0C46DDE944A70C90002B55D10B6BFA
S31508004D10B3F5807F51D14B6BB3F5807318BF012370
S31508004D20D56A07932B692C220A932B8900211CA884
S31508004D300B93A66E95F8019025F086F894F84C30FA
S31508004D408DF8843094F84D30C3F303038DF898300A
S31508004D500B9B1E93079B002B40F0A380002E5AD175
S31508004D60B9F10E0F2BD0B9F1140F94F84B3048D186
S31508004D70022B00F29680504622F0BDFF04465046AC
S31508004D8022F0B4FF0A9BAA881D930B9BCDF880A03E
S31508004D904343B3FBF2F30A9ACDF870A004FB03234E
S31508004DA022930B9BCDF890A05B08259302238DF8E0
S31508004DB08C3012238DF87C301EE00123B0E70C9B63
S31508004DC051469A6827A822F04AFC002843D00A9B35
S31508004DD0B4F8482022930B9BCDF890A02593079B07
S31508004DE0ADF885201D9394F84A30CDF870A08DF85B
S31508004DF0873002238DF88C300C981CA9FFF774FCB9
S31508004E0029E0022B4DD80A9BCDF880A0CDE91CA33A
S31508004E108DF87C90F0E794F84B30022B41D8079A2E
S31508004E20A16E27A8FFF784FB0128ECD1329D25B196
S31508004E306B7803F0F703062B10D00A9B0C981CA975
S31508004E40CDE91CA3CDF880A08DF87C90FFF74CFC2B
S31508004E5027A818F0A7FE3BB0BDE8F08F2B6954349D
S31508004E6022932B892046259322F040FF34EA20041A
S31508004E7028BF5446EA88AB88013A0092079A18AECA
S31508004E8011463046013B22F0B6FB079B09220093E8
S31508004E903146204622F08DFD022324968DF88C306B
S31508004EA0CBE718AD97E80F0085E80F0050461C952C
S31508004EB022F01CFF1490504622F01DFF139028463E
S31508004EC022F014FF0990284622F015FFB9F1060FC3
S31508004ED0054631D194F84B30022B25D9102023F002
S31508004EE004F84FF0100B0D90584622F0FEFF099B70
S31508004EF003FB00F6FDF7D0FAFDF7D6FD0746FDF7EA
S31508004F00CBFAFDF717FE22F0F0FF07FB00F39B0034
S31508004F10B3FBF6F3AB42A8BF2B4606FB03F00E9392
S31508004F2004F0EAF9089043E0079BC3B9484622F023
S31508004F30DCFF0D90CB46D7E7079B43B1B9F1110FBC
S31508004F40CCD0B9F1120F11D0B9F10F0FC6D048461F
S31508004F5022F0CBFFB9F1140F0D900BD0EAE715201C
S31508004F6022F0C3FF4FF0150B0D90BDE7142022F079
S31508004F70BCFF0D90099B4FF0140B03EB4306FDF79E
S31508004F808BFAFDF791FD0746FDF786FAFDF7D2FD88
S31508004F9022F0ABFF07FB00F39B00B3FBF6F3AB4233
S31508004FA0A8BF2B4606FB03F00E9304F0A5F908905C
S31508004FB0089B03B9FEE7089B0E9A1D931B9BBBF142
S31508004FC0140F1193199B8DF87CB0134403F1FF332A
S31508004FD01B9318AB20931AD1099A099952001E926D
S31508004FE00E9A4A43089901EB42022292099ACDE9A0
S31508004FF0243202238DF88C3012238DF87C30199BCD
S31508005000119A934220DD089804F090F923E7BBF142
S315080050100E0F12D1089A2292099ACDE92432022358
S315080050208DF88C3094F84A30B4F848208DF88730DB
S315080050300023ADF885201D93E1E7584622F055FF79
S31508005040099B58431E90DAE7189A27A8CDE9272323
S31508005050DAE900121A9B524229931B9B49422A936A
S3150800506022F0F0FA079B0BB3089B0A9ACDE9049342
S31508005070159B0C98CDE902430B9B27A90193139B1B
S315080050800093149B20F027FE94F84B50022D40F213
S315080050908880EE43BBF1140F94F8487094F8498061
S315080050A094F84A30F6B240F0C58068E094F84B3080
S315080050B0012BE9D927A822F01EFEB9F1060F129096
S315080050C02CD1DDE92732DDE907504FF0FF0E0B99A9
S315080050D002FB01330A9A1344099A4FEA820C129A80
S315080050E09542D1DA0246591EC3F101080AE011F8C1
S315080050F0016F02F8026C02F8036C0E7802F801ECF4
S3150800510002F8046C099F08EB0106B74202F1040293
S31508005110EDDC0B9A604413440135E0E7BBF1140F4C
S3150800512067D10B9B279D4FEA5308289B0A9A03FBD6
S3150800513008F36E0006EB43061644139A1D4408FB53
S3150800514002F20A9B05EB42051D44229BDDE9077224
S315080051500F920B9A1093099B22F001025B0016929C
S31508005160129A97422DDB94F84B50022D19D9EE432B
S3150800517094F8487094F8498094F84A30F6B2DB08F7
S31508005180FF084FEA980818A86F4308FB05F85D431F
S3150800519022F041FA4FF0000C089BA3F1020E844559
S315080051A07ADB0C981CA9FFF79FFA1B9B0E9A013312
S315080051B019931344119A013B934200F38A801B9377
S315080051C01DE71A4631460F98179324F048FD2946DD
S315080051D0099A109824F043FD169B0F9A1E44179BB4
S315080051E009991A440F92109A45440A4410920137B5
S315080051F0B6E7BBF10E0FD4D0DDE907670D9B279DF7
S315080052000B9A5D43289B03FB02550A9B0D9A1D4486
S31508005210099B02FB03F8129B9E4233DB94F84B5022
S31508005220022DBED9EE4394F8487094F8498094F854
S315080052304A30F6B2BBF1120FA1D0BBF10E0FB0D0B7
S3150800524018A80F9322F0E7F90F9B6F4308FB05F8A0
S315080052505D430D9B5843089B089A9A1A9042A0D919
S315080052601A7802FB067212121A705A7802FB068224
S3150800527012125A709A7802FB065212129A700D9AF6
S315080052801344E9E729463846424624F0E8FC0B9BD6
S3150800529047441D440136BEE73EF8022F0CF1010CC7
S315080052A0C2F3451106FB0181C91001F4FC630F9393
S315080052B0D30A06FB03530F4902F01F0206FB0272CC
S315080052C001EAC3030F990B4303EB2223AEF8003020
S315080052D065E7119BBBF1140F1B937FF490AE18A8DA
S315080052E022F009FD099B5843089B03EB40002290D6
S315080052F085E600BF00F8FFFF91F84D3013F0200F48
S31508005300024B01D118F062B8FEF7BABCF94C000896
S3150800531091F84830022B02D9014BFEF755BD70476C
S31508005320214C02082DE9F04FDDB00B6B83460C4685
S31508005330002B00F0B88091F83C20022A40F2B38096
S31508005340CD69D1E908108542A26A02D1914200F0DE
S31508005350AA8003EBD3735B105B428542D4BF5E1908
S315080053601E180C968542ACBFC3EB0506C3EB0006B8
S315080053709142D4BF581898189142ACBFC3EB0103A9
S31508005380C3EB02030CA90D90DBF8082008460E961D
S315080053900F9322F064F9002800F08580216AA26A3A
S315080053A0E0699142636A40F0CF808342D4BF40935C
S315080053B040908342B8BF0346226B013B013A4293B1
S315080053C002F0010303EB6203CB1A01EB620240A968
S315080053D043920846DBF80820419322F040F9E8B1E9
S315080053E0A56B1DB1656B003D18BF01252C22002158
S315080053F04EA824F029FD40AB4E9394F82E30A28D8A
S315080054008DF84F3194F83C30ADF84D218DF84C317C
S31508005410002D4BD158464EA9FFF766F994F83D3052
S3150800542013F00C0F3FD04EA818F017F994F82E3049
S31508005430256B8DF85B3147F6FF736E10ED43559378
S3150800544094F83C30A28D8DF8583194F83D30ADF87B
S3150800545059215A0705F0010510D5E2695846931BEC
S315080054604093236A3244991B521B3344419142921A
S315080054705B1B40AA4EA943931FF034F994F83D30BC
S315080054801B0710D5626A5846931B4093A36A324499
S31508005490991B521B3344419142925B1B40AA4EA969
S315080054A043931FF01FF95DB0BDE8F08F40A822F0C6
S315080054B01DFC419B409FDDF80C914393D4E90D23D5
S315080054C0134497FBF3F2064603FB127703F014FF27
S315080054D04FF00208054640ABDDF804A154905693F8
S315080054E08DF85481D14503DA284603F01FFF95E766
S315080054F028463246FF2124F0A7FC00203B46844676
S3150800550086420CDC58464EA9FFF7EEF8419B0AF195
