S01900006D6732345F6F7637363737305F52455630302E733337A6
S3150800000000100020890B00084F6100084F610008A6
S315080000104F6100084F6100084F6100084F610008F2
S315080000204F6100084F6100084F6100084F610008E2
S315080000304F6100084F6100084F6100084F610008D2
S315080000404F6100084F6100084F6100084F610008C2
S315080000504F6100084F6100084F6100084F610008B2
S315080000604F6100084F6100084F6100081D0B00082A
S31508000070A16000084F6100084F6100084F61000841
S315080000804F6100084F6100084F6100084F61000882
S315080000904F610008451700084F6100084F610008C6
S315080000A04F610008C10F0008A10F00084F61000842
S315080000B04F6100084F6100084F6100084F61000852
S315080000C04F6100084F6100084F6100084F61000842
S315080000D04F6100084F6100084F6100084F61000832
S315080000E04F6100084F6100084F6100084F61000822
S315080000F04F6100084F6100084F6100084F61000812
S315080001004F6100084F6100084F6100084F61000801
S315080001104F6100084F6100084F6100084F610008F1
S315080001204F6100084F6100084F6100084F610008E1
S315080001304F6100084F6100084F6100084F610008D1
S315080001404F6100084F6100084F61000837730008C7
S315080001504F6100084F6100084F6100084F610008B1
S315080001604F6100084F6100084F6100084F610008A1
S31508000170013800D0FCE770470348044B834202D09D
S31508000180034B03B1184770478CA800208CA80020A1
S3150800019000000000064B0749C91A891048BF0131FB
S315080001A0491003D0044B0BB101481847704700BFEC
S315080001B08CA800208CA800200000000010B5064C72
S315080001C0237843B9FFF7D8FF044B13B10448AFF3BC
S315080001D000800123237010BD501500200000000088
S315080001E0DC7E000808B5054B1BB105490548AFF389
S315080001F00080BDE80840FFF7CDBF00BF0000000043
S3150800020000100020DC7E0008A3F5803A704700BF86
S31508000210174B002B08BF134B9D46FFF7F5FF002130
S315080002208B460F461348144A121A06F0E7F90E4B86
S31508000230002B00D098470D4B002B00D09847002084
S31508000240002104000D000D48002802D00C48AFF329
S31508000250008005F00DFB2000290005F0EAFE05F0F8
S31508000260F9F900BF000008000000000000000000C7
S315080002700010002000100020C0A700200000000089
S3150800028000000000F0B585B0184B19481B680F240C
S31508000290036000F0E9F800F091F8013CFBD100F0AA
S315080002A08DF8144A01AB10685168134D03C3127ACE
S315080002B028681A7001A9092205F0FEFF49F24027AD
S315080002C00E4E3A1BB2F5807F28BF4FF48072311963
S315080002D0286804F5807405F0EFFFB4F5134FF0D1E4
S315080002E0074805B0BDE8F04005F06ABAD4A7002073
S315080002F018100020A573000800A80020511500203A
S315080003009873000838B50B4B054633F810300C4681
S31508000310CB40DB0704D440F22741074805F025FF08
S315080003201422302313FB0523044A9858E04000F0B2
S31508000330010038BD22740008AE73000830C00350AF
S3150800034000B589B00B4B8DF8071003930DF1070321
S31508000350049301238DF8062003A90DF1060200680F
S31508000360ADF814300692ADF81C3000F0A5FE09B0C1
S315080003705DF804FB4200080070B588B01D460E4BB8
S31508000380044603930DF10703049301238DF8071020
S31508000390006803A91646ADF8143000F08DFE022356
S315080003A0206803A9ADF80E300496ADF8145000F095
S315080003B083FE08B070BD00BF4200010070B504217D
S315080003C00320FFF79FFF0028F9D004210320FFF739
S315080003D099FF0128F9D0002449F24026204D04212E
S315080003E00320FFF78FFF08B9B44200D170BD05217D
S315080003F00320FFF787FF0128F1D101210846FFF7FF
S3150800040081FF0028F9D001210846FFF77BFF012864
S31508000410F9D0144B0134D3F8A420D3F8D4105000E3
S31508000420C2F3002300F002000343880843EAC0131E
S31508000430500000F004000343500000F00800034396
S31508000440500000F010001209034302F02002C90010
S31508000450134301F040010B4305F8013BBFE700BF1A
S315080004605115002000C0035037B500230446012269
S315080004700821022003F096F80023012219460220DB
S3150800048003F090F8012200231146022003F08AF8AF
S31508000490022100230846012203F084F800230122E2
S315080004A00321022003F07EF80023012209210220FD
S315080004B003F078F8032100230846012203F072F8B6
S315080004C0002301220221032003F06CF800230122F5
S315080004D00421032003F066F80023012205210320E6
S315080004E003F060F80122FD4D11461046002303F083
S315080004F059F82D21284600F035FF284600F006FF5A
S315080005004FF4967004F098FE002304221946012041
S3150800051003F048F8642004F08FFE012304221846ED
S31508000520002103F03FF84FF4967004F085FE802210
S3150800053012212046FFF704FF642004F07DFE2046C2
S3150800054001AA01231C21FFF717FF012320460DF1FD
S315080005500502A221FFF710FF072211212046FFF707
S31508000560EFFE0A2004F068FE204610221221FFF74B
S31508000570E7FE172220461146FFF7E2FE204606222E
S315080005801821FFF7DDFE2046B6223221FFF7D8FEF6
S31508000590204602221921FFF7D3FE20467A221A2185
S315080005A0FFF7CEFE20460A220321FFF7C9FE2046A2
S315080005B004220C21FFF7C4FE20461A223E21FFF72B
S315080005C0BFFE20463A227021FFF7BAFE20463522A2
S315080005D07121FFF7B5FE204622227221FFF7B0FEF1
S315080005E02046F2227321FFF7ABFE20460222A22103
S315080005F0FFF7A6FE204600228C21FFF7A1FE204623
S3150800060000220421FFF79CFE2046C0224021FFF766
S3150800061097FE2046E0221321FFF792FE204640224D
S315080006204F21FFF78DFE204634225021FFF788FE22
S3150800063020460C225121FFF783FE2046172252211D
S31508000640FFF77EFE204629225321FFF779FE204632
S3150800065040225421FFF774FE20461E225821FFF738
S315080006606FFE204620227A21FFF76AFE20461C22CA
S315080006707B21FFF765FE204628227C21FFF760FED6
S3150800068020463C227D21FFF75BFE204655227E212F
S31508000690FFF756FE204668227F21FFF751FE2046C7
S315080006A076228021FFF74CFE204680228121FFF723
S315080006B047FE204688228221FFF742FE20468F22E7
S315080006C08321FFF73DFE204696228421FFF738FE58
S315080006D02046A3228521FFF733FE2046AF22862136
S315080006E0FFF72EFE2046C4228721FFF729FE204663
S315080006F0D7228821FFF724FE2046E8228921FFF722
S315080007001FFE002220461146FFF71AFE2046002249
S315080007101021FFF715FE204600220D21FFF710FED7
S31508000720204628221421FFF70BFE20460522A52184
S31508000730FFF706FE20460722AB21FFF701FE2046FB
S3150800074075222421FFF7FCFD204663222521FFF7A9
S31508000750F7FD2046A5222621FFF7F2FD204678223E
S315080007609F21FFF7EDFD20466822A021FFF7E8FD4F
S3150800077020460322A121FFF7E3FD2046DF22A6211A
S31508000780FFF7DEFD2046DF22A721FFF7D9FD204629
S31508000790F022A821FFF7D4FD20469022A921FFF7D1
S315080007A0CFFD20469422AA21FFF7CAFD204614222F
S315080007B04321FFF7C5FD2046F0224421FFF7C0FD7F
S315080007C0204634224521FFF7BBFD20465822462104
S315080007D0FFF7B6FD204628224721FFF7B1FD204640
S315080007E03A224821FFF7ACFD204688225921FFF717
S315080007F0A7FD204688225A21FFF7A2FD204644225B
S315080008005B21FFF79DFD204667225C21FFF798FDD7
S31508000810204649225D21FFF793FD20460E225E21E0
S31508000820FFF78EFD20460A226C21FFF789FD204638
S3150800083055226D21FFF784FD204611226E21FFF710
S315080008407FFD20469F226F21FFF77AFD2046592219
S315080008506A21FFF775FD204646220121FFF770FD44
S31508000860204645220221FFF76BFD204660225621CD
S31508000870FFF766FD20462622C921FFF761FD2046BF
S3150800088038224121FFF75CFD204600223F21FFF771
S3150800089057FD2046C0223D21FFF752FD2046002283
S315080008A09621FFF74DFD204630229721FFF748FD98
S315080008B0204620229821FFF743FD20463022992121
S315080008C0FFF73EFD204684229A21FFF739FD204690
S315080008D029229B21FFF734FD204601E004A80020C9
S315080008E003229C21FFF72CFD20464C229D21FFF771
S315080008F027FD20463F229E21FFF722FD204604229F
S315080009007821FFF71DFD204601227921FFF718FD02
S315080009102046F022C821FFF713FD20460F22792131
S31508000920FFF70EFD20460022C821FFF709FD2046E5
S3150800093010227921FFF704FD20467E22C821FFF701
S31508000940FFFC20460A227921FFF7FAFC204680227E
S31508000950C821FFF7F5FC20460B227921FFF7F0FCAA
S3150800096020460122C821FFF7EBFC20460C227921FC
S31508000970FFF7E6FC20460F22C821FFF7E1FC2046D8
S315080009800D227921FFF7DCFC20462022C821FFF73B
S31508000990D7FC204609227921FFF7D2FC204680227F
S315080009A0C821FFF7CDFC204602227921FFF7C8FCB3
S315080009B02046C022C821FFF7C3FC2046032279211E
S315080009C0FFF7BEFC20464022C821FFF7B9FC2046A7
S315080009D005227921FFF7B4FC20463022C821FFF70B
S315080009E0AFFC204626227921FFF7AAFC20468F2253
S315080009F01321FFF7A5FC204600224221FFF7A0FCA1
S31508000A00204610221221FFF79BFC20468422B021A3
S31508000A10FFF796FC072211212046FFF791FC4FF4B9
S31508000A20FA7004F009FC03B030BD00BF08B50448ED
S31508000A3006F0E5FBBDE80840024800F0D1BA00BF61
S31508000A40287C0008C0A70020064B1B681A7A022AD1
S31508000A5004D812B11B68044A13607047032AF9D0F8
S31508000A60704700BFD8A700201C10002070B5A2B0A0
S31508000A70204D0BAC0FCD0FC495E80F0084E80F008E
S31508000A8000244FF47023CDE902440494019313AD76
S31508000A9001AE0FCE0FC5184B06AE2B60174B18AD1F
S31508000AA0CDE90744099406930FCE0FC52022144BAF
S31508000AB014482B60144B13A91D93144B2094CDE9AD
S31508000AC01E23134B0BAA2193124B03F09FFD0446DA
S31508000AD018B1AE21104805F048FB9DF87F304FF459
S31508000AE0E130002B0CBF0321002105F022FB204634
S31508000AF022B070BD607400083C00015B01000F0065
S31508000B004400015BD410002091A7002000010100D9
S31508000B10ECA70020201000202A740008014803F0E2
S31508000B209BBE00BFD410002007B5064B694600934C
S31508000B30002305488DF8043000F03AFB03B05DF851
S31508000B4004FB00BF8096980004A8002008B5034857
S31508000B5006F055FBBDE8084005F075BA287C000884
S31508000B60014806F04CBB00BF287C00080348044A2D
S31508000B700449121A921005F0EBBA00BF700100087A
S31508000B8070010008C0A7002008B5154B83F30A8832
S31508000B9000F030F8FFF7EAFF124B13498B4212D3E5
S31508000BA00020124B12498B4218D3FFF731FB186805
S31508000BB050F82240586840F822400132986882422C
S31508000BC0F5D30C33EAE70022F8E71C6844F822005C
S31508000BD001325C68A242F8D30833E4E70022F8E75A
S31508000BE000000020E47E0008F07E0008F07E000881
S31508000BF0F07E000870B54FF48041124B124A134D2F
S31508000C009A60D3F8882005F5005442F47002C3F8B8
S31508000C1088200F4A91664FF0FF3222660D4A6266B7
S31508000C200222C3F8D020BFF34F8FBFF36F8F4FF464
S31508000C304036002003F080FC0020E66003F04AFC02
S31508000C402E6170BD00ED00E0000000080080004441
S31508000C5000900050F7FF3700014B1860704700BF3F
S31508000C6010A80020054B1860054B1B6F03F00703FF
S31508000C70032B01D105F0F4BE704700BF18A8002069
S31508000C800080005038B504460D4601B118B9452113
S31508000C90044805F06AFA236813B92B60256038BD45
S31508000CA01C46F8E78074000810B5044618B95621A2
S31508000CB0044805F05AFA206818B10368236000232F
S31508000CC0036010BD8074000807B500232948019306
S31508000CD006F095FA4FF44073012204216846ADF8F0
S31508000CE0003000F0C3F80122234B0520C3F8442442
S31508000CF001A906F07FFA002839D1204BD3F8F02055
S31508000D0042F00102C3F8F020D3F8FC2042F08072CA
S31508000D10C3F8FC201A4AA3F55D431A60019B194AD9
S31508000D2003F5D52303F2FC43B3FBF2F3164A013B62
S31508000D3013610223C2F8F0304FF48073C2F804330B
S31508000D404FF06043114AC3F8B02F114AC3F8802EFA
S31508000D50D3F8002E42F48072C3F8002EFF2283F8DF
S31508000D602020D3F8002E22F48072C3F8002E03B098
S31508000D705DF804FB287C000800D0035000ED00E075
S31508000D80FF030040F8590D00000004E055CEACC53D
S31508000D900900010030B54FF06043D3F8802ED20722
S31508000DA015D501240B4D8440D5F8FC2042F08072FD
S31508000DB0C5F8FC20D3F8002E2243C3F8002E53F8BA
S31508000DC02020002AF0D003F82010002030BD112082
S31508000DD0FCE700BF00ED00E02DE9F0410C250446D4
S31508000DE04FF00108124E0CB314F001000BD000208E
S31508000DF024F0010405FB00625768002FF3D09168C0
S31508000E00C0B2B847EFE72246013020284FEA52021F
S31508000E1001D0D307F8D508FA00F20F2824EA02040D
S31508000E20E8D9103805FB0062B432E5E7BDE8F08181
S31508000E30F010002008B50C4806F0E1F9192003F077
S31508000E4063FB28B1192003F077FB192003F042FB56
S31508000E501A2003F059FB28B11A2003F06DFB1A205B
S31508000E6003F038FB002008BD287C00082DE9F04176
S31508000E700E469046044638B993211A4805F075F986
S31508000E8022252846BDE8F0810F290CD8037883B1BE
S31508000E90012B03D0022B0CD0032B04D13F236278FD
S31508000EA0D340DB0708D497210E4805F05EF92125C3
S31508000EB0E7E740F2FF33F2E70B4BD3F810532DB1B7
S31508000EC09B21084805F051F90225DAE706F08CF966
S31508000ED0074642462046314603F074F8384606F07F
S31508000EE07EF9CEE7BA74000800C0035038B5044648
S31508000EF028B91348E42105F038F9222038BD0378CB
S31508000F0083B1012B03D0022B0CD0032B04D13F2332
S31508000F106278D340DB0708D40948E82105F025F9AB
S31508000F202120EBE740F2FF33F2E706F05DF90546CC
S31508000F30204605F06BFE284606F051F90020DDE74D
S31508000F40BA74000838B5044628B91448FC2105F0D7
S31508000F500CF9222038BD03788BB1012B03D0022B64
S31508000F600DD0032B04D13F236278D340DB0709D485
S31508000F700A484FF4807105F0F8F82120EAE740F2B4
S31508000F80FF33F1E706F030F90546204602F0E6FFA2
S31508000F90284606F024F90020DCE700BFBA740008EA
S31508000FA008B503F005F8054B00F0553020F0502041
S31508000FB0C3F82004BDE80840FFF70EBF00E0035061
S31508000FC008B502F0F5FF054B00F0AA3020F0A02086
S31508000FD0C3F82004BDE80840FFF7FEBE00E0035052
S31508000FE070B586B0044618B9AC212E4805F0BDF890
S31508000FF02368B3F1B64F07D02B4A93424BD12B48FF
S3150800100006F0FDF8012503E0294806F0F8F8002562
S31508001010A3880122ADF80030E3880A216846ADF8B6
S315080010200430FFF723FF01220A2101A8FFF71EFF5C
S315080010300A266846FFF786FF642004F04FF96846DB
S31508001040FFF754FF642004F049F9013EF1D1032368
S31508001050184A02EB0511C1F8E834607923794F354F
S3150800106043EA0043C1F8EC34E179A3792D0143EA58
S315080010700143535140F20113ADF80830E368206884
S315080010800493A36802A90393237C8DF8143002F015
S3150800109073FB06B070BDD121024806B0BDE87040AA
S315080010A005F063B8F874000800800650207C000834
S315080010B0247C000800C0035038B5054602F0A0FCA1
S315080010C0044C012801D1013C00D138BD284602F064
S315080010D085FBF6E7E1930400154B984220D00BD820
S315080010E0A3F50043984212D003F58043984213D0E3
S315080010F05E21104805F039B80F4B984214D003F515
S3150800110080439842F4D10D4B0B600D4B02E00D4B1A
S315080011100B600D4B136070470C4B0B600C4BF9E7DB
S315080011200C4B0B600C4BF5E70C4B0B600C4BF1E7CB
S31508001130000005503A75000800400550047C000878
S31508001140347C0008147C0008647C0008107C0008C5
S31508001150587C00080C7C00084C7C0008087C0008B9
S31508001160407C000808B5104B984216D003F580431A
S31508001170984212D003F58043984211D003F5804374
S3150800118098420DD003F58043984209D0074840F2AB
S31508001190D22104F0EAFF002008BD4FF0FF30FBE73C
S315080011A04FF6FF70F8E700BF008004507675000818
S315080011B070B58CB004460D4602AA01A90068FFF76F
S315080011C08BFF019806F01BF8464806F018F8637975
S315080011D02A798DF80030003AA37918BF0122042134
S315080011E068468DF80130FFF741FE0D22002104A85C
S315080011F005F004FA02238DF811303B4B04AA059337
S315080012002B792068591E4B424B4121798DF81A30AB
S3150800121002F04EFE2268354B9A425AD003F58043B7
S315080012209A4258D003F580439A4256D003F5804334
S315080012309A4254D02E482F49A3F5BC33A3F5CE7352
S31508001240824208BF0B46A0796279217942EA0042B8
S3150800125043F82120029B03A9187905F0CBFF2B68D8
S315080012602668039D3046B5FBF3F5FFF77BFF013D86
S31508001270854204D940F2BC411F4804F076FF336B1F
S31508001280DA0704D440F2BE411B4804F06EFFF5614C
S31508001290256826792846FFF765FF2B6BDB0704D4FC
S315080012A040F24231144804F060FF05EB461500266B
S315080012B00F223146AE660DF1210005F09FF9012394
S315080012C0206808A98DF8203002F0A6FD30460CB03B
S315080012D070BD0A4BB7E70A4BB5E70A4BB3E70A4BAB
S315080012E0B1E700BF287C0008000103000080045015
S315080012F00080055004C703507675000884C603505D
S31508001300A4C60350C4C60350E4C60350012301799A
S315080013100268114803FA01F1824216D000F58040AE
S3150800132082420DD00D4B9A4211D003F580439A4262
S315080013300FD003F580439A4214BF4FF0FF330423BE
S31508001340074AB4335B01D15070470023F8E70223FC
S31508001350F6E70323F4E700BF0080045000000550B9
S3150800136000C0035070B5642304680679E569204611
S315080013704D43B5FBF3F5FFF7F5FE854204D940F278
S315080013802531074804F0F1FE236BDB0704D440F24D
S315080013902731034804F0E9FE04EB4614256770BDBF
S315080013A0767500082DE9F04F85B09A46554B0646E6
S315080013B01B780F461546DDF83C909DF844B0DDF8DD
S315080013C05080002B00F09780072A00F296800E9B2B
S315080013D0002B00F09280B9F1000F00F08E80129B6E
S315080013E0B3F5006F00F38980012803D1109B002B09
S315080013F000F08380444B03EB05131B7B002B7ED048
S31508001400424C10220021684605F0F8F804EB451412
S315080014101022A7BB3946204605F0F0F843F2100320
S315080014206380BBF1000F03D1E37843F00303E37055
S31508001430364A0E9B02EB451CCCE90193129B6901C7
S31508001440581E9DF84C30C0F30A0003F003039B06B0
S3150800145043EA001E53582E48012E00EA03004EEABE
S315080014600003CDF800A0535017D0B8F1000F2ED1C5
S315080014709CF8023068F304138CF8023027E0002148
S31508001480204605F0BBF84FF444736380BBF1000FA8
S31508001490CED1E37843F03003C9E713230CF1100EDD
S315080014A0CCF80C309CE80F008EE80F006FF00301B3
S315080014B0DCF81C20109B61F39F02012FCCF81C203E
S315080014C0CCF8143003D1CCF81890CCF804300027A7
S315080014D00D4A290102EB051342F80180159A2846A0
S315080014E05A60694622469F605E7302F067FB38467B
S315080014F005B0BDE8F08F0748FAE70748F8E7074858
S31508001500F6E700BFB1A700205813002058120020A4
S315080015100F80FFF3028000F0018000F0078000F0E2
S3150800152038B5124B05461B78DBB1E0B105F05CFE19
S315080015300F4A00231146147B54B92B6001251A0162
S3150800154001EB03131D738C5005F049FE204638BD88
S315080015500133082B02F11002EDD105F040FE0548D3
S31508001560F5E70548F3E70548F1E700BFB1A700200E
S3150800157058130020048000F0028000F0018000F07B
S3150800158038B505F031FE002305460B4A147B6CB9C5
S315080015900133082B02F11002F8D102F091FA074B39
S315080015A028461C7005F01BFE204603E0284605F079
S315080015B016FE034838BD00BF58130020B1A7002007
S315080015C0058000F010B50D4B04461B7893B107282B
S315080015D012D805F009FE0A4B03EB04131A7B2AB14D
S315080015E000241C7305F0FBFD204610BD05F0F7FD31
S315080015F00448FAE70448F8E70448F6E7B1A70020E4
S3150800160058130020068000F0028000F0018000F0E8
S3150800161013B5154B1868002301908DF8043005F0B2
S31508001620E3FD124B1C7824B105F0D9FD104802B031
S3150800163010BD01221A7005F0D2FD0E4B01A81C73CD
S315080016401C7783F82C4083F83C4083F84C4083F899
S315080016505C4083F86C4083F87C4008238DF807309B
S3150800166002F064FA2046E2E7EB750008B1A700200D
S31508001670038000F058130020F8B50D4D2D7885B17C
S31508001680072810DC0B4D060105EB0014277B67B114
S31508001690AB510025069BA560636002F08FFA2846C9
S315080016A0F8BD0548FCE70548FAE70548F8E700BF2E
S315080016B0B1A7002058130020028000F0018000F036
S315080016C0078000F008B50A4A12785AB107280BD8DD
S315080016D0084A02EB00131B7B43B1002102F006FA0D
S315080016E0002008BD0448FCE70448FAE70448F8E780
S315080016F0B1A7002058130020028000F0018000F0F6
S31508001700078000F008B50A4A12785AB107280BD89C
S31508001710084A02EB00131B7B43B1012102F0E6F9EC
S31508001720002008BD0448FCE70448FAE70448F8E73F
S31508001730B1A7002058130020028000F0018000F0B5
S31508001740078000F02DE9F041174B1F6D5B6D1F40B8
S3150800175000D5FEE701260025144CDFF858803742ED
S3150800176018D02368C8F85060A3B1A168284601318B
S315080017706268A1609847637B012B0BD150B90C4B6B
S3150800178003EB45131A7B60F341021A731A7F60F361
S3150800179041021A770135082D4FEA460604F110046E
S315080017A0DDD1BDE8F08100BF0000045058130020C9
S315080017B05812002000200450044BD3F88420D20687
S315080017C0FBD4D3F88400C0F3811070470040005062
S315080017D038B5104B0546D3F800310C4603F0030321
S315080017E0022B0BD0032B0DD0012B0FD105F052F98C
S315080017F0032305B1286004B1236038BD05F09CF9C0
S315080018000923F6E705F04CF90823F2E7012300203F
S31508001810EFE700BF0080005038B5104B0546D3F8F7
S3150800182040310C4603F00303022B0BD0032B0DD0DB
S31508001830012B0FD105F0C4FC0A2305B1286004B1B9
S31508001840236038BD05F078F90923F6E705F0BBFCF7
S315080018500C23F2E701230020EFE700BF00800050C9
S3150800186038B5104B0546D3F860310C4603F0030330
S31508001870022B0BD0032B0DD0012B0FD105F0A0FCAA
S315080018800A2305B1286004B1236038BD05F054F970
S315080018900923F6E705F097FC0C23F2E7012300205D
S315080018A0EFE700BF0080005038B5104B0546D3F867
S315080018B040320C4603F00303022B0BD0032B0DD04A
S315080018C0012B0FD105F07CFC0A2305B1286004B171
S315080018D0236038BD05F030F90923F6E705F073FCF7
S315080018E00C23F2E701230020EFE700BF0080005039
S315080018F038B5124B0546D3F880300C4603F003037F
S31508001900022B0BD0032B0DD0012B0FD105F088F835
S315080019100E2305B1286004B1236038BD05F0C4F86C
S315080019200723F6E705F076F80623F2E7044841F2BE
S31508001930142104F01AFC00231846EAE70080005038
S31508001940EF75000838B51A4B0546D3F820010C4642
S3150800195000F00700062821D8DFE800F028040C1458
S3150800196010181C0005F056F8052305B1286004B1C7
S31508001970236038BD05F08EF80323F6E705F094F8E2
S315080019800723F2E705F082F80223EEE705F042F8AE
S315080019900623EAE705F07EF80423E6E7054841F260
S315080019A0912104F0E2FB00231846DEE70123DCE779
S315080019B000800050EF75000838B5194B0546D3F876
S315080019C028310C4603F00703013B052B20D8DFE836
S315080019D003F003131B0F0B1705F01CF8052305B1BD
S315080019E0286004B1236038BD05F014F80623F6E72D
S315080019F005F05AF80723F2E705F04CF80323EEE75B
S31508001A0005F048F80423EAE705F040F80223E6E77C
S31508001A10044841F2990104F0A8FB00231846DEE7C2
S31508001A2000800050EF75000837B500230193194B65
S31508001A300546D3F820320C4603F00703042B1FD8BB
S31508001A40DFE803F025030F141900002101A8FFF7AA
S31508001A50B3FF12230DB1019A2A6004B1236003B0C3
S31508001A6030BD05F021F807230190F3E705F0A8FB40
S31508001A700A230190EEE705F05FF809230190E9E7EC
S31508001A8041F25601044804F070FB0023E2E7012303
S31508001A90E0E700BF00800050EF750008F7B50027A3
S31508001AA0144B0197D3F88041064604F00304022C30
S31508001AB00D4614D0032C0DD0012C14D1394601A89B
S31508001AC0FFF740FF10240EB1019B336005B12C606F
S31508001AD003B0F0BD04F0E8FF07240190F3E704F033
S31508001AE0D5FF0190EFE741F2E631034804F03DFBEC
S31508001AF03C46E8E700800050EF75000838B5164BFD
S31508001B000546D3F800020C4600F00700042819D849
S31508001B10DFE800F020030B0F130005F051FB0A2342
S31508001B2005B1286004B1236038BD05F005F809231E
S31508001B30F6E705F048FB0C23F2E704F091FF0F23C4
S31508001B40800AEDE7054841F2A44104F00EFB0023A4
S31508001B501846E5E70123E3E700800050EF75000823
S31508001B6038B5164B0546D3F808020C4600F00700B0
S31508001B70042819D8DFE800F020030B0F130005F03E
S31508001B801FFB0A2305B1286004B1236038BD04F0A1
S31508001B90D3FF0923F6E705F016FB0C23F2E704F05A
S31508001BA05FFF0F23800AEDE7054841F2DC4104F0A8
S31508001BB0DCFA00231846E5E70123E3E70080005036
S31508001BC0EF75000837B500230193184B0546D3F87F
S31508001BD060320C4603F00703013B032B1FD8DFE8EE
S31508001BE003F0020E1914002101A8FFF7ABFE10231B
S31508001BF00DB1019A2A6004B1236003B030BD0021FB
S31508001C0001A8FFF709FE1123F2E704F04DFF0723A9
S31508001C100190EDE704F03AFF02230190E8E741F26C
S31508001C20FD01034804F0A1FA0023E1E70080005013
S31508001C30EF75000837B500230193184B0546D3F80E
S31508001C4094320C4603F00703013B032B1FD8DFE849
S31508001C5003F0020E1914002101A8FFF773FE1023E2
S31508001C600DB1019A2A6004B1236003B030BD00218A
S31508001C7001A8FFF7D1FD1123F2E704F015FF0723AA
S31508001C800190EDE704F002FF02230190E8E741F234
S31508001C903011034804F069FA0023E1E70080005098
S31508001CA0EF75000873B500240F4B0194D3F8703212
S31508001CB0064603F00303012B0D4607D0022B11D06D
S31508001CC041F25B11094804F050FA04E0214601A8E4
S31508001CD0FFF7A2FD11240EB1019B336005B12C60FC
S31508001CE002B070BD1524F6E700800050EF750008B5
S31508001CF008B5334B98424FD027D8324B984245D037
S31508001D0017D8314B98423ED00AD838B12F4B984253
S31508001D1039D041F2BB312E4804F027FA002034E0CE
S31508001D202C4B98422FD02C4B9842F2D12B4B586E05
S31508001D302BE02B4B98422CD003F5371303F5D863C9
S31508001D409842E6D1254B986F1FE0264B98422FD034
S31508001D500CD8254B984223D0244B984224D0244BA8
S31508001D609842D6D11D4BD3F884000EE0214B9842F9
S31508001D7022D003F5740303F510539842C9D1174BC3
S31508001D80D3F8980001E0154B986D08BD134B186FF2
S31508001D90FBE7124B586FF8E7104BD3F88000F4E7CF
S31508001DA00E4BD3F88800F0E70C4BD3F88C00ECE721
S31508001DB00A4BD3F89000E8E7084BD3F89400E4E719
S31508001DC080BA8C01405DC60080841E0040420F0028
S31508001DD0EF75000800093D00C0CF6A000080E00FDB
S31508001DE00024F400007E560380D54302006CDC0212
S31508001DF00048E8010090D00310B5B0F5207F2ED03A
S31508001E0009D8B0F5007F24D003D868B1B0F5C07FF3
S31508001E100AD000241BE0B0F5607FFAD1124BD3F844
S31508001E208040C4F3011412E00F4B1C6F230B13F010
S31508001E300E0FC4F303340AD0072C08D00F2C06D093
S31508001E40032C04D04FF42271084804F08EF9601C64
S31508001E5010BD054BD3F89040C4F30464F7E7024B72
S31508001E601C6FC4F38024F2E700800050EF75000869
S31508001E7038B54FF48032104B04469A6600200D465A
S31508001E80FFF7BAFF41F671320C4B6043DC69DA633F
S31508001E905A6804F4803422F440125DB9084988422D
S31508001EA094BF00200120000502435A600CB10022AD
S31508001EB0DA6338BD0349F2E700900050000003508A
S31508001EC0005A6202002D310138B5430904460D4611
S31508001ED00ED140F235310D4804F047F9002304F0DD
S31508001EE01F0485B103F580530122A2401A6038BD4C
S31508001EF0012B04D0022B04D040F24331EBE7044B0C
S31508001F00EDE7044BEBE703F50053EDE7EF75000843
S31508001F10648000506880005030B585B00021B0F567
S31508001F20807F0446CDE9001100F0D3803DD85E28B5
S31508001F3033D85E2833D8DFE800F0483232323232FE
S31508001F403232323232323232323232323232323263
S31508001F503232323232323232323248AD48ADBDBD1B
S31508001F60BDBDBDADC7516EDD51ADADAD32323232FC
S31508001F7032323232ADADAD81E7AD32323232323243
S31508001F8032323232323232BD484848E25151EC9050
S31508001F9066C2323232323298480080286AD040F21D
S31508001FA0A441604804F0E1F867E0B0F5D06F00F0AE
S31508001FB0A18035D8B0F5607F77D01AD8B0F5007F04
S31508001FC05ED005D8B0F5C07FE9D104F049FD53E0ED
S31508001FD0B0F5207F5ED0B0F5407FE0D104F040FD3B
S31508001FE004464FF42070FFF707FFB4FBF0F46408CB
S31508001FF059E0B0F5B06F67D00AD8B0F5806F59D000
S31508002000B0F5A06FCBD100216846FFF70DFD34E08F
S31508002010B0F5C06FC3D100216846FFF7FDFB2CE081
S31508002020B0F5106F6BD00ED8B0F5086F76D0B6D86D
S31508002030B0F5E06F68D0B0F5F06FB0D10021684612
S31508002040FFF70EFC19E0B0F5406F38D00AD8B0F5A6
S31508002050206F5ED0B0F5286FA1D100216846FFF742
S3150800206021FE0AE0B0F5486F99D100216846FFF7CE
S31508002070E1FD02E004F0D4FC0090009805B030BD04
S3150800208004F0CEFC05462046FFF7B6FEB5FBF0F594
S315080020900095F2E704F0E4FC04464FF42070FFF7DD
S315080020A0ABFEB4FBF0F40094E7E701A8FFF720FCC9
S315080020B0019DE8E700216846FFF744FCDDE70021BB
S315080020C06846FFF779FCD8E700216846FFF7E6FC83
S315080020D0D3E74FF0E02302911B695B0705D504F0AF
S315080020E0BFFC0290029B0093C7E703A902A8FFF76B
S315080020F093FBF7E700216846FFF700FDBDE70021DF
S315080021006846FFF72DFDB8E700216846FFF7CCFBC8
S31508002110B3E700216846FFF755FDAEE76846FFF7C7
S3150800212057FBAAE7EF75000808B58020FFF7F4FE0D
S31508002130034B98429EBF4FF48032024B1A6708BD84
S31508002140005A620200A000501FB503460020B3F5EE
S31508002150807F019000F0C58063D85D2B54D84C2B46
S3150800216006D82D2B46D8232B2AD840F28951A7E02A
S315080021704D3B102BF9D801A252F823F0D9220008BA
S315080021806B2100086B2100086B21000883220008D8
S315080021906B2100086B21000833230008A1220008E0
S315080021A047220008292300086B2100086B21000834
S315080021B06B2100086B2100086B2100083D230008ED
S315080021C0243B092BD1D801A252F823F0D9220008C2
S315080021D0D9220008D9220008D9220008D9220008E5
S315080021E06B210008C92200086B2100086322000839
S315080021F00F2300083D2B00F085803E2BB5D100202B
S3150800220001A9FFF751FB63E0802BAED14E4B1B6F44
S3150800221003F00703013B032B50D8DFE803F04D46D4
S31508002220494BB3F5F06F6DD020D8B3F5B06F4BD0EE
S315080022300ED8B3F5607F73D097D3B3F5806F4BD0C4
S31508002240B3F5A06F91D1002001A9FFF7EDFB3FE0A0
S31508002250B3F5D06F5BD0B3F5E06FD0D0B3F5C06FF0
S3150800226083D1002001A9FFF7D7FA31E0B3F5206F33
S315080022705FD00BD8B3F5086F4ED0B3F5106F7FF467
S3150800228074AF002001A9FFF76BFC21E0B3F5406F9E
S315080022904AD0B3F5486F51D0B3F5286F7FF465AFD0
S315080022A0002001A9FFF7FEFC12E0052301930FE0C9
S315080022B00323FBE70823F9E70223F7E740F2D641B1
S315080022C0224803F052FF03E0002001A9FFF7E6FBCE
S315080022D0019805B05DF804FB002001A9FFF732FB61
S315080022E0F6E74FF0E02302901B695B0705D504F07B
S315080022F0B7FB0D230393039BD8E703A902A8FFF7AF
S315080023008BFAF8E7002001A9FFF7AAFAE0E7002010
S3150800231001A9FFF7F3FBDBE701A9FFF759FAD7E7AE
S3150800232001A9FFF7E5FAD3E7002001A9FFF744FB67
S31508002330CEE7002001A9FFF745FCC9E7002001A95F
S31508002340FFF778FCC4E700BF00800050EF7500086F
S315080023504FF48032074B0849586E03F580535A6686
S315080023604B6A23F001034B62C3035CBF034B5A66F7
S31508002370704700BF0080005000C0075000A0005002
S3150800238038B5036804460F2B04D940F68A317C48D1
S3150800239003F0EBFE63680F2B04D940F68D317848BD
S315080023A003F0E3FEA3680F2B04D94FF43961744890
S315080023B003F0DBFE237B0F2B04D940F693317048DC
S315080023C003F0D3FE637B0F2B04D940F696316C4895
S315080023D003F0CBFEA37B3F2B04D940F6993168481E
S315080023E003F0C3FEE37B3F2B04D940F69C316448D7
S315080023F003F0BBFE2369032B04D940F69F316048DE
S3150800240003F0B3FE6369032B04D940F6A2315C4896
S3150800241003F0ABFEE369032B04D940F6A53158480F
S3150800242003F0A3FE8020FFF78FFE032800F08380C9
S315080024304FF48012534B4FF0A0615A6645F60E02D0
S31508002440514BC3F88020514A91624FF4803102F50E
S31508002450805291629A6DD203FCD4996D11F0804135
S31508002460FBD1D4E90002120542EA0062E07B02438E
S31508002470207B42EA0042607B42EA0032A07B42EAC5
S3150800248080121A619869D4E90452120642EA8562F2
S3150800249000F000400243A07EE57E0243207E42EA29
S315080024A00042607E42EA00229A611A6AE06922F0D6
S315080024B00F0242EA8502364D00283DD11A6294F889
S315080024C02420996A94F82000D200294042EA401252
S315080024D00A4394F8211042EA011242F480329A62C1
S315080024E02C49294A936D31EA0303FBD14FF08071D9
S315080024F0264881621369A56823F4700343EA0553E5
S3150800250013614FF00043836194F822300BB9224BD4
S31508002510996294F823303BB94FF480321E4B9A6285
S31508002520194A936D5B00FCD494F825301BB1164B01
S315080025301A4AC3F8802038BD024342F0080202282E
S315080025401A6208D119614FF40852996114484FF478
S315080025507F4103F03FFE0C4994F822308A6A94F8CA
S3150800256020001B062A4043EA4013134394F824200C
S3150800257043EAC20394F8232043EA02438B62D3E773
S31508002580EF750008009000500040005A0050005AAD
S31508002590C7FFFEFE030001000060005AF1A7FFFF17
S315080025A03440005A014B93F90000704780A8002078
S315080025B010B543680446072B04D940F6E6512A4865
S315080025C003F0D3FDA368032B04D940F6E851264847
S315080025D003F0CBFD2378032B04D940F6EA512248B1
S315080025E003F0C3FD94F90130002B04DA40F6EC51F0
S315080025F01D4803F0BAFD4FF400011C4A6378516682
S315080026004FF4D151022002F5B832516218494F2BC6
S3150800261048604FF0010028BF4F2301F580514860FC
S315080026201169C903FCD4217843EA01235361D4E92B
S3150800263001131B0143EA0123617B0B43217B43EA18
S3150800264041039360E37BA17B1B0143EA4113617C51
S315080026500B43217C43EA41035360A37C13B16FF417
S31508002660D153536210BD00BFEF75000800900050AB
S3150800267000100250014B1880704700BF7EA800204A
S31508002680014B1880704700BF7CA8002008B54FF49E
S315080026908002184B5A660223174A5360936813F44C
S315080026A08033FBD1012822D104F0F4F9134B984268
S315080026B015D003F5122303F5F863984213D0104B8F
S315080026C000EB8002400AB3FBF0F3520A0A49CA62D9
S315080026D00B6301234B620022074B5A6008BD45F67F
S315080026E07A13084AF2E745F61A03074AEEE75362F1
S315080026F0F1E700BF009000500040025000F0490288
S3150800270064666666D8B80500BBCF050038B5B0F56F
S31508002710207F77D00ED8B0F5007F61D003D890B36C
S31508002720B0F5C07F2FD04FF44671BDE838403D481C
S3150800273003F01BBDB0F5607FF5D13B4A4C1ED2F8BD
S31508002740FC5015F080751EBFD2F8FC3023F080735C
S31508002750C2F8FC30032C04D940F2F721314803F0C3
S3150800276004FD324AD2F8803023F0300343EA0413DA
S31508002770C2F8803035B12C4AD2F8FC3043F0807369
S31508002780C2F8FC3038BD4C1E012C0AD9102903D8D2
S31508002790274BCB40DB0704D440F2CB21214803F07A
S315080027A0E4FC03F026FD03F032FD4FF48031214BA3
S315080027B01E4A1967136F23F4704343EA04331367F9
S315080027C004F04EF90446FEF7F7FFC0F10201204671
S315080027D003F017FD00F048F8BDE83840FFF7A4BC41
S315080027E04C1E1F2C04D94FF443710E4803F0BDFC50
S315080027F00E4AD2F8903023F0F85343EA0463C2F83D
S315080028009030BFE74C1E012C04D940F2123105481E
S3150800281003F0ABFC054A136F23F4806343EA842371
S315080028201367AFE7EF75000800ED00E00080005081
S31508002830100101000090005008B50121022000F0A7
S315080028404FFA4FF42070FFF7D7FA054B187003F0CC
S31508002850D0FC03F0DCFC4FF48032024B1A6708BD4B
S31508002860B2A700200090005008B54FF4C070FFF7DB
S3150800287053FBBDE808400449884294BF0121022160
S315080028804FF42070FFF742BF80F0FA0238B50446CD
S3150800289004F0E6F80546FEF78FFFC0F10201284668
S315080028A003F0AFFC0121002000F06EFA2CB1FFF70F
S315080028B0DBFFBDE83840FFF737BC034B4FF4207009
S315080028C01978FFF723FFF4E7B2A700202DE9F047B0
S315080028D04FF4C02201210446944B5A66944A03F5E4
S315080028E098335F6851605D6815F00205FBD1226870
S315080028F0904B9A4204D840F67D218F4803F035FC68
S3150800290022688E4B9A4204D940F67E218A4803F003
S315080029102CFCA388B3F5967F04D840F68121864817
S3150800292003F023FCA388B3F5805F04D340F6822125
S31508002930814803F01AFCE388B3F5805F04D340F6B8
S3150800294083217D4803F011FCFEF736FF0128206835
S315080029500AD17B4B984207D940F68821764803F07E
S3150800296004FC0020BDE8F087764A00231146166865
S31508002970B04202D35668B04205D90133192B02F189
S315080029801002F4D1002301EB0313D3E9029028B116
S31508002990FFF7AEF900F07F0049EA00098020FFF74B
S315080029A0D3FB052840F0988003F023FC03F02FFCA6
S315080029B04FF480325D4B4FF4C0701A67FFF71CFA6C
S315080029C00128054640F0848002214FF4C070FFF7C5
S315080029D09DFE0126DFF87881D8F80C3013F0060F33
S315080029E0FAD1D8F808A0C8F80890D8F8083083EAC9
S315080029F0090313F4F81F71D1A288E38843EA024356
S31508002A00514AD360A368032B7BD1504AD2F80031D0
S31508002A1023F0030343F00103C2F80031637D227DEE
S31508002A209B0143EA820322694FF000081343227B85
S31508002A3043EA4203444A93602068FEF70DF90722E9
S31508002A403B4B1A610122A3F580535A60A3F58053C4
S31508002A501F6917F00707FBD08020FFF775FB0528CD
S31508002A602ED126B129464FF4C070FFF74FFE03F06A
S31508002A70F7FF23680546834204D240F603312E4801
S31508002A8003F073FB03F0C6FFA84204D240F60431F4
S31508002A90294803F06AFB246803F0BCFF844204D08B
S31508002AA040F60531244803F060FBFEF785FEC0F1C9
S31508002AB00201284603F0A5FBFFF7D6FEFFF734FB15
S31508002AC0B8F1000F7FF44DAF7B1E5842584149E7D5
S31508002AD0022801D1042178E700267BE740F6CF21BA
S31508002AE0154803F042FB17F00107C8F808A01AD1E9
S31508002AF08020FFF729FB05287FF433AF4FF0010844
S31508002B00AFE7092B07D1114AD2F8003123F00303A6
S31508002B1043F0020380E7082B80D10C4AD2F8003133
S31508002B2043F0030378E74FF0010888E70090005068
S31508002B3000E001509FBB0D00EF75000800B4C40407
S31508002B40005A62022876000800C001500080005032
S31508002B500000015070B54E4B0546984273D041D8D7
S31508002B60A3F5B703A3F55863984265D033D8494B04
S31508002B70494E984251D017D8002877D041F2DE1135
S31508002B80464803F0F2FA40F68671444803F0EDFA37
S31508002B904FF40022404B5A663E4B9D4276D00024A5
S31508002BA03F4A954236D05DE03D4B984227D03D4B93
S31508002BB09842E3D13C4BD3F8A040621E033224F07E
S31508002BC040744CD940F68671344803F0CEFA4FF477
S31508002BD000237366E4E7354B9842CFD1324BD3F8DE
S31508002BE0BC402CE0324B984231D0324B984232D01E
S31508002BF0314B9842C2D12C4BD3F8C8401FE02A4B20
S31508002C00D3F8A040621E033224F04074DAD84FF499
S31508002C100023736644F0807424E0234BD3F8A04065
S31508002C20621E033224F040742AD84FF400237366D8
S31508002C30234643F0007415E01B4BD3F8B840621ED8
S31508002C40154E0332BBE7184BD3F8C040F7E7164BCF
S31508002C50D3F8CC40F3E7144BD3F8D040EFE74FF462
S31508002C60002373664FF0B442946070BD40F68671D7
S31508002C700A4803F07AFA4FF400232C467366F1E704
S31508002C8040F68671054803F070FACEE70023D0E7D0
S31508002C90C0EA210140420F0000900050EF7500087D
S31508002CA080841E0000093D000080E00F0024F40027
S31508002CB00048E801005A620280BA8C01024A536B46
S31508002CC00342FCD1704700BF00400950034A01790E
S31508002CD0D36E23F030030B43D36670470040005091
S31508002CE0F8B50446244BD3F88420D006FBD4D3F891
S31508002CF08430C3F381139C423CD003F091FE012C2F
S31508002D0005460BD11D4B984204D940F29B711C48CD
S31508002D1003F02BFA0121284603F073FA04F05BFA54
S31508002D204FF00072174B07465A66204603F074FAAE
S31508002D304FF48063104E621E93403367736E9A0198
S31508002D4003D4D6F884309B060AD5384604F03EFAF2
S31508002D50022C0FD12846BDE8F840002103F051BAED
S31508002D60D6F884309906E9D540F2B371044803F0E1
S31508002D70FCF9E3E7F8BD00BF00400050005A6202C4
S31508002D80B87700080060005010B50C4608B903F083
S31508002D9047FE074B21461B783BB1064B984204D8A1
S31508002DA00120BDE81040FFF79BBF0220F9E700BFEE
S31508002DB0B3A70020005A620238B54FF00042244BF0
S31508002DC0244C5A664AF6CD33656C014605F0010572
S31508002DD0236428BB0120FFF771FF6368DB0715D55D
S31508002DE01D4B586008461D4B226BD2070CD49842DF
S31508002DF008D1072415B1174B194A1A6403F00DFABE
S31508002E00204638BD0130EFE79842F2D00024F1E7BA
S31508002E100132236B13F0080305D08A42F8D1E8E79C
S31508002E2000220E49F5E78A42E3D020210A4A916238
S31508002E300121A2F5805251600649084A886A80062F
S31508002E4003D49342D5D00133F8E79342DDE700BFB8
S31508002E5000900050004009500060095040420F00A1
S31508002E603254FFFF38B54FF00042164B01465A66FA
S31508002E704AF6CD33144C154A656C236443780B2007
S31508002E805B0043F00103D363FFF718FF63688A7892
S31508002E9023F4F87343EA02136360CA784B7943EA6A
S31508002EA00223A3600A798B7943EA0223236108780F
S31508002EB0FFF782FFEB0744BF054B236403F0ADF928
S31508002EC0012038BD009000500040095000400050D5
S31508002ED03254FFFF70B50F28044605D940F67461D1
S31508002EE0124803F042F90F244FF00042104B1149E3
S31508002EF05D6E03F580535A664AF6CD334E6C8020D4
S31508002F000B64FFF7DBFE0B6A23F00F0323430B6208
S31508002F10F30744BF084B0B64002DA2BF4FF00042D5
S31508002F20064B5A6603F079F970BD00BFB8770008FA
S31508002F3000800050004009503254FFFF00A00050A6
S31508002F4010B503F06FF9042300F5805100F500521F
S31508002F500B6113610B6113610B6113610B611361E3
S31508002F60202341F2020103610023C36083604161AB
S31508002F704FF4A0218361836541620549C3610362F9
S31508002F808362C36243630365D164036310BD00BFF4
S31508002F90FF3F0D0338B5174B044698420D4607D038
S31508002FA0154B984204D040F26911144803F0DDF835
S31508002FB025B92046BDE8384003F034B9012204F5A6
S31508002FC080535A6040F6FF71204605F00F0203F061
S31508002FD025F9A263782103F021F905F001036A07B0
S31508002FE048BF43F00203A26C02F003029A42FAD1E8
S31508002FF038BD00BF0000015B00000A50EF770008EB
S31508003000F8B505460C46164622B940F227216B4804
S3150800301003F0ABF86A4B9D4202D19CB956240DE0E9
S31508003020684B9D4247D040F22A21644803F09DF838
S3150800303044B940F27931614803F097F82046FEF723
S315080030406BFF0446AB68D80745D5B44204D24FF4A3
S315080030500D715A4803F089F8B4FBF6F46F68013C21
S31508003060FF2C07F0010704D94FF40F71534803F0FA
S315080030707CF824064FB32821284603F0CFF8AB6C1A
S3150800308099071CD1AB6CDA071BD4AE6C16F0020696
S3150800309019D140F24921494803F067F8284603F058
S315080030A0C1F82B69314623F07F4323432B61BDE8E2
S315080030B0F840FFF76FBF002CC4D15724BEE705269A
S315080030C0ECE70926EAE70626E8E72B6923F07F43BB
S315080030D023432B61F8BD6B68012B04D04FF417719D
S315080030E0364803F042F8AB6DDB07AB6848BF76009D
S315080030F003F0E003402B42D009D893B1202B1AD015
S3150800310040F29E21BDE8F8402C4803F02EB8602B0B
S3150800311042D0802BF4D106EB4603A34247D80123BD
S315080031200DE0B6EB141F04D94FF42171234803F0C0
S315080031301CF8102303E0B6EBD40F1AD80823734300
S315080031406401B4FBF3F4204F203CB7EBC40F4FEAFD
S31508003150C40604D240F2A921184803F006F8284606
S315080031603E40012103F05AF82E63BDE8F84003F00B
S3150800317055B840F28921114802F0F7FFDEE7062329
S31508003180B4FBF3F3B34201D30623D8E740F28E210A
S315080031900A4802F0EAFFF7E7B6EB940F01D80423D2
S315080031A0CDE740F29321054802F0DFFFF7E74FF439
S315080031B02671024802F0D9FFB1E700BFEF77000891
S315080031C00000015B00000A50F8FF7F002DE9F0417E
S315080031D09846436804460E4617461BB140F6FF71EB
S315080031E003F01CF82046FFF7ABFEF189737B626992
S315080031F00B43318A22F44C5222F00F020B4313433D
S315080032006361A26896F818C0337B22F0804222F0E8
S31508003210E2024CEA0303134372691343B268A360DC
S315080032201AB9A36843F00043A360F06904F5805314
S31508003230002878D0857A017A6D04D4F808E045EA42
S3150800324081556E490EEA01010D43818801F4C0419A
S315080032500D43417845EA8105417B45EAC105817BF5
S3150800326045EA0115817845EA8125A560D4F80CE080
S31508003270D0E904152943624D0EEA050529438579E7
S3150800328041EA8521C57941EA4521E16001785D4D2C
S31508003290012914D1E16841F00401E160AC4200F073
S315080032A0928059498C420CBF01214FF0FF314901E8
S315080032B001F1A04142F2944501F5703114E0032969
S315080032C07BD1E16841F00401E160AC4279D04E4916
S315080032D08C420CBF01214FF0FF3141F29445490160
S315080032E001F1A04101F570314FF0020E41F805E0F9
S315080032F0417A996219B1E16841F40061E160C17AE5
S3150800330059B1E16841F40041E1603E498C425CD123
S31508003310017B3E4D01F00F016967616AC07B21F0B0
S315080033200301014361622FB197F82010002956D096
S3150800333001211962B8F1000F2DD0BCF1000F02D09F
S315080033404FF4004199652F49B8F822508C4298F8F5
S31508003350211051D02C48844213D10120112934BFA1
S315080033604FF0010C4FF0020C294FB5F5006F07F826
S3150800337000C094BF4FF0010C4FF0020C254F07F820
S3150800338000C0A06D294320F4F95020F01E00014327
S31508003390A16501219965012159601AB12046716814
S315080033A0FFF72EFE20463178FFF7F4FDA36CDB43CA
S315080033B013F4405FFAD1BDE8F0810239012984D9B6
S315080033C06CE7002189E7002171E70F498C4201BFAC
S315080033D0017B0E4D01F00F01C5F880109DE7E069ED
S315080033E097F8221097F8215020F009002943014345
S315080033F041F00101D9619DE70020AFE7E39BBDFFDE
S31508003400FFF9F0870000015B00000A5000900350A6
S31508003410B6A70020B4A7002070B5134B05469842FE
S315080034200C4606D0114B984203D07021104802F082
S315080034309CFE1CB972210E4802F097FE237B802B56
S3150800344003D176210A4802F090FE637B032B03D949
S315080034507921074802F089FE002321462846BDE85F
S3150800346070401A46FFF7B2BE0000015B00000A5022
S31508003470EF77000870B52B4B054698420C4643D1AA
S3150800348019B98C21284802F070FE5620FEF75CFE1A
S315080034900C2807D0A0F10903012B03D9A0F11103C9
S315080034A0012B3AD8637B032B03D9AD211E4802F0C2
S315080034B05CFE237B802B03D0AF211B4802F055FE10
S315080034C06369B3F1804F03D0B121174802F04DFE6E
S315080034D0238A23F400539BB2B3F5805F03D0B3214C
S315080034E0114802F042FEA368013BB3F5165F03D309
S315080034F0B5210D4802F039FE002321462846BDE8CD
S3150800350070401A46FFF762BE8A21074802F02DFE70
S315080035101CB98C21044802F028FE9E21024802F0BC
S3150800352024FEBFE70000015BEF77000838B50328E3
S3150800353004460D4605D8094B33F81030CB40DB0757
S3150800354004D440F28541064802F00FFE30230122DA
S315080035505C43044BAA401A5138BD00BF6278000884
S31508003560AE73000840D0035038B5032804460D460C
S3150800357005D8094B33F81030CB40DB0704D440F2AA
S315080035805641064802F0F1FD302301225C43044B04
S31508003590AA401A5138BD00BF62780008AE73000809
S315080035A040E003502DE9F041032804460D4617462E
S315080035B0984605D81D4B33F81030CB40DB0704D4AA
S315080035C04FF4B0711A4802F0D0FD37B129462046AB
S315080035D0B8F1000F20D0FFF7A9FF0F21072D04EB44
S315080035E0440688BFA5F108034FEA0616114895BF99
S315080035F0AB009B0004360C3607FA03F299403044B8
S3150800360002F02FFE7FB929462046B8F1000F06D0F2
S31508003610BDE8F041FFF78ABFFFF7A6FFDDE7BDE883
S31508003620F041FFF7A1BFBDE8F08100BF627800084E
S315080036302978000830C00350F8B506460F461546E7
S31508003640002A6AD003F00304836823F44073836076
S3150800365003F0C1FDB26882EA042303F440735340C1
S31508003660B36003F0B3FD37B9B6F1B64F0DD12E20CE
S31508003670FEF752FC0746B3689A0717D5012C1BD0EC
S31508003680022C27D064B9264B17E0264B9E4201D15F
S315080036902F20EDE740F22F11234802F066FDB368AC
S315080036A04FF4B271204802F060FD08E0012C13D0F7
S315080036B0022CE7D11D4B00E01D4B9F42F0D91D4B54
S315080036C01B5D6B430AD140F27511BDE8F8401648F8
S315080036D002F04BBD184BF0E7184BEEE7A3EBC50419
S315080036E0013C3C44B4FBF3F4013C0CD540F27B119D
S315080036F00D4802F03AFD4FF4BE710B4802F035FD55
S31508003700B368B461F8BDB4F5007FF4D2B3689B071B
S31508003710F7D5002C08BF0124F3E740F21511D4E7CA
S3150800372080841E00008006506A780008002D31014A
S31508003730404B4C00A1780008809FD5004054890072
S3150800374038B5B0F1B64F04460D4607D0084B984237
S3150800375004D040F29511074802F007FD043425B15C
S3150800376004F580540123236038BD04F50054F9E7B5
S31508003770008006506A78000838B5B0F1B64F04469E
S315080037800D4607D0124B984204D04FF4D571114814
S3150800379002F0EBFC0023104A236404F50053DA63B5
S315080037A06A7804F108037AB903F5805302221A608D
S315080037B02046D5E901122B7BFFF73EFF20462978E4
S315080037C0BDE83840FFF7BCBF03F50053EEE700BF7E
S315080037D0008006506A780008FFFF1F0070B5B0F138
S315080037E0B64F0AD0824B98421DD0824840F201213A
S315080037F002F0BBFC6FF0030070BD7F4B9968C26B8B
S3150800380012F4C06F15D091050FD5FD225A70092202
S315080038101A700022026493F90110012900D15A7026
S3150800382093F90100E8E7754BE8E75605EFD5FE2260
S31508003830ECE71C78082C00F2D680DFE814F00900C3
S315080038401F004500530070007E009C00A700CB00B7
S315080038504C880A88E5060AD5120A02F0060242F0E2
S31508003860F002012119704263C1600120C4E702F029
S31508003870FE02A10748BF42F00102F2E7160608D584
S31508003880802100F50052D1634FF608721A80022390
S3150800389018E05506E9D5402400F50052D4634A8855
S315080038A0D40604D502221A700B784363DDE796071F
S315080038B06AD507221A701B7901EBC3031B89012BF2
S315080038C0D3D10823C360D0E71506D9D45406CCD57E
S315080038D0402400F50052D4634A88920754D503223F
S315080038E01A708CE74C880A88E60643BF120A02F06B
S315080038F0060242F0F00202F0FE02650709D51C79BD
S3150800390042F0010201EBC4010989012904BF08211B
S31508003910C160042119700123C3604263A5E7140638
S31508003920AED45206A1D5402400F50052D4634A8885
S31508003930560729D507221A7097E71A795D8801EB89
S31508003940C2042689AE420FD800240132D2B21A71B7
S315080039505C804C886507C2D4E40702D4012A7FF646
S315080039604EAF08221A7092E76268691C5980525D48
S3150800397042630622DFE7160682D455067FF575AF41
S31508003980402400F50052D4630522A9E794067FF582
S315080039906CAF20261A7900F5005401EBC2010A899A
S315080039A0456AE6635C88A24281BF4968661C5E80F8
S315080039B00D5559888A42D4D90424012AC46004D0F2
S315080039C0013A914201D10822C2601A78092A3FF4C5
S315080039D020AF4AE7D2057FF548AF4FF4807100F56E
S315080039E00052D16313E74FF609321A8011E700BF78
S315080039F0008006506A780008D8130020E4130020D7
S31508003A0038B5B0F1B64F04460D4607D121B940F294
S31508003A106A31264802F0A9FB254B13E0254B98424C
S31508003A200DD040F26931214802F09FFB25B940F2DA
S31508003A306A311E4802F099FB6FF0030038BD002971
S31508003A402BD01D4B2269D00744BF2022E2606A882A
S31508003A50910702D529890029EED0520702D52A8A6C
S31508003A60002AE9D04FF480721A6000229D601A710C
S31508003A70C023E3606369DB0515D4202204F50053EF
S31508003A80DA630E4A2046DA634FF4FC6204F5805383
S31508003A901A64BDE83840FFF7A1BE40F26A31034810
S31508003AA002F063FBCDE7636AE4E700BF6A780008C3
S31508003AB0D813002000800650E4130020FFFF1F00E3
S31508003AC010B5152000F0E8FC0024FF22064B21461D
S31508003AD05C6520209A625C60FEF7F6F92146BDE82F
S31508003AE010402120FEF7F0B90000045038B5072829
S31508003AF004460D4603DD7721084802F036FB1F2CE5
S31508003B0003D99121064802F030FB064A064B002DE0
S31508003B1008BF13460122A2401A6038BDA5780008DE
S31508003B20DD780008401004504020045010B50446C3
S31508003B3018B991211F4802F018FB23781B0613F0C9
S31508003B40604F03D092211B4802F00FFBE3780F2B3E
S31508003B5003D99521174802F008FB01212020FEF71A
S31508003B60B3F901212120FEF7AFF90122124B1520E6
S31508003B705A60227812069A606178A27842EA01426F
S31508003B809A61FF229A6200229A631A644FF00042F1
S31508003B905A654FF0FF3203F500531A6500F0CCFC66
S31508003BA01520E17800F0D6FCBDE81040152000F09D
S31508003BB091BC00BFA578000800000450F8B501269E
S31508003BC0C3B2072805460C46174606FA03F603DD70
S31508003BD0DE21344802F0C9FA1CB9DF21314802F067
S31508003BE0C4FA236823F47C1323F00F031BB1E221E4
S31508003BF02C4802F0BAFAA37A1B0413F47C0F03D0FC
S31508003C00E721284802F0B1FAE37A1B0513F07E6F24
S31508003C1003D0E921234802F0A8FA237B5B0513F0B9
S31508003C20FE5F03D0EB211F4802F09FFA1E4B27F0D8
S31508003C3003071E65AB00226803F1A04303F588233A
S31508003C405A60302202FB05F0637B00F1A04000F5C4
S31508003C5080200366E37AA27A1B0543EA0243227BA5
S31508003C6043EA4253C365076703F0BEFA0F4B227A4D
S31508003C705E6502B11E64627A02B19E632279A379F7
S31508003C8043EA0243084A93616179E37943EA0143C7
S31508003C9006498B61064B56639E64BDE8F84003F0FF
S31508003CA09EBA00BFA57800080020045000100450F2
S31508003CB00000045010B50124C3B2072804FA03F41F
S31508003CC004DD40F27B11074802F04FFA03F08CFA44
S31508003CD0054B5A6D22EA04025A659C62BDE81040FB
S31508003CE003F07DBAA57800080000045010B5012439
S31508003CF0C3B2072804FA03F404DD40F299110A480E
S31508003D0002F033FA03F070FA084BDA6A224208D155
S31508003D105B6B9C430CBF0124002403F060FA204629
S31508003D2010BD0024F9E700BFA5780008000004507C
S31508003D3070B50125C3B20728044605FA03F504DD64
S31508003D404FF4E071094802F010FA03F04DFA3022F8
S31508003D50074B5E6B02FB04335C6E03F040FA354298
S31508003D600ABFC4F30A100020013070BDA578000808
S31508003D70000004500B4B984211D003F5804398423B
S31508003D800DD003F58043984209D003F58043984245
S31508003D9005D003F58043C31A58425841704701209D
S31508003DA0704700BF0080045030B4184CA04214D0AD
S31508003DB004F58044A0421BD004F58044A04219D0E3
S31508003DC004F58044A04217D004F58044A04215D0DB
S31508003DD030BC8F210E4802F0C8B9002006250D4CCC
S31508003DE073B105FB001004EB8004A26430BC704775
S31508003DF00120F3E70220F1E70320EFE70420EDE7CF
S31508003E0005FB0011120204EB8104EEE70080045062
S31508003E10507900080081035038B505460C46FFF76F
S31508003E20A9FF18B9B421214802F09FF9284602F0E3
S31508003E3027FA012205F500531A632B6B9B07FCD45E
S31508003E40237962881B0243EA8243A27A1343627883
S31508003E5043EA8213E27A43EAC213227B43EA421315
S31508003E60627B43EA0213A27B43EAC203E27B43EA8C
S31508003E70C223A27943EA0243E27943EA4243012292
S31508003E806B6005F580531A6322780AB90223EB6042
S31508003E9000236B626379217A1B0143EA8103617A05
S31508003EA00B43AB600AB10123EB6038BD50790008BB
S31508003EB0F8B506460F461446FFF75CFF20B94FF4DF
S31508003EC08671254802F051F9022F04D940F20D11E6
S31508003ED0214802F04AF9304602F0D2F9012206F5E5
S31508003EE000531A63336B9B07FCD4637AE2791B0190
S31508003EF043EA0253A27906EB47151343E27A43EAEB
S31508003F00C2432B66237A1BB3237B2A6E394642EAC1
S31508003F1043422A66013B18BF01233046A278FFF7C1
S31508003F2043FF012306F580563363637822781B0620
S31508003F3043EA8263E27843EA0233227943EA822338
S31508003F40627943EA0223A27A43EA82036B66F8BDE2
S31508003F502B6E2B66E5E700BF5079000810B50446BE
S31508003F6020B940F23A21104802F0FFF82378C3B18D
S31508003F70012B03D0022B14D0032B04D13F236278E4
S31508003F80D340DB0704D440F23D21074802F0EDF8A0
S31508003F900122637821789A4030235943034B5A50BB
S31508003FA010BD40F2FF33EAE78979000840E0035084
S31508003FB0034BD3F82424D3F820041040704700BFDD
S31508003FC000C003502DE9F041037804460D46164615
S31508003FD013B3012B03D0022B1ED0032B04D13F238E
S31508003FE06278D340DB0703D45D21274802F0BDF889
S31508003FF0264BD3F810331BB16021234802F0B5F8DD
S315080040000F2D0CD8DFE805F0373232323232323231
S31508004010323232323232323240F2FF33E0E7B42102
S31508004020194802F0A2F84FF00008204606B302F03D
S31508004030EDFD0F2167782378072F03EB430388BF2D
S31508004040083F4FEA0313124895BFBF00BF00043369
S315080040500C3308FA07F2B940184402F018F985B982
S31508004060204656B1BDE8F04102F0D0BDA846DCE7CF
S31508004070FFF774FFDDE7A846DBE7BDE8F041FFF789
S315080040806DBFBDE8F08100BF067A000800C0035086
S3150800409030C00350054B9A689107FCD45A689207BA
S315080040A0F9D4DA69002AF6D1704700BF00800A50B1
S315080040B010B5074C6368DB0704D44FF49F710548B5
S315080040C002F053F802F0CCFD0223236110BD00BFB5
S315080040D000800A50477A000808B5FFF7DBFF01227F
S315080040E0024B03F580514A601A6108BD00800A50E8
S315080040F010B5044B5C68012C03D1FFF7D9FF024BBE
S315080041005C6010BD00800A5000A00A5038B5074D03
S31508004110FFF7C0FF6B680446012B03D1FFF7E8FFE2
S31508004120FFF7B8FF2378EB6038BD00BF00800A5060
S3150800413038B505460C4602F09DFDBDB96268237880
S3150800414012B1127843EAC203627843EA4203A268CC
S3150800415012B1127843EA8213E27843EA82032269AB
S3150800416012B1127843EA4223014A936438BD00BF6C
S3150800417000800A5030B58BB0A54803F040F820B14E
S315080041804FF44E71A34801F0F0FF6C46A24D0FCDD7
S315080041900FC42B68A14A2360FF238DF80130D2F89B
S315080041A04C3113F4802340F02781D2F850218DF842
S315080041B001309DF801306C46FF2B08BF2523684661
S315080041C0974D8DF80130FEF7F3F93220FEF752FAD3
S315080041D00FCD0FC40FCD0FC495E8030084E8030084
S315080041E08E4BD3F84C21100340F1EA80A3F5FE4329
S315080041F01C88B4F5807F28BF64248DF81940FEF723
S31508004200D1F9044484F3080486488DF81840FCF76D
S3150800421029FD6846FEF7B4F83220FEF731FA824ADD
S31508004220824B0321CDE900230023CDE902130123A4
S315080042308020CDE90433FDF787FF0528044606D11B
S315080042407B4A136F23F0070343F00103136779488A
S3150800425002F0D5FF20B14FF4CE716E4801F085FF0C
S315080042606846FEF733FB052C06D1714A136F23F017
S31508004270070343F00203136720B94FF4D371654867
S3150800428001F073FF6C48FEF765FC6C4802F0B7FF57
S3150800429020B140F2CB115F4801F067FF644C002063
S315080042A0FEF7F4F9FEF7C8FA236F002023F0070398
S315080042B043F002032367FEF7E9FA236F604923F404
S315080042C0744343F4806323675E4BD3F8FC2012F0F3
S315080042D0807279D1D4F8803023F0030343F00103C8
S315080042E0C4F88030C1F88020514CD4F8203123F02E
S315080042F0070343F00103C4F82031D4F8283123F02A
S31508004300070343F00103C4F82831D4F8803123F0B9
S31508004310030343F00103C4F88031D4F8403123F095
S31508004320030343F00203C4F84031D4F8603123F0A4
S31508004330030343F00203C4F86031D4F8403223F093
S31508004340030343F00203C4F84032D4F8003223F0E2
S31508004350070343F00203C4F80032D4F8083223F006
S31508004360070343F00203C4F80832D4F8703223F086
S31508004370030343F00103C4F87032D4F8203223F063
S31508004380070343F00103C4F82032FDF7E1FF4FF0BD
S31508004390E0220020136943F004031361D4F8603265
S315080043A023F0070343F00103C4F86032D4F89432CB
S315080043B023F0070343F00103C4F894320BB030BD71
S315080043C0D3F85041E4B218E7D3F8FC2022F0807203
S315080043D0C3F8FC20D4F8802022F0030242F0010240
S315080043E0C4F880200022C1F88020D3F8FC2042F0CF
S315080043F08072C3F8FC2077E74FF07E6393F89C2021
S3150800440093F99C30002BFFF6D4AE8DF80120D0E648
S31508004410187C0008617B0008C07B00080080E00F5C
S31508004420D47B0008C0175302802FA604FF0E7F070F
S3150800443000800050307C0008C0EA21011C7C00087E
S315080044400090005000ED00E007B5094B18689A88FF
S315080044509B7900906846ADF804208DF80630FEF783
S3150800446001FD0C20FEF736FD002003B05DF804FBC5
S31508004470FC7B000813B50024064A6846536F43F0D0
S315080044800103536700948DF80440FEF71FFC20468D
S3150800449002B010BD0040005010B54C2804460DD897
S315080044A001220A49630904F01F04A240203341F897
S315080044B02320BFF34F8FBFF36F8F10BD40F2251136
S315080044C0034801F052FE002CF7DBE9E700E100E0C3
S315080044D0887C000810B54C28044608D801236109D1
S315080044E0074A04F01F04A34042F8213010BD4FF4D8
S315080044F09871044801F039FE002CF7DBEEE700BF9F
S3150800450000E100E0887C000810B54B28044604D971
S3150800451040F23B11064801F028FE064B621153F89B
S31508004520220004F01F04E040C04300F0010010BD63
S31508004530887C000800E100E0002808DB0122430926
S31508004540034900F01F008240603341F8232070477A
S3150800455000E100E038B500F110035C2B04460D4677
S3150800456004D94FF4EF710E4801F0FFFD0F2D04D961
S3150800457040F2DF110A4801F0F8FD60B20028ACBF2E
S3150800458000F16040074B4FEA0515EDB2ABBF00F5E9
S31508004590614000F00F0080F800531D5438BD00BF7D
S315080045A0887C000814ED00E010B502F01DFE0A4BE9
S315080045B01A786AB901226FF004041A7002F00FFE25
S315080045C0204605210134FFF7C5FF4C2CF8D110BD54
S315080045D0BDE8104002F003BEB8A7002010B5044697
S315080045E002F0F9FD024B1C6002F0F0FD002010BD40
S315080045F0F013002010B502F0EEFD034B1C6802F024
S31508004600E5FD204610BD00BFF01300202DE9F0435C
S315080046108FB01D46136881461F6891F83130884669
S31508004620144606AE1BB3DFF828C2BCE80F000FC657
S315080046309CE80F0086E80F0018220021684601F062
S31508004640DDFFA3680893237B012B13D0022B14D01C
S315080046501BB1D921774801F088FD0023ADF8263033
S31508004660637B032B1FD8DFE803F00B25221BDFF83B
S31508004670E4C1DAE74FF40073F0E74FF44073EDE76F
S315080046800023ADF8283001238DF80630A37BCDF83A
S3150800469034D0042B11D8DFE803F0141515151400CF
S315080046A04FF44053EDE7EB21624801F05EFD4FF40D
S315080046B08053E6E74FF40053E3E7FE215D4801F037
S315080046C054FD00238DF800305B4AD8F83830294667
S315080046D01A605A4A48465A6000229A60584ADA606E
S315080046E0424600F069FC0646002840F09B80236994
S315080046F05448C5F8A430237E85F8AB30E37D85F8A9
S31508004700AA30A37D85F8A930637D85F8A830A37EF5
S3150800471085F8AD30637E85F8AC30237F85F8AF30F9
S31508004720E37E85F8AE302368C5F8A03002F067FD51
S3150800473001230422A17D607DFEF734FF0123217E3B
S315080047400222E07DFEF72EFF85F8B060206902F0B0
S3150800475056FD98F83130384606A9002B66D0FEF784
S315080047605BFE95F8B03043F0040385F8B0301421A9
S31508004770227D354B03EB4210C0F8941494F816C00A
S31508004780617D253241EA0C41C0F8AC14207EE17DFA
S3150800479003EB421341EA00415960A37B03F0FD0392
S315080047A0012B0BD195F8B030022243F0010385F8AE
S315080047B0B030A17E0023607EFEF7F4FEA37B023BA9
S315080047C0012B0BD895F8B030042243F0020385F884
S315080047D0B030217F0023E07EFEF7E4FE95F8B03086
S315080047E0DB0717D5A17E627E237D42EA014241F2AC
S315080047F09C415B0103F1A04303F570335A5041F223
S31508004800944202219950217FE27E03F5A55342EA9C
S3150800481001421A600D4A07F5005305213846DA6445
S31508004820FEF7B8FB30460FB0BDE8F083FEF722FE70
S315080048309DE700BFE97C00080B6300089D6300083C
S3150800484021630008287C000800C00350FF3F0D03C1
S31508004850387D0008587D000840F24221014801F0E1
S3150800486084BC00BFE97C000810B50020144601F09E
S3150800487023FD022804D018B1C321024801F075FCB3
S31508004880204610BD787D00083021037D02464B4343
S3150800489003F1A04303F58023D86E07491B6F8842AE
S315080048A008D113F0020006D0106A136D1B1A58427D
S315080048B05841704700207047B9A7002037B5302304
S315080048C0007D0DF10701434303F1A04303F580235F
S315080048D0DD6E1C6F02F056F920B140F2F931084836
S315080048E001F043FC9DF8070040B9064B9D4203D1F1
S315080048F084F00204C4F3400003B030BD0120FBE796
S31508004900CE7D0008B9A7002037B504460DF107018A
S31508004910007D02F037F920B140F24441114801F018
S3150800492024FC9DF80730A3B1256DD4E9122313445E
S315080049309D4201D8AA4204D940F24F41094801F0E4
S3150800494014FCD4E9120303449D4218BF284603B059
S3150800495030BD3022237D534303F1A04303F5802362
S31508004960DD6EE2E7CE7D00082DE9F743D0E9043491
S3150800497004F17C07D0F80C90013B06461022002172
S3150800498038469DB2D4F8748001F038FE104BC5F352
S315080049900A0543EA0513C4E91F39012394F8780088
S315080049A084F88C30C4F884803A460A4B009604F1A1
S315080049B06401FCF761FE38B140F28D31064803B058
S315080049C0BDE8F04301F0D1BB03B0BDE8F08300BFFA
S315080049D000001030514B0008CE7D00082DE9F04349
S315080049E085B000F13806044610220021304601F051
S315080049F005FE4FF44473534D207DC4E90F55638774
S31508004A00FCF760FE20B140F2CA514F4801F0ADFBF9
S31508004A1010220021304601F0F1FD4FF444736387FC
S31508004A203023207DC4E90F55434303F1A04303F522
S31508004A308023DB6EAB420BD1FCF764FE002876D0F0
S31508004A4040F2D351404805B0BDE8F04301F08DBBB4
S31508004A500DF10B0102F096F820B140F2D9513A480F
S31508004A6001F083FB9DF80B30002B63D12046FFF73E
S31508004A704BFF03A90746207D02F0A6F820B140F2B5
S31508004A80E151314801F071FB039B002B04DC40F235
S31508004A90E3512D4801F069FB039B04F11808013B1B
S31508004AA01022002140469DB2D4F8109001F0A6FDD0
S31508004AB03022237DC5F30A0553432D0145F0407581
S31508004AC0C4E9065903F1A043276203F580231A6F48
S31508004AD094F82410520862F3410184F82410196FDF
S31508004AE094F8242028F0030861F3000284F82420AF
S31508004AF01B6F626A9B0863F39F0248F002036262B7
S31508004B006364009432462146104B207DFCF7B4FDC1
S31508004B1020B140F204610C4801F027FB207DFCF728
S31508004B20F1FD20B14FF4C161074801F01EFB05B045
S31508004B30BDE8F08394F844306FF3410384F84430B9
S31508004B40DFE700BFB9A70020CE7D0008ED630008A7
S31508004B5038B55569144695F88C3023B940F26A3150
S31508004B600A4801F002FB002305F1900085F88C3015
S31508004B70FCF79AF808B1FFF7F7FE63681BB1002146
S31508004B802046A2689847002038BD00BFCE7D0008A1
S31508004B9038B50446007DFCF795FD20B140F22D415D
S31508004BA0084801F0E2FA2046FFF76EFE0546207D2A
S31508004BB0FCF7A8FD20B140F23241024801F0D5FACF
S31508004BC0284638BDCE7D00082DE9F04F8DB09946B0
S31508004BD00023044608910692C9F80030D9F8006007
S31508004BE0069B9D1B00F0C580089B9E1900F0C1809E
S31508004BF02046FFF7CDFF8046002840F0BA802046C1
S31508004C00FFF782FE226D904240F2BC80801A8542F0
S31508004C1028BF054694F896A0BAF1000F00F0F28076
S31508004C2002F0E2FA236D079020460993FFF746FE45
S31508004C302F46099B834658198342D4F8981040F0AA
S31508004C40BC80D4E9122313448B4208BFC4F89820C9
S31508004C50D4F898108A4201D88B4204D840F24251BF
S31508004C608A4801F082FA079802F0B9FADA46207DF6
S31508004C70FCF728FD20B140F28241844801F075FA1C
S31508004C80207D0DF12F0101F07DFF20B140F2864114
S31508004C907E4801F06AFA2046FFF736FE236D834602
S31508004CA098429DF82F3040F2BC8023B140F28E41E5
S31508004CB0764801F05AFAA26C236DAEB2934240F0E0
S31508004CC0A880099304F12808236910220021404688
S31508004CD0079301F093FC3021079B013EE362099B91
S31508004CE0C6F30A062363237D36014B4328F00308DF
S31508004CF003F1A04346F0407648F0020203F580230C
S31508004D00A6621A67236DD4E912122B440A44934209
S31508004D1008BF0B469342236504D340F2DE415B4845
S31508004D2001F023FA236D9B4505D10123204684F81B
S31508004D305430FFF753FE207DFCF7E4FC20B140F227
S31508004D40F741524801F011FA94F896303BB1BAF19E
S31508004D50000F04D0236E112120465B689847D9F8C6
S31508004D60003037B1069A3B449342C9F80030FFF445
S31508004D7035AFD9F80030002B14BF00201B200DB02A
S31508004D80BDE8F08FD4E912310B449A4204D340F2BD
S31508004D906A413E4801F0E9F9D4E912321344226D1A
S31508004DA09B1A9D4228BF1D46002D7FF433AF40F263
S31508004DB01651364801F0D9F92CE701335A1E9142AB
S31508004DC010D1C4F8983013F8012C112A01D0132AEF
S31508004DD014D1013FA2F111014A424A41D04684F852
S31508004DE09C2029E713F8012C02F0FD01112906D1B0
S31508004DF0013FB8F1000F3FF41FAFEBE7D04606F8C6
S31508004E00012B19E72A463046216D01F002FC2F4690
S31508004E102DE7238DC3F30A12164466F30E13238572
S31508004E2070E7207D93B93023584300F1A04000F580
S31508004E308020426E436EC2F30A1223F4FF432A44CB
S31508004E4023F0700343EA021343665BE7104B0494AE
S31508004E5003930023CDE90153012300935A4623699E
S31508004E60216801F09DF920B140F2CB41074801F0D5
S31508004E707CF93022237D534303F1A04303F58023B5
S31508004E805A6E22F480125A663CE700BFCE7D0008AF
S31508004E90ED6300082DE9F84F90F8943004460D4666
S31508004EA0002B40F0858090F89580DFF808918E18E1
S31508004EB0B54223D094F896306BB12046FFF768FECA
S31508004EC0F8B1D4F89820236D9A4204D040F2CD2147
S31508004ED0484601F04AF994F89C30002BE8D0236E36
S31508004EE02F462A785B68B8F1000F59D1236E204601
S31508004EF05B683978013598470028D9D00020BDE885
S31508004F00F88F02F071F90746207DFCF7DBFB20B12C
S31508004F1040F2D321274801F028F92046FFF7F4FC90
S31508004F20A26C00F1FF3A924538BFE36C207D3CBF86
S31508004F3003F1FF3302EB030A94F854B0FCF7E2FBE3
S31508004F4020B140F2DF211B4801F00FF9D4F8981080
S31508004F50BBF1000F22D0236D8B4204D04FF4397178
S31508004F60144801F002F9384602F039F9B3E7A26CA1
S31508004F709A4202D9E36C013B134499420BD013F8C9
S31508004F800129112A01D0132AF1D1A2F111035A429B
S31508004F905A4184F89C20C4F898A0E4E75346ECE705
S31508004FA00A2AA3D10D212046984700289ED0A5E7B6
S31508004FB00E20A4E7CE7D0008F0B589B00C4615464C
S31508004FC00646A0220021204601F018FB2746AC46DB
S31508004FD0BCE80F000FC7DCF8003005F1140C3B6085
S31508004FE004F16407BCE80F000FC7DCF80030EA6A72
S31508004FF03B60AB6AC4E9132395F83020A36484F8B0
S31508005000952095F83320C4F89830012384F8962023
S3150800501084F89C3084F85430AB6B2366324B34608A
S315080050207360324BB360324BF360324B7361324B71
S31508005030B361324B3361FCF7EBFA10B1304B98424F
S315080050400FD1002107A8FCF76BFA014648B9079B60
S3150800505007A82375FCF764FA0346207D23B1FCF7FD
S31508005060B1FA102009B0F0BD079B84F87830FCF738
S3150800507029FB0028F5D1234B0494CDE90203E36C00
S315080050800193012300932369A26C2168207D01F016
S3150800509087F80028E5D13022237D4FF48011534349
S315080050A042F2640203F1A04303F580239950AB6BE7
S315080050B093F91000FFF740FAAB6B93F91000FFF76E
S315080050C009FA04F1900001F051F83046FFF786FA24
S315080050D02046FFF783FC207DFCF714FB003818BF39
S315080050E001200001BEE700BF954E00085D64000878
S315080050F0C94B0008E1630008E76300080951000886
S31508005100038000F0ED63000870B50568044695F85D
S315080051109460002E3BD101F0C4F9FFF76BFA844284
S3150800512002D13046FFF75AFA2B6E93F91000FFF7B3
S3150800513003FA2B6E93F91000FFF7AEF9287D01F0FC
S3150800514001FD20B140F29721144801F00EF8287DA0
S31508005150FCF738FA20B140F29B21104801F005F817
S31508005160FCF70EFA38B10E4B984204D040F29F2154
S315080051700A4800F0FAFF0023C4E90033C4E90533FE
S31508005180E3602B6E2846BDE87040DB68184740F29E
S315080051906621024800F0E9FF0F2070BDCE7D0008A9
S315080051A0058000F00346054A0549106803448B420A
S315080051B08CBF4FF0FF301360704700BF1CA800205B
S315080051C00000042070B502F00FF8144E0546347836
S315080051D0FCB9134B1C60134B1C60134B1C6000F08E
S315080051E047F8012002F09EF801F08CFF0F4B0246AB
S315080051F0186020B9284601F0F2FF232070BD234627
S3150800520040F2E7310A4800F095F80A4B1860012386
S315080052103370284601F0E3FF0020EFE7BCA7002023
S31508005220FC130020F81300200414002000140020AA
S3150800523018FCFFFFF413002000B58DB001238DF88C
S315080052400F3001F0A1FE00230146CDE90033074ADD
S315080052500DF10F0304A802F03DF818B99DF80F30B8
S31508005260002BFBD10DB05DF804FB00BFCF72000820
S3150800527010B586B000241422214601A88DF80040F6
S3150800528001F0BCF9012313488DF8043001F0B7FF8B
S31508005290BFF34F8F6846FEF739FF204601A98DF800
S315080052A00440FEF745FF20460F2101F003FD0F21BC
S315080052B0204601F00DFDFEF70FFF01F0D1FC064B6D
S315080052C043209C61FFF738F94320FFF703F906B03E
S315080052D010BD00BF187C000800800A5010B50446AF
S315080052E001F0BEFB4FF47A729042B0FBF2F105D2A0
S315080052F03621BDE810400C4800F037BF0B4BB3FB16
S31508005300F1F30B49884201D93C21F2E702FB04F08C
S31508005310B0FBF3F0022806D9BDE810400323B0FB22
S31508005320F3F0FAF725BF10BD657E000840420F006E
S31508005330E7CD9A3B53B94AB9002908BF00281CBFD4
S315080053404FF0FF314FF0FF3000F082B9ADF1080C95
S315080053506DE904CE00F006F8DDF804E0DDE9022385
S3150800536004B070472DE9F04F099D0C46002B4DD12E
S315080053708A420F4684469646B2FA82F360D94BB102
S3150800538002FA03FEC3F120029F4000FA03FC20FA4A
S3150800539002F217434FEA1E461FFA8EF44FEA1C42E2
S315080053A0B7FBF6F106FB117701FB04F042EA074268
S315080053B0904208D91EEB020201F1FF3702D2904251
S315080053C000F231813946121A1FFA8CFCB2FBF6F04C
S315080053D006FB102200FB04F44CEA024C644508D98B
S315080053E01EEB0C0C00F1FF3202D2644500F21E815E
S315080053F0104640EA0140ACEB040C002125B12CFA1A
S3150800540003F30022C5E90032BDE8F08F8B4205D9C7
S315080054100DB1C5E9000100210846F5E7B3FA83F1A5
S3150800542000294DD1A342C0F0F380904280F0F0806D
S31508005430064623460846002DE6D0C5E90063E3E79D
S31508005440002B40F0A3808A1A4FEA1E471FFA8EF6F1
S315080054500121B2FBF7F407FB14204FEA1C4242EA8B
S31508005460004206FB04F090420FD91EEB020204F13B
S31508005470FF382CBF4FF001094FF00009904203D9BD
S31508005480B9F1000F00F0CC804446121A1FFA8CFCC2
S31508005490B2FBF7F007FB102200FB06F64CEA024CBB
S315080054A0664508D91EEB0C0C00F1FF3202D26645A0
S315080054B000F2B3801046ACEB060C40EA04409DE7C8
S315080054C0C1F120068B4004FA01FE22FA06F720FAFB
S315080054D006FCF4408A401F434EEA0C0300FA01FE1C
S315080054E04FEA17484FEA13491FFA87FCB4FBF8F04E
S315080054F008FB104449EA044400FB0CF9A1450ED9FF
