S0170000786732365F7466745F7370695F4C69622E733337C8
S31508000000001000208144010889190308891903088A
S31508000010891903088919030889190308891903081E
S31508000020891903088919030889190308891903080E
S315080000308919030889190308891903086715030824
S3150800004089190308891903088919030889190308EE
S3150800005089190308891903088919030889190308DE
S3150800006089190308891903088919030889190308CE
S3150800007089190308891903088919030889190308BE
S3150800008089190308891903088919030889190308AE
S31508000090AD420108DB180308891903088919030802
S315080000A0891903088919030889190308891903088E
S315080000B0891903088919030889190308891903087E
S315080000C0891903088919030889190308514F010872
S315080000D0891903088919030889190308814A010837
S315080000E0614A010889190308891903088919030847
S315080000F0891903088919030889190308891903083E
S31508000100891903088919030889190308891903082D
S31508000110891903088919030889190308891903081D
S31508000120891903088919030889190308891903080D
S3150800013089190308891903088919030889190308FD
S3150800014089190308891903088919030889190308ED
S3150800015089190308891903088919030889190308DD
S3150800016089190308891903088919030889190308CD
S3150800017089190308891903088919030889190308BD
S31508000180891903088919030889190308EB2D030837
S31508000190891903088919030889190308891903089D
S315080001A0891903088919030889190308891903088D
S309080001B08919030890
S315080001C0013800D0FCE770470348044B834202D04D
S315080001D0034B03B118477047B8240220B8240220FD
S315080001E000000000064B0749C91A891048BF0131AB
S315080001F0491003D0044B0BB101481847704700BF9C
S31508000200B8240220B82402200000000010B5064CCD
S31508000210237843B9FFF7D8FF044B13B10448AFF36B
S3150800022000800123237010BD441302200000000043
S315080002300885030808B5054B1BB105490548AFF302
S315080002400080BDE80840FFF7CDBF00BF00000000F2
S315080002505811002008850308A3F5803A704700BFA7
S31508000260174B002B08BF134B9D46FFF7F5FF0021E0
S315080002708B460F461348144A121A31F0D7FE0E4B16
S31508000280002B00D098470D4B002B00D09847002034
S31508000290002104000D000D48002802D00C48AFF3D9
S315080002A0008019F0DDFF2000290031F067F919F008
S315080002B013FE00BF00000800000000000000000058
S315080002C000100020001000207C23022000000000FF
S315080002D00000000010B598B002F0F2FD00F09AF8A0
S315080002E00446002009F036FCC0F307238DF80530D4
S315080002F0C0F307438DF806308DF8040001992046AF
S3150800030000221DF0BCFE2046002247F6FF711DF0B4
S31508000310E9FE00230A22072120461CF0D5F802A888
S3150800032009F07EFA214602A829F0DFF9322202A84E
S315080003300A2129F0E3F902A84FF47A7129F0D9F9CC
S3150800034002A8642129F0EAF902A84FF4967129F067
S31508000350E3F902A84FF4FA7129F0E4F902A84FF07C
S31508000360FF3129F0DDF902A80B4929F0CDF90B492F
S3150800037002A829F0BCF902A809F06CFA02A80849F3
S3150800038029F0B5F9F0220A2102A829F0B7F902A83E
S3150800039009F060FA18B010BDA3960208D5A801089E
S315080003A0D1A80108202101482AF004BAA411002086
S315080003B0014B186C704700BF7011002010B5044639
S315080003C000B9FEE7064A07491AF0A3FA63692BB192
S315080003D020B92046BDE810400121184710BD00BFCE
S315080003E011A9020805A9020810B5044600B9FEE7D6
S315080003F00649074A1AF08DFA6369014623B118B906
S315080004002046BDE81040184710BD00BF0BA90208DA
S3150800041019A9020810B50146044800F009F804466F
S3150800042000B9FEE71BF093F9204610BD3C2E0308E1
S3150800043070B506460D462B4A20B1036A1A4212D0F9
S31508000440C3F30F100AF074FA044648B1C0E9006510
S315080004507DBB02F081FB064638B920460AF07AFAD7
S315080004600024204670BD0068E6E7D0F8B40208B953
S31508000470C6F8D052D6F8D012013189000AF074FABB
S3150800048000B9FEE70025D6F8D032C6F8B4025A1CE1
S31508000490C6F8D02240F823402846C4E9055502F09C
S315080004A06BFB0138E061284602F076FB01382062D2
S315080004B0D7E7AB6813B928461BF0FDF8AE68318D4F
S315080004C03068013189B2318589000AF04DFAAA6887
S315080004D03060138D126803F18043013B42F82340D4
S315080004E0BFE700BFF0FF0F0038B5044605F048FE29
S315080004F028B1237E13F002003ED1DD073DD42368E0
S315080005009D6805B1083501222146284629F031FFA4
S31508000510012832D1207E10F002002DD121461BF091
S3150800052059FD012829D1227E12F0020224D1214642
S31508000530284629F01EFF01281FD1237E99071BD4C0
S3150800054020681DF01EFE0546B0B1237E5A0713D457
S315080005502389283B012B11D94FF4804120681AF0D2
S3150800056070FE48B12389133B9BB21E2B06D8044A5A
S3150800057022FA03F3DB0701D5012038BD2560B5E76C
S31508000580F19F785837B50B4905461AF060FE0446C0
S3150800059010B1002003B030BD28461DF0F2FD00283A
S315080005A0F7D0162221461DF031F980B2003818BF5F
S315080005B00120EFE70100060007B50022054B3121AF
S315080005C0CDE900236A461BF01AFD009803B05DF8D2
S315080005D004FB00BF010000E007B50023054A3121EE
S315080005E0CDE900236A461BF00AFD019803B05DF8C1
S315080005F004FB00BF010000E02DE9F04F87B08146FB
S31508000600FFF7C0FF0446002840F0FE8048461DF06C
S31508000610B8FD21460822824648461DF0F7F82146CD
S31508000620059005468346092248461DF0EFF804461C
S3150800063005900090BAF1000F07D1024629464846B0
S3150800064007B0BDE8F04F1CF068B950461BF092FFA2
S31508000650804650461BF09EFF05F0C043B3F1005F8D
S31508000660074614D16FF0604325F0C0459D420ED071
S315080006704FF0640BB5F1805FA2BFC5F17F6505F544
S315080006807F2505F6FF7505FB08F595FBFBFB04F0D2
S31508000690C043B3F1005F13D16FF0604324F0C04448
S315080006A09C420DD06423B4F1805FA2BFC4F17F647D
S315080006B004F57F2404F6FF747C4394FBF3F300935C
S315080006C06A22002148461DF0A1F86B2200210590F8
S315080006D00390064648461DF099F809F11404CDE939
S315080006E001000590204629F0C7FB0546204629F05B
S315080006F0C8FBDDE90112039B044603F0C040B0F1D4
S31508000700005F12D16FF0604023F0C04383420CD0E3
S315080007106426B3F1805FA2BFC3F17F6303F57F232D
S3150800072003F6FF736B4393FBF6F602F0C043B3F18F
S31508000730005F12D16FF0604322F0C0429A420CD09B
S315080007406423B2F1805FA2BFC2F17F6202F57F2205
S3150800075002F6FF72624392FBF3F1009B0A220B44F6
S31508000760484600215E449B461DF050F8059010F05F
S31508000770FF0007D150461BF008FD012820D1A8EB41
S3150800078005051CE0023807281AD801A353F820F0FB
S31508000790B10700087F070008D7070008C707000841
S315080007A0DD070008E9070008E3070008F90700085D
S315080007B005EBD57508EBD8786D10C5EB68052E44A2
S315080007C05A4631463BE705EBD57508EBD8786D10E8
S315080007D0C5EB68052E443C1BA344F1E7A8EB0505C9
S315080007E0F8E7A8EB05052E4404EBD47407EBD77796
S315080007F06410C4EB6704EFE705EBD57508EBD8780A
S315080008006D10C5EB6805EEE707B0BDE8F08F00BFD1
S315080008102DE9F04F91B090F82B30044603F00C0305
S315080008200C2B03D1002011B0BDE8F08F1DF0A9FCF8
S3150800083006460028F6D094F82B1004F1140311F09C
S315080008400801019363D0184629F016FB94F82B107B
S31508000850074611F0040100F0AF81019829F011FB59
S315080008600546019829F008FB874200F08A8220464F
S315080008701CF03CF8636930460893A3690CA90993F0
S31508000880E3690A93236A0B931BF094FE00220CA9D2
S3150800089008A829F066F8804610B930461CF02CFEE8
S315080008A0A36920461D44013D25621BF06EFC012804
S315080008B00BBFE3696369DB1BFF180BBF013307F145
S315080008C0FF376361E7612E2108AA20461BF097FBD4
S315080008D02246272130461BF092FB20461CF006F8DC
S315080008E094F82A30002243F00203019884F82A304B
S315080008F00CA929F036F8B8F1000F00D110B130462E
S315080009001CF0FAFD20461BF03DFB01208BE7012277
S3150800091020461CF07BFF00F0C043B3F1005F804621
S3150800092005460C90304605D16FF0604328F0C04765
S315080009309F4234D11BF01EFE6FF04043984502904B
S3150800094040F0A48020461CF003FAA36803900BB17C
S3150800095000229A6120461BF009FD804620461BF0BE
S315080009601DFC82462046FFF727FE0AEB00052046B7
S315080009701DF03DFC049020461BF007FC01284FF0B3
S31508000980000BDFF82C92454475D0049AA3685A45A3
S3150800099040F0A080864A914574D0C8448EE06FF036
S315080009A040481BF0E7FD45450290CBD096F82B1042
S315080009B011F0080140F0DD80012230461CF026FFC8
S315080009C040450C9040F0D58020461BF0E7FB0546D5
S315080009D020461BF0CBFC054458E01B68754953F8C4
S315080009E02B7038461AF033FC002842D13846FFF7F8
S315080009F0C9FD014660B90A2238461CF007FF0C906B
S31508000A00C0B2082809D840F24913C340DA0704D50A
S31508000A10E3697A699B1A013317E0082200213846F0
S31508000A201CF0F4FE0C90002844D1069007F114003F
S31508000A3029F022FA1A2208EB00030699384605938C
S31508000A401CF0E4FE059B0C9003441A22002138464C
S31508000A5005931CF0DBFE059B0C901844484508DB03
S31508000A601A22002138461CF0D1FE059B0C9003EB98
S31508000A7000090BF1010B049AA3685A45ADD14C4AFB
S31508000A80914519D113B1039A52429A610422002161
S31508000A9020461CF0BBFE052207460C900021204686
S31508000AA01CF0B4FE394602460C90029B28461CF000
S31508000AB00CF8CBE63E4BC8E70AEB0908A26812B168
S31508000AC0039B5B4293613A4B9845DFD04545B8BFD7
S31508000AD04546DBE71B68374953F82B7038461AF04A
S31508000AE0B6FB002840D13846FFF74CFD014658B9F9
S31508000AF00A2238461CF08AFE0C90C0B2072808D88D
S31508000B009323C340DB0704D5FB6962699B1A01334B
S31508000B1016E00822002138461CF078FE0C9030BBFF
S31508000B20069007F1140029F0A7F91B220AEB000327
S31508000B300699384605931CF069FE059B0C900344FC
S31508000B401B220021384605931CF060FE059B0C907D
S31508000B501844484508DB1B22002138461CF056FE7F
S31508000B60059B0C9003EB00090BF1010B0DE7104BED
S31508000B70E6E7B7F1805FA4BFC7F17F6707F57F2770
S31508000B80029BA8BF07F6FF775F4364231A2200215A
S31508000B90204697FBF3F71CF039FE1B2205460C90FE
S31508000BA0002120461CF032FE0C9028443D1A6DE7C1
S31508000BB0010000E001000400022220461CF026FE87
S31508000BC000F0C043B3F1005F814605460C903046FD
S31508000BD005D16FF0604329F0C048984549D11BF00C
S31508000BE0D9FC6FF04043994582462ED120461CF029
S31508000BF0B4F8A36804900BB10022DA6120461BF012
S31508000C009BFB029020461BF07DFB03902046FFF7D6
S31508000C10E3FC029B4FF0000B1D18039B20461D4466
S31508000C201DF0E5FADFF868910590059AA3685A451C
S31508000C303BD113B1049A5242DA61554B994504D017
S31508000C40039B4B449D42B8BF1D4606220021204601
S31508000C501CF0DCFD072280460C90002120461CF083
S31508000C60D5FD534602460C90414628461BF02DFFFB
S31508000C70F6E56FF040491BF08DFC4D458246B5D030
S31508000C8096F82B1011F004015CD1022230461CF0B4
S31508000C90BDFD48450C9055D120461BF04DFB054639
S31508000CA020461BF02FFB0544CFE71B68394953F84C
S31508000CB02B8040461AF0CBFA00283ED14046FFF773
S31508000CC061FC014648B906900A2240461CF09EFD82
S31508000CD00C90C0B20328069905D8D8F82030A26926
S31508000CE09B1A013315E0092240461CF08FFD0C9033
S31508000CF030BB079008F1140029F0C3F8029B1822AC
S31508000D0003440799404606931CF080FD069B0C9009
S31508000D10034419220021404606931CF077FD069BE2
S31508000D200C901844484508DB1922002140461CF05F
S31508000D306DFD069B0C9003EB00090BF1010B74E7A4
S31508000D40134BE6E76422B8F1805FA2BFC8F17F685B
S31508000D5008F57F2808F6FF780AFB08F3002193FBBD
S31508000D60F2F8204618221CF051FD192205460C906F
S31508000D70002120461CF04AFD0C902844A8EB0005EB
S31508000D8063E7019829F07DF885427FF470AD49E55F
S31508000D90010000E00100040038B50D4D95F86030FB
S31508000DA063B9012385F860301DF0E3F9044694F829
S31508000DB02A3013F0040202D185F8602038BD6FF39B
S31508000DC08203204684F82A301BF0B9FEEFE700BFFD
S31508000DD0701100202DE9F04F85B00E460746934660
S31508000DE09846DDF83890FFF7D7FF1EB938461DF04C
S31508000DF0C8F9064638461DF0C4F982461BF0CEF9F6
S31508000E00019050461BF098FA029030461BF0C6F93E
S31508000E10054630461BF090FA0446BBF1000F10D188
S31508000E2030461BF0B2F9012874D130461BF0A2FBFC
S31508000E30834607F1140029F01FF8ABEB000B5D445D
S31508000E4068E00BF1FF3BBBF1140F2DD801A353F853
S31508000E502BF000BF150F0008F50E00082B0E000832
S31508000E60EB0F0008031000083D1000086510000885
S31508000E7085100008AF0E0008AD100008B91000086C
S31508000E80E5100008FD1000080911000835110008D2
S31508000E904D1100085B11000887110008A71100080A
S31508000EA0B3110008CD1100080024002532E03046B1
S31508000EB01BF060FB07F1140B0390584628F0DCFF83
S31508000EC0039B00EBD07003EBD3734010C0EB6300B9
S31508000ED0054430461BF05EFB0390584628F0D1FFC8
S31508000EE0039B00EBD07003EBD3734010C0EB630099
S31508000EF004440FE030461BF03DFB834607F114001F
S31508000F0028F0BAFF00EBD0700BEBDB7B4010C0EB90
S31508000F106B00054408F0C043B3F1005F18D16FF0C9
S31508000F20604328F0C04B9B4512D006F1140028F008
S31508000F30A3FF4FF06408BBF1805FA2BFCBF17F6BC4
S31508000F400BF57F2B0BF6FF7B00FB0BFB9BFBF8F8E7
S31508000F5009F0C043B3F1005F18D16FF0604329F080
S31508000F60C04B9B4512D006F1140028F08AFF4FF0BB
S31508000F706409BBF1805FA2BFCBF17F6B0BF57F2BBA
S31508000F800BF6FF7B00FB0BFB9BFBF9F950461BF0AE
S31508000F90FCF801287369DAF8142040F024814344E8
S31508000FA05046A3EB020800F0C9F9019B8044A8EB60
S31508000FB00308B36950469944DAF818304544A9EB52
S31508000FC003091BF0CFFE029B8144A9EB03093846AF
S31508000FD0002201214C441DF02FF8224629463846A6
S31508000FE005B0BDE8F04F1BF009BA30461BF0D2FA3F
S31508000FF0834607F1140028F044FFABEB000B5C4472
S3150800100088E730461BF0B6FA07F1140B03905846EA
S3150800101028F032FF039B00EBD07003EBD37340102C
S31508001020C0EB6300054430461BF0B4FA03905846FB
S3150800103028F027FF039B1B1A1C446BE730461BF05E
S3150800104099FA07F1140383461846039328F014FF08
S31508001050ABEB000B30461BF09DFA039B5D448346C1
S315080010601846C8E730461BF095FA834607F1140080
S3150800107028F007FF00EBD0700BEBDB7B4010C0EBD2
S315080010806B0035E730461BF075FA07F11403834603
S315080010901846039328F0F0FEABEB000B30461BF026
S315080010A079FA039B5D4483461846E1E707F1140085
S315080010B028F0E7FE4442F8E606F1140028F0DCFEC4
S315080010C007F114040546204628F0D6FE05EBD5732D
S315080010D000EBD0756D10C5EB6305204628F0D1FEF0
S315080010E0444217E706F1140028F0C6FE07F1140477
S315080010F00546204628F0C0FE2D1AEEE706F1140034
S3150800110028F0BFFE0446D0E606F11404204628F06F
S31508001110B3FE054607F1140028F0AEFE05EBD573BD
S3150800112000EBD0756D10C5EB6305204628F0A9FEC7
S315080011300446EFE606F11404204628F09DFE05460F
S3150800114007F1140028F098FE2D1AEEE707F11400AF
S3150800115028F092FE45420024DCE607F1140B5846B7
S3150800116028F08AFE454206F1140028F08AFE044655
S31508001170584628F086FE04EBD47300EBD07464104E
S31508001180C4EB6304C6E607F1140B584628F074FE50
S31508001190454206F1140028F074FE0446584628F025
S315080011A070FE241AB6E606F1140028F065FE054618
S315080011B0D1E706F11404204628F05EFE05462046CF
S315080011C028F05FFE044607F11400D2E706F114047E
S315080011D0204628F051FE0546204628F052FE0446D1
S315080011E007F11400DBE798445046A8EB020800F024
S315080011F04DF8DAE62DE9F34704461CF0F8FF00251A
S315080012000746204EDFF88080BD4223D120461BF0DA
S315080012100DFD804620461BF0EFFC1A4B07469E4202
S315080012201CBF236A1B1A204618BFF61AFFF7D4F903
S31508001230054620461BF09BF9A0EB0800C01B2D1A9B
S3150800124020461BF08AFD281AB042B8BF304602B0C5
S31508001250BDE8F087A36841461B6853F825A05046A9
S3150800126019F0F5FF014650B919225046DAF82090D0
S315080012701CF0CCFA81444E45B8BF4E460190013564
S31508001280C2E700BF010000E0010004002DE9F74FA6
S31508001290002105461BF084FC012806D0A86808B181
S315080012A08069404203B0BDE8F08F28461BF0D8FCA1
S315080012B0804628461BF086FC074628461CF097FF02
S315080012C06FF0604481460026B1451BD16FF060433C
S315080012D09C4218BF6E6928461ABFF619361B154E6A
S315080012E0FFF76AF9044628461BF03EF9A0EB08000A
S315080012F0C01B241A28461BF02BFD2044B042B8BF59
S315080013003046CFE7AB680C491B6853F826A0504611
S3150800131019F09DFF014658B91A225046DAF814B05A
S315080013201CF074FAABEB000B5C45A8BF5C46019059
S315080013300136C9E7010000E0010004002DE9F34782
S31508001340002105461BF02CFC012805D1A86800B130
S31508001350806902B0BDE8F08728461CF048FF0024E3
S3150800136007461F4EDFF87C80A74221D128461BF08E
S3150800137077FC074628461BF025FC194B80469E42FB
S3150800138018BFEB6928461CBFDB1BF61AFFF714F9D2
S31508001390044628461BF0E8F8C01BA0EB0800241AF0
S315080013A028461BF0D5FC201AB042B8BF3046D0E715
S315080013B0AB6841461B6853F824A0504619F047FF0E
S315080013C0014650B91B225046DAF81C901CF01EFA4A
S315080013D081444E45B8BF4E4601900134C4E700BF6C
S315080013E0010000E00100040038B50D460C4904462A
S315080013F008F09AFA58B1C06A40422860094920465E
S3150800140008F092FA38B1C06A4042686038BD204692
S315080014101BF09EFCF1E720461BF09FFCF5E700BF9A
S31508001420C3CD0108ADCD0108F0B597B0164651EA0F
S31508001430060204460D465FD0012B5FD100F0F8FC8A
S315080014400746684608F0ECF92146684628F04DF943
S315080014506846394928F05EF935B3384601F08CFB01
S315080014604FF4C872C821401028F0EDF801466846C6
S3150800147028F03FF920461BF06BFC2A1A41426846C1
S3150800148028F03CF968462D4928F031F968462C4978
S3150800149028F03AF96A46092120461AF0B0FD0128D3
S315080014A02AD1684608F0D6F936B3384601F074FBF7
S315080014B04FF4C872C821401028F0C5F8014668469E
S315080014C028F017F920461BF048FC321A41426846B4
S315080014D028F014F968461B4928F009F9684618499E
S315080014E028F012F96A46092120461AF088FD0128D3
S315080014F002D1684608F0AEF917B0F0BD114908F0F8
S31508001500EFF90E49204608F0EBF90022092120469A
S315080015101AF075FD0128EFD13246294620461BF000
S3150800152023FC0128E8D100220B21204617B0BDE88C
S31508001530F0401AF064BD00BFB1CB0108C3CD010865
S3150800154089960208ADCD010870B504460D460749CF
S31508001550164608F0C5F920461BF0FAFB3346411B30
S3150800156000222046BDE870401BF036BCC3CD0108FA
S3150800157070B504460D460749164608F0B1F92046E7
S315080015801BF0EBFB3346421B00212046BDE87040AA
S315080015901BF022BCADCD01082DE9F04F89B080467D
S315080015A008460291914603931CF0EBFD102106466E
S315080015B019F047FE002800F0068130461BF0B2FB02
S315080015C0019030461BF0BDFB8246002800F09E8045
S315080015D0029B03F1140730461BF028FB04463046ED
S315080015E01BF00AFBB5697B682544ED1A336AF9686E
S315080015F0D9F804201B1A5B1AD11A83463046CDE95E
S315080016000623AD1A05911AF0B2FFDDE90512002D81
S31508001610079B0490C0F28580002979DB0025BAF182
S31508001620020F00F08980BAF1030F00F08A80BAF140
S31508001630010F03D1B5697B682544ED1A30461BF0C6
S3150800164079FB824610B1029B03F1140830461BF061
S31508001650B9FA074630461BF003FB7469D8F8003020
S315080016603C44E41AF369D9F80020D8F808101B1A84
S315080016705B1AA41A8346A2EB03017ED4002974DB05
S31508001680002430461AF070FFBAF1020F7FD0BAF183
S31508001690030F00F08280BAF1010F04D17469D8F8FB
S315080016A000303C44E41A4949304608F019F94849DB
S315080016B0304608F015F9019BD807019B58BF24EA64
S315080016C0E4749907019B58BF04EAE4745A07019B1E
S315080016D058BF25EAE5751B07039BD9F8042058BFB0
S315080016E005EAE575002B6CD0D9F800302344C9F813
S315080016F000302B46134421462A463046C9F80430A2
S31508001700039B09B0BDE8F04FFFF78EBE474662E778
S31508001710002D83D030461BF020FBA842BFF67FAFD2
S315080017207CE700297FF77AAF30469D1AFFF762FDFE
S31508001730C5427FF574AF71E7356AFB68A5EB0B0503
S315080017407BE7049BB2691B1BA3EB0B0303EBD37369
S315080017501444384604EB630428F093FB7D6800EBD9
S31508001760D07005EB6005651B68E7002C88D030460D
S31508001770FFF78CFDA04284DA82E7002980DD304637
S315080017809C1AFFF7DBFDC4427FF57BAF78E7F46967
S31508001790D8F80830A4EB0B0484E77369C01BA0EBE8
S315080017A00B0000EBD0701F4407EB6007404628F09B
S315080017B063FBD8F8004000EBD07004EB60043C1BD8
S315080017C071E7039B96E709B0BDE8F08FADCD010838
S315080017D0C3CD0108F8B5044615461E4601F47F0731
S315080017E01BF015FF012828D08C2D10D8154B5B5DF2
S315080017F0DA0716D477B96B1E012B0BD822684AB1C3
S31508001800012D0CBF9369D369CBB1336015E00E4B3C
S315080018101B6B0BB90020F8BD2B4413F88D3CDB0776
S31508001820F8D507B96468002CF4D033462A46204612
S31508001830218D1BF0ECFE0128F4D10120EBE712689C
S31508001840DDE700BF9B670308701100202DE9F84FFC
S31508001850074625480D469046994629F056F8044607
S31508001860DFF884B00CB9BDE8F88F4C45FBD02146AB
S31508001870584629F051F823688246BB421CD1A36812
S31508001880AB4202D0B5F5702F16D12379434502D065
S31508001890B8F1FF0F10D100267B8DC3F305139E42C6
S315080018A00CD30021204608F01BF80F48214628F0E3
S315080018B0E9FF204609F04EF85446D3E7FA68F000E7
S315080018C002EBC603D97989070BD5B5F5702F04D075
S315080018D05B68C3F317039D4203D12179105829F099
S315080018E03CFB0136D8E700BF8811002014210148C7
S315080018F028F060BF88110020014B83F82400704748
S31508001900701100202DE9F3475E4B044693F8243006
S315080019100E461546002B00F083801AF0E7FF28468E
S3150800192008F0ECF900F0040A284608F0E7F900F098
S315080019300208284608F0E2F900F00109284608F0EE
S31508001940DDF906F47F0600F01007BAF1000F53D050
S31508001950B6F5702F3FD056B30222002120461BF061
S3150800196055FF6FF04047B842019007D00122002189
S3150800197020461BF04BFFB842019007D100222F21C9
S3150800198020461AF03CFB20461AF07CFDFF2D3ED17E
S3150800199020461AF0F7FA20461AF0A8FFB6F5803F57
S315080019A03ED0204602B0BDE8F0471BF09CBE32464A
S315080019B02F2120461AF023FB20461AF063FDFF2D3F
S315080019C03BD120461CF0DDFB98B9002FE0D020461D
S315080019D01CF0B4F8DCE700222F2120461AF00FFB92
S315080019E020461AF04FFDFF2D204627D11CF0C9FBD3
S315080019F0E8B11AF047FD25E0B6F5702F13D0002E92
S31508001A00C4D1FF2DDDD00FB320461CF097F8B8F1EE
S31508001A10000F28D120461AF069FFB9F1000F2CD122
S31508001A2002B0BDE8F087FF2D0FD12046DEE7002F74
S31508001A30AED020461CF082F8A8E720461CF0A1FB91
S31508001A400028D6D1002FA1D0F3E747B9B8F1000F87
S31508001A5009D1204602B0BDE8F0471AF047BF204634
S31508001A601CF06CF8F2E720461AF08CFA20461AF0B9
S31508001A703DFFB9F1000FD3D090E7BAF1000F8DD131
S31508001A80CEE700BF701100200021014A1CF0BBB848
S31508001A90FFFF0F002DE9F0410468274825682779DC
S31508001AA028F030FF0146244E19B96A8DC2F3051293
S31508001AB03DE0A1420BD00A6823689A4207D18A689A
S31508001AC0A3689A4203D10A7923799A4231D03046DB
S31508001AD028F01EFF0146E7E7EB68CE0003EBC103DB
S31508001AE0D879800722D55B68A068C3F317038342B9
S31508001AF01CD12146104828F0C5FE204608F02AFFCA
S31508001B00EC683946A05929F028FAEB6804EB060870
S31508001B10985929F0C5FA60B1D8F804202846A15981
S31508001B2022F07F42BDE8F0411CF06DB801318A42CF
S31508001B30D2D8BDE8F08100BF8811002070B50D4BE2
S31508001B40064693F8243023B1002001F00BF804462A
S31508001B5070B970BDD4F8B432304653F825101CF06D
S31508001B6048F90135D4F8D032AB42F3D82046ECE731
S31508001B700025F7E7701100202DE9F04399B01E46BD
S31508001B8090F82A30209D43F0080380F82A30028511
S31508001B90044691462A7A0F461BF038FE26850090A1
S31508001BA0394620462A7A1BF031FE94F82A308046B8
S31508001BB06FF3C30384F82A30009B0190834205D152
S31508001BC0014628F066FA002840F08380A4F8289099
S31508001BD02A7A394620461BF019FE39460090268592
S31508001BE020461BF09DFD009A297A006829F0F0F935
S31508001BF020462A7A6968FFF785FE2B7A0C2B20D1B6
S31508001C0047F6FF73DDF80090994501D0984518D13D
S31508001C1020461AF0A9FC00EBD070461020461AF0B0
S31508001C20A6FC47F6FF7200EBD07391454FEA6303B3
S31508001C3013D19E420BDA731CC845009301D1731C5D
S31508001C400193254828F0BEFD064658B9FEE75A1CFA
S31508001C50C8450092F5D10133F2E79045F1D19E428D
S31508001C60EDDBF8E7009B0460C360019B03612B7AF8
S31508001C708760037102A807F0D3FD314602A827F052
S31508001C8034FD164902A827F032FD154902A827F0A7
S31508001C903DFD144902A827F03BFDFF22002102A8BA
S31508001CA027F02CFD298802A827F023FD698802A8B9
S31508001CB027F021FDE96802A827F026FD002102A8E1
S31508001CC027F032FD02A8296927F035FD02A807F09A
S31508001CD0C1FD19B0BDE8F08388110020E91C000891
S31508001CE0A9DF0108951A0008F7B500230668044617
S31508001CF0708DC0F3051098423ED9F268DD0002EBFC
S31508001D00C302D779BF0705D55268A768C2F3170279
S31508001D10BA4201D00133EEE7002300932379612B01
S31508001D2053D04CD8392B29D81B2B3DD901221C3B23
S31508001D30DBB202FA03F33C4A1A4052BB13F0407F67
S31508001D4032D0FE293FDCE368009300230193F36851
S31508001D502179585901AA29F081F9002854D1012777
S31508001D60F368009A2179585929F032F927B122796E
S31508001D70A1682068FFF7C6FD03B0F0BD582B11D83F
S31508001D803C2B11D9294A3D3BDBB222FA03F3DB0788
S31508001D900AD5002924DCE368ADF800301B0C8DF861
S31508001DA00230D2E75A2BCCD00029CCD0FF290AD052
S31508001DB0D4E903239B1A4B4302EB23220AE0662B42
S31508001DC0BFD0672BEFE72369BEE7D4E90323002AD0
S31508001DD0BAD00BB90092B8E77F29D8BF1346B3E744
S31508001DE0FE2901DD2369D7E7CAB2D4E9031028F032
S31508001DF046FAC0F307238DF80000C0F307408DF8B4
S31508001E0001308DF80200A0E7DDE900739F42A6D1F4
S31508001E103946384628F03DF90028A0D0019BFF1A1C
S31508001E2018BF01279CE700BF810020200101000898
S31508001E3010B54368044613B11CF09BF904460B48D9
S31508001E4028F060FD88B10023D0F8D02206E0D0F84B
S31508001E50B41251F82310A14207D001339A42F6D1A1
S31508001E600146024828F054FDECE710BD7411002025
S31508001E70F8B590F82B30044613F010020DD143F054
S31508001E801003262180F82B301AF0B9F830B994F8E7
S31508001E902B3060F3041384F82B30F8BDA06810B11A
S31508001EA0083028F0D3FA002120461CF06DF90646C2
S31508001EB0A8BB204619F0D9F90746304604F056F96A
S31508001EC0054680BB3D4D2146284607F059FD0128A9
S31508001ED0F9D0204619F018FC65682046002D53D124
S31508001EE0FFF7A6FF2B460646D0F8D012D0F8B40264
S31508001EF08B4203D050F8232094423ED100EB830254
S31508001F0001398B423BD3C6F8D012890008F02CFD64
S31508001F10C6F8B4022046BDE8F84008F01BBD3046B6
S31508001F20FFF7A6FFBFE7284626F03AFC00F0FD03B8
S31508001F30012B14D1AB6E9C4205D0EB6E9C4202D0AD
S31508001F402B6F9C4203D1214628461CF003F96B6F80
S31508001F509C42AB6F08BF6E679C4208BFAE67D5F858
S31508001F60A8309F4207D104F011F9844203D12146D3
S31508001F7028461CF0EFF82846A0E70133B8E755686D
S31508001F80013342F8045BBCE71CF049F983B2626886
S31508001F909568298D286801398B4206DB89B229851F
S31508001FA0890008F0E1FC2860B4E7013350F82320E3
S31508001FB000EB830040F8042C9BB2E8E7AFE2010887
S31508001FC02DE9F04FB3B00C4680460121204619F0A2
S31508001FD038F98146002865D10146602220461BF063
S31508001FE015FCC3B2012B179003935BD9204619F051
S31508001FF0EAFF074630B92146404633B0BDE8F04F00
S315080020001CF06EBA204619F0B9FF06460BAD2946F4
S3150800201020461AF067FA32463146284627F0CBFBA7
S31508002020022F42D195E80F0013AE86E80F004A4604
S31508002030314620460DF13C091AF06CFB32464846FB
S3150800204008F1180127F0D1FB60B399E80F0017AE25
S3150800205086E80F003A46314620461AF05BFB2A46C8
S315080020603146304627F0C1FBE0B196E80F0007AFCE
S3150800207087E80F0005223846114627F09CFB3846AC
S3150800208027F0FFFE0190384627F0FBFE0290079BDB
S315080020901393099B1593089B149316930A9A169BF8
S315080020A09A422CDC33B0BDE8F08F012FFAD117AF76
S315080020B02A46384608F1180127F097FB0028F1D080
S315080020C097E80F0007AE86E80F00304627F0D9FEDE
S315080020D0304627F0D6FE304627F0CEFE864B06461B
S315080020E01B6993F83B0027F0C6FF4FF4C04393FBE8
S315080020F0F6F393FBF0F29B0801920293C7E7149B51
S315080021000199013B04F1140B0DF14C0A0B4450469E
S3150800211059469342D4BF1693169227F00DFC002811
S3150800212040F0D1801021149B029A013B13440A9A6D
S315080021309A42D4BF16921693524640461CF06DFC3E
S31508002140214681461CF0CCF96F22002120461BF05F
S315080021505DFB7022002117900490074620461BF06D
S3150800216055FB049B024603F0C041B1F1005F0646E9
S3150800217017901AD16FF0604123F0C0438B4214D0F8
S31508002180B3F1805FA2BFC3F17F6303F57F2303F634
S31508002190FF73CDE90430584627F06EFE049B059A76
S315080021A003FB00F7642397FBF3F702F0C043B3F190
S315080021B0005F18D122F0C0436FF06042934212D0FC
S315080021C0B3F1805FA2BFC3F17F6303F57F2303F6F4
S315080021D0FF735846049327F054FE049B03FB00F64E
S315080021E0642396FBF3F617A801F0FEFB63696E22DB
S315080021F01F44D9F804300021FF1AA36920461E445B
S31508002200D9F808302797F61A039B28968DF8A83030
S315080022101BF0FCFA002203460F90B3F5616F63DCEE
S31508002220002A08BF034600222293002B60DB02B176
S3150800223022936C22002120461BF0E8FA6D22002129
S315080022400F90239020461BF0E1FA712200210F908F
S31508002250249020461BF0DAFA722200210F9025906E
S3150800226020461BF0D3FA672200210F9026902046BD
S315080022701BF0CCFA204B0F901B6900F00F0093F867
S315080022803A307322C3F3000340EA03109DF8A930DD
S31508002290002123F01F0318438DF8A90020461BF0E0
S315080022A0B5FA2CAE31900F9095E80F0086E80F002E
S315080022B05246404617A9CDF878901CF052FE169B58
S315080022C001331493EAE600231721204617AA8DF84E
S315080022D05C30CDF860A019F092FE9DF85C30002BBA
S315080022E07FF420AF122127E70122A3F5616394E763
S315080022F0012203F5616398E7701100202DE9F84380
S3150800230006460D4629B91F4B186900F085FC054697
S3150800231040B130462946FFF753FE28461BF031FFE9
S31508002320044608B9BDE8F88320461BF060FF00277D
S315080023308046B946474513D132461C21204619F036
S315080023405EFE32461D21204619F059FE32461E21F0
S31508002350204619F054FE20461BF013FF2546DFE7FA
S31508002360A3681B6853F82710B9F1000F06D16B1A3A
S31508002370D3F1000949EB03090137DBE73046FFF7DC
S315080023801FFEF9E7701100202DE9FF41754D00F198
S3150800239018082F69064698E80F0007F5407484E880
S315080023A00F0038461CF0D7FA10B928691CF02AF82D
S315080023B02B6993F83B0027F025FEA0B16C462F69E0
S315080023C007F540730FCB84E80F0097F8393033B917
S315080023D0D7E9C01220465242494227F0F9F9214668
S315080023E030681CF061FC286900F016FC014640467E
S315080023F01CF022F82B690746D3F8C842A4B900286E
S3150800240035D1286900F030FC01463046FFF776FFE3
S315080024102B6993F8D422D0072FD4D3F8C842A4B98D
S315080024202B69D3F8C07226E0214640461CF004F812
S315080024302B69044687B90028E3D093F8D422D1073C
S315080024401CD4D3F8C832002BEAD021463046FFF711
S3150800245055FF002FE4D00EE093F8D422D2070FD40C
S31508002460D3F8C8323BB1002808BF1C46EDE793F8FD
S31508002470D432D80704D439460DE00024D3F8C07204
S3150800248039463046FFF73AFF2B69D3F8C81229B107
S31508002490002C18BF21463046FFF730FF286900F0A8
S315080024A0CFFB01463046FFF729FF286900F0D2FB2B
S315080024B001463046FFF722FF2C69D4F8A862B36BB1
S315080024C0002B47D120461CF046FA10B128691BF0AC
S315080024D099FF01232363A26BD10740D5A26B92070C
S315080024E03DD56363A36A656B13B3336821691E69B7
S315080024F0D4F8003362690B440093D4F804332046B9
S3150800250013440193D4F808330B440293D4F80C33DC
S315080025103A2113446A4603931CF028FA3246694660
S315080025202046A36A98476A463B2120461CF01EFAB5
S3150800253020461CF010FA50B194F83930012B00D11E
S315080025402DB1E369626A9A4208BF236A636204B0DE
S31508002550BDE8F08100F0BEFD00F05CFDAFE70023AA
S31508002560BFE700BF70110020014B1869704700BF14
S31508002570701100202DE9F04F9DB0002842D0C068A8
S31508002580C14C2061002800F0E282436A002B00F06B
S31508002590DE821A69002A00F0DA82DB68002B00F076
S315080025A0D682002236211CF0E1F92369D3F8C0024D
S315080025B0FEF7F2FB2369D3F8C80208B1FEF7ECFB75
S315080025C02369D3F8C402FEF7E7FB2369D3F8BC02F4
S315080025D0FEF7E2FB2369D3F8B802FEF7DDFB2369B1
S315080025E0D3F8C022002A40F0FD80C3F85C2203F02D
S315080025F087F800223721A44B18691DB0BDE8F04FB3
S315080026001CF0B4B900F0A8FABAE7304490F83C5286
S31508002610002D00F0A48001362069D0F85C329E4275
S31508002620F3D390F83930012B42D11CF094F90028E5
S315080026303ED0206900F5197028F0A4F9002837D192
S3150800264020691BF0DFFE20694FF00009D0F81C80D6
S31508002650D0F824B0C34508BFD0F8208000F08CFA23
S315080026600390206900F098FA4022049000210CA8F3
S315080026702FF0DCFC23691FFA89F6D3F85C2203F5F0
S315080026801970B24200F2B2800023CDE90833039BE9
S31508002690013B0A93049B013B0B9328F033F905464B
S315080026A0002840F0DE80206900F5197028F076F9D8
S315080026B02069D0F85C3283B3013B039300F50F73AE
S315080026C0039A002A80F2E28000230393002700225F
S315080026D038211CF04BF92369DFF8AC9193F83820C0
S315080026E06FF3000283F8382093F838206FF341021D
S315080026F083F8382093F83A2042F0020283F83A2009
S31508002700D9F81060D6F85C329F42C0F2C88096F8B5
S315080027103A306FF3410386F83A305B4C2069D0F8BB
S315080027205C32002B3FF463AF002239211CF01EF9FE
S3150800273020691CF010F9002840F0EA8120694FF45E
S31508002740007200213C3029F049FC20692022002132
S3150800275000F50F7029F042FC0022236945E74FEA8D
S31508002760061A0AF13C092069D0F85C329D42BFF48A
S3150800277052AF431993F83C32002B31D1AE422FD0D9
S315080027804FEA051B0BF13C0B00EB0B01484427F005
S31508002790D3F828B321690CA801EB0B02494427F0AA
S315080027A046F80CA826F0FDFF03902069484426F059
S315080027B0F8FF07462069584426F0F3FF039B0744B1
S315080027C0BB420DD223690C9903EB0A02D1630D991A
S315080027D02B4411640E9951640F99916483F83C82D5
S315080027E00135C0E700264FF0010815E7334493F892
S315080027F03C3213B109F101093CE728F083F8054694
S31508002800360106F13C030593206900F51970002D81
S31508002810F0D0294628F07CF8059B226982461A449E
S3150800282029460CA827F0D9F8431C064617D00027D6
S3150800283009E027F0E2FF84460CAB03EB07130FCB46
S315080028408CE80F00013720697BB29E42294600F5C5
S315080028501970EEDC28F016F8284608F07BF855467D
S31508002860D2E7294608AA284626F0BFFF2946584631
S315080028702B4642461CF061FA2069294600F5197074
S3150800288028F046F80BE700BF70110020039A9A5CFF
S31508002890002A3FF41BAF039A013A039210E7F31993
S315080028A093F83C32002B54D1039BD6F8A8529F428A
S315080028B002BF96F8383043F0010386F8383096F8A8
S315080028C038306FF3410386F83830736A2B6096F810
S315080028D03930002B5DD000233046C5E9013300F0BE
S315080028E04BF90138E860206900F056F9013828618B
S315080028F0206900F041F98246206900F04DF900226E
S3150800290001380DF13008114600900AF1FF334046B0
S3150800291026F037FF236993F83920022A1BD193F84A
S315080029203820284642F0020283F838202B6805F141
S31508002930180619891BF0B9FD98E80F0086E80F00FC
S3150800294005F1280698E80F0086E80F002846FFF7E5
S315080029501BFD0137D4E6012AFBD1996B93F8382081
S31508002960284661F3410283F838202B6806EB0716E0
S3150800297019891BF09AFD3C3605F1180C96E80F00EC
S315080029808CE80F0005F1280C96E80F008CE80F007C
S31508002990DCE73B0103F13C08B0444046079327F0C7
S315080029A06BFA8246404627F06CFA3B01F3188346D9
S315080029B0D9F81000D3F84880049300F0EDF8804564
S315080029C03FDBD9F8100000F0E7F800F1FF38D9F836
S315080029D01030504693F83B10CDE9051300F01CFE65
S315080029E00599069B072930D00839C9B202292ED87D
S315080029F0584A32F811205B6ADB68A3EB020ABAFB75
S31508002A00F0FADA45A8BFDA460023D346CDE90D33F6
S31508002A100C933221CDF814B00CAAD9F810000BF19A
S31508002A20FF3BCDF83CB01BF0A1FF0CA827F029FA14
S31508002A308245059B0DDABBF1000FEADC4FF0000B6F
S31508002A400CE0049BD3F84880C1E70822D3E70022AC
S31508002A50D1E7002BF2DD0F9B03F1010B002106EBFA
S31508002A60071306931B6C0BEB030202F1FF3AC245F0
S31508002A700592D9F8102023DD88453FF46AAF0799F7
S31508002A80526A3144C86B0499496CC5E90020C5E906
S31508002A900231C5E90603C5E90A03C5E90818C5E907
S31508002AA00C1828460021C5F810801BF0FEFCD9F842
S31508002AB0102092F8383043F0020382F8383045E7A0
S31508002AC00699526AC86B0499496CC5E90603C5E9B3
S31508002AD00231C5E90A03C5E90020C5E9081A2846EE
S31508002AE0C5E90C1AC5F810A000211BF0DEFCC2458A
S31508002AF008BFD9F81020284602BF92F8383043F0AC
S31508002B00020382F83830FFF73FFC5146059BAAE7D7
S31508002B10236993F83930012B7FF410AE002510E0B5
S31508002B20431993F83C325BB900F5197027F08EFE0D
S31508002B300646236903EB05133C330FCB86E80F00E3
S31508002B4001352069D0F85C32AB42E9D8F6E51DB00C
S31508002B50BDE8F08F602E0308014B5869704700BF27
S31508002B60701100200146034809B927F0CBBE27F0AB
S31508002B70CFBE00BF7411002010B9064B586940B18A
S31508002B8090F8F03203F00503012B01D14068704735
S31508002B90006870477011002010B9064B586940B19B
S31508002BA090F8F03203F00503012B01D10068704755
S31508002BB0406870477011002010B9034B586908B176
S31508002BC080697047822070477011002010B9034B46
S31508002BD0586910B1C0E907124162704770110020A8
S31508002BE010B9034B586908B180F83910704700BF0F
S31508002BF07011002010B9024B586900B18162704704
S31508002C007011002010B9034B586908B190F83B00C1
S31508002C10704700BF7011002010B9034B586908B1FE
S31508002C20D0F8C002704700BF7011002010B9034BDE
S31508002C30586908B1D0F8C802704700BF7011002063
S31508002C4010B9034B586908B1D0F8BC02704700BFE9
S31508002C507011002010B9034B586908B1D0F8B802B2
S31508002C60704700BF7011002010B9034B586908B1AE
S31508002C70D0F8C402704700BF70110020F0B585B0C7
S31508002C80064666480D4627F09DFD044600B9FEE750
S31508002C9000214FF4647229F0A1F94FF0FF33C4E91B
S31508002CA002330023C4E904338223A361638F4C20D3
S31508002CB003F0FE0343F4905343F00103C4E90065AF
S31508002CC0638707F035FE0146C4F8A80200B9FEE797
S31508002CD0D4F8AC320BB1204698470022D4F8A83273
S31508002CE0013EC3E90122013DDE601D6194F83B20E7
S31508002CF04B4E1A750123C4F860320AF0A3F9102165
S31508002D00C4F8FC0204F5197027F054FD22460C217C
S31508002D1044487569746107F01DF9C4F8F80200B9EA
S31508002D20FEE708F05FFD0746002874D1052006F087
S31508002D3011FFC0F30723C0F307428DF80800384691
S31508002D408DF809308DF80A2006F004FFC0F3072332
S31508002D50C0F307428DF80D30334B8DF80C008DF813
S31508002D600E2000932046DDE902123B4608F044FD9A
S31508002D70C4F8F4020020FDF74DFBC4F8C402002095
S31508002D80FDF748FBC4F8C0020020FDF743FBC4F872
S31508002D90BC020020FDF73EFB002D08BF2546C4F8FF
S31508002DA0B802D4F8C402FEF76FFED4F8BC02FEF7E8
S31508002DB06BFED4F8B802FEF767FED4F8BC0202210F
S31508002DC018F0DEF9D4F8B802022118F0D9F9D4F8C7
S31508002DD0C402002119F05EFFD4F8BC02002119F0E4
S31508002DE059FF0021D4F8B80219F054FFD4F8C002EC
S31508002DF019F07CFD002335220C49204675611BF02D
S31508002E00AFFDD4F8F80228F0DFFC204607F068FA90
S31508002E10204605B0F0BD0AF0FFF8A9E774110020B6
S31508002E207011002075250008BC2E030869E8010802
S31508002E3010B9094B586970B1D0F8A83280F83B1020
S31508002E401975C36903B15970036A03B15970002231
S31508002E5034211BF08BBD70477011002008B9024B56
S31508002E605869D0F8F40270477011002010B9074B62
S31508002E70586948B100290CBF4FF0FF320122D0F83B
S31508002E8060321344C0F86032704700BF70110020EA
S31508002E9010B9054B586928B1D0F860020028D4BF8C
S31508002EA000200120704700BF7011002010B9034BA5
S31508002EB0586908B1D0F8F802704700BF70110020B1
S31508002EC0014B5869FFF7A8BE7011002008B507F036
S31508002ED02FFD064BD3F82821D3F8241101320160BF
S31508002EE0C3F82401C3F8282108BD00BF70110020CB
S31508002EF02DE9F8434FF0000807460D468C6BF4B9E8
S31508002F00EB6B002B74D095F84420002A70D0AA6B7E
S31508002F10002A6DD19B6B73B11A79062A66D19A6C11
S31508002F20002A63D1DA6CD269AA425FD101229A6477
S31508002F30374BC3F8302100263046BDE8F883A36C2A
S31508002F40D4F80090032B49D1B8F1000F49D0C8F83E
S31508002F5000902379062B2CD1E36CDE693368B3B174
S31508002F60301D26F08EFF31680B894343B3F5806F19
S31508002F7038BF0123264828BF9B0AD0F82C21D21A2D
S31508002F80C0F82C2108461BF07BFE0023336087B16E
S31508002F90D7F8A83223B11A6CB24225D1326C1A641A
S31508002FA0D7F8B03213B1314638469847304607F05D
S31508002FB0D1FC20461CF0F4F8064640B190F84C3097
S31508002FC05B0604D5C06907F0C5FC0023F361E06C15
S31508002FD007F0C0FC204607F0BDFC4446A0464C4618
S31508002FE08DE7C5F83890B4E71346D3E71B6892E730
S31508002FF00026074BD3F82441002C9DD02046E368D1
S3150800300029469847013018BF01262468F4E700BF0F
S31508003010701100202DE9F0410020FFF7A3FD0026DE
S3150800302004464FF001080C4F0CB9BDE8F081D4F8FE
S31508003030A8523DB90EB9C7F830812046FFF792FD70
S315080030400446F1E729462046FFF752FF2D6C002873
S3150800305018BF0646EDE700BF70110020F8B51C4DF5
S31508003060CE6C95F838710C46306117BB306870B174
S315080030704FF4002118F0E5F848B1012322461F2134
S31508003080306885F8383118F0BAFF85F838714FF48A
S31508003090C843A4F85030D5F824511DB9BDE8F84006
S315080030A0FFF7B8BF2B6913B12146284698472D6804
S315080030B0F3E74FF4C843A1F85030D5F8245105B9C1
S315080030C0F8BD2B6913B12146284698472D68F6E7BF
S315080030D070110020044BD3F8302102B9FEE7002214
S315080030E0C3F83021704700BF701100200122024B3F
S315080030F0C3F83021704700BF701100202DE9FF4149
S315080031002E4B0646D3F828310D46012B1746846BFD
S3150800311014D803226CB1A36C012B07D194F8503054
S3150800312023B1BB4202D0A2642468F3E7A36C012B47
S3150800313000D00024204604B0BDE8F081F4B9002D83
S3150800314038D1B56B002DF4D0AB6C012B32D195F884
S3150800315050300BB1BB422DD1B46B05F118085CB3E6
S31508003160A542E7D0A36C032B06D04246684604F175
S31508003170180126F03AFBE8B92468F0E7FFF7F4F9F6
S31508003180FFF7FAFC0446FFF7EFF9FFF705FDB36B07
S315080031909A6C012AD3D09A68002AD0DC1A69013CB5
S315080031A0A242CCDBDA68002AC9DC5B6901388342B3
S315080031B0C5DBBEE72D68C5E72C46BBE770110020C6
S315080031C02DE9F041D0F800800446B8F1000F03D08D
S315080031D0D8F81000BDE8F081051D284626F04CFEFB
S315080031E00646284626F04DFE217D0746304600F065
S315080031F013FA4346394607FB00F5227D304600F0B0
S3150800320071FA20600028E5D0B5F5806F38BF012532
S31508003210094A28BFAD0AD2F82C312B44C2F82C3102
S31508003220207D26F0EFFE18B1002120681BF03CFD3A
S3150800323023681869CEE700BF701100202DE9F04F0A
S3150800324085B09846DDE90E43164608F5B472A242E3
S3150800325081468A469DF84070119D0AD1A9EB06035E
S315080032602B60AAEB06036B6006EB0903AB605644BA
S3150800327069E1B8F5B47FC8BFA8F5B478B4F5B47FEA
S31508003280C8BFA4F5B474A6EB030B1FB103EBD37345
S315080032905B105F1C5A2398FBF3F294FBF3F3D2B24C
S315080032A0042ADBB229D1042B5FD1A045D6DC08F16C
S315080032B05A0000B206F00CFC0BFB00F009EBE030FC
S315080032C0C01B28600FFA88F006F002FC70430AEB70
S315080032D0E030C01B686004F15A0000B206F0F8FB43
S315080032E0704309EBE0303844A86020B206F0F0FBE2
S315080032F00BFB00F00AEBE03034E0042B67D1032A1D
S31508003300D3D0022AAAD108F15A0000B206F0E0FB8F
S31508003310704309EBE030C01BAAEB0603DB1B2860F1
S3150800332004F15A006B6000B206F0D2FB704309EB59
S31508003330E030384424B2A860204606F0C9FB0FFAEC
S3150800334088F80BFB00F6404606F0C2FB0BFB00F0C4
S315080033508642CCBF2046404606F0BAFB0BFB00F07F
S31508003360C01350443844E8606BE0032B9DD0002B13
S315080033707FF474AF04F15A0212B21046039206F0B3
S31508003380A7FB08F15A031BB202901846019306F0F0
S315080033909FFB0299019B8142B6BF039A18461046C5
S315080033A006F096FB0BFB00F009EBE030C01B28602B
S315080033B00FFA88F006F08CFB7043B1440AEBE03054
S315080033C0C01B09EB07036860AB6020B2EBE09A42CA
S315080033D040F08680A04500F38380032A31D801A3F4
S315080033E053F822F0F53300084934000891340008F0
S315080033F0AF3200080FFA88F006F06AFB0BFB00F004
S315080034000AEBE030C01B686008F15A0000B206F00B
S315080034105FFB704309EBE0303844A86020B206F041
S3150800342057FB70430AEBE0303844E86004F15A0071
S3150800343000B206F04DFB0BFB00F009EBE030C01BB9
S31508003440286005B0BDE8F08F0FFA88F006F040FB5B
S3150800345070430AEBE0303844E86008F15A0000B2DD
S3150800346006F036FB0BFB00F009EBE0303844A860A9
S3150800347020B206F02DFB0BFB00F00AEBE030C01B78
S31508003480686004F15A0000B206F022FB7043D4E7E4
S3150800349008F15A0000B206F01BFB704309EBE03056
S315080034A0C01B28600FFA88F006F012FB0BFB00F031
S315080034B00AEBE0303844E86020B206F009FB7043B6
S315080034C00AEBE030C01B686004F15A0000B206F04F
S315080034D0FFFA0BFB00F009EBE0303844A860B0E7D0
S315080034E09ABB012B7FF4BAAE04F15A0000B206F07B
S315080034F0EFFA704309EBE030C01B24B2286020467F
S3150800350006F0E6FA0FFA88F302901846019306F0D9
S31508003510DFFA029A019B8242B4BF2046184606F09B
S31508003520D7FA0BFB00F00AEBE030C01B686008F125
S315080035305A0000B206F0CCFA704309EBE030384482
S315080035405644A8603E44EE607BE7012A2FD1022B41
S315080035507FF484AEA9EB0603DB1B2B6020B206F0D2
S31508003560B7FA704308F15A030AEBE0301BB2C01BE6
S3150800357068601846029306F0ABFA5A3424B20190F2
S31508003580204606F0A5FA019A8242CABF029B204647
S31508003590184606F09DFA0BFB00F009EBE0303844BC
S315080035A0A8600FFA88F006F093FA7043A2E6022A9A
S315080035B001D1032BA6E6032A7FF450AED7E600BF57
S315080035C010B504461822002128F008FD054B236093
S315080035D0054B6360054BA3600023C4E90333044B22
S315080035E0636110BD2BEB010827EB01080BEB010803
S315080035F015EB010810B5074C2046FFF7E1FF04F16B
S315080036001800FFF7DDFF04F13000BDE81040FFF7B2
S31508003610D7BF00BF381200200A46014601481BF0F2
S3150800362087BA00BF3812002038B50D4614461BB9B4
S315080036301146FFF7F1FF0346142C05FB03F003D1EF
S315080036405B0805FB030038BD073CE4B2032CFAD837
S315080036500EBF4FF48063024B1B5D1844F3E700BFAF
S31508003660702E03080A46014601481BF069BA00BFD6
S31508003670381200202DE9F0478A46DDE908579146B9
S315080036801E460446DDF8288000B9FEE71C22002104
S3150800369028F0A4FC25B931465046FFF7BDFF05467C
S315080036A005FB09F3984518D366702368314603F479
S315080036B07F4343F019032360094B3846C4E904776E
S315080036C0A4F804A0A4F806902581A361C4F80C8088
S315080036D0FFF7C8FF0120BDE8F0870020FBE700BF21
S315080036E03812002007B5009313460A4601460348D8
S315080036F01BF049FA03B05DF804FB00BF381200203E
S3150800370070B50E46034600B9FEE7046940780728F7
S3150800371013D0A0F10801C9B2022910D8094D35F80D
S3150800372011501B8902FB03552C4426B106F056F9A5
S31508003730704304EBD004204670BD0825F1E7002548
S31508003740EFE700BF6A2E03082DE9F0470D46044649
S3150800375000B9FEE7036903B9FEE7438886889B0636
S31508003760B0F8068002D40020BDE8F08721B9417878
S315080037703046FFF751FF05462389AB422DD06078C6
S3150800378006F02CF970430730B5EBD00F4FEAD00995
S31508003790E9D32B46414630466278FFF745FFE36892
S315080037A08342E0D36378072B19D0083BDBB2022BA0
S315080037B017D81A4A32F8133027892669AF421DD21C
S315080037C04FF0000A08F1FF3202FB073705FB023308
S315080037D037441E44C24506D325810120C4E7082381
S315080037E0EAE70023E8E7394630464A4628F022FC4D
S315080037F02389761BFF1A0AF1010AEBE71E44B24633
S3150800380000274745E8D2314650464A4628F012FC7A
S315080038102389AA441E440137F3E700BF6A2E03082A
S315080038202DE9F74F044600B9FEE7408810F0010578
S3150800383071D110F0200014D06378DA1FD2B2032AAF
S3150800384017D80CBF4FF48073344B256918BF9B56A5
S3150800385005EB8306AE4207D10120638843F00103D6
S31508003860638003B0BDE8F08F284626F068FC04356F
S31508003870F0E7102B14D1B4F80680B4F80490B4F825
S3150800388008A027694545E7D2002602E026F057FC3E
S3150800389001364E4507EB8600F8D357440135F1E764
S315080038A0142B1DD1B4F80890B4F806A02769B4F80B
S315080038B004B009FB0A784FEA59035545CCD20026CD
S315080038C006E018F80610019326F050FC019B013615
S315080038D05E4507EB4600F4D34F4498440135ECE7C0
S315080038E0132BB9D1B4F80690B4F804A0B4F808B00C
S315080038F027694D45B0D23E464FF0000806E03046EF
S31508003900B17826F033FC033608F10108D045F6D322
S315080039105F440135EDE70020A3E700BF662E0308E4
S315080039202DE9F04F97B015461C468B6C8246ADF8CC
S315080039300C301B0C8DF80E30136B526B0493BDF8CC
S315080039401430884662F30803ADF81430EB6ADDF8E4
S31508003950809083B11CB12268224B9A420BD1219BDD
S315080039602A46CDE9009341465046229C03ABA04720
S3150800397017B0BDE8F08F219B06AE0FCB86E80F0087
S31508003980D9E9001230465242494225F021FF04B9CE
S315080039900AAC144B0EAEC4E90033C4E902330DF188
S315080039A0480B224606A928461BF053FF074694E80B
S315080039B00F0086E80F00D9E90012304625F008FF07
S315080039C0012FD5D132465846219925F00EFF0028F9
S315080039D0E7D02A4641465046CDE9006B229F03AB05
S315080039E0B847DEE7010000E010B56C220021044666
S315080039F028F0F4FA26F089FBC0F3072384F8493047
S31508003A004FF48073C4E90C33B4F84C3084F848009A
S31508003A1043F4875343F01F03A4F84C30044BC0F318
S31508003A200740E3656C2384F84A00636110BD00BF54
S31508003A30010000E02DE9F04FA9B00E4615460690A4
S31508003A4005939BB30022C96915A800F04BFC012811
S31508003A502CD106F1540A5046B78CB6F8269026F0B3
S31508003A600BFA09AC0028ACBF9AE80F0095E80F00DE
S31508003A7084E80F003946204625F089FE4946204647
S31508003A8025F08AFEDDF824A01D4B0DF134080FCB76
S31508003A9088E80F0007EB0A030DF1440B0793EB6860
S31508003AA00A9A9A421BDD15A81BF0E1FE29B0BDE86B
S31508003AB0F08F2A462146584625F097FE48B1059BC1
S31508003AC03146CDE901B306984346009415AAFFF797
S31508003AD027FF099B3B4409930B9B3B440B93AB681D
S31508003AE0099A9A42E5DD0A9BCDF824A04B440A932D
S31508003AF00C9B4B440C93079B013B0B93CFE700BFF2
S31508003B00742E030810B554220021044628F066FADC
S31508003B10FF2384F8483026F0F8FAC0F3072384F820
S31508003B202D30154B84F82C0023624FF6FF73C0F333
S31508003B300740C4E9093384F82E0026F0E6FAC0F3F4
S31508003B40072384F82F00C0F3074084F8303084F840
S31508003B503100052005F0FEFFC0F3072384F8333053
S31508003B60002384F84930542384F83200C0F3074010
S31508003B7084F83400636110BDBC2E03082DE9F04FAC
S31508003B80BBB0904681460C460D6A8268414615A828
S31508003B900B9325F02AFE002800F0CB8094F84A30D3
S31508003BA0E169089394F84B30D80700F1C580404680
S31508003BB026F062F90990284624F0C7FDD8E90012D4
S31508003BC0A36B8246C31813A80A9326F069F9236CD7
S31508003BD01499626C0F93236D1144149113B1002A42
S31508003BE000F0B880002304934FF0000B94F84B3094
S31508003BF0E069049E0193CDF800B0099B2946E26B63
S31508003C00304406F093F8049BC718D9F80820149B8B
S31508003C10526853449342C0F2B980089B022B40F085
S31508003C20DA80E0690499049EE36B2A46791A3044DF
S31508003C3027F036FD8246404626F01EF9139BA0EB78
S31508003C400A0000EBD07003EB60031393636A27A89E
S31508003C500593A36A0693DDE90532934288BFCDE949
S31508003C6005231BF0A3FA94F848302EA88DF8B33034
S31508003C7019AB2A93E36AADF8B0301B0C8DF8B23055
S31508003C801BF050FB94F848308DF8D83095F916306B
S31508003C90002B08BF01230793E369049A9A180E922A
S31508003CA0049A9B5C002B40D0139B0F9AD3180C9355
S31508003CB0139300231093049BFB1A0D9310990D9BE5
S31508003CC08B4200F29E8094F84B30E0690193002302
S31508003CD000932946099BE26B384406F027F8D8F882
S31508003CE0003001461393089B07EB000A022B40F0AD
S31508003CF0BA81E069E36B2A46384427F0D1FC0646C8
S31508003D00404626F0B9F8139B801B00EBD07003EBF6
S31508003D1060031393149B0A9A04971344D9F808204E
S31508003D201493D268934240F3B0812D98002840F04E
S31508003D30AE813BB0BDE8F08F02936FF0604301930C
S31508003D40A36B2EA80093E36B226A27F0D5FC2E9B63
S31508003D50099330E7D8F804000028BFF643AF9A68FD
S31508003D60121A0A98002AB8BF5242C0F50070B2EB80
S31508003D70400FC4BF4FF0FF321A601E68002EFFF6D0
S31508003D8031AF5B6804960B4414932DE794F84B30D7
S31508003D90E069CDE900B32946099BE26B384405F092
S31508003DA0C5FF149B0A9A38441344226D14935AB1DA
S31508003DB013F5806F08DB11680029BFBFD8F8041017
S31508003DC017605B1AC2E90131E3690497DB5D002BD2
S31508003DD0AFD0074619E7089B032B7FF437AFE06996
S31508003DE00499049EE36B2A46791A304427F058FC56
S31508003DF08246404626F040F8139BA0EB0A0003448F
S31508003E0023E74FF6FF72059B934200F0D980069B85
S31508003E10934200F0D580049A9E4BE0691B681144D2
S31508003E209847834610AB0E9812AA11A927F027FCCB
S31508003E30DDE91112284624F053FC149B0A99139ABB
S31508003E4059180139824619921C91024410990D9805
S31508003E50013A81421A931B924AD394F84C10C90727
S31508003E601BD52392EA680C9913442A6921919B1A57
S31508003E7095F9152000219B1A079A22931344013BB2
S31508003E80A28D249394F82E30ADF8D9208DF8DB3026
S31508003E9048460B9E21AB2EAAB04794F84C309B0798
S31508003EA026D50C9B00212193139B48465344013B7E
S31508003EB02393D5E903329B1A03225B0093FBF2F3A3
S31508003EC0149A0B9E134495F9162002EBD27203EB53
S31508003ED06203079A22931344013BA28D249394F814
S31508003EE02E30ADF8D9208DF8DB302EAA21ABB0479D
S31508003EF04FF6FF72059B934265D0069B934262D0AC
S31508003F00059B5B455FD8069B5B455CD994F83130C9
S31508003F10B4F82F208DF8B230638EADF8B020ADF826
S31508003F20D93094F8343000218DF8DB3048460B9EA2
S31508003F3019AB2EAAB047119908461BF007F9834614
S31508003F4000284FD10A46034621A9284624F07FFBBC
S31508003F50BDF88C20002A45D0BDF88A30002B41D008
S31508003F601398BDF98E1001440B44013B1D911F9314
S31508003F70D5E903315B1A14991DA80B44BDF99010B5
S31508003F809B1A5B1A1A44013A2092D9F808105A4625
S31508003F901E9325F095FDE8B9219868BB1DAB2993BA
S31508003FA000230DF1840B8DF8A0001A4648460B9E97
S31508003FB0CDF8ACB027A9B047584624F041FB11E02C
S31508003FC04FF0000B2EE7E36AADF8B0301B0C8DF806
S31508003FD0B230B0E75A46D9F808102A9825F070FD8D
S31508003FE00028D9D0BAF1000F3FF468AEE36B9A44C3
S31508003FF0139B5344139361E69DF89230013B072BBC
S315080040002FD8002300210093BDF88A20BDF88C30F4
S315080040102D981AF012FE0146D0B92D9808B11AF05B
S315080040202FFEBDF88C20BDF88A101B4801FB02F351
S315080040303F2B4FF0000398BF520000930E231AF04F
S31508004040A2FD014600B9FEE7BDF88C30C3802D906D
S3150800405021A824F0F0FA279000289FD09DF8920016
S315080040609CE70021F4E7089B032B7FF453AEE06935
S31508004070E36B2A46384427F013FB0646404625F0EC
S31508004080FBFE139B801B034443E6574604E61AF0DF
S31508004090F7FD4EE6386803085012002038B570223E
S315080040A00021044627F09AFF26F021F8C0F30723DB
S315080040B084F82100C0F3074084F8223084F82300EE
S315080040C026F015F8C0F3072384F82400C0F3074048
S315080040D084F8253084F8260026F017F8C0F307235D
S315080040E0FF2584F82A30022384F82900C0F3074004
S315080040F084F82E3084F82B0084F82D5026F005F825
S31508004100C0F3072384F83E00C0F3074084F83F3025
S3150800411084F8400025F0F9FFC0F3072384F85A30E5
S315080041200E4B84F859006363B4F84830C0F307406F
S3150800413023F4FF5323F01F036FEA13336FEA0333A5
S3150800414084F8205084F83B5084F8585084F86C5012
S31508004150A4F8483084F85B0038BD00BFBC2E0308BD
S315080041602DE9F04F87B00D4606460C220021284659
S3150800417027F034FF96F81080D6F80C90B8F1000FA7
S3150800418018D1D9F81030002B44D005F0FFF90746AE
S31508004190494826F0B7FB0446DFF81CB106F1140AB5
S315080041A0002C3CD1B8F1010F34D106F1140026F0E9
S315080041B072F92FE005F0EAF9074600B3B8F1010FE6
S315080041C0E6D1DFF8F8B000226946DBF820018DF861
S315080041D00480CDF8009024F06DFF824690B124F05B
S315080041E0EFFF034600F1080207CA85E80700002228
S315080041F051465C69DBF8200124F07EFF0BE0B8F13C
S31508004200010FC5D10222494606F1140026F079FAB3
S315080042100028BDD00024204607B0BDE8F08F2368EB
S31508004220002B3FD06368002B3CD000225046114635
S3150800423026F02EFA2A463146204623689847012852
S3150800424030D12B890BB3B8F1010FE4D1504626F0D3
S3150800425022F9002FDFD0012348468DF8043027F0D5
S3150800426025FF009095E80700144D02AB059483E8F6
S31508004270070069460022D5F8200124F062FF0146AE
S31508004280B0B9009806F066FBC4E76878AE881428CB
S3150800429002D176002E81D6E705F0A0FB4643073605
S315080042A0F608F7E72146584626F032FB044677E734
S315080042B00022D5F820019FE7801200207011002007
S315080042C038B505460C460648182126F073FA2846DE
S315080042D005F0F8F82046BDE8384005F029B900BFD2
S315080042E08012002070B586B00E46154600214C2275
S315080042F0044627F073FE16B9002006B070BD304696
S31508004300E6601AF0A8FD207405F00AF9002836D0F0
S31508004310224BD3F81C012064EDB1AB78DBB1204603
S3150800432004F12001FFF71CFF034620600028E3D0B4
S31508004330286860602A7922725A682146184690478A
S31508004340227A002AD9D00128D7D1E06AA8B100215B
S315080043501AF0FEFB11E0237C00228DF80830E36892
S315080043606946019324F0A6FE064640B124F028FFCC
S31508004370C368E3620369666423600120BDE72046DB
S3150800438004F12001FFF7ECFE034620600028B3D0B5
S31508004390002DCDD165602572CEE700BF70110020D3
S315080043A010B5064826F00EFA044600B9FEE71822AC
S315080043B0002127F013FE204610BD00BF8012002002
S315080043C02DE9F0411F460D4B06469046D3F81C01D1
S315080043D0002224F0B6FE054668B124F0F1FE037A01
S315080043E00446012BC0F80C8003D1406827F05EFE16
S315080043F06060C4E904672846BDE8F08170110020B2
S3150800440073B506460D46002941D00379CBB92C462B
S315080044107379002B3CD06078A0F10B03032B37D9B6
S3150800442025F0F0FDA0B3012120461AF0FBFC78BB6D
S31508004430202120461AF0F6FC10B32046FFF7F0F9C3
S3150800444026E049781429E2D0A888FFF7E5F82B89F1
S3150800445004468342DBD001462846FFF775F9012852
S31508004460D5D000946B78EA88A9880B481AF08BFB9C
S31508004470044660B100232A4619461AF05EFCC7E7CF
S31508004480214605481AF0BEFB04460028D6D100246A
S31508004490204602B070BD00BF68120020F0B597B084
S315080044A00B7D0646022B0C4667D98B6913B10B7F29
S315080044B0002B62D001AD2846B268216825F095F92F
S315080044C000285AD0766833681F896368002B6DD137
S315080044D0284625F0D1FC0690284625F0D2FC237DF7
S315080044E0B4F815208DF82F30E37DCDE907078DF850
S315080044F02E30A369ADF82C201BB1227F012A08BFF4
S3150800450000230CAF099395E80F0087E80F00D6E95A
S31508004510011238465242494225F05AF9D6E9013283
S31508004520029930468A1A0199C91A1AF0A6FA099BFD
S3150800453005908BB1606A10B9206A25F09DFC216A46
S31508004540029B4A6809689A1A019B0A905B1A00FB43
S315080045500233099A1A440992337D063B0F2B0CD86D
S31508004560DFE803F018200B0B0B0B0B0B0B110D16CA
S31508004570080B0B1C05A81EF062FD17B0F0BD05A8B8
S315080045801CF044FAF9E7032105A81FF00DFEF4E72D
S315080045900421F9E705A81EF0DDF8EEE705A81BF0EB
S315080045A002FBEAE705A81DF039F9E6E72946284699
S315080045B0226925F01AF90028DFD0226A002A73D169
S315080045C0284625F059FC0690284625F05AFC237DF6
S315080045D0CDE907078DF8353094F82830207B8DF81B
S315080045E03630A36867680C938DF8340005F0F6F941
S315080045F02169029B4A6809689A1A019B5B1A434318
S315080046000C99DB0801FB02331F44A3690B97002BA7
S3150800461051D10EAF099395E80F0087E80F00D6E948
S31508004620011238465242494225F0D2F8236912ACA3
S315080046300FCB84E80F00D6E90112204652424942C0
S3150800464025F0C6F8D6E90132029930468A1A019948
S31508004650C91A1AF012FA0590337D063B0F2B8CD82F
S3150800466001A252F823F000BF0547000815470008C5
S315080046707B4500087B4500087B4500087B4500080C
S315080046807B4500087B4500087B450008F74600087F
S31508004690EF46000801470008E74600087B45000882
S315080046A0E74600080D4700082946284625F09DF8E4
S315080046B0002885D161E7227F012A12D0606A099312
S315080046C010B9206A25F0D8FB216A029B4A68096856
S315080046D09A1A019B0A905B1A00FB0232099B134443
S315080046E097E7002395E705A81EF0F3FD45E705A81B
S315080046F01CF05CFA41E7032105A81FF025FE3CE7FC
S315080047000421F9E705A81EF0C6F836E705A81BF048
S3150800471025FB32E705A81DF064F92EE7044BC20015
S3150800472003EA002302F4FC6243EAD0001043704710
S3150800473000F8FFFF30B5034608466AB1FF2A4FEA7C
S31508004740D3010AD1A2F6FF0202EA0322DB0003F430
S31508004750FC631343194488B230BDD4439B0813FB4A
S3150800476002F311FB02F1E4B2C0F3451504FB05336D
S31508004770C50A04FB051500F01F0004FB0011054AD5
S31508004780DB1003F4FC6302EAC502134303EB1123AF
S3150800479098B2E1E700F8FFFF70B5044608467AB11B
S315080047A02178FF2AA57863784FEAD10109D1144800
S315080047B0DB0000EA052003F4FC631843084480B2D2
S315080047C070BDD4439B0813FB02F3E4B2C0F345164D
S315080047D004FB0633EE08C50A654306FB025512FBC1
S315080047E001F200F01F0004FB0022054EDB1003F463
S315080047F0FC6306EAC5052B4303EB122398B2DFE7F1
S3150800480000F8FFFF2DE9F04F89B0436890F8227051
S315080048100193836882460293C3688946039390F896
S315080048202180D0E9065306680493D0E90443079328
S31508004830002F40F02281002C3ED1B8F1FC0F26D87B
S31508004840029B9C4280F21B81AA460027A6F1020B16
S3150800485029E057789378FF0007F4FC6700EA0323FA
S315080048603B4317784A4403EBD70326F81130013146
S31508004870019B9942EDDB039B01341E44049B1D44B6
S31508004880029B9C4280F2FB802A460021F0E77D4885
S31508004890F6E750463BF8021F4246FFF77DFF013711
S315080048A0ABF80000CA44019B9F42F2DB039B01342C
S315080048B01E44049B1D44C3E7B8F1FC0F1ED8029B97
S315080048C09F4280F2DC80AB464FF0000AB31E2FE011
S315080048D014F8082050463BF8021FFFF75DFF08F161
S315080048E00108ABF80000CA44019B9845F0DB039B1E
S315080048F001371E44049B1D44079B1C44029B9F4290
S3150800490080F2BD80AA464FF00008A6F1020BEBE73D
S3150800491014F80A2033F8021F12FB08F25846120A46
S315080049200593FFF739FF059B0AF1010A1880CB4466
S31508004930019A9245ECDB039B01371E44049B1D44F8
S31508004940079B1C44BBE79AF82230022B4BD0032B5B
S315080049506AD0012B40F093807B789BF80220DB0815
S3150800496003EBD2031F2BA8BF1F23D8023B889BF853
S315080049700120C3F3451303EB92033F2BA8BF3F2344
S3150800498080B200EB43103B789BF8002003F01F032E
S3150800499080B203EBD2031F2BD4BFC0181F3039884F
S315080049A080B2002C60D1424605F022F8059B27F814
S315080049B0020B01330593CB44059B019A9342C2DB54
S315080049C0039B1E44049B1D440CB1079B1C44069B79
S315080049D001330693069B029A934250DA0023374620
S315080049E0AB460593E8E79BF802307A78DB08C3EB19
S315080049F0D20323EAE373D8023B889BF80120C3F36A
S31508004A004513A3EB920323EAE37380B200EB43104A
S31508004A103B789BF8002003F01F0380B2A3EBD20378
S31508004A20002BA8BFC018BAE79BF802307A78DB08D3
S31508004A30D20813FB02F39BF801003A888008C2F3F8
S31508004A40451210FB02F080115B11400100EBC320F8
S31508004A503A789BF8003002F01F02DB0813FB02F3DA
S31508004A6080B200EB53109AE7059BB8F1FC0FE25CA5
S31508004A709CBF12FB08F2120A96E70023A9E709B0C1
S31508004A80BDE8F08F00F8FFFF08B500F015FE2420FA
S31508004A90FEF71CFA034BC360034B03610023036252
S31508004AA0836108BDB34C0208634C02082DE9F04F38
S31508004AB0BBB01593CB6A0C46DDE944A70C90002BD6
S31508004AC055D10B6BB3F5807F51D14B6BB3F5807322
S31508004AD018BF0123D56A07932B692C220A932B89C1
S31508004AE000211CA80B93A66E95F8019027F076FA7C
S31508004AF094F84C308DF8843094F84D30C3F30303A2
S31508004B008DF898300B9B1E93079B002B40F0A380D3
S31508004B10002E5AD1B9F10E0F2BD0B9F1140F94F813
S31508004B204B3048D1022B00F29680504625F0A9F961
S31508004B300446504625F0A0F90A9BAA881D930B9BAC
S31508004B40CDF880A04343B3FBF2F30A9ACDF870A0E0
S31508004B5004FB032322930B9BCDF890A05B082593B7
S31508004B6002238DF88C3012238DF87C301EE0012349
S31508004B70B0E70C9B51469A6827A824F036FE002811
S31508004B8043D00A9BB4F8482022930B9BCDF890A0FB
S31508004B902593079BADF885201D9394F84A30CDF8E8
S31508004BA070A08DF8873002238DF88C300C981CA9DC
S31508004BB0FFF774FC29E0022B4DD80A9BCDF880A09C
S31508004BC0CDE91CA38DF87C90F0E794F84B30022BC6
S31508004BD041D8079AA16E27A8FFF784FB0128ECD1D4
S31508004BE0329D25B16B7803F0F703062B10D00A9B8C
S31508004BF00C981CA9CDE91CA3CDF880A08DF87C9053
S31508004C00FFF74CFC27A81AF032FE3BB0BDE8F08F40
S31508004C102B69543422932B892046259325F02CF9A9
S31508004C2034EA200428BF5446EA88AB88013A009241
S31508004C30079A18AE11463046013B24F0A2FD079BA1
S31508004C40092200933146204624F079FF0223249650
S31508004C508DF88C30CBE718AD97E80F0085E80F0084
S31508004C6050461C9525F008F91490504625F009F988
S31508004C701390284625F000F90990284625F001F9F1
S31508004C80B9F1060F054631D194F84B30022B25D9D8
S31508004C90102025F0F0F94FF0100B0D90584625F02E
S31508004CA0EAF9099B03FB00F6FDF75EFCFDF764FFD6
S31508004CB00746FDF759FCFDF7A5FF25F0DCF907FBCC
S31508004CC000F39B00B3FBF6F3AB42A8BF2B4606FBEB
S31508004CD003F00E9305F024FE089043E0079BC3B942
S31508004CE0484625F0C8F90D90CB46D7E7079B43B150
S31508004CF0B9F1110FCCD0B9F1120F11D0B9F10F0FCC
S31508004D00C6D0484625F0B7F9B9F1140F0D900BD067
S31508004D10EAE7152025F0AFF94FF0150B0D90BDE722
S31508004D20142025F0A8F90D90099B4FF0140B03EBFE
S31508004D304306FDF719FCFDF71FFF0746FDF714FCB0
S31508004D40FDF760FF25F097F907FB00F39B00B3FB1F
S31508004D50F6F3AB42A8BF2B4606FB03F00E9305F00D
S31508004D60DFFD0890089B03B9FEE7089B0E9A1D9382
S31508004D701B9BBBF1140F1193199B8DF87CB0134440
S31508004D8003F1FF331B9318AB20931AD1099A09999B
S31508004D9052001E920E9A4A43089901EB4202229249
S31508004DA0099ACDE9243202238DF88C3012238DF826
S31508004DB07C30199B119A934220DD089805F0CAFDAC
S31508004DC023E7BBF10E0F12D1089A2292099ACDE970
S31508004DD0243202238DF88C3094F84A30B4F84820EF
S31508004DE08DF887300023ADF885201D93E1E75846F6
S31508004DF025F041F9099B58431E90DAE7189A27A827
S31508004E00CDE92723DAE900121A9B524229931B9B04
S31508004E1049422A9324F0DCFC079B0BB3089B0A9AA9
S31508004E20CDE90493159B0C98CDE902430B9B27A962
S31508004E300193139B0093149B22F0B2FD94F84B50F8
S31508004E40022D40F28880EE43BBF1140F94F84870A7
S31508004E5094F8498094F84A30F6B240F0C58068E084
S31508004E6094F84B30012BE9D927A825F00AF8B9F1AF
S31508004E70060F12902CD1DDE92732DDE907504FF0F5
S31508004E80FF0E0B9902FB01330A9A1344099A4FEA5B
S31508004E90820C129A9542D1DA0246591EC3F10108CC
S31508004EA00AE011F8016F02F8026C02F8036C0E783A
S31508004EB002F801EC02F8046C099F08EB0106B742F8
S31508004EC002F10402EDDC0B9A604413440135E0E775
S31508004ED0BBF1140F67D10B9B279D4FEA5308289BFC
S31508004EE00A9A03FB08F36E0006EB43061644139A68
S31508004EF01D4408FB02F20A9B05EB42051D44229B52
S31508004F00DDE907720F920B9A1093099B22F00102B2
S31508004F105B001692129A97422DDB94F84B50022D9D
S31508004F2019D9EE4394F8487094F8498094F84A30B1
S31508004F30F6B2DB08FF084FEA980818A86F4308FB83
S31508004F4005F85D4324F02DFC4FF0000C089BA3F1F7
S31508004F50020E84457ADB0C981CA9FFF79FFA1B9B67
S31508004F600E9A013319931344119A013B934200F3A5
S31508004F708A801B931DE71A4631460F98179326F029
S31508004F8038FF2946099A109826F033FF169B0F9A80
S31508004F901E44179B09991A440F92109A45440A44CD
S31508004FA010920137B6E7BBF10E0FD4D0DDE90767DB
S31508004FB00D9B279D0B9A5D43289B03FB02550A9B75
S31508004FC00D9A1D44099B02FB03F8129B9E4233DB94
S31508004FD094F84B50022DBED9EE4394F8487094F8D5
S31508004FE0498094F84A30F6B2BBF1120FA1D0BBF152
S31508004FF00E0FB0D018A80F9324F0D3FB0F9B6F4366
S3150800500008FB05F85D430D9B5843089B089A9A1AB6
S315080050109042A0D91A7802FB067212121A705A78B0
S3150800502002FB068212125A709A7802FB0652121274
S315080050309A700D9A1344E9E729463846424626F0FF
S31508005040D8FE0B9B47441D440136BEE73EF8022FA7
S315080050500CF1010CC2F3451106FB0181C91001F4DC
S31508005060FC630F93D30A06FB03530F4902F01F0292
S3150800507006FB027201EAC3030F990B4303EB2223D3
S31508005080AEF8003065E7119BBBF1140F1B937FF454
S3150800509090AE18A824F0F5FE099B5843089B03EB2D
S315080050A04000229085E600BF00F8FFFF91F84D30DA
S315080050B013F0200F024B01D119F0EDBFFEF7BABC71
S315080050C0AD4A000891F84830022B02D9014BFEF789
S315080050D055BD7047EB6802082DE9F04FDDB00B6B44
S315080050E083460C46002B00F0B88091F83C20022A33
S315080050F040F2B380CD69D1E908108542A26A02D18F
S31508005100914200F0AA8003EBD3735B105B428542A1
S31508005110D4BF5E191E180C968542ACBFC3EB0506B4
S31508005120C3EB00069142D4BF581898189142ACBFF9
S31508005130C3EB0103C3EB02030CA90D90DBF80820AF
S3150800514008460E960F9324F050FB002800F0858041
S31508005150216AA26AE0699142636A40F0CF8083427D
S31508005160D4BF409340908342B8BF0346226B013BAD
S31508005170013A429302F0010303EB6203CB1A01EBF7
S31508005180620240A943920846DBF80820419324F0BE
S315080051902CFBE8B1A56B1DB1656B003D18BF012559
S315080051A02C2200214EA826F019FF40AB4E9394F806
S315080051B02E30A28D8DF84F3194F83C30ADF84D2144
S315080051C08DF84C31002D4BD158464EA9FFF766F99C
S315080051D094F83D3013F00C0F3FD04EA81AF0A2F801
S315080051E094F82E30256B8DF85B3147F6FF736E10F9
S315080051F0ED43559394F83C30A28D8DF8583194F8C8
S315080052003D30ADF859215A0705F0010510D5E26978
S315080052105846931B4093236A3244991B521B3344C6
S31508005220419142925B1B40AA4EA9439321F0BFF8D5
S3150800523094F83D301B0710D5626A5846931B409375
S31508005240A36A3244991B521B3344419142925B1B19
S3150800525040AA4EA9439321F0AAF85DB0BDE8F08FA5
S3150800526040A824F009FE419B409FDDF80C9143932A
S31508005270D4E90D23134497FBF3F2064603FB127792
S3150800528005F04EFB4FF00208054640ABDDF804A1D9
S31508005290549056938DF85481D14503DA284605F083
S315080052A059FB95E728463246FF2126F097FE00204F
S315080052B03B46844686420CDC58464EA9FFF7EEF874
S315080052C0419B0AF1010A01334193439B01334393FE
S315080052D0E2E7626B9A4209DBD21A00FA82F003FA15
S315080052E082F38DF8548101300133E3E7A16B0A4458
S315080052F09342CCBF002305F800C0F2E7834272D17F
S315080053009142D4BF419141928A42B8BF0A46206B66
S31508005310013A013800F0010505EB600540A95D1B5F
S31508005320439203EB6003DBF8082008464095429356
S3150800533024F05BFA00283FF44BAFA56B1DB1656BF3
S31508005340003D18BF01252C2200214EA826F046FE56
S3150800535040AB4E9394F82E30A28D8DF84F3194F8C9
S315080053603C30ADF84D218DF84C31002D3FF42CAF73
S3150800537040A824F081FD419BDDF80C9180464393BB
S3150800538005F0CEFA40AB56930223419F8DF854316F
S31508005390D4E90D23134497FBF3F5064603FB15756D
S315080053A05490B94501DA304679E74246FF2130463E
S315080053B026F014FE636B5846AB42B4BF00220122A6
S315080053C08DF85421A26B4EA913449D42A8BF00250F
S315080053D0FFF764F8419B013501334193439B01373D
S315080053E001334393DDE7914204F1240704F11C05D8
S315080053F080F20C81294608A824F048FDDDE9086AF0
S3150800540039460AA824F042FDDDE90A59AB1B079381
S31508005410A9EB0A030593AB1B83EAE372A2EBE372DB
S31508005420059B039283EAE372A2EBE3720492DDE939
S3150800543003318B42CBBF0B46039B03990499CCBF20
S315080054405B015B0193FBF1F39A49226B11F8038028
S31508005450B54202FB08F808F13F084FEAE81306933D
S315080054602B46A8BF3346B542A3EBE81310932B4649
S31508005470B8BF3346D14503EBE81312934B46A8BF92
S315080054805346D145A3EBE81311934B46B8BF534691
S3150800549010A903EBE8130846DBF80820139324F059
S315080054A0A4F900283FF494AE069B4FEA282703F098
S315080054B00101002301EB282C24A80DF1C808DDE919
S315080054C003218A42CDE916331490CDF854801893F7
S315080054D040F3B1800AEB0C02049209EB0C02069227
S315080054E0AAEB07020392AA1B9A42A9EB07070193A4
S315080054F040F394802B46039A3146009700F016F93C
S3150800550001230193069B049A00932B463146404695
