:100000000010002029060000AF520000AF5200008F
:10001000AF520000AF520000AF520000AF520000DC
:10002000AF520000AF520000AF520000AF520000CC
:10003000AF520000AF520000AF520000AF520000BC
:10004000AF520000AF520000AF520000AF520000AC
:10005000AF520000AF520000AF520000AF5200009C
:10006000AF520000AF520000AF520000AF5200008C
:10007000D5400000AF520000AF520000AF52000068
:10008000AF520000AF520000AF520000AF5200006C
:10009000AF5200002D0F0000AF520000AF52000021
:1000A000AF520000690A0000490A0000AF52000088
:1000B000AF520000AF520000AF520000AF5200003C
:1000C000AF520000AF520000AF520000AF5200002C
:1000D000AF520000AF520000AF520000AF5200001C
:1000E000AF520000AF520000AF520000AF5200000C
:1000F000AF520000AF520000AF520000AF520000FC
:10010000AF520000AF520000AF520000AF520000EB
:10011000AF520000AF520000AF520000AF520000DB
:10012000AF520000AF520000AF520000AF520000CB
:10013000AF520000AF520000E10500000152000084
:10014000013800D0FCE770470348044B834202D0DB
:10015000034B03B11847704768160020681600204B
:1001600000000000064B0749C91A891048BF013139
:10017000491003D0044B0BB101481847704700BF2A
:1001800068160020681600200000000010B5064C1C
:10019000237843B9FFF7D8FF044B13B10448AFF3FA
:1001A00000800123237010BD5215002000000000C4
:1001B000606C000008B5054B1BB105490548AFF35D
:1001C0000080BDE80840FFF7CDBF00BF0000000081
:1001D00000100020606C0000A3F5803A704700BF5B
:1001E000174B002B08BF134B9D46FFF7F5FF00216F
:1001F0008B460F461348144A121A05F08FFA0E4B1D
:10020000002B00D098470D4B002B00D098470020C2
:10021000002104000D000D48002802D00C48AFF367
:10022000008004F06FFA2000290004F0B4FF04F00D
:1002300027F900BF000008000000000000000000D7
:100240000010002000100020A81500200000000071
:100250000000000008B500F0FDF8014610B10748A5
:1002600004F0C4F904F070FF0021084604F061FFB7
:10027000BDE80840024804F03DBF00BF86640000AE
:100280003864000038B5374C374D204600F0B4F8DC
:1002900000212870084604F04CFF344804F02AFF7F
:1002A000B4F90030324A2821324804F0B1F9032170
:1002B000002004F03EFF304804F01CFF0321002022
:1002C00004F037FF2B4804F015FFB4F90230284A38
:1002D0002821284804F09CF90821002004F029FF77
:1002E000264804F007FF0B21002004F022FF2448D9
:1002F00004F000FF0B21002004F01BFF1D4804F058
:10030000F9FEB4F904301A4A28211A4804F080F999
:100310000021012004F00DFF1A4804F0EBFE032138
:10032000012004F006FF164804F0E4FE032101203A
:1003300004F0FFFE0F4804F0DDFE297869B9B4F936
:100340000430B4F90220B4F900100F4804F04EF95B
:10035000BDE83840C82003F063BE0C48BDE8384013
:1003600004F044B94C1500205315002041640000EE
:1003700045640000541500204864000050640000EB
:100380004964000054640000586400007F64000069
:1003900000B589B00C4B8DF8070003930DF10703EE
:1003A00004930123ADF81430ADF81C30074B0691CF
:1003B000186803A900F0DAFB002814BF032000200E
:1003C00009B05DF804FB00BFD2000400BC1500209A
:1003D0007FB5074B01A9CDE901300223ADF80C3000
:1003E000044B186800F0C2FB07B05DF804FB00BFC7
:1003F000D2000100BC15002010B588B0044600B33F
:10040000A8238DF80330114B03A903930DF10303C7
:1004100004930123ADF8143001AB06930623ADF825
:100420001C300B4B186800F0A1FB60B9BDF804301C
:100430002380BDF806306380BDF80830A38008B083
:1004400010BD0520FBE70320F9E700BFD200040040
:10045000BC15002013B500230F200DF107018DF806
:100460000730FFF795FF044618B10424204602B078
:1004700010BD9DF80730D32BF7D10848FFF7A8FF30
:100480000748FFF7A5FF0748FFF7A2FF0648FFF759
:100490009FFF0648FFF79CFFE8E700BF926400005B
:1004A000906400008E6400008C6400008A64000088
:1004B00000B589B00023CDF81630CDF81A30ADF86C
:1004C0001E30094B8DF8070003930DF107030493C9
:1004D0000123ADF81430054B03A9186800F046FB62
:1004E00009B05DF804FB00BF4E000100BC15002000
:1004F00008B5044805F001FFBDE80840024800F0D7
:10050000C3BA00BFE0690000A8150020064B1B68B5
:100510001A7A022A04D812B11B68044A1360704781
:10052000032AF9D0704700BFC01500201810002022
:1005300070B5A0B0204D0AAC0FCD0FC495E80700F0
:1005400084E8070000244FF480136E46CDE901448F
:100550000394009311AD0FCE0FC5184BCDE906449F
:100560002B60174B089416AD05AE05930FCE0FC543
:100570002022144B14482B60144B11A91B93144BCD
:100580001E94CDE91C23134B0AAA1F93124B02F0B1
:1005900011FF044618B1AE21104804F096FE9DF8F4
:1005A00077304FF4E130002B0CBF0321002104F021
:1005B00070FE204620B070BDC86400003400035AAD
:1005C000010010003C00035AD01000207C150020D0
:1005D00000010100D41500201C10002094640000CC
:1005E000014802F0FDBF00BFD010002008B503484D
:1005F00005F083FEBDE8084004F0D7BDE0690000C7
:10060000014805F07ABE00BFE06900000348044AD3
:100610000449121A921004F04BBE00BF40010000C2
:1006200040010000A815002008B5154B83F30A8887
:1006300000F030F8FFF7EAFF124B13498B4212D358
:100640000020124B12498B4218D3FFF7C9FD1868DE
:1006500050F82240586840F822400132986882429F
:10066000F5D30C33EAE70022F8E71C6844F82200CF
:1006700001325C68A242F8D30833E4E70022F8E7CD
:1006800000000020686C0000746C0000746C0000B6
:10069000746C000070B54FF40041134B134A144DB5
:1006A0009A60D3F8882005F5005442F47002C3F82C
:1006B0008820104A91664FF0FF3222664FF6DF72B3
:1006C00062660222C3F8D020BFF34F8FBFF36F8F53
:1006D0004FF44036032002F003FE0320E66002F0F0
:1006E000CDFD2E6170BD00BF00ED00E000000000F8
:1006F0000080004400900050014B1860704700BF1C
:10070000EC150020054B1860054B1B6F03F0070329
:10071000032B01D105F0DEBA704700BFF4150020AD
:100720000080005038B504460D4601B118B9452186
:10073000044804F0CAFD236813B92B60256038BD56
:100740001C46F8E7E464000010B5044618B95621C9
:10075000044804F0BAFD206818B103682360002340
:10076000036010BDE464000007B50023294801932D
:1007700005F0C3FD4FF44073012204216846ADF833
:10078000003000F0C3F80122234B0520C3F84424B5
:1007900001A905F0ADFD002839D1204BD3F8F02098
:1007A00042F00102C3F8F020D3F8FC2042F080723E
:1007B000C3F8FC201A4AA3F55D431A60019B194A4D
:1007C00003F5D52303F2FC43B3FBF2F3164A013BD6
:1007D00013610223C2F8F0304FF48073C2F804337F
:1007E0004FF06043114AC3F8B02F114AC3F8802E6E
:1007F000D3F8002E42F48072C3F8002EFF2283F853
:100800002020D3F8002E22F48072C3F8002E03B00B
:100810005DF804FBE069000000D0035000ED00E04B
:10082000FF030040F8590D00000004E055CEACC5B0
:100830000900010030B54FF06043D3F8802ED20795
:1008400015D501240B4D8440D5F8FC2042F0807270
:10085000C5F8FC20D3F8002E2243C3F8002E53F82D
:100860002020002AF0D003F82010002030BD1120F5
:10087000FCE700BF00ED00E02DE9F0410C25044647
:100880004FF00108124E0CB314F001000BD0002001
:1008900024F0010405FB00625768002FF3D0916833
:1008A000C0B2B847EFE72246013020284FEA520293
:1008B00001D0D307F8D508FA00F20F2824EA020481
:1008C000E8D9103805FB0062B432E5E7BDE8F081F5
:1008D000EC10002008B50C4805F00FFD192002F0BF
:1008E000E7FC28B1192002F0FBFC192002F0C6FC3D
:1008F0001A2002F0DDFC28B11A2002F0F1FC1A20C7
:1009000002F0BCFC002008BDE06900002DE9F041C8
:100910000E461746044638B993211A4804F0D5FC10
:1009200022252846BDE8F0810F290BD803787BB13A
:10093000013BDBB2022B05D8134AD35C6278D3406B
:10094000DB0708D497210F4804F0BFFC2125E8E716
:1009500040F2FF13F2E70D4BD3F810532DB19B215A
:10096000084804F0B2FC0225DBE705F0BBFC80463A
:100970003A462046314602F0DFFA404605F0ADFC2B
:10098000CFE700BF1E6500005C65000000C003509B
:1009900038B5044628B91348E42104F096FC222017
:1009A00038BD03787BB1013BDBB2022B05D80E4A80
:1009B000D35C6278D340DB0708D40A48E82104F00E
:1009C00084FC2120ECE740F2FF13F2E705F08AFCFB
:1009D0000546204605F00CFA284605F07EFC00206E
:1009E000DEE700BF1E6500005C65000038B5044608
:1009F00028B91348FC2104F068FC222038BD037894
:100A000083B1013BDBB2022B05D80E4AD35C62787E
:100A1000D340DB0709D40A484FF4807104F055FC39
:100A20002120EBE740F2FF13F1E705F05BFC054600
:100A3000204602F049FA284605F04FFC0020DDE789
:100A40001E6500005C65000008B502F06BFA054BFE
:100A500000F0553020F05020C3F82004BDE80840D5
:100A6000FFF70ABF00E0035008B502F05BFA054B40
:100A700000F0AA3020F0A020C3F82004BDE8084010
:100A8000FFF7FABE00E0035070B586B0044618B90F
:100A9000AC21314804F019FC2368304A934207D056
:100AA0002F4A934250D12F4805F027FC012503E03F
:100AB0002D4805F022FC0025A3880122ADF8003066
:100AC000E3880A216846ADF80430FFF71FFF0122D2
:100AD0000A2101A8FFF71AFF0A266846FFF786FFDA
:100AE000642003F011FB6846FFF752FF642003F017
:100AF0000BFB013EF1D103212B0103F1A04202F5D2
:100B00007032C2F890146079217903F1A04341EA70
:100B10000041C2F89414E179A27903F5703342EAF6
:100B20000142C3F8982440F20113ADF80830E3689D
:100B300020680493A36802A90393237C8DF81430E2
:100B400001F03AFE06B070BDD121034806B0BDE801
:100B5000704004F0BABB00BF5F6500000000015A9E
:100B600000800650D8690000DC69000038B50546F1
:100B700001F076FF044C012801D1013C00D138BDC1
:100B8000284601F04DFEF6E7E19304002DE9F04F11
:100B900085B09A46554B06461B780F461546DDF83C
:100BA0003C909DF844B0DDF85080002B00F0978019
:100BB000072A00F296800E9B002B00F09280B9F17C
:100BC000000F00F08E80129BB3F5006F00F3898058
:100BD000012803D1109B002B00F08380444B03EBD2
:100BE00005131B7B002B7ED0424C1022002168464F
:100BF00004F094FD04EB45141022A7BB39462046AF
:100C000004F08CFD43F210036380BBF1000F03D1AD
:100C1000E37843F00303E370364A0E9B02EB451C76
:100C2000CCE90193129B6901581E9DF84C30C0F32A
:100C30000A0003F003039B0643EA001E53582E48A4
:100C4000012E00EA03004EEA0003CDF800A0535045
:100C500017D0B8F1000F2ED19CF8023068F30413BE
:100C60008CF8023027E00021204604F057FD4FF4B5
:100C700044736380BBF1000FCED1E37843F03003BF
:100C8000C9E713230CF1100ECCF80C309CE80F00D0
:100C90008EE80F006FF00301DCF81C20109B61F35D
:100CA0009F02012FCCF81C20CCF8143003D1CCF8D3
:100CB0001890CCF8043000270D4A290102EB0513E7
:100CC00042F80180159A28465A60694622469F607C
:100CD0005E7301F0A5FF384605B0BDE8F08F074808
:100CE000FAE70748F8E70748F6E700BF9C15002039
:100CF00054130020541200200F80FFF3028000F0F4
:100D0000018000F0078000F038B5124B05461B78D3
:100D1000DBB1E0B105F0E6FA0F4A00231146147B7F
:100D200054B92B6001251A0101EB03131D738C507C
:100D300005F0D3FA204638BD0133082B02F110022A
:100D4000EDD105F0CAFA0548F5E70548F3E705488F
:100D5000F1E700BF9C15002054130020048000F030
:100D6000028000F0018000F038B505F0BBFA0023E6
:100D700005460B4A147B6CB90133082B02F11002B3
:100D8000F8D101F0CFFE074B28461C7005F0A5FAFC
:100D9000204603E0284605F0A0FA034838BD00BF0E
:100DA000541300209C150020058000F010B50D4B59
:100DB00004461B7893B1072812D805F093FA0A4B22
:100DC00003EB04131A7B2AB100241C7305F085FA87
:100DD000204610BD05F081FA0448FAE70448F8E718
:100DE0000448F6E79C15002054130020068000F00C
:100DF000028000F0018000F013B5154B1868002345
:100E000001908DF8043005F06DFA124B1C7824B176
:100E100005F063FA104802B010BD01221A7005F007
:100E20005CFA0E4B01A81C731C7783F82C4083F8E6
:100E30003C4083F84C4083F85C4083F86C4083F876
:100E40007C4008238DF8073001F0A2FE2046E2E73F
:100E5000A16500009C150020038000F054130020C1
:100E6000F8B50D4D2D7885B1072810DC0B4D060126
:100E700005EB0014277B67B1AB510025069BA560ED
:100E8000636001F0CDFE2846F8BD0548FCE7054843
:100E9000FAE70548F8E700BF9C150020541300202E
:100EA000028000F0018000F0078000F008B50A4AD7
:100EB00012785AB107280BD8084A02EB00131B7BA3
:100EC00043B1002101F044FE002008BD0448FCE7C6
:100ED0000448FAE70448F8E79C1500205413002062
:100EE000028000F0018000F0078000F008B50A4A97
:100EF00012785AB107280BD8084A02EB00131B7B63
:100F000043B1012101F024FE002008BD0448FCE7A4
:100F10000448FAE70448F8E79C1500205413002021
:100F2000028000F0018000F0078000F02DE9F04120
:100F3000174B1F6D5B6D1F4000D5FEE70126002596
:100F4000144CDFF85880374218D02368C8F8506036
:100F5000A3B1A168284601316268A1609847637B0C
:100F6000012B0BD150B90C4B03EB45131A7B60F3EB
:100F700041021A731A7F60F341021A770135082D76
:100F80004FEA460604F11004DDD1BDE8F08100BF50
:100F9000000004505413002054120020002004507C
:100FA000044BD3F88420D206FBD4D3F88400C0F3DA
:100FB000811070470040005038B5104B0546D3F8FB
:100FC00000310C4603F00303022B0BD0032B0DD092
:100FD000012B0FD104F098FE032305B1286004B162
:100FE000236038BD04F09AFE0823F6E704F092FE71
:100FF0000723F2E701230020EFE700BF0080005045
:1010000038B5104B0546D3F820310C4603F00303E6
:10101000022B0BD0032B0DD0012B0FD104F034FE8B
:10102000052305B1286004B1236038BD04F06CFECF
:101030000323F6E704F064FE0223F2E70123002015
:10104000EFE700BF0080005038B5104B0546D3F8DD
:1010500040310C4603F00303022B0BD0032B0DD0C1
:10106000012B0FD105F02AF9092305B1286004B13D
:10107000236038BD04F052FE0823F6E705F021F99D
:101080000B23F2E701230020EFE700BF00800050B0
:1010900038B5104B0546D3F860310C4603F0030316
:1010A000022B0BD0032B0DD0012B0FD105F006F92D
:1010B000092305B1286004B1236038BD04F02EFE79
:1010C0000823F6E705F0FDF80B23F2E701230020E3
:1010D000EFE700BF0080005038B51A4B0546D3F843
:1010E00024010C4600F00700062821D8DFE800F0B4
:1010F000280410181C0C140004F0C6FD052305B1CB
:10110000286004B1236038BD04F0BEFD0623F6E775
:1011100004F0FAFD0323F2E704F0F6FD0423EEE702
:1011200004F0EEFD0223EAE704F0F4FD0723E6E70E
:10113000054840F6DB7104F0C8F800231846DEE7E6
:101140000123DCE700800050A5650000F7B500270B
:10115000114B0197D3F88041064604F00304012C9B
:101160000D4608D0022C12D041F2E6310B4804F0B3
:10117000ACF83C4604E0394601A8FFF741FF0F24D4
:101180000EB1019B336005B12C6003B0F0BD04F0DB
:10119000B7FD0190F4E700BF00800050A565000096
:1011A00038B5164B0546D3F800020C4600F0070090
:1011B000042819D8DFE800F020030B0F130005F016
:1011C0007DF8092305B1286004B1236038BD04F01F
:1011D000A5FD0823F6E705F074F80B23F2E704F009
:1011E00079FD0E23800AEDE7054841F2A44104F0A1
:1011F0006CF800231846E5E70123E3E70080005080
:10120000A565000038B5124B0546D3F840320C46B0
:1012100003F00303022B0BD0032B0DD0012B0FD1B6
:1012200005F04CF8092305B1286004B1236038BDEE
:1012300004F074FD0823F6E705F043F80B23F2E70A
:10124000044841F22F4104F040F800231846EAE731
:1012500000800050A565000008B5334B98424FD080
:1012600027D8324B984245D017D8314B98423ED0C0
:101270000AD838B12F4B984239D041F2BB312E48B1
:1012800004F023F8002034E02C4B98422FD02C4B54
:101290009842F2D12B4B586E2BE02B4B98422CD01E
:1012A00003F5371303F5D8639842E6D1254B986FC1
:1012B0001FE0264B98422FD00CD8254B984223D0C4
:1012C000244B984224D0244B9842D6D11D4BD3F8BE
:1012D00084000EE0214B984222D003F5740303F5FD
:1012E00010539842C9D1174BD3F8980001E0154B21
:1012F000986D08BD134B186FFBE7124B586FF8E75A
:10130000104BD3F88000F4E70E4BD3F88800F0E7D9
:101310000C4BD3F88C00ECE70A4BD3F89000E8E7CD
:10132000084BD3F89400E4E780BA8C01405DC60016
:1013300080841E0040420F00A565000000093D00AA
:10134000C0CF6A000080E00F0024F400007E560346
:1013500080D54302006CDC020048E8010090D00315
:1013600010B40F4C0B46D4F8204204F00304012CB7
:101370000ED0022C10D008B1002101600BB1002268
:101380001A6041F2050107485DF8044B03F09DBF68
:101390005DF8044BFFF734BE5DF8044BFFF754BE15
:1013A00000800050A565000010B5B0F5207F34D056
:1013B00009D8B0F5007F2AD003D898B1B0F5C07F26
:1013C00010D0002421E0B0F5607FFAD1154BD3F89E
:1013D0008030C3F301149B0617D5032C15D04FF4AE
:1013E00026710FE00F4B1C6F230B13F00E0FC4F38D
:1013F00003340AD0072C08D00F2C06D0032C04D0BD
:101400004FF42271084803F060FF601C10BD054BCB
:10141000D3F89040C4F30464F7E7024B1C6FC4F3A5
:101420008024F2E700800050A565000010B54FF45D
:1014300000320E4B04469A660020FFF7B5FF60436A
:1014400041F671320A4C0B4BA04294BF00200120A0
:10145000D969DA639A6822F4401242EA00529A602B
:10146000CA0344BF0022DA6310BD00BF00900050E1
:10147000005A62020000035070B5460904460D464A
:101480000ED140F235310D4803F01FFF334604F012
:101490001F047DB103F580530122A2401A6070BD84
:1014A000012E05D0064B074A022E18BF1346EEE761
:1014B000054BECE703F50053EEE700BFA565000020
:1014C00068800050608200506480005030B585B064
:1014D0000021B0F5807F0446019100F00F8100F2F9
:1014E0009F80612800F294801F2805D8002840F0D2
:1014F000918004F0EFFBDEE0A0F12004412C00F22B
:10150000898001A353F824F0F3140000BF160000F3
:10151000F3140000BF160000E9160000E9160000F1
:10152000E9160000E9160000BF160000BF16000013
:10153000951600004F1600001F1700002917000025
:101540004F160000BF160000BF160000BF160000B7
:1015500015160000151600001516000015160000DF
:101560001516000015160000F31600007116000095
:10157000BF160000BF160000BF1600003D17000098
:1015800033170000BF1600001516000015160000E6
:10159000151600001516000015160000151600009F
:1015A000151600001516000015160000151600008F
:1015B000151600001516000015160000F3140000A3
:1015C00015160000F3140000F3140000F3140000DB
:1015D000E91600001516000015160000151600008B
:1015E000151600001516000015160000151600004F
:1015F000151600001516000015160000151600003F
:101600001516000015160000F3140000F314000076
:1016100080284ED040F2A4414B4803F056FE4BE0E8
:10162000B0F5A06F65D028D8B0F5607F52D019D83A
:10163000B0F5007F4ED004D8B0F5C07F3FF459AF6D
:10164000E8E7B0F5207F3AD0B0F5407FE2D104F072
:1016500041FB04464FF42070FFF7A6FEB4FBF0F404
:10166000640835E0B0F5806F3ED0B0F5906FD1D111
:10167000002101A8FFF730FD1EE0B0F5E06F58D063
:101680000DD8B0F5C06F4AD0B0F5D06F4CD0B0F5E2
:10169000B06FBFD1002101A8FFF758FD0CE0B0F5F5
:1016A000F06F4BD0B0F5086FB4D101A8FFF784FC00
:1016B00002E004F0EFFA0190019805B030BD04F0AB
:1016C00009FB04464FF42070FFF76EFEB4FBF0F404
:1016D0000194F1E704F0DEFA05462046FFF764FEC8
:1016E000B5FBF0F50195E7E7002101A8FFF788FCBD
:1016F000E2E7002101A8FFF733FEDDE74FF0E0232A
:1017000002911B695B0705D504F0E4FA0290029B85
:101710000193D1E703A902A8FFF796FCF7E70021A0
:1017200001A8FFF791FCC7E7002101A8FFF738FDEA
:10173000C2E7002101A8FFF765FDBDE7002101A870
:10174000FFF7A6FCB8E700BFA565000008B580203C
:10175000FFF7BCFE034B98429EBF4FF48032024B12
:101760001A6708BD005A620200A000501FB5034668
:101770000020B3F5807F019077D026D8382B00F079
:101780008A800BD8243B092B0FD8092B0DD8DFE812
:1017900003F0676767670C0C5F0C357D522B5FD0D9
:1017A00006D83D2B39D03E2B7AD040F289514BE000
:1017B000802BFAD13D4B1B6F03F00703013B032B3A
:1017C00040D8DFE803F03D36393BB3F5D06F5DD04C
:1017D00019D8B3F5A06F5ED00AD8B3F5806F3FD0AB
:1017E000B3F5906FE1D1002001A9FFF775FC33E05C
:1017F000B3F5B06F2CD0B3F5C06FD6D1002001A9DE
:10180000FFF722FC28E0B3F5006FECD00AD8B3F55F
:10181000E06F45D0B3F5F06FC7D1002001A9FFF705
:1018200037FC19E0B3F5086FBFD101A9FFF7C4FB7E
:1018300012E0052301930FE00323FBE70723F9E7F9
:101840000223F7E740F2D641194803F03EFD03E0DA
:10185000002001A9FFF77AFC019805B05DF804FBB0
:10186000002001A9FFF7CCFBF6E74FF0E023029040
:101870001B695B0705D504F02DFA0C230393039B2A
:10188000D8E703A902A8FFF7DFFBF8E7002001A9CA
:10189000FFF786FCE0E7002001A9FFF761FDDBE729
:1018A000002001A9FFF7AEFCD6E700BF0080005082
:1018B000A56500004FF48032074B0849586E03F5C8
:1018C00080535A660B6A23F001030B62C3035CBFAB
:1018D000034B5A66704700BF0080005000C007509D
:1018E00000A00050F8B5036804460F2B04D940F659
:1018F0008A316C4803F0E9FC63680F2B04D940F689
:101900008D31684803F0E1FCA3680F2B04D94FF434
:101910003961644803F0D9FC237B0F2B04D940F6CE
:101920009331604803F0D1FC637B0F2B04D940F660
:1019300096315C4803F0C9FCA37B3F2B04D940F6E9
:101940009931584803F0C1FCE37B3F2B04D940F6A2
:101950009C31544803F0B9FC2369032B04D940F6A9
:101960009F31504803F0B1FC6369032B04D940F662
:10197000A2314C4803F0A9FCE369012B04D940F6DD
:10198000A531484803F0A1FC8020FFF7EFFE0328B3
:1019900000F087804FF40022434B02215A6645F63F
:1019A0000E03424AC2F88030414B9962012103F58F
:1019B00080539962936DD903FCD4D4E900131B05BD
:1019C00043EA0163E17B94F820500B43217BE77EDF
:1019D00043EA0143617B6D0143EA0133A17B43EAA2
:1019E000811313619169D4E904031B0643EA806300
:1019F00001F000410B43A17E94F823000B43217EAC
:101A000043EA0143617E43EA01239361136AE66975
:101A100023F00D0394F8221043EA8703002E2DD102
:101A20001362966A94F8213045EA031326F03305D1
:101A30002B4343F0010393621E4D1C4B9A6D35EA14
:101A40000202FBD102221A4DAA621A659A6D520057
:101A5000FCD41A69A56822F4700242EA05521A61A0
:101A60004FF00042124B9A6119B9022203F58053DC
:101A70009A6278B90122104B9A620BE0334343F02B
:101A800008031362936A23F0330303432B4343EAAF
:101A90004103936294F824301BB1044B074AC3F806
:101AA0008020F8BDA56500000090005000C00050E7
:101AB00000D000500300014000E00050F1A7FFFFFC
:101AC000014B93F9000070479E15002010B5436844
:101AD0000446072B04D940F6E6512A4803F0F5FBEB
:101AE000A368032B04D940F6E851264803F0EDFB28
:101AF0002378032B04D940F6EA51224803F0E5FB92
:101B000094F90130002B04DA40F6EC511D4803F043
:101B1000DCFB4FF480011C4A637851664FF4D151CD
:101B2000022002F5B832516218494F2B48604FF03D
:101B3000010028BF4F2301F5805148601169C90396
:101B4000FCD4217843EA01235361D4E901131B013A
:101B500043EA0123617B0B43217B43EA410393600A
:101B6000E37BA17B1B0143EA4113617C0B43217C96
:101B700043EA41035360A37C13B16FF4D153536222
:101B800010BD00BFA565000000900050001002507D
:101B9000014B1880704700BF5A160020014B188077
:101BA000704700BF5816002008B54FF40012184BBC
:101BB0005A660223174A5360936813F48033FBD1AB
:101BC000012822D104F0A0F8134B984215D003F558
:101BD000122303F5F863984213D0104B00EB8002F8
:101BE000400AB3FBF0F3520A0A49CA620B630123AD
:101BF0004B620022074B5A6008BD45F67A13084A2B
:101C0000F2E745F61A03074AEEE75362F1E700BF31
:101C1000009000500040025000F049026466666681
:101C2000D8B80500BBCF050010B5B0F5207F65D052
:101C30000ED8B0F5007F4FD003D800B3B0F5C07F09
:101C40001DD04FF44671BDE81040344803F03DBB51
:101C5000B0F5607FF5D14C1E012C06D9042904D0C3
:101C600040F2F9212D4803F030FB2D4AD2F88030A4
:101C700023F0300343EA0413C2F8803010BD4C1E39
:101C8000012C0AD9102903D8264BCB40DB0704D4FA
:101C900040F2CB21214803F018FB03F04BFB03F08B
:101CA00057FB4FF48031204B1D4A1967136F23F403
:101CB000704343EA0433136704F00CF80446FFF75B
:101CC0006FF9C0F10201204603F03CFB00F046F83A
:101CD000BDE81040FFF73ABD4C1E1F2C04D94FF44D
:101CE00043710E4803F0F1FA0D4AD2F8903023F018
:101CF000F85343EA0463C2F89030BFE74C1E012C4E
:101D000004D940F21231054803F0DFFA044A136F98
:101D100023F4806343EA84231367AFE7A5650000DB
:101D200000800050100101000090005008B5012112
:101D3000022000F0DDF84FF42070FFF735FB054B73
:101D4000187003F0F7FA03F003FB4FF48032024BF4
:101D50001A6708BD9D1500200090005008B54FF48B
:101D6000C070FFF7B3FBBDE808400449884294BF48
:101D7000012102214FF42070FFF756BF80F0FA02D4
:101D800038B5044603F0A6FF0546FFF709F9C0F190
:101D90000201284603F0D6FA0121002000F0FCF8E9
:101DA0002CB1FFF7DBFFBDE83840FFF7CFBC034B9A
:101DB0004FF420701978FFF737FFF4E79D150020E6
:101DC0002DE9F0410546FFF747FA431E0333044669
:101DD00004D940F6E2113B4803F077FA4FF4C022F1
:101DE000394B5A6603F598335A68012A04D13749AA
:101DF0004A609A699207FCD18020FFF7B7FC05285A
:101E000007D103F097FA03F0A3FA4FF480322E4B78
:101E10001A672F4B24F040749D4239D02D4B9D42C0
:101E200039D003F031FF8542064603D90121284607
:101E300000F0B2F8284FFB6813F0060FFBD1D7F87B
:101E40000880BC60BB68634013F4F81F26D12846A5
:101E5000FEF752FC8020FFF789FC052814D103F01F
:101E600039FFA842044604D940F63B21154803F047
:101E70002CFAFFF795F8C0F10201204603F062FA50
:101E8000FFF76CFFFFF762FCAE4213D2BDE8F081B2
:101E900044F00074C5E744F08074C2E740F62A219C
:101EA000084803F012FA8020C7F80880FFF75EFCAC
:101EB000052805D0BDE8F0410121002000F06CB8F4
:101EC0003546CCE7A56500000090005000E00150C9
:101ED00040420F0080841E0000000150034A017937
:101EE000D36E23F030030B43D3667047004000509D
:101EF000F8B50446244BD3F88420D006FBD4D3F89D
:101F00008430C3F381139C423CD003F0C3FE012C08
:101F100005460BD11D4B984204D940F29B711C48D9
:101F200003F0D3F90121284603F00CFA04F0D1F9AB
:101F30004FF00072174B07465A66204603F00DFA21
:101F40004FF48063104E621E93403367736E9A01A4
:101F500003D4D6F884309B060AD5384604F0B4F989
:101F6000022C0FD12846BDE8F840002103F0EAB961
:101F7000D6F884309906E9D540F2B371044803F0ED
:101F8000A4F9E3E7F8BD00BF00400050005A620228
:101F9000DC6500000060005010B50C4608B903F085
:101FA00079FE074B21461B783BB1064B984204D87B
:101FB0000120BDE81040FFF79BBF0220F9E700BFFA
:101FC0009F150020005A620238B54FF00042264BA0
:101FD00026495A6601224A604AF6CD3103F50B23A1
:101FE0005D6C1964154030BB9968C9070BD4002497
:101FF00001221F4B5A6015B11E4B1F4A1A6403F091
:10200000ADF9204638BD1A498A601C4AD96ACC0706
:1020100005D4904201D10724EAE70130F6E7904267
:10202000E5D1F8E70132DC6A14F0080406D08A42F0
:10203000F8D10724DFE700221049F4E78A42F8D0FC
:1020400020220B4B0B495A620122A3F580539A6060
:1020500023460A4A486A800603D49342E9D00133F2
:10206000F8E79342C7D1E4E70090005000500950D0
:1020700000600950004009503254FFFF40420F00F9
:1020800038B54FF00042174B174C5A66012203F542
:102090000C235A604AF6CD33656C23644378934031
:1020A0001343124AD363C3788178A2689B0043EA42
:1020B000011322F074021343A3600279837943EA87
:1020C000022323614279C37943EA022363610078E2
:1020D000FFF77AFFEB0744BF054B236403F03EF99B
:1020E000012038BD009000500040095000400050D1
:1020F0003254FFFF10B5044603F035F9002341F2D6
:1021000002020849E360A360226104F50052E36122
:102110006361A36123626362E362A3645164A362A7
:1021200010BD00BF7F370C0138B5154B04469842EF
:102130000D4604D040F26911124803F0C6F825B9E3
:102140002046BDE8384003F00EB9012204F5805363
:102150005A6040F2FF71204605F00F0203F0FFF8CD
:102160002263782103F0FBF805F001036A0748BFFA
:1021700043F00203226C02F003029A42FAD138BD06
:102180000000035A13660000F8B506460C461546D3
:1021900022B940F22721434803F097F8424B9E4270
:1021A00002D184B938240AE040F22A213D4803F0E4
:1021B0008CF844B940F279313A4803F086F8204669
:1021C000FFF784F904467368012B04D04FF41771AC
:1021D000344803F07AF8B36803F0E003402B42D0B0
:1021E00009D893B1202B1AD040F29E21BDE8F840C7
:1021F0002C4803F06AB8602B42D0802BF4D105EB59
:102200004503A34247D801230DE0B5EB141F04D9C1
:102210004FF42171234803F058F8102303E0B5EB85
:10222000D40F1AD808236B436401B4FBF3F41F4F97
:10223000203CB7EBC40F4FEAC40504D240F2A921F9
:10224000184803F042F830463D40012103F087F87A
:10225000B562BDE8F84003F082B840F28921114828
:1022600003F033F8DEE70623B4FBF3F3AB4201D30C
:102270000623D8E740F28E210A4803F026F8F7E754
:10228000B5EB940F01D80423CDE740F29321054824
:1022900003F01BF8F7E74FF42671024803F015F836
:1022A000B1E700BF136600000000035AF8FF7F008B
:1022B000F8B5436804460D4616461BB140F2FF715F
:1022C00003F04DF82046FFF715FFE9896B7B226983
:1022D0000B43298A22F44C520B4322F0030213438E
:1022E0002361A268297E2B7B22F080420B4322F0DF
:1022F000E20213436A6904F580511343AA68A3609C
:10230000EB69002A34D1A06840F00040A060002BA7
:1023100033D15EB396F82030DBB101238B614B6083
:1023200020462978FFF700FF236CDB4313F4405F5E
:10233000FAD1F8BD96F820305BB101238B614B6078
:1023400020466968FFF720FFEAE796F82030002B67
:1023500078D196F82230606996F8216020F0090063
:102360003343034343F001034B6161E00123D6E7AC
:102370001BB9002EDED10123E1E7987A1F7A4004D1
:10238000D4F808C040EA8750304F0CEA07073843BA
:102390009F8807F4C04738435F7840EA87005F7B37
:1023A00040EAC7009F7B40EA07109F7840EA8720F9
:1023B000A060D4F80CC0D3E9040738432CF4D81734
:1023C00027F4C06738439F7940EA8720DF7940EAE5
:1023D0004720E0601878012805D1E06840F004004B
:1023E000E0601B4806E0032828D1E06840F00400C4
:1023F000E06018480127C0F8C070587A086218B128
:10240000E06840F40060E060D87A48B1E068124FBC
:1024100040F40040E060187B00F00F00C7F8800037
:10242000E069DB7B20F003000343E361002E8CD1E5
:1024300001234B60002A3FF473AF81E70238012883
:10244000D7D9CEE701238B61F2E700BFE39BBDFF45
:1024500000E4035000D403500090035038B5294BDA
:10246000054698420C463FD119B98C21264802F006
:102470002CFF3820FFF77AF9083808283DD8234B7D
:102480000341DB0739D4637B032B03D9AD211E48FD
:1024900002F01BFF237B802B03D0AF211A4802F0F0
:1024A00014FF6369B3F1804F03D0B121164802F0E5
:1024B0000CFF238A23F400539BB2B3F5805F03D053
:1024C000B321114802F001FFA368013BB3F5165F89
:1024D00003D3B5210C4802F0F8FE21462846BDE89A
:1024E00038400022FFF7E4BE8A21074802F0EDFEE3
:1024F0001CB98C21044802F0E8FE9E21024802F03B
:10250000E4FEC0E70000035A13660000F4FEFFFF7C
:1025100038B5114B054698420C4603D070210F4840
:1025200002F0D3FE1CB972210C4802F0CEFE237BD0
:10253000802B03D17621094802F0C7FE637B032B71
:1025400003D97921054802F0C0FE21462846BDE89E
:1025500038400022FFF7ACBE0000035A13660000AB
:1025600038B5032804460D4605D80B4B33F8103018
:10257000CB40DB0704D440F28541084802F0A5FEB9
:1025800030220123544341F2100204F1A044AB4035
:1025900004F57034A35038BDF66600004D660000A7
:1025A00038B5032804460D4605D80B4B33F81030D8
:1025B000CB40DB0704D440F25641084802F085FEC8
:1025C00030220123544342F2100204F1A044AB40F4
:1025D00004F57034A35038BDF66600004D66000067
:1025E000F8B5032804460D4616461F4605D81C4B71
:1025F00033F81030CB40DB0704D44FF4B0711948E6
:1026000002F063FE26B129462046CFB1FFF7A8FFAE
:1026100004EB4403072D4FF00F014FEA031312D8C8
:10262000A80006FA00F281400F48184402F0BDFEEF
:10263000AEB92946204677B1BDE8F840FFF790BF14
:10264000FFF7AEFFE4E7A5F10800800006FA00F20C
:1026500081400648E9E7BDE8F840FFF7A1BFF8BDB3
:10266000F6660000BE66000004C003500CC00350B4
:10267000F8B506460F461546002A6AD003F0030453
:10268000836823F44073836003F023FEB26882EA18
:10269000042303F440735340B36003F015FE37B9CD
:1026A0002D4B9E420DD12E20FEF710FF0746B3683A
:1026B0009A0717D5012C1BD0022C27D064B9274BC1
:1026C00017E0274B9E4201D12F20EDE740F22F115A
:1026D000244802F0FAFDB3684FF4B271214802F0C9
:1026E000F4FD08E0012C13D0022CE7D11E4B00E0D2
:1026F0001E4B9F42F0D91E4B1B5D6B430AD140F22B
:102700007511BDE8F840174802F0DFBD194BF0E73E
:10271000194BEEE7A3EBC504013C3C44B4FBF3F4D6
:10272000013C0CD540F27B110E4802F0CEFD4FF477
:10273000BE710C4802F0C9FDB368B461F8BDB4F5D0
:10274000007FF4D2B3689B07F7D5002C08BF0124A3
:10275000F3E740F21511D4E70000015A80841E000F
:1027600000800650FE660000002D3101404B4C00F9
:1027700035670000809FD5004054890038B50B4B69
:10278000044698420D4607D0094B984204D040F2C7
:102790009511084802F099FD043425B104F58054E0
:1027A0000123236038BD04F50054F9E70000015A05
:1027B00000800650FE66000038B5154B044698426E
:1027C0000D4607D0134B984204D04FF4D5711248F0
:1027D00002F07BFD0023114A236404F50053DA6301
:1027E0006A7804F108037AB903F5805302221A606B
:1027F0002046D5E901122B7BFFF73AFF20462978C6
:10280000BDE83840FFF7BABF03F50053EEE700BF5D
:102810000000015A00800650FE660000FFFF1F0006
:1028200070B5894B98420AD0884B98421DD0884891
:1028300040F2012102F049FD6FF0030070BD854BAD
:102840009968C26B12F4C06F15D091050FD5FD22A7
:102850005A7009221A700022026493F901100129AA
:1028600000D15A7093F90100E8E77B4BE8E7560581
:10287000EFD5FE22ECE71C78082C00F2E180DFE8BF
:1028800014F009001F004500530070007E009C00FA
:10289000A700D6004C880A88E5060AD5120A02F07D
:1028A000060242F0F002012119704263C16001206A
:1028B000C4E702F0FE02A10748BF42F00102F2E7BE
:1028C000160608D5802100F50052D1634FF6087234
:1028D0001A80022318E05506E9D5402400F500527D
:1028E000D4634A88D40604D502221A700B78436355
:1028F000DDE796076AD507221A701B7901EBC3033F
:102900001B89012BD3D10823C360D0E71506D9D486
:102910005406CCD5402400F50052D4634A8892076F
:1029200054D503221A708CE74C880A88E60643BF08
:10293000120A02F0060242F0F00202F0FE026507FF
:1029400009D51C7942F0010201EBC4010989012972
:1029500004BF0821C160042119700123C3604263D0
:10296000A5E71406AED45206A1D5402400F50052C6
:10297000D4634A88560729D507221A7097E71A792F
:102980005D8801EBC2042689AE420FD800240132D3
:10299000D2B21A715C804C886507C2D4E40702D4B5
:1029A000012A7FF64EAF08221A7092E76268691C0E
:1029B0005980525D42630622DFE7160682D455062F
:1029C0007FF575AF402400F50052D4630522A9E7D6
:1029D00094067FF56CAF456A204C46691A793440FD
:1029E000B4F5003F04BF466A4FF4005601EBC20144
:1029F00000F500540A8908BFE6632026E6635C8878
:102A0000A24281BF4968661C5E800D5559888A4282
:102A1000C9D90424012AC46004D0013A914201D1E9
:102A20000822C2601A78092A3FF415AF3FE7D205A1
:102A30007FF53DAF4FF4807100F50052D16308E798
:102A40004FF609321A8006E70000015A008006504E
:102A5000FE660000D4130020E013002020000200D6
:102A600038B52A4B044698420D4607D121B940F2A9
:102A70006A31274802F029FC264B13E0264B984286
:102A80000DD040F26931224802F01FFC25B940F216
:102A90006A311F4802F019FC6FF0030038BD0029AD
:102AA0002BD01E4B2269D00744BF2022E2606A88E7
:102AB000910702D529890029EED0520702D52A8A2A
:102AC000002AE9D04FF480721A6000229D601A71CA
:102AD000C023E3606369DB0515D4202204F50053AD
:102AE000DA630F4A2046DA634FF4FC6204F5805340
:102AF0001A64BDE83840FFF793BE40F26A310448DB
:102B000002F0E3FBCDE7636AE4E700BF0000015A8F
:102B1000FE660000D413002000800650E013002061
:102B2000FFFF1F0010B5152000F08AFB0024FF22D4
:102B3000064B21465C6520209A625C60FEF79CFC97
:102B40002146BDE810402120FEF796BC000004504D
:102B500038B5072804460D4603DD7721084802F002
:102B6000B4FB1F2C03D99121064802F0AEFB064AA4
:102B7000064B002D08BF13460122A2401A6038BD43
:102B80003967000071670000401004504020045075
:102B900010B5044618B991211F4802F096FB23781E
:102BA0001B0613F0604F03D092211B4802F08DFBEF
:102BB000E3780F2B03D99521174802F086FB0121FA
:102BC0002020FEF759FC01212120FEF755FC0122AF
:102BD000124B15205A60227812069A606178A2780A
:102BE00042EA01429A61FF229A6200229A631A64C1
:102BF0004FF000425A654FF0FF3203F500531A655B
:102C000000F06EFB1520E17800F078FBBDE8104085
:102C1000152000F033BB00BF3967000000000450EE
:102C2000F8B50126C3B2072805460C46174606FA32
:102C300003F603DDDE21334802F047FB1CB9DF2138
:102C4000304802F042FB236823F47C1323F00F0387
:102C50001BB1E2212B4802F038FBA37A1B0413F4CA
:102C60007C0F03D0E721274802F02FFBE37A1B05F6
:102C700013F07E6F03D0E921224802F026FB237B6C
:102C80005B0513F0FE5F03D0EB211E4802F01DFB35
:102C90001D4B27F003071E65226803F5005343F818
:102CA0002520302202FB05F0637B00F1A04000F5F7
:102CB00080200366E37AA27A1B0543EA0243227B63
:102CC00043EA4253C365076703F00CFB0F4B227ABC
:102CD0005E6502B11E64627A02B19E632279A379B5
:102CE00043EA0243084A93616179E37943EA014385
:102CF00006498B61064B56639E64BDE8F84003F0BD
:102D0000ECBA00BF396700000020045000100450E6
:102D10000000045010B50124C3B2072804FA03F4DC
:102D200004DD40F27B11074802F0CFFA03F0DAFA33
:102D3000054B5A6D22EA04025A659C62BDE81040B8
:102D400003F0CBBA396700000000045010B501242D
:102D5000C3B2072804FA03F404DD40F299110A48CB
:102D600002F0B3FA03F0BEFA084BDA6A224208D145
:102D70005B6B9C430CBF0124002403F0AEFA204699
:102D800010BD0024F9E700BF3967000000000450BF
:102D900070B50125C3B20728044605FA03F504DD22
:102DA0004FF4E071094802F090FA03F09BFA3022E8
:102DB000074B5E6B02FB04335C6E03F08EFA354208
:102DC0000ABFC4F30A100020013070BD396700004B
:102DD0000000045038B5022805460C4603D94C21A2
:102DE0000C4802F072FAE378627821785B0143EADA
:102DF000820322790B4343EA02130C226A4302F155
:102E0000B0421363012902BFA278034B43F8252087
:102E100038BD00BFE1670000E880035008B54FF0FF
:102E2000B0435A686AB958B15B680BB102F0CCFA8A
:102E300001210D4B596002F0C7FA4FF0B043D96041
:102E400008BD5B680BB102F0BFFA0028F0D102F0B8
:102E5000BBFA4FF0B0430222DA6002F0B5FA012269
:102E6000024B5A60ECE700BF0010005800200058E9
:102E700010B54FF0B0414B680BB102F0A5FA01223A
:102E80000B4BC4785A608378934043EA84034478B8
:102E90002343047943EA0413447943EAC4038B606F
:102EA000044B5A600378C3F10203CB6010BD00BF2E
:102EB0000020005800100058024B1868C0F307406B
:102EC000704700BF0080E00F10B5044620B940F203
:102ED0003A21124802F0F9F92378E3B1013BDBB261
:102EE000022B05D80E4AD35C6278D340DB0704D4AA
:102EF00040F23D21094802F0E8F901226178237887
:102F00008A4030214B4342F2100103F1A04303F504
:102F100070335A5010BD40F2FF13E5E71968000006
:102F2000D4680000034BD3F82424D3F820041040C5
:102F3000704700BF00C003502DE9F04103780446FC
:102F40000D4617460BB3013BDBB2022B05D82C4ACA
:102F5000D35C6278D340DB0703D45D21294802F0BB
:102F6000B4F9294BD3F810331BB16021254802F086
:102F7000ACF90F2D0CD8DFE805F0332E2E2E2E2EB7
:102F80002E2E2E2E2E2E2E2E2E2E40F2FF13E0E76A
:102F9000B4211C4802F099F94FF000082046E7B12F
:102FA00002F026FF63782678072B06EB46064FF0E3
:102FB0000F014FEA061615D89B00144808FA03F2D1
:102FC0009940304402F008FABDB920468FB1BDE8FF
:102FD000F04102F00DBFA846E0E7FFF775FFE1E71B
:102FE000A846DFE7083B9B00094808FA03F299402E
:102FF000E7E7BDE8F041FFF767BFBDE8F08100BF3C
:10300000D46800009368000000C0035004C003505F
:103010000CC0035030B58BB06C466E4D0FCD0FC455
:103020002B686D4A2360FF238DF80130D2F84C31B4
:1030300013F4802340F0C280D2F850218DF8013083
:103040009DF801306C46FF2B08BF19236846634D7D
:103050008DF80130FEF73AFD3220FEF799FD0FCDD5
:103060000FC40FCD0FC495E8030084E803005A4B4A
:10307000D3F84C21120340F18D80A3F5FE431C8848
:10308000B4F5807F28BF8C248DF81940FEF718FD19
:10309000044484F3080452488DF81840FDF732FBCD
:1030A0006846FEF71FFC3220FEF778FD4D48FEF71C
:1030B00087FE4D4803F021F920B140F2CB114B4877
:1030C00002F003F94A4C0020FEF76EFDFEF72EFEDB
:1030D000236F002023F0070343F003032367FEF769
:1030E0004FFE236F434923F474432367424BD3F8C5
:1030F000FC2012F0807251D1C1F880203C4BD3F8F3
:10310000202122F0030242F00202C3F82021D3F86A
:10311000242122F0070242F00202C3F82421D3F84E
:10312000802122F0030242F00102C3F88021D3F88B
:10313000402122F0030242F00202C3F84021D3F8FA
:10314000602122F0030242F00202C3F86021D3F8AA
:10315000402222F0030242F00202C3F84022D3F8D8
:10316000002222F0070242F00202C3F80022D3F844
:10317000202222F0030242F00102C3F82022FEF7CF
:1031800099FB4FF0E0220020136943F00403136120
:103190000BB030BDD3F85041E4B275E7D3F8FC2052
:1031A00022F08072C3F8FC200022C1F88020D3F8FE
:1031B000FC2042F08072C3F8FC209FE74FF07E6352
:1031C00093F89C2093F99C30002BFFF639AF8DF8D3
:1031D000012035E78C6900000080E00FA069000045
:1031E00000F0490200B4C404D46900002F69000053
:1031F000008000500090005000ED00E007B56B46E5
:10320000054A1068516803C36846FEF739FF00207D
:1032100003B05DF804FB00BFC869000013B50024CB
:10322000064A6846536F43F00103536700948DF8D4
:103230000440FEF753FE204602B010BD004000508F
:1032400010B5402804460DD801220A49630904F04C
:103250001F04A240203341F82320BFF34F8FBFF358
:103260006F8F10BD40F22511034802F02EF8002C9C
:10327000F7DBE9E700E100E0006A000010B5402854
:10328000044608D801236109074A04F01F04A3403B
:1032900042F8213010BD4FF49871044802F015F83F
:1032A000002CF7DBEEE700BF00E100E0006A000061
:1032B00010B53F28044604D940F23B11064802F0FD
:1032C00004F8064B621153F8220004F01F04E0409A
:1032D000C04300F0010010BD006A000000E100E002
:1032E000002808DB01224309034900F01F00824047
:1032F000603341F82320704700E100E038B500F169
:103300001003502B04460D4604D94FF4EF710E48BC
:1033100001F0DBFF0F2D04D940F2DF110A4801F064
:10332000D4FF60B20028ACBF00F16040074B4FEA09
:103330000515EDB2ABBF00F5614000F00F0080F85D
:1033400000531D5438BD00BF006A000014ED00E0BA
:1033500010B502F0C7FF0A4B1A786AB901226FF064
:1033600004041A7002F0B9FF204605210134FFF76A
:10337000C5FF402CF8D110BDBDE8104002F0ADBF34
:10338000A015002010B5044602F0A3FF024B1C60FC
:1033900002F09AFF002010BDEC13002010B502F0DF
:1033A00098FF034B1C6802F08FFF204610BD00BF42
:1033B000EC1300202DE9F0478EB01D4613688246BD
:1033C000D3F8009091F831308846144606AE0BB31E
:1033D000794F0FCF0FC697E80F0086E80F0018222D
:1033E0000021684602F09AF9A3680893237B012B19
:1033F00012D0022B13D01BB1D921704801F065FF08
:103400000023ADF82630637B032B1ED8DFE803F0E2
:103410000A24211A6A4FDCE74FF40073F1E74FF4F6
:103420004073EEE70023ADF8283001238DF8063015
:10343000A37BCDF834D0042B11D8DFE803F01415AA
:10344000151514004FF44053EDE7EB215B4801F0F4
:103450003CFF4FF48053E6E74FF40053E3E7FE21CF
:10346000564801F032FF00238DF80030554AD8F855
:10347000383029461A60544A50465A6000229A60F1
:10348000524ADA60424600F05BFC0646002840F0F3
:103490008C8023694E48C5F8A430E37D85F8AB30B5
:1034A000A37D85F8AA30637D85F8A930237D85F852
:1034B000A830637E85F8AD30237E85F8AC30E37E9E
:1034C00085F8AF30A37E85F8AE302368C5F8A0300C
:1034D00002F013FF01230422617D207DFFF780F8B5
:1034E0000123E17D0222A07DFFF77AF885F8B06024
:1034F000206902F002FF98F83130484606A9002BF7
:1035000057D0FFF705F895F8B03043F0040385F87D
:10351000B03002222F4BC3F8C020607D217D41EAEC
:103520000041C3F8D010E07DA17D41EA0041C3F81D
:10353000CC10A37B03F0FD03012B0AD195F8B0302A
:1035400043F0010385F8B030617E0023207EFFF751
:1035500047F8A37B023B012B0BD895F8B03004222F
:1035600043F0020385F8B030E17E0023A07EFFF730
:1035700037F895F8B030DB070FD5637E227E42EA3C
:103580000342154BC3F8C4200122C3F8C020E17EDA
:10359000A27E42EA0142C3F8C820104A09F500534E
:1035A000052148465A64FEF7BFFD30460EB0BDE81F
:1035B000F087FEF753FFACE7B06A0000616A0000D5
:1035C000D06A000055540000E75400006B5400001E
:1035D000E069000000C4035000D403507F370C01A1
:1035E00040F24221014801F070BE00BF616A000054
:1035F00010B50020144601F004FF022804D018B1D1
:10360000C321024801F061FE204610BDF06A0000AF
:103610003021037D02464B4303F1A04303F5802391
:10362000D86E07491B6F884208D113F0020006D0FC
:10363000106A136D1B1A584258417047002070479A
:10364000A115002037B53023007D0DF1070143435C
:1036500003F1A04303F58023DD6E1C6F02F084FBB1
:1036600020B140F2F931084801F02FFE9DF8070023
:1036700040B9064B9D4203D184F00204C4F34000DC
:1036800003B030BD0120FBE7466B0000A115002010
:1036900037B504460DF10701007D02F065FB20B14E
:1036A00040F24441114801F010FE9DF80730A3B1EB
:1036B000256DD4E9122313449D4201D8AA4204D9AE
:1036C00040F24F41094801F000FED4E912030344DF
:1036D0009D4218BF284603B030BD3022237D53439E
:1036E00003F1A04303F58023DD6EE2E7466B0000A3
:1036F0002DE9F743D0E9043404F17C07D0F80C90AD
:10370000013B06461022002138469DB2D4F8748051
:1037100002F004F8104BC5F30A0543EA0513C4E9A7
:103720001F39012394F8780084F88C30C4F8848021
:103730003A460A4B009604F16401FDF791FB38B15B
:1037400040F28D31064803B0BDE8F04301F0BDBD45
:1037500003B0BDE8F08300BF00001030D93800008E
:10376000466B00002DE9F04385B000F138060446B1
:1037700010220021304601F0D1FF4FF44473534D25
:10378000207DC4E90F556387FDF790FB20B140F21F
:10379000CA514F4801F099FD10220021304601F036
:1037A000BDFF4FF4447363873023207DC4E90F5578
:1037B000434303F1A04303F58023DB6EAB420BD1FF
:1037C000FDF794FB002876D040F2D351404805B075
:1037D000BDE8F04301F079BD0DF10B0102F0C4FA30
:1037E00020B140F2D9513A4801F06FFD9DF80B30FD
:1037F000002B63D12046FFF74BFF03A90746207D2E
:1038000002F0D4FA20B140F2E151314801F05DFDFF
:10381000039B002B04DC40F2E3512D4801F055FDE1
:10382000039B04F11808013B1022002140469DB281
:10383000D4F8109001F072FF3022237DC5F30A0501
:1038400053432D0145F04075C4E9065903F1A043E7
:10385000276203F580231A6F94F82410520862F34C
:10386000410184F82410196F94F8242028F00308EB
:1038700061F3000284F824201B6F626A9B0863F3E3
:103880009F0248F00203626263640094324621465C
:10389000104B207DFDF7E4FA20B140F204610C48A2
:1038A00001F013FD207DFDF721FB20B14FF4C16134
:1038B000074801F00AFD05B0BDE8F08394F84430F4
:1038C0006FF3410384F84430DFE700BFA115002007
:1038D000466B00003755000038B55569144695F819
:1038E0008C3023B940F26A310A4801F0EEFC002323
:1038F00005F1900085F88C30FCF726FF08B1FFF742
:10390000F7FE63681BB100212046A268984700209B
:1039100038BD00BF466B000038B50446007DFDF79A
:10392000C5FA20B140F22D41084801F0CEFC2046F6
:10393000FFF76EFE0546207DFDF7D8FA20B140F274
:103940003241024801F0C1FC284638BD466B0000F8
:103950002DE9F04F8DB09946002304460891069258
:10396000C9F80030D9F80060069B9D1B00F0C580A7
:10397000089B9E1900F0C1802046FFF7CDFF8046CE
:10398000002840F0BA802046FFF782FE226D904268
:1039900040F2BC80801A854228BF054694F896A064
:1039A000BAF1000F00F0F28002F09CFC236D07904A
:1039B00020460993FFF746FE2F46099B8346581978
:1039C0008342D4F8981040F0BC80D4E91223134409
:1039D0008B4208BFC4F89820D4F898108A4201D8C6
:1039E0008B4204D840F242518A4801F06EFC07989D
:1039F00002F073FCDA46207DFDF758FA20B140F260
:103A00008241844801F061FC207D0DF12F0102F01C
:103A1000ABF920B140F286417E4801F056FC2046C9
:103A2000FFF736FE236D834698429DF82F3040F213
:103A3000BC8023B140F28E41764801F046FCA26C76
:103A4000236DAEB2934240F0A880099304F1280898
:103A50002369102200214046079301F05FFE3021C8
:103A6000079B013EE362099BC6F30A062363237D9D
:103A700036014B4328F0030803F1A04346F040769B
:103A800048F0020203F58023A6621A67236DD4E989
:103A900012122B440A44934208BF0B4693422365FB
:103AA00004D340F2DE415B4801F00FFC236D9B45DF
:103AB00005D10123204684F85430FFF753FE207DC2
:103AC000FDF714FA20B140F2F741524801F0FDFB36
:103AD00094F896303BB1BAF1000F04D0236E112157
:103AE00020465B689847D9F8003037B1069A3B44C6
:103AF0009342C9F80030FFF435AFD9F80030002BFD
:103B000014BF00201B200DB0BDE8F08FD4E91231A6
:103B10000B449A4204D340F26A413E4801F0D5FB7F
:103B2000D4E912321344226D9B1A9D4228BF1D46D0
:103B3000002D7FF433AF40F21651364801F0C5FB3B
:103B40002CE701335A1E914210D1C4F8983013F873
:103B5000012C112A01D0132A14D1013FA2F1110125
:103B60004A424A41D04684F89C2029E713F8012CA8
:103B700002F0FD01112906D1013FB8F1000F3FF419
:103B80001FAFEBE7D04606F8012B19E72A4630466F
:103B9000216D01F0CEFD2F462DE7238DC3F30A12D0
:103BA000164466F30E13238570E7207D93B9302306
:103BB000584300F1A04000F58020426E436EC2F3EE
:103BC0000A1223F4FF432A4423F0700343EA02134A
:103BD00043665BE7104B049403930023CDE9015344
:103BE000012300935A462369216801F089FB20B123
:103BF00040F2CB41074801F068FB3022237D53435C
:103C000003F1A04303F580235A6E22F480125A6612
:103C10003CE700BF466B0000375500002DE9F84F28
:103C200090F8943004460D46002B40F0858090F8C3
:103C30009580DFF808918E18B54223D094F896301D
:103C40006BB12046FFF768FEF8B1D4F89820236DD9
:103C50009A4204D040F2CD21484601F036FB94F858
:103C60009C30002BE8D0236E2F462A785B68B8F191
:103C7000000F59D1236E20465B683978013598478B
:103C80000028D9D00020BDE8F88F02F02BFB0746B2
:103C9000207DFDF70BF920B140F2D321274801F038
:103CA00014FB2046FFF7F4FCA26C00F1FF3A9245AA
:103CB00038BFE36C207D3CBF03F1FF3302EB030A06
:103CC00094F854B0FDF712F920B140F2DF211B48FF
:103CD00001F0FBFAD4F89810BBF1000F22D0236D4D
:103CE0008B4204D04FF43971144801F0EEFA384693
:103CF00002F0F3FAB3E7A26C9A4202D9E36C013BFB
:103D0000134499420BD013F80129112A01D0132A28
:103D1000F1D1A2F111035A425A4184F89C20C4F80F
:103D200098A0E4E75346ECE70A2AA3D10D212046E8
:103D3000984700289ED0A5E70E20A4E7466B000018
:103D4000F0B589B00C4615460646A0220021204653
:103D500001F0E4FC2746AC46BCE80F000FC7DCF8D6
:103D6000003005F1140C3B6004F16407BCE80F005F
:103D70000FC7DCF80030EA6A3B60AB6AC4E9132382
:103D800095F83020A36484F8952095F83320C4F882
:103D90009830012384F8962084F89C3084F85430BD
:103DA000AB6B2366324B34607360324BB360324B83
:103DB000F360324B7361324BB361324B3361FDF7C9
:103DC0001BF810B1304B98420FD1002107A8FCF727
:103DD0009BFF014648B9079B07A82375FCF794FF92
:103DE0000346207D23B1FCF7E1FF102009B0F0BDB0
:103DF000079B84F87830FDF759F80028F5D1234B5C
:103E00000494CDE90203E36C019301230093236939
:103E1000A26C2168207D01F073FA0028E5D13022E0
:103E2000237D4FF48011534342F2640203F1A04317
:103E300003F580239950AB6B93F91000FFF750FA0C
:103E4000AB6B93F91000FFF719FA04F1900001F041
:103E50003DFA3046FFF796FA2046FFF783FC207DB7
:103E6000FDF744F8003818BF01200001BEE700BF8D
:103E70001D3C0000A7550000513900002B550000E3
:103E800031550000913E0000038000F037550000DE
:103E900070B50568044695F89460002E3BD101F09A
:103EA000A5FBFFF77BFA844202D13046FFF76AFA9E
:103EB0002B6E93F91000FFF713FA2B6E93F9100095
:103EC000FFF7BEF9287D01F02FFF20B140F29721C6
:103ED000144801F0FAF9287DFCF768FF20B140F2A0
:103EE0009B21104801F0F1F9FCF73EFF38B10E4B71
:103EF000984204D040F29F210A4801F0E6F90023DD
:103F0000C4E90033C4E90533E3602B6E2846BDE8FD
:103F10007040DB68184740F26621024801F0D5F98D
:103F20000F2070BD466B0000058000F00346054A77
:103F30000549106803448B428CBF4FF0FF3013607B
:103F4000704700BFF81500200080002008B5FEF77C
:103F5000B3FF01280ED1124B04205A6E4FF4802378
:103F60001049520358BF104A4B6601F510410862D0
:103F700058BF536601F048FBFFF7EAF9FFF73EF937
:103F800001F03DFAFFF74AF900F010F801F03DFBAF
:103F900001F04AFB01F017F9BDE8084001F036BB1B
:103FA000008000500090005000A0005070B502F05A
:103FB00099F9144E05463478FCB9134B1C60134B29
:103FC0001C60134B1C6000F047F8012002F04CF914
:103FD00002F03AF90F4B0246186020B9284602F069
:103FE0007CF9232070BD234640F2E7310A4800F0F7
:103FF000B7F80A4B186001233370284602F06DF9B8
:104000000020EFE7A4150020F8130020F41300208F
:1040100000140020FC13002018FCFFFFF013002008
:1040200000B58DB001238DF80F3002F025F8002384
:104030000146CDE90033074A0DF10F0304A802F051
:10404000B9F918B99DF80F30002BFBD10DB05DF810
:1040500004FB00BFAF6300001FB500241A4B1868B3
:104060009A880290D3F806009B7A00901748ADF822
:104070000C208DF8043002F040F98DF8084001F072
:10408000EAFA8DF80C0002A8FEF7F2FE694601205C
:104090008DF80040FEF79EFE40F2FF320C4B9A6115
:1040A0005A614FF0B042936A13F00803FBD11362D8
:1040B0000120FEF7B3FE0C20FFF712F90C20FFF7EA
:1040C000DDF804B010BD00BFDD6B0000D06900005A
:1040D0000020005810B502F005F94FF0B043044637
:1040E0005B695A06074A03F0010003F0510348BF19
:1040F00040F00200536101F0D1FF2046BDE81040BE
:1041000002F0EBB80020005810B5044601F0E2FDC3
:104110004FF47A729042B0FBF2F105D23621BDE83D
:1041200010400C4801F0D1B80B4BB3FBF1F30B4935
:10413000884201D93C21F2E702FB04F0B0FBF3F026
:10414000022806D9BDE810400323B0FBF3F0FBF7CB
:10415000F7BF10BDE86B000040420F00E7CD9A3B6F
:1041600053B94AB9002908BF00281CBF4FF0FF31DE
:104170004FF0FF3000F082B9ADF1080C6DE904CECC
:1041800000F006F8DDF804E0DDE9022304B0704732
:104190002DE9F04F099D0C46002B4DD18A420F4668
:1041A00084469646B2FA82F360D94BB102FA03FE16
:1041B000C3F120029F4000FA03FC20FA02F21743E9
:1041C0004FEA1E461FFA8EF44FEA1C42B7FBF6F187
:1041D00006FB117701FB04F042EA0742904208D93E
:1041E0001EEB020201F1FF3702D2904200F2318150
:1041F0003946121A1FFA8CFCB2FBF6F006FB1022AD
:1042000000FB04F44CEA024C644508D91EEB0C0C8C
:1042100000F1FF3202D2644500F21E81104640EAEE
:104220000140ACEB040C002125B12CFA03F3002271
:10423000C5E90032BDE8F08F8B4205D90DB1C5E963
:10424000000100210846F5E7B3FA83F100294DD1BA
:10425000A342C0F0F380904280F0F08006462346EF
:104260000846002DE6D0C5E90063E3E7002B40F0E7
:10427000A3808A1A4FEA1E471FFA8EF60121B2FB6D
:10428000F7F407FB14204FEA1C4242EA004206FB07
:1042900004F090420FD91EEB020204F1FF382CBF4C
:1042A0004FF001094FF00009904203D9B9F1000F16
:1042B00000F0CC804446121A1FFA8CFCB2FBF7F0D7
:1042C00007FB102200FB06F64CEA024C664508D9B3
:1042D0001EEB0C0C00F1FF3202D2664500F2B380F7
:1042E0001046ACEB060C40EA04409DE7C1F1200605
:1042F0008B4004FA01FE22FA06F720FA06FCF4408D
:104300008A401F434EEA0C0300FA01FE4FEA1748A9
:104310004FEA13491FFA87FCB4FBF8F008FB10447E
:1043200049EA044400FB0CF9A1450ED93C1900F1FF
:10433000FF3A2CBF4FF0010B4FF0000BA14503D902
:10434000BBF1000F00F08B805046A4EB09041FFA6C
:1043500083F9B4FBF8F308FB134403FB0CFC49EAB4
:104360000444A44506D93C1903F1FF3801D2A44501
:104370007BD8434643EA0040A4EB0C04A0FB029820
:104380004445CC46434602D306D1CE4504D201383B
:10439000B9EB020C68EB0703002D6CD0BEEB0C02EE
:1043A00064EB030422FA01F304FA06F6CC40002180
:1043B0001E43C5E900643DE702FA03FEC3F1200194
:1043C00004FA03F200FA03FCCC404FEA1E4720FA3D
:1043D00001F11FFA8EF6B4FBF7F00A4307FB104415
:1043E000110C41EA044100FB06F48C420ED91EEB8D
:1043F000010100F1FF382CBF4FF001094FF0000917
:104400008C4202D9B9F1000F2CD04046091B92B260
:10441000B1FBF7F407FB141142EA014204FB06F179
:10442000914207D91EEB020204F1FF3801D29142FA
:104430001ED84446521A44EA004120E7861A64EB2B
:10444000030301200DE7F44402384AE7023C7244BA
:1044500031E702397244CCE6F4440238DFE6023830
:104460003C4472E702387144D0E7023B3C4481E7A8
:10447000023C7244DEE72946DCE600BF704700BF1D
:1044800008B5064B044613B10021AFF30080044B7E
:104490001B6803B19847204601F02FF80000000088
:1044A0003C150020002310B5044683608181194625
:1044B0004366C28108228361C0E90033C0E9043346
:1044C0005C3001F02BF90D4B246263620C4BA3624C
:1044D0000C4BE3620C4B23630C4B9C4206D003F164
:1044E0006802944202D0D0339C4205D104F15800B6
:1044F000BDE8104001F01AB910BD00BF975600008A
:10450000B9560000F15600001557000004140020B1
:10451000024A0349034801F0A0B800BFFC1500207F
:104520003F5A00000C16002041680C4B994210B510
:10453000044601D001F083FAA168094B994202D0E8
:10454000204601F07CFAE168064B994204D02046EF
:10455000BDE8104001F073BA10BD00BF0414002084
:104560006C140020D414002010B50B4B04210B4C0C
:104570000B4A20461A600022FFF794FF04F16800FE
:1045800001220921FFF78EFF04F1D000022212213F
:10459000BDE81040FFF786BF3C1500200414002042
:1045A00011450000014801F0C2B800BFA615002067
:1045B000014801F0BDB800BFA615002010B50446A3
:1045C000FFF7F0FF236A1BB1BDE81040FFF7F0BF13
:1045D000044B2362044B1B68002BF5D1FFF7C4FF8B
:1045E000F2E700BF294500003C1500200FB407B5D5
:1045F000064904AB086853F8042B8168019300F066
:1046000091FA03B05DF804EB04B07047081600207F
:104610000CB4184B30B50C1E9DB01D6808DA8B2306
:104620004FF0FF302B601DB0BDE8304002B0704746
:104630004FF402730290069002A9ADF8143014BF33
:1046400004F1FF332346209A2846049307934FF63C
:10465000FF73ADF8163021AB019300F067F9431CEE
:10466000BCBF8B232B60002CDDD0029B00221A7074
:10467000D9E700BF0816002038B50023054D0446D1
:1046800008462B6000F037FF431C02D12B6803B1B2
:10469000236038BD4015002038B50446064D084655
:1046A000114600222A601A4600F02FFF431C02D157
:1046B0002B6803B1236038BD4015002038B504468F
:1046C000064D0846114600222A601A4600F01FFFD8
:1046D000431C02D12B6803B1236038BD4015002074
:1046E00038B50446064D0846114600222A601A468F
:1046F000FEF77EFF431C02D12B6803B1236038BD57
:104700004015002070B50D4D00260D4C641BA41003
:10471000A64209D10B4D00260B4C01F081FE641B13
:10472000A410A64205D170BD55F8043B0136984748
:10473000EEE755F8043B01369847F2E76016002093
:1047400060160020601600206416002038B505466B
:10475000002941D051F8043C0C1F002BB8BFE418CD
:1047600000F0D8F81D4A136833B963601460284616
:10477000BDE8384000F0D4B8A34208D92068211819
:104780008B4201BF19685B6809182160EDE71A4682
:104790005B680BB1A342FAD911685018A0420BD143
:1047A00020680144501811608342E0D118685B68AA
:1047B000084453601060DAE702D90C232B60D6E777
:1047C000206821188B4202BF19685B680918636072
:1047D00008BF21605460CAE738BD00BF48150020FB
:1047E00070B50F4E0C460546316811B900F034FC27
:1047F00030602146284600F02FFC431C03D14FF0C7
:10480000FF34204670BDC41C24F00304A042F8D03D
:10481000211A284600F020FC0130F2D1EFE700BF5A
:10482000441500202DE9F041CD1C064625F0030576
:1048300008350C2D38BF0C25002D01DBA94204D909
:104840000C2333600020BDE8F081314F00F062F8A6
:104850003B681C4644BB29463046FFF7C1FF431C5A
:10486000044650D13C682146002941D1002C44D057
:104870002368304604EB030800F0EEFB80453CD192
:10488000216830466D1A2946FFF7AAFF013034D05F
:1048900023682B4423603B68002B36D05A68A24221
:1048A00029D100225A600EE02268521B1DD40B2A27
:1048B00016D96119A342256018BF5960636808BF03
:1048C000396062514B60304600F02AF804F10B0069
:1048D000231D20F00700C21AB5D01B1AA350B2E75F
:1048E000A3426268DED13A60EDE723466468B1E72F
:1048F0000C464968B8E71346CEE70C2330463360D0
:1049000000F00EF89EE70560DDE75B60FFDE00BFAC
:1049100048150020014800F00ABF00BFA51500207F
:10492000014800F005BF00BFA51500202DE9F04F9C
:1049300098468B899DB007461B060D46144610D538
:104940000B6973B94021FFF76DFF2860286130B90A
:104950000C233B604FF0FF301DB0BDE8F08F4023CB
:104960006B610023CDF80C804FF00109DFF8A081C6
:10497000099320238DF8293030238DF82A302346DF
:104980009A4613F8012B0AB1252AF9D1BAEB040B88
:104990000BD05B4622462946384600F0D7FE013050
:1049A00000F0A780099A5A4409929AF80030002B27
:1049B00000F09F8000234FF0FF320AF1010A0493B8
:1049C00007938DF853301A93CDE9052354460522F9
:1049D0004F4814F8011B01F0B2F8049AD8B9D00678
:1049E00044BF20238DF85330110744BF2B238DF88B
:1049F00053309AF800302A2B15D0079A54460020DD
:104A00004FF00A0C214611F8013B303B092B4BD9E2
:104A1000B0B1079214E0A0EB0803A24609FA03F331
:104A200013430493D2E7039B191D1B68002B0391CA
:104A3000BBBF5B4242F0020207930793B8BF0492E8
:104A400023782E2B0AD163782A2B32D1039B023490
:104A50001A1D1B6843EAE37303920593DFF8C0A0B5
:104A600003222178504601F06AF838B1A0EB0A0021
:104A70004022049B013482401343049314F8011B29
:104A8000062224488DF8281001F059F8002836D065
:104A9000214B1BBB039B073323F00703083303930E
:104AA000099B334409936AE70CFB02320C46012050
:104AB000A8E7002301344FF00A0C1946059320465D
:104AC00010F8012B303A092A03D9002BC6D00591E2
:104AD000C4E70CFB012104460123F0E703AB2A469F
:104AE00004A9384600930D4BAFF30080421C0646E4
:104AF000D6D1AB895B063FF52DAF09982CE703AB08
:104B00002A4604A938460093044B00F023F9EDE748
:104B10002B6C0000356C0000000000004D570000B9
:104B2000316C00002DE9F04F0D469DB014469846BB
:104B3000064618B1036A0BB9FFF740FD6B6ED90743
:104B400005D4AB899A0502D4A86D00F0F0FDAB89BD
:104B50001B0701D52B699BB92946304600F026FA80
:104B600070B16B6EDC0704D54FF0FF301DB0BDE8AF
:104B7000F08FAB899805F7D4A86D00F0D9FDF3E765
:104B80000023CDF80C804FF00109DFF8B4810993C0
:104B900020238DF8293030238DF82A3023469A4679
:104BA00013F8012B0AB1252AF9D1BAEB040B0BD06B
:104BB0005B4622462946304600F03AFE013000F0BE
:104BC000A780099A5A4409929AF80030002B00F005
:104BD0009F8000234FF0FF320AF1010A04930793EC
:104BE0008DF853301A93CDE90523544605225448D5
:104BF00014F8011B00F0A3FF049AD8B9D10644BFF2
:104C000020238DF85330130744BF2B238DF85330E6
:104C10009AF800302A2B15D0079A544600204FF0FE
:104C20000A0C214611F8013B303B092B4BD9B0B19E
:104C3000079214E0A0EB0803A24609FA03F313431A
:104C40000493D2E7039B191D1B68002B0391BBBF84
:104C50005B4242F0020207930793B8BF04922378A5
:104C60002E2B0AD163782A2B32D1039B02341A1DD2
:104C70001B6843EAE37303920593DFF8D4A0032291
:104C80002178504600F05BFF38B1A0EB0A004022CB
:104C9000049B013482401343049314F8011B062241
:104CA00028488DF8281000F04AFF00283FD0264BF6
:104CB0001BBB039B073323F0070308330393099BB4
:104CC0003B4409936AE70CFB02320C460120A8E73B
:104CD000002301344FF00A0C19460593204610F8C2
:104CE000012B303A092A03D9002BC6D00591C4E71D
:104CF0000CFB012104460123F0E703AB2A4604A97B
:104D000030460093114BAFF300800746781CD6D194
:104D10006B6ED90705D4AB899A0502D4A86D00F053
:104D200007FDAB895B063FF51FAF09981EE703AB94
:104D30002A4604A930460093044B00F00BF8E4E740
:104D40002B6C0000356C00000000000031580000A2
:104D5000316C00002DE9FF470F7E914680460C46DE
:104D6000782F9A460C9E01F1430207D8622F0AD889
:104D7000002F00F0DD80582F00F0C38004F14206C0
:104D800084F842703AE0A7F16303152BF6D801A12D
:104D900051F823F0ED4D0000014E00007D4D000064
:104DA0007D4D00007D4D00007D4D0000014E000056
:104DB0007D4D00007D4D00007D4D00007D4D0000CB
:104DC000174F00008F4E0000CF4E00007D4D0000B9
:104DD0007D4D0000394F00007D4D00008F4E0000DA
:104DE0007D4D00007D4D0000D74E000033681A1D38
:104DF0001B68326004F1420684F842300123A8E0C7
:104E000031682368081D30601E0601D50D6803E077
:104E10005D06FBD5B1F90050002D616878DA2D20D0
:104E20000029A16084F843002DDA6D425D480A2311
:104E30001646B5FBF3F103FB1157C75D06F8017D7C
:104E40002F460D46BB42F4D9082B0BD12368DF0750
:104E500008D5236961689942DEBF302306F8013C1A
:104E600006F1FF36921B22614B4603AA21464046BB
:104E7000CDF800A000F0EEFC01306FD14FF0FF3014
:104E800004B0BDE8F08723F004032360CDE7216878
:104E90003368080653F8045B02D4490648BFADB234
:104EA0006F2F33603F4814BF0A230823002184F882
:104EB00043106668002EA660BADB216821F0040169
:104EC0002160002DB4D1002EB2D11646BCE7236874
:104ED00043F02003236078273348236884F8457023
:104EE0001F06316851F8045B02D45F0648BFADB2BB
:104EF0003160D90744BF43F0200323601DB1102364
:104F0000D4E72848E9E7236823F020032360F6E785
:104F100024480A23CDE733682568181D616930608D
:104F20002E061B6801D5196002E06806FBD51980C2
:104F300000231646236197E7336800211A1D32606B
:104F40001E686268304600F0FAFD08B1801B6060A0
:104F500063682361002384F8433085E72369324680
:104F600049464046D047013088D023689B0714D477
:104F7000E068039B9842B8BF184681E70123324698
:104F800049464046D04701303FF478AF0135E368E9
:104F900003995B1AAB42F1DCEAE7002504F119063C
:104FA000F5E700BF3C6C00004D6C000038B5294BA4
:104FB00005460C46186818B1036A0BB9FFF7FEFAEC
:104FC000B4F90C30190722D4DA0607D409222A6072
:104FD00043F040034FF0FF30A38133E0580712D570
:104FE000616B41B104F14403994202D02846FFF7B6
:104FF000ADFB00236363A38923F02403A381002373
:10500000636023692360A38943F00803A3812369B4
:105010004BB9A38903F42073B3F5007F03D0214675
:10502000284600F0EDFDB4F90C3013F001020AD06F
:105030000022A26062695242A261226942B913F061
:105040008000C5D138BD990758BF6269A260F4E7F6
:105050000020F7E70816002038B50023054D044668
:1050600008462B60FEF762FF431C02D12B6803B198
:10507000236038BD4015002038B50023064D044696
:10508000084611462B6000F039FA431C02D12B6808
:1050900003B1236038BD00BF4015002038B50023A0
:1050A000054D044608462B6000F02DFA431C02D142
:1050B0002B6803B1236038BD4015002038B5044685
:1050C00000F0F00545F00C002401FBF7F1F964B2A3
:1050D00045F00800FBF7ECF944F00C0000F0FC0090
:1050E000FBF7E6F944F0080000F0F800BDE83840AE
:1050F000FBF7DEB970B5451E15F8014F04B970BD58
:1051000004F0F00646F00D002401FBF7D1F964B27B
:1051100046F00900FBF7CCF944F00D0000F0FD006B
:1051200044F00904FBF7C4F904F0F900FBF7C0F9F7
:10513000E2E718B941F08000FFF7C0BF012802D1B3
:1051400041F0C000F8E7704708B53220FEF768FF6D
:105150003320FFF7B3FF0A20FEF762FF3220FFF78C
:10516000ADFF0A20FEF75CFF4820FFF7A7FF0120F4
:10517000FEF756FF0C20FFF7A1FF0120FEF750FFBE
:105180000120FFF79BFF0220FEF74AFFBDE8084021
:105190000620FFF793BF08B5FEF7D8FEFBF75AF8D5
:1051A00000F04EFAFBF76EF8FAE770477047704769
:1051B0007047704708B5FBF723FA00F01CF9BDE80B
:1051C0000840FBF713BA704708B5FBF7CDFAFBF7B9
:1051D00081FBFBF78DF9BDE8084000F051B808B538
:1051E00000F010F800F00AF8BDE80840FBF78EB9AF
:1051F000704770477047704770477047FBF798B922
:10520000FBF7EEB90F20704770B5002506462C4617
:10521000052C20D8DFE804F003070B0F13175B21E0
:105220000820FBF707FB0C210820FBF703FBD1212B
:105230000820FBF7FFFA80210820FBF7FBFA00218A
:105240000820FBF7F7FA6C1C2946E4B20820254633
:10525000FBF7F0FA0624A4F10E03012B05D85A211E
:105260000820FBF7E7FA0134D2E7102C05D1BDE89E
:1052700070405D210820FBF7DDBAB31F195DEFE731
:1052800008B5082000F025F8BDE80840082000F027
:105290002BB807B5012320F07F4040EA81700190D0
:1052A00068460093FFF7B0FF03B05DF804FBFEE72C
:1052B00000239A4200D1704710B550F8234041F8BE
:1052C000234001339A42F8D110BDFEE7002303606A
:1052D00070474FF060420123D2F8001E83400B4319
:1052E0000020C2F8003E70474FF060410122D1F823
:1052F000003E824023EA02030020C1F8003E7047CE
:1053000010B588B004460E98009207900D9822467A
:1053100006909DF8300005900B9804909DF82800A9
:1053200003900020CDE901300B460121FBF72EFC54
:1053300008B010BD08B500F0DFFCBDE80840002152
:10534000FCF774B80029CCBF01210021FCF76EB82E
:1053500002214FF42070FCF767BC70477047C36CA4
:105360000B42FCD1704708B543680246DB0714D5F1
:105370000A2350210363FFF7F2FF136C9907FCD156
:10538000936A012110469362FFF7E9FF136C1B0635
:1053900004D4012302F50052536008BD536BF5E7B6
:1053A000036C5B06FCD5C163704770B505461446B7
:1053B0000E4600F08EFF2B685C4034405C402C6051
:1053C000BDE8704000F080BF4FF0B0435A6812B1A2
:1053D0009A6A002AFAD1704770B5054614460E46FF
:1053E00000F077FF2B685C4034405C402C60BDE8E7
:1053F000704000F069BF00F000B800207047FDF772
:1054000009BE70B50C46154610B9FDF7C7FF38B197
:1054100043682BB12A462146BDE870400068184712
:10542000232070BDF7B50D4616461C4648B103B99A
:1054300001ACC7685FB12346324629460068B847C9
:1054400006E0FDF7ABFF04B901AC0028F1D1232041
:1054500003B0F0BDD0F8A0301B681A6C120643BF31
:105460005B6B00200B701B20704738B50446D0F8EA
:10547000A0301D682B6C5906FCD5002394F8A910A8
:105480001A4694F8A800FDF7ABF8002394F8AB1087
:105490001A4694F8AA00FDF7A3F894F8B030DA079A
:1054A00007D5002394F8AD101A4694F8AC00FDF728
:1054B00097F894F8B0309B0707D5002394F8AF1005
:1054C0001A4694F8AE00FDF78BF8042205F5005358
:1054D000002128469A64FCF727FED4F8A40000F0C7
:1054E0000FFF002038BD08B5D0F8A0301868FFF7CE
:1054F00057FF002008BD00207047FEE74FF400531F
:1055000000204B607047012070470020704707B5AE
:10551000002001AB0190FFF785FF0198002808BF2C
:105520004FF0FF3003B05DF804FB80F89510704732
:1055300090F89500704737B592F85430144633B15F
:10554000936D0BB1D06D9847002384F8543094F8D4
:1055500096301BB32046FEF775F8F8B1236E132181
:1055600020465B6898471025236E20461B680DF186
:105570000701984778B99DF8073003F0FD02112A1A
:1055800005D1A3F111025342534184F89C30013DEF
:1055900015F0FF05E8D12046FEF7E4F8002084F876
:1055A000540003B030BD70B590F8943005460C46F9
:1055B000C3B10B69B3F5006F16D800F093FE95F8F0
:1055C0008C30064665614BB1214605F19000FBF732
:1055D000A9F8304600F081FE002070BD2046FEF79D
:1055E00087F8F6E70E20F8E72120F6E738B548B14E
:1055F0000024056800F076FEC5E9164400F06DFE53
:10560000204638BD2220FCE77047704708B5FFF7F9
:10561000D1FDFFF7D9FDFFF7E2FDFFF7E9FDBDE89A
:105620000840FFF7E6BD704708B5FFF7BFFDFFF77D
:10563000BEFDFFF7BDFDFFF7BCFDFFF7F4FF08BDA2
:1056400008B5FFF7D7FDFFF7D6FDFFF7D5FDBDE89D
:105650000840FFF7D2BD002070472DE9F843074608
:10566000884614460026D4E90195B9F1010905D50B
:105670002468002CF7D13046BDE8F883AB89012BB4
:1056800007D9B5F90E30013303D029463846C04753
:1056900006436835E9E710B50C46B1F90E10FFF77F
:1056A0000DF80028ABBF636DA3891B1823F480534A
:1056B000ACBF6365A38110BD2DE9F0411F468B8906
:1056C00005460C46DB05164605D502230022B1F936
:1056D0000E10FEF7E1FFA3893246B4F90E102846FA
:1056E00023F48053A3813B46BDE8F041FEF7F8BFA9
:1056F00010B50C46B1F90E10FEF7CEFF431CA3897E
:1057000015BF606523F4805343F48053A38118BF11
:10571000A38110BDB1F90E10FEF7AEBF02440346DF
:10572000934200D1704703F8011BF9E770477047B7
:1057300070470A44431E914200D1704710B511F8DA
:10574000014B914203F8014FF9D110BD2DE9F0470B
:105750001F468E6882460C46BE4290460B682DD886
:10576000B1F90C2012F4906F26D06569096905EB38
:105770004505A3EB01097B1C05EBD5754B446D106A
:105780009D4238BF1D46530527D52946FFF74AF8E5
:10579000064660B34A462169FFF7CBFFA38923F48D
:1057A000906343F08003A38126614E446561A5EBBD
:1057B000090526603E46A560BE4200D93E463246F7
:1057C0004146206800F0A1F9A36800209B1BA3605C
:1057D000236833442360BDE8F0872A4600F0BDF912
:1057E00006460028E0D121695046FEF7AFFF0C23A2
:1057F0004FF0FF30CAF80030A38943F04003A38183
:10580000E9E79368013B002B936010B408DA9469D0
:10581000A34201DB0A2903D15DF8044B00F037B93C
:105820001368581C1060084619705DF8044B7047E7
:10583000F8B506460F461446D518AC4201D10020F3
:1058400007E03A4614F8011B3046FFF7DAFF431C25
:10585000F3D1F8BD2DE9F047164698468A68074609
:105860000B690C46DDF820909342B8BF13463360B5
:1058700091F843200AB1013333602368990642BF8F
:10588000336802333360256815F0060506D104F14C
:10589000190AE36832689B1AAB422BDC94F8433058
:1058A0002268003B18BF0123920630D404F1430262
:1058B00041463846C847013023D023681A3454F88B
:1058C0000A2C03F00603042B0ABF54F80E5C0025D3
:1058D00033684FF0000608BFED1A54F8123C08BFB9
:1058E00025EAE5759342C4BF9B1AED18B5421AD15B
:1058F000002008E00123524641463846C84701309F
:1059000003D14FF0FF30BDE8F0870135C1E7E11862
:105910005A1C30200233224481F8430094F8451089
:1059200082F84310C2E70123224641463846C84761
:105930000130E6D00136D9E7B1F90C202DE9F0416C
:10594000170705460C4656D44B68002B02DC0B6C3F
:10595000002B3DDDE66A002E3AD0002312F480527F
:105960002F68216A2B6025D0626DA389580705D561
:105970006368D21A636B0BB1236CD21A216A0023BD
:10598000E66A2846B047411C24D00023636023699F
:105990002360A389DA0400D56065616B2F60B9B11B
:1059A00004F14403994202D02846FEF7CFFE0023BB
:1059B00063630DE001232846B047461C0246D4D15C
:1059C0002B68002BD1D01D2B01D0162B2AD12F6094
:1059D00000202EE02A68B4F90C3042B11D2A01D013
:1059E000162A21D10023636023692360D5E7626012
:1059F00022692260CEE70F69002FE9D093070E6875
:105A00000F600CBF4B690023A6EB07088B60B8F151
:105A1000000FDDDD43463A46216A2846A66AB047B4
:105A2000002808DCB4F90C3043F040034FF0FF309D
:105A3000A381BDE8F0810744A8EB0008E7E738B58B
:105A40000B6905460C4613B90025284638BD18B128
:105A5000036A0BB9FEF7B2FDB4F90C30002BF3D09A
:105A6000626ED00704D4990502D4A06DFFF75FFEE3
:105A700028462146FFF760FF636E0546DA07E4D447
:105A8000A3899B05E1D4A06DFFF752FEDDE7F8B5D1
:105A90000E461446054618B1036A0BB9FEF78EFD93
:105AA000A369A360A3891A0701D5236943B92146D5
:105AB0002846FFF77BFA18B14FF0FF373846F8BD9C
:105AC0002368F6B222693746981A6369834205DC77
:105AD00021462846FFF7B3FF0028EDD1A368013B1C
