S01300004D4732345F6932635F7274632E733337E2
S3150800000000100020B1040008FF530008FF53000841
S31508000010FF530008FF530008FF530008FF5300086A
S31508000020FF530008FF530008FF530008FF5300085A
S31508000030FF530008FF530008FF530008FF5300084A
S31508000040FF530008FF530008FF530008FF5300083A
S31508000050FF530008FF530008FF530008FF5300082A
S31508000060FF530008FF530008FF53000869040008FF
S3150800007051530008FF530008FF530008FF530008B8
S31508000080FF530008FF530008FF530008FF530008FA
S31508000090FF530008A10D0008FF530008FF5300088E
S315080000A0FF530008E9080008C9080008FF530008BC
S315080000B0FF530008FF530008FF530008FF530008CA
S315080000C0FF530008FF530008FF530008FF530008BA
S315080000D0FF530008FF530008FF530008FF530008AA
S315080000E0FF530008FF530008FF530008FF5300089A
S315080000F0FF530008FF530008FF530008FF5300088A
S31508000100FF530008FF530008FF530008FF53000879
S31508000110FF530008FF530008FF530008FF53000869
S31508000120FF530008FF530008FF530008FF53000859
S31508000130FF530008FF530008FF530008FF53000849
S31508000140FF530008FF530008FF530008D76500084F
S31508000150FF530008FF530008FF530008FF53000829
S31508000160FF530008FF530008FF530008FF53000819
S31508000170013800D0FCE770470348044B834202D09D
S31508000180034B03B1184770473C1600203C16002065
S3150800019000000000064B0749C91A891048BF0131FB
S315080001A0491003D0044B0BB101481847704700BFEC
S315080001B03C1600203C1600200000000010B5064C36
S315080001C0237843B9FFF7D8FF044B13B10448AFF3BC
S315080001D000800123237010BD4C150020000000008C
S315080001E09C6E000808B5054B1BB105490548AFF3D9
S315080001F00080BDE80840FFF7CDBF00BF0000000043
S31508000200001000209C6E0008A3F5803A704700BFD6
S31508000210174B002B08BF134B9D46FFF7F5FF002130
S315080002208B460F461348144A121A05F038FB0E4B34
S31508000230002B00D098470D4B002B00D09847002084
S31508000240002104000D000D48002802D00C48AFF329
S31508000250008004F05BFC2000290005F044F804F057
S3150800026047FB00BF00000800000000000000000077
S3150800027000100020001000207C150020000000005F
S315080002800000000010B586B0174BCDF808D01B78D3
S315080002908DF800300A23B0FBF3F403FB140040EAA0
S315080002A004108DF80100B1FBF3F003FB101141EACD
S315080002B000118DF80210B2FBF3F103FB11220B4B70
S315080002C042EA011201930423ADF80C300DEB030149
S315080002D0074B8DF80320186800F082FB10B105481B
S315080002E004F0BCFB06B010BD4D150020D00001007F
S315080002F090150020386600087FB51B4B01A90193AD
S315080003001A4BCDF810D002930123ADF80C30032315
S31508000310ADF81430164B186800F062FB00BB9DF868
S3150800032002309DF80120180900EB800003F00F0346
S315080003309DF8001003EB4003100900EB800002F063
S315080003400F0202EB4002080900EB800001F00F01E2
S3150800035001EB4001DBB20748D2B2C9B204F07EFB1A
S3150800036007B05DF804FB00BFD00004004D1500205F
S31508000370901500204566000808B5044806F08FF871
S31508000380BDE80840024800F0BFBA00BF286C000864
S315080003907C150020064B1B681A7A022A04D812B16B
S315080003A01B68044A13607047032AF9D0704700BFD8
S315080003B0941500201810002070B5A2B0204D0BAC83
S315080003C00FCD0FC495E80F0084E80F0000244FF402
S315080003D07023CDE902440494019313AD01AE0FCE08
S315080003E00FC5184B06AE2B60174B18ADCDE9074461
S315080003F0099406930FCE0FC52022144B14482B6080
S31508000400144B13A91D93144B2094CDE91E23134BAB
S315080004100BAA2193124B03F047FA044618B1AE21F2
S31508000420104804F0FAFF9DF87F304FF4E130002BB6
S315080004300CBF0321002104F0D4FF204622B070BD72
S31508000440946600083C00015B01000F004400015B54
S31508000450D01000204E15002000010100A81500202C
S315080004601C10002060660008014803F043BB00BF6B
S31508000470D010002008B5034806F011F8BDE808407A
S3150800048004F03BBF286C0008014806F008B800BF16
S31508000490286C00080348044A0449121A921004F00A
S315080004A0AFBF00BF70010008700100087C1500206E
S315080004B008B5154B83F30A8800F030F8FFF7EAFF12
S315080004C0124B13498B4212D30020124B12498B420E
S315080004D018D3FFF79DFE186850F82240586840F870
S315080004E02240013298688242F5D30C33EAE70022AB
S315080004F0F8E71C6844F8220001325C68A242F8D387
S315080005000833E4E70022F8E700000020A46E00089C
S31508000510B06E0008B06E0008B06E000870B54FF4F3
S315080005208041124B124A134D9A60D3F8882005F57C
S31508000530005442F47002C3F888200F4A91664FF0BF
S31508000540FF3222660D4A62660222C3F8D020BFF344
S315080005504F8FBFF36F8F4FF44036002003F03AF900
S315080005600020E66003F004F92E6170BD00ED00E09E
S31508000570000000080080004400900050F7FF370094
S31508000580014B1860704700BFC0150020054B186066
S31508000590054B1B6F03F00703032B01D105F0B0BB16
S315080005A0704700BFC81500200080005038B50446C3
S315080005B00D4601B118B94521044804F02EFF2368F9
S315080005C013B92B60256038BD1C46F8E7B4660008E9
S315080005D010B5044618B95621044804F01EFF2068D1
S315080005E018B1036823600023036010BDB4660008D1
S315080005F007B500232948019305F051FF4FF44073CE
S31508000600012204216846ADF8003000F0C3F8012243
S31508000610234B0520C3F8442401A905F03BFF002815
S3150800062039D1204BD3F8F02042F00102C3F8F0206C
S31508000630D3F8FC2042F08072C3F8FC201A4AA3F5CE
S315080006405D431A60019B194A03F5D52303F2FC435F
S31508000650B3FBF2F3164A013B13610223C2F8F030EA
S315080006604FF48073C2F804334FF06043114AC3F85D
S31508000670B02F114AC3F8802ED3F8002E42F48072A8
S31508000680C3F8002EFF2283F82020D3F8002E22F488
S315080006908072C3F8002E03B05DF804FB286C0008CE
S315080006A000D0035000ED00E0FF030040F8590D00AC
S315080006B0000004E055CEACC50900010030B54FF086
S315080006C06043D3F8802ED20715D501240B4D8440FC
S315080006D0D5F8FC2042F08072C5F8FC20D3F8002E2D
S315080006E02243C3F8002E53F82020002AF0D003F83E
S315080006F02010002030BD1120FCE700BF00ED00E00F
S315080007002DE9F0410C2504464FF00108124E0CB3B2
S3150800071014F001000BD0002024F0010405FB006250
S315080007205768002FF3D09168C0B2B847EFE7224662
S31508000730013020284FEA520201D0D307F8D508FA2B
S3150800074000F20F2824EA0204E8D9103805FB0062F3
S31508000750B432E5E7BDE8F081EC10002008B50C4896
S3150800076005F09DFE192003F01DF828B1192003F0A5
S3150800077031F8192002F0FCFF1A2003F013F828B10B
S315080007801A2003F027F81A2002F0F2FF002008BD0D
S31508000790286C00082DE9F0410E469046044638B903
S315080007A093211A4804F039FE22252846BDE8F0812F
S315080007B00F290CD8037883B1012B03D0022B0CD058
S315080007C0032B04D13F236278D340DB0708D4972153
S315080007D00E4804F022FE2125E7E740F2FF33F2E750
S315080007E00B4BD3F810532DB19B21084804F015FE86
S315080007F00225DAE705F048FE074642462046314616
S3150800080002F064FD384605F03AFECEE7EE660008CB
S3150800081000C0035038B5044628B91348E42104F04B
S31508000820FCFD222038BD037883B1012B03D0022BAF
S315080008300CD0032B04D13F236278D340DB0708D4BE
S315080008400948E82104F0E9FD2120EBE740F2FF33EF
S31508000850F2E705F019FE0546204605F027FB28466F
S3150800086005F00DFE0020DDE7EE66000838B5044603
S3150800087028B91448FC2104F0D0FD222038BD03789D
S315080008808BB1012B03D0022B0DD0032B04D13F23B0
S315080008906278D340DB0709D40A484FF4807104F024
S315080008A0BCFD2120EAE740F2FF33F1E705F0ECFD55
S315080008B00546204602F0D6FC284605F0E0FD002055
S315080008C0DCE700BFEE66000808B502F0F5FC054B4C
S315080008D000F0553020F05020C3F82004BDE8084049
S315080008E0FFF70EBF00E0035008B502F0E5FC054B24
S315080008F000F0AA3020F0A020C3F82004BDE8084084
S31508000900FFF7FEBE00E0035070B586B0044618B97E
S31508000910AC212E4804F081FD2368B3F1B64F07D009
S315080009202B4A93424BD12B4805F0B9FD012503E02C
S31508000930294805F0B4FD0025A3880122ADF800304A
S31508000940E3880A216846ADF80430FFF723FF012241
S315080009500A2101A8FFF71EFF0A266846FFF786FF49
S31508000960642003F009FE6846FFF754FF642003F08D
S3150800097003FE013EF1D10323184A02EB0511C1F823
S31508000980E834607923794F3543EA0043C1F8EC34FB
S31508000990E179A3792D0143EA0143535140F201134A
S315080009A0ADF80830E36820680493A36802A90393A6
S315080009B0237C8DF8143002F057F906B070BDD121AA
S315080009C0024806B0BDE8704004F027BD2C67000851
S315080009D000800650206C0008246C000800C00350F4
S315080009E038B5054602F084FA044C012801D1013CC9
S315080009F000D138BD284602F069F9F6E7E19304000C
S31508000A002DE9F04F85B09A46554B06461B780F469A
S31508000A101546DDF83C909DF844B0DDF85080002B73
S31508000A2000F09780072A00F296800E9B002B00F0B4
S31508000A309280B9F1000F00F08E80129BB3F5006F1B
S31508000A4000F38980012803D1109B002B00F08380D6
S31508000A50444B03EB05131B7B002B7ED0424C102224
S31508000A600021684604F01BFF04EB45141022A7BBBF
S31508000A703946204604F013FF43F210036380BBF1A6
S31508000A80000F03D1E37843F00303E370364A0E9B65
S31508000A9002EB451CCCE90193129B6901581E9DF88F
S31508000AA04C30C0F30A0003F003039B0643EA001E1A
S31508000AB053582E48012E00EA03004EEA0003CDF8EB
S31508000AC000A0535017D0B8F1000F2ED19CF8023071
S31508000AD068F304138CF8023027E00021204604F05E
S31508000AE0DEFE4FF444736380BBF1000FCED1E3788A
S31508000AF043F03003C9E713230CF1100ECCF80C3081
S31508000B009CE80F008EE80F006FF00301DCF81C204C
S31508000B10109B61F39F02012FCCF81C20CCF81430EF
S31508000B2003D1CCF81890CCF8043000270D4A2901D7
S31508000B3002EB051342F80180159A28465A60694661
S31508000B4022469F605E7302F0B1FA384605B0BDE8EA
S31508000B50F08F0748FAE70748F8E70748F6E700BFBF
S31508000B606E15002054130020541200200F80FFF346
S31508000B70028000F0018000F0078000F038B5124BC3
S31508000B8005461B78DBB1E0B105F07EFC0F4A002371
S31508000B901146147B54B92B6001251A0101EB031386
S31508000BA01D738C5005F06BFC204638BD0133082BAD
S31508000BB002F11002EDD105F062FC0548F5E705489B
S31508000BC0F3E70548F1E700BF6E150020541300202F
S31508000BD0048000F0028000F0018000F038B505F0CE
S31508000BE053FC002305460B4A147B6CB90133082BCA
S31508000BF002F11002F8D102F0DBF9074B28461C7007
S31508000C0005F03DFC204603E0284605F038FC03487D
S31508000C1038BD00BF541300206E150020058000F073
S31508000C2010B50D4B04461B7893B1072812D805F06A
S31508000C302BFC0A4B03EB04131A7B2AB100241C7302
S31508000C4005F01DFC204610BD05F019FC0448FAE71E
S31508000C500448F8E70448F6E76E1500205413002008
S31508000C60068000F0028000F0018000F013B5154BF5
S31508000C701868002301908DF8043005F005FC124B26
S31508000C801C7824B105F0FBFB104802B010BD012208
S31508000C901A7005F0F4FB0E4B01A81C731C7783F839
S31508000CA02C4083F83C4083F84C4083F85C4083F83A
S31508000CB06C4083F87C4008238DF8073002F0AEF9C3
S31508000CC02046E2E76E6700086E150020038000F0F4
S31508000CD054130020F8B50D4D2D7885B1072810DC82
S31508000CE00B4D060105EB0014277B67B1AB510025B8
S31508000CF0069BA560636002F0D9F92846F8BD054849
S31508000D00FCE70548FAE70548F8E700BF6E15002036
S31508000D1054130020028000F0018000F0078000F0E4
S31508000D2008B50A4A12785AB107280BD8084A02EBBE
S31508000D3000131B7B43B1002102F050F9002008BDC7
S31508000D400448FCE70448FAE70448F8E76E1500206B
S31508000D5054130020028000F0018000F0078000F0A4
S31508000D6008B50A4A12785AB107280BD8084A02EB7E
S31508000D7000131B7B43B1012102F030F9002008BDA6
S31508000D800448FCE70448FAE70448F8E76E1500202B
S31508000D9054130020028000F0018000F0078000F064
S31508000DA02DE9F041174B1F6D5B6D1F4000D5FEE71F
S31508000DB001260025144CDFF85880374218D02368DE
S31508000DC0C8F85060A3B1A168284601316268A160DD
S31508000DD09847637B012B0BD150B90C4B03EB45139A
S31508000DE01A7B60F341021A731A7F60F341021A777D
S31508000DF00135082D4FEA460604F11004DDD1BDE899
S31508000E00F08100BF00000450541300205412002043
S31508000E1000200450044BD3F88420D206FBD4D3F820
S31508000E208400C0F3811070470040005038B5104B5D
S31508000E300546D3F800310C4603F00303022B0BD00A
S31508000E40032B0DD0012B0FD104F074FF032305B13A
S31508000E50286004B1236038BD04F0BEFF0923F6E715
S31508000E6004F06EFF0823F2E701230020EFE700BF36
S31508000E700080005038B5104B0546D3F840310C4673
S31508000E8003F00303022B0BD0032B0DD0012B0FD13C
S31508000E9005F0E6FA0A2305B1286004B1236038BDD7
S31508000EA004F09AFF0923F6E705F0DDFA0C23F2E7CA
S31508000EB001230020EFE700BF0080005038B5104B33
S31508000EC00546D3F860310C4603F00303022B0BD01A
S31508000ED0032B0DD0012B0FD105F0C2FA0A2305B159
S31508000EE0286004B1236038BD04F076FF0923F6E7CD
S31508000EF005F0B9FA0C23F2E701230020EFE700BF5B
S31508000F000080005038B5104B0546D3F840320C46E1
S31508000F1003F00303022B0BD0032B0DD0012B0FD1AB
S31508000F2005F09EFA0A2305B1286004B1236038BD8E
S31508000F3004F052FF0923F6E705F095FA0C23F2E7C9
S31508000F4001230020EFE700BF0080005038B5124BA0
S31508000F500546D3F880300C4603F00303022B0BD06A
S31508000F60032B0DD0012B0FD104F0AAFE0E2305B1D9
S31508000F70286004B1236038BD04F0E6FE0723F6E7CF
S31508000F8004F098FE0623F2E7044841F2142104F01F
S31508000F9044FA00231846EAE7008000507267000802
S31508000FA038B51A4B0546D3F820010C4600F0070061
S31508000FB0062821D8DFE800F028040C1410181C00B5
S31508000FC004F078FE052305B1286004B1236038BD16
S31508000FD004F0B0FE0323F6E704F0B6FE0723F2E7B3
S31508000FE004F0A4FE0223EEE704F064FE0623EAE713
S31508000FF004F0A0FE0423E6E7054841F2912104F037
S315080010000CFA00231846DEE70123DCE700800050CF
S315080010107267000838B5194B0546D3F828310C46CF
S3150800102003F00703013B052B20D8DFE803F0031381
S315080010301B0F0B1704F03EFE052305B1286004B10B
S31508001040236038BD04F036FE0623F6E704F07CFE7E
S315080010500723F2E704F06EFE0323EEE704F06AFEC8
S315080010600423EAE704F062FE0223E6E7044841F2B5
S31508001070990104F0D2F900231846DEE700800050F3
S315080010807267000837B500230193194B0546D3F854
S3150800109020320C4603F00703042B1FD8DFE803F0C1
S315080010A025030F141900002101A8FFF7B3FF122327
S315080010B00DB1019A2A6004B1236003B030BD04F073
S315080010C043FE07230190F3E705F0CAF90A230190C6
S315080010D0EEE704F081FE09230190E9E741F25601A3
S315080010E0044804F09AF90023E2E70123E0E700BF89
S315080010F00080005072670008F7B50027144B019767
S31508001100D3F88041064604F00304022C0D4614D099
S31508001110032C0DD0012C14D1394601A8FFF740FF46
S3150800112010240EB1019B336005B12C6003B0F0BDED
S3150800113004F00AFE07240190F3E704F0F7FD019096
S31508001140EFE741F2E631034804F067F93C46E8E781
S31508001150008000507267000838B5164B0546D3F86C
S3150800116000020C4600F00700042819D8DFE800F052
S3150800117020030B0F130005F073F90A2305B1286045
S3150800118004B1236038BD04F027FE0923F6E705F00D
S315080011906AF90C23F2E704F0B3FD0F23800AEDE7A2
S315080011A0054841F2A44104F038F900231846E5E75A
S315080011B00123E3E7008000507267000838B5164B34
S315080011C00546D3F808020C4600F00700042819D88B
S315080011D0DFE800F020030B0F130005F041F90A239E
S315080011E005B1286004B1236038BD04F0F5FD092374
S315080011F0F6E705F038F90C23F2E704F081FD0F2332
S31508001200800AEDE7054841F2DC4104F006F90023BF
S315080012101846E5E70123E3E70080005072670008F7
S3150800122037B500230193184B0546D3F860320C46B0
S3150800123003F00703013B032B1FD8DFE803F0020E78
S315080012401914002101A8FFF7ABFE10230DB1019A6E
S315080012502A6004B1236003B030BD002101A8FFF75E
S3150800126009FE1123F2E704F06FFD07230190EDE76D
S3150800127004F05CFD02230190E8E741F2FD01034812
S3150800128004F0CBF80023E1E70080005072670008FD
S3150800129037B500230193184B0546D3F894320C460C
S315080012A003F00703013B032B1FD8DFE803F0020E08
S315080012B01914002101A8FFF773FE10230DB1019A36
S315080012C02A6004B1236003B030BD002101A8FFF7EE
S315080012D0D1FD1123F2E704F037FD07230190EDE76E
S315080012E004F024FD02230190E8E741F23011034897
S315080012F004F093F80023E1E70080005072670008C5
S3150800130073B500240F4B0194D3F87032064603F0E8
S315080013100303012B0D4607D0022B11D041F25B11B6
S31508001320094804F07AF804E0214601A8FFF7A2FD6F
S3150800133011240EB1019B336005B12C6002B070BD5B
S315080013401524F6E7008000507267000808B5334B8D
S3150800135098424FD027D8324B984245D017D8314BB0
S3150800136098423ED00AD838B12F4B984239D041F22C
S31508001370BB312E4804F051F8002034E02C4B98423B
S315080013802FD02C4B9842F2D12B4B586E2BE02B4B7F
S3150800139098422CD003F5371303F5D8639842E6D163
S315080013A0254B986F1FE0264B98422FD00CD8254B1B
S315080013B0984223D0244B984224D0244B9842D6D125
S315080013C01D4BD3F884000EE0214B984222D003F53A
S315080013D0740303F510539842C9D1174BD3F89800F4
S315080013E001E0154B986D08BD134B186FFBE7124BC0
S315080013F0586FF8E7104BD3F88000F4E70E4BD3F894
S315080014008800F0E70C4BD3F88C00ECE70A4BD3F8CE
S315080014109000E8E7084BD3F89400E4E780BA8C011B
S31508001420405DC60080841E0040420F0072670008B7
S3150800143000093D00C0CF6A000080E00F0024F400D8
S31508001440007E560380D54302006CDC020048E801A2
S315080014500090D00310B5B0F5207F2ED009D8B0F58E
S31508001460007F24D003D868B1B0F5C07F0AD0002425
S315080014701BE0B0F5607FFAD1124BD3F88040C4F375
S31508001480011412E00F4B1C6F230B13F00E0FC4F35D
S3150800149003340AD0072C08D00F2C06D0032C04D00E
S315080014A04FF42271084803F0B8FF601C10BD054BC5
S315080014B0D3F89040C4F30464F7E7024B1C6FC4F3F7
S315080014C08024F2E7008000507267000838B54FF4B0
S315080014D08032104B04469A6600200D46FFF7BAFF85
S315080014E041F671320C4B6043DC69DA635A6804F4DE
S315080014F0803422F440125DB90849884294BF00201E
S315080015000120000502435A600CB10022DA6338BD97
S315080015100349F2E70090005000000350005A6202A7
S31508001520002D310138B5430904460D460ED140F267
S3150800153035310D4803F071FF002304F01F0485B10F
S3150800154003F580530122A2401A6038BD012B04D04E
S31508001550022B04D040F24331EBE7044BEDE7044B92
S31508001560EBE703F50053EDE7726700086480005067
S315080015706880005030B585B00021B0F5807F0446FC
S31508001580CDE9001100F0D3803DD85E2833D85E2817
S3150800159033D8DFE800F04832323232323232323271
S315080015A0323232323232323232323232323232320D
S315080015B032323232323248AD48ADBDBDBDBDBDADA9
S315080015C0C7516EDD51ADADAD3232323232323232C2
S315080015D0ADADAD81E7AD32323232323232323232ED
S315080015E0323232BD484848E25151EC9066C2323236
S315080015F032323298480080286AD040F2A4416048C6
S3150800160003F00BFF67E0B0F5D06F00F0A18035D886
S31508001610B0F5607F77D01AD8B0F5007F5ED005D8D0
S31508001620B0F5C07FE9D104F06BFB53E0B0F5207F3D
S315080016305ED0B0F5407FE0D104F062FB04464FF47B
S315080016402070FFF707FFB4FBF0F4640859E0B0F523
S31508001650B06F67D00AD8B0F5806F59D0B0F5A06FD3
S31508001660CBD100216846FFF70DFD34E0B0F5C06F19
S31508001670C3D100216846FFF7FDFB2CE0B0F5106FDB
S315080016806BD00ED8B0F5086F76D0B6D8B0F5E06F47
S3150800169068D0B0F5F06FB0D100216846FFF70EFCB0
S315080016A019E0B0F5406F38D00AD8B0F5206F5ED093
S315080016B0B0F5286FA1D100216846FFF721FE0AE0A0
S315080016C0B0F5486F99D100216846FFF7E1FD02E0C1
S315080016D004F0F6FA0090009805B030BD04F0F0FA70
S315080016E005462046FFF7B6FEB5FBF0F50095F2E78E
S315080016F004F006FB04464FF42070FFF7ABFEB4FB7C
S31508001700F0F40094E7E701A8FFF720FC019DE8E75D
S3150800171000216846FFF744FCDDE700216846FFF72D
S3150800172079FCD8E700216846FFF7E6FCD3E74FF0D7
S31508001730E02302911B695B0705D504F0E1FA0290E4
S31508001740029B0093C7E703A902A8FFF793FBF7E7F5
S3150800175000216846FFF700FDBDE700216846FFF750
S315080017602DFDB8E700216846FFF7CCFBB3E700215B
S315080017706846FFF755FDAEE76846FFF757FBAAE749
S315080017807267000808B58020FFF7F4FE034B9842FD
S315080017909EBF4FF48032024B1A6708BD005A620298
S315080017A000A000501FB503460020B3F5807F0190C6
S315080017B000F0C58063D85D2B54D84C2B06D82D2B4A
S315080017C046D8232B2AD840F28951A7E04D3B102B47
S315080017D0F9D801A252F823F035190008C7170008EE
S315080017E0C7170008C7170008DF180008C71700083A
S315080017F0C71700088F190008FD180008A318000865
S3150800180085190008C7170008C7170008C717000872
S31508001810C7170008C717000899190008243B092BA1
S31508001820D1D801A252F823F0351900083519000855
S31508001830351900083519000835190008C7170008B2
S3150800184025190008C7170008BF1800086B190008F3
S315080018503D2B00F085803E2BB5D1002001A9FFF76E
S3150800186051FB63E0802BAED14E4B1B6F03F0070391
S31508001870013B032B50D8DFE803F04D46494BB3F53F
S31508001880F06F6DD020D8B3F5B06F4BD00ED8B3F546
S31508001890607F73D097D3B3F5806F4BD0B3F5A06F45
S315080018A091D1002001A9FFF7EDFB3FE0B3F5D06F1A
S315080018B05BD0B3F5E06FD0D0B3F5C06F83D100200D
S315080018C001A9FFF7D7FA31E0B3F5206F5FD00BD83F
S315080018D0B3F5086F4ED0B3F5106F7FF474AF0020E0
S315080018E001A9FFF76BFC21E0B3F5406F4AD0B3F5C9
S315080018F0486F51D0B3F5286F7FF465AF002001A972
S31508001900FFF7FEFC12E0052301930FE00323FBE734
S315080019100823F9E70223F7E740F2D641224803F005
S315080019207CFD03E0002001A9FFF7E6FB019805B05E
S315080019305DF804FB002001A9FFF732FBF6E74FF03C
S31508001940E02302901B695B0705D504F0D9F90D233E
S315080019500393039BD8E703A902A8FFF78BFAF8E7D6
S31508001960002001A9FFF7AAFAE0E7002001A9FFF77E
S31508001970F3FBDBE701A9FFF759FAD7E701A9FFF758
S31508001980E5FAD3E7002001A9FFF744FBCEE70020DC
S3150800199001A9FFF745FCC9E7002001A9FFF778FC74
S315080019A0C4E700BF00800050726700084FF4803219
S315080019B0074B0849586E03F580535A664B6A23F05D
S315080019C001034B62C3035CBF034B5A66704700BFF3
S315080019D00080005000C0075000A0005038B50368CA
S315080019E004460F2B04D940F68A317C4803F015FDCE
S315080019F063680F2B04D940F68D31784803F00DFD46
S31508001A00A3680F2B04D94FF43961744803F005FD18
S31508001A10237B0F2B04D940F69331704803F0FDFC65
S31508001A20637B0F2B04D940F696316C4803F0F5FC1E
S31508001A30A37B3F2B04D940F69931684803F0EDFCA7
S31508001A40E37B3F2B04D940F69C31644803F0E5FC60
S31508001A502369032B04D940F69F31604803F0DDFC67
S31508001A606369032B04D940F6A2315C4803F0D5FC20
S31508001A70E369032B04D940F6A531584803F0CDFC99
S31508001A808020FFF78FFE032800F083804FF4801232
S31508001A90534B4FF0A0615A6645F60E02514BC3F8F8
S31508001AA08020514A91624FF4803102F5805291624A
S31508001AB09A6DD203FCD4996D11F08041FBD1D4E91B
S31508001AC00002120542EA0062E07B0243207B42EAFA
S31508001AD00042607B42EA0032A07B42EA80121A6129
S31508001AE09869D4E90452120642EA856200F0004079
S31508001AF00243A07EE57E0243207E42EA0042607EE3
S31508001B0042EA00229A611A6AE06922F00F0242EA62
S31508001B108502364D00283DD11A6294F82420996A28
S31508001B2094F82000D200294042EA40120A4394F869
S31508001B30211042EA011242F480329A622C49294A5B
S31508001B40936D31EA0303FBD14FF080712648816219
S31508001B501369A56823F4700343EA055313614FF02C
S31508001B600043836194F822300BB9224B996294F8AA
S31508001B7023303BB94FF480321E4B9A62194A936D53
S31508001B805B00FCD494F825301BB1164B1A4AC3F8EF
S31508001B90802038BD024342F0080202281A6208D1A2
S31508001BA019614FF40852996114484FF47F4103F0C4
S31508001BB069FC0C4994F822308A6A94F820001B06BE
S31508001BC02A4043EA4013134394F8242043EAC20305
S31508001BD094F8232043EA02438B62D3E7726700082E
S31508001BE0009000500040005A0050005AC7FFFEFE01
S31508001BF0030001000060005AF1A7FFFF3440005AB5
S31508001C00014B93F9000070473016002010B5436861
S31508001C100446072B04D940F6E6512A4803F0FDFB93
S31508001C20A368032B04D940F6E851264803F0F5FBD0
S31508001C302378032B04D940F6EA51224803F0EDFB3A
S31508001C4094F90130002B04DA40F6EC511D4803F0F4
S31508001C50E4FB4FF400011C4A637851664FF4D151F6
S31508001C60022002F5B832516218494F2B48604FF0EE
S31508001C70010028BF4F2301F5805148601169C90347
S31508001C80FCD4217843EA01235361D4E901131B01EB
S31508001C9043EA0123617B0B43217B43EA41039360BB
S31508001CA0E37BA17B1B0143EA4113617C0B43217C47
S31508001CB043EA41035360A37C13B16FF4D1535362D3
S31508001CC010BD00BF72670008009000500010025057
S31508001CD0014B1880704700BF2E160020014B188054
S31508001CE0704700BF2C16002008B54FF48002184B29
S31508001CF05A660223174A5360936813F48033FBD15C
S31508001D00012822D104F016F8134B984215D003F592
S31508001D10122303F5F863984213D0104B00EB8002A8
S31508001D20400AB3FBF0F3520A0A49CA620B6301235D
S31508001D304B620022074B5A6008BD45F67A13084ADB
S31508001D40F2E745F61A03074AEEE75362F1E700BFE2
S31508001D50009000500040025000F049026466666632
S31508001D60D8B80500BBCF050038B5B0F5207F77D0C9
S31508001D700ED8B0F5007F61D003D890B3B0F5C07F18
S31508001D802FD04FF44671BDE838403D4803F045BBB7
S31508001D90B0F5607FF5D13B4A4C1ED2F8FC5015F0E1
S31508001DA080751EBFD2F8FC3023F08073C2F8FC3071
S31508001DB0032C04D940F2F721314803F02EFB324AAE
S31508001DC0D2F8803023F0300343EA0413C2F8803097
S31508001DD035B12C4AD2F8FC3043F08073C2F8FC3097
S31508001DE038BD4C1E012C0AD9102903D8274BCB40E5
S31508001DF0DB0704D440F2CB21214803F00EFB03F0A5
S31508001E0050FB03F05CFB4FF48031214B1E4A1967E7
S31508001E10136F23F4704343EA0433136703F070FF28
S31508001E200446FEF7F7FFC0F10201204603F041FB26
S31508001E3000F048F8BDE83840FFF7A4BC4C1E1F2C3C
S31508001E4004D94FF443710E4803F0E7FA0E4AD2F864
S31508001E50903023F0F85343EA0463C2F89030BFE7A2
S31508001E604C1E012C04D940F21231054803F0D5FA6C
S31508001E70054A136F23F4806343EA84231367AFE7A5
S31508001E807267000800ED00E00080005010010100B4
S31508001E900090005008B50121022000F099F94FF48E
S31508001EA02070FFF7D7FA054B187003F0FAFA03F01B
S31508001EB006FB4FF48032024B1A6708BD6F150020E7
S31508001EC00090005008B54FF4C070FFF753FBBDE80B
S31508001ED008400449884294BF012102214FF420702A
S31508001EE0FFF742BF80F0FA0238B5044603F008FF50
S31508001EF00546FEF78FFFC0F10201284603F0D9FA1E
S31508001F000121002000F0B8F92CB1FFF7DBFFBDE88E
S31508001F103840FFF737BC034B4FF420701978FFF7AA
S31508001F2023FFF4E76F1500202DE9F0410546FFF77A
S31508001F300DFA431E0333044604D940F6E2113B4822
S31508001F4003F06BFA4FF4C022394B5A6603F59833FF
S31508001F505A68012A04D137494A605A689207FCD45C
S31508001F608020FFF71FFC052807D103F09AFA03F033
S31508001F70A6FA4FF480322E4B1A672F4B24F0407482
S31508001F809D4239D02D4B9D4239D003F093FE8542B0
S31508001F90064603D90121284600F06EF9284FFB684A
S31508001FA013F0060FFBD1D7F80880BC60BB68634006
S31508001FB013F4F81F26D12846FEF7E2FA8020FFF729
S31508001FC0F1FB052814D103F09BFEA842044604D968
S31508001FD040F63B21154803F020FAFEF71BFFC0F137
S31508001FE00201204603F065FAFFF76CFFFFF7CAFB0C
S31508001FF0AE4213D2BDE8F08144F00074C5E744F060
S315080020008074C2E740F62A21084803F006FA8020C1
S31508002010C7F80880FFF7C6FB052805D0BDE8F041DC
S315080020200121002000F028B93546CCE77267000880
S315080020300090005000E0015040420F0080841E00CE
S315080020400000015070B54E4B0546984273D041D8F2
S31508002050A3F5B703A3F55863984265D033D8494B1F
S31508002060494E984251D017D8002877D041F2DE1150
S31508002070464803F0D2F940F68671444803F0CDF994
S315080020804FF40022404B5A663E4B9D4276D00024C0
S315080020903F4A954236D05DE03D4B984227D03D4BAE
S315080020A09842E3D13C4BD3F8A040621E033224F099
S315080020B040744CD940F68671344803F0AEF94FF4B3
S315080020C000237366E4E7354B9842CFD1324BD3F8F9
S315080020D0BC402CE0324B984231D0324B984232D039
S315080020E0314B9842C2D12C4BD3F8C8401FE02A4B3B
S315080020F0D3F8A040621E033224F04074DAD84FF4B5
S315080021000023736644F0807424E0234BD3F8A04080
S31508002110621E033224F040742AD84FF400237366F3
S31508002120234643F0007415E01B4BD3F8B840621EF3
S31508002130154E0332BBE7184BD3F8C040F7E7164BEA
S31508002140D3F8CC40F3E7144BD3F8D040EFE74FF47D
S31508002150002373664FF0B442946070BD40F68671F2
S315080021600A4803F05AF94FF400232C467366F1E740
S3150800217040F68671054803F050F9CEE70023D0E70C
S31508002180C0EA210140420F00009000507267000823
S3150800219080841E0000093D000080E00F0024F40042
S315080021A00048E801005A620280BA8C01024A536B61
S315080021B00342FCD1704700BF00400950034A017929
S315080021C0D36E23F030030B43D366704700400050AC
S315080021D0F8B50446244BD3F88420D006FBD4D3F8AC
S315080021E08430C3F381139C423CD003F069FD012C73
S315080021F005460BD11D4B984204D940F29B711C48E9
S3150800220003F00BF90121284603F053F904F033F9DA
S315080022104FF00072174B07465A66204603F054F9EA
S315080022204FF48063104E621E93403367736E9A01B3
S3150800223003D4D6F884309B060AD5384604F016F936
S31508002240022C0FD12846BDE8F840002103F031B929
S31508002250D6F884309906E9D540F2B371044803F0FC
S31508002260DCF8E3E7F8BD00BF00400050005A620200
S31508002270A96700080060005010B50C4608B903F0BD
S315080022801FFD074B21461B783BB1064B984204D8E5
S315080022900120BDE81040FFF79BBF0220F9E700BF09
S315080022A070150020005A620238B54FF00042244BE0
S315080022B0244C5A664AF6CD33656C014605F001058D
S315080022C0236428BB0120FFF771FF6368DB0715D578
S315080022D01D4B586008461D4B226BD2070CD49842FA
S315080022E008D1072415B1174B194A1A6403F0EDF8FB
S315080022F0204638BD0130EFE79842F2D00024F1E7D6
S315080023000132236B13F0080305D08A42F8D1E8E7B7
S3150800231000220E49F5E78A42E3D020210A4A916253
S315080023200121A2F5805251600649084A886A80064A
S3150800233003D49342D5D00133F8E79342DDE700BFD3
S3150800234000900050004009500060095040420F00BC
S315080023503254FFFF38B54FF00042164B01465A6615
S315080023604AF6CD33144C154A656C236443780B2022
S315080023705B0043F00103D363FFF718FF63688A78AD
S3150800238023F4F87343EA02136360CA784B7943EA85
S315080023900223A3600A798B7943EA0223236108782A
S315080023A0FFF782FFEB0744BF054B236403F08DF864
S315080023B0012038BD009000500040095000400050F0
S315080023C03254FFFF70B50F28044605D940F67461EC
S315080023D0124803F022F80F244FF00042104B11491F
S315080023E05D6E03F580535A664AF6CD334E6C8020EF
S315080023F00B64FFF7DBFE0B6A23F00F0323430B6224
S31508002400F30744BF084B0B64002DA2BF4FF00042F0
S31508002410064B5A6603F059F870BD00BFA967000855
S3150800242000800050004009503254FFFF00A00050C1
S3150800243010B503F04FF8042300F5805100F500525B
S315080024400B6113610B6113610B6113610B611361FE
S31508002450202341F2020103610023C36083604161C6
S315080024604FF4A0218361836541620549C361036214
S315080024708362C36243630365D164036310BD00BF0F
S31508002480FF3F0D0338B5174B044698420D4607D053
S31508002490154B984204D040F26911144802F0BDFF6A
S315080024A025B92046BDE8384003F014B8012204F5E2
S315080024B080535A6040F6FF71204605F00F0203F07C
S315080024C005F8A263782103F001F805F001036A070D
S315080024D048BF43F00203A26C02F003029A42FAD103
S315080024E038BD00BF0000015B00000A50E067000825
S315080024F0F8B505460C46164622B940F227216B4820
S3150800250002F08BFF6A4B9D4202D19CB956240DE01E
S31508002510684B9D4247D040F22A21644802F07DFF6D
S3150800252044B940F27931614802F077FF2046FFF757
S3150800253021F80446AB68D80745D5B44204D24FF40F
S315080025400D715A4802F069FFB4FBF6F46F68013C56
S31508002550FF2C07F0010704D94FF40F71534802F016
S315080025605CFF24064FB32821284602F0AFFFAB6C68
S3150800257099071CD1AB6CDA071BD4AE6C16F00206B1
S3150800258019D140F24921494802F047FF284602F08E
S31508002590A1FF2B69314623F07F4323432B61BDE816
S315080025A0F840FFF76FBF002CC4D15724BEE70526B5
S315080025B0ECE70926EAE70626E8E72B6923F07F43D6
S315080025C023432B61F8BD6B68012B04D04FF41771B8
S315080025D0364802F022FFAB6DDB07AB6848BF7600D2
S315080025E003F0E003402B42D009D893B1202B1AD030
S315080025F040F29E21BDE8F8402C4802F00EBF602B41
S3150800260042D0802BF4D106EB4603A34247D80123D8
S315080026100DE0B6EB141F04D94FF42171234802F0DC
S31508002620FCFE102303E0B6EBD40F1AD80823734335
S315080026306401B4FBF3F4204F203CB7EBC40F4FEA18
S31508002640C40604D240F2A921184802F0E6FE28463C
S315080026503E40012102F03AFF2E63BDE8F84002F041
S3150800266035BF40F28921114802F0D7FEDEE706237E
S31508002670B4FBF3F3B34201D30623D8E740F28E2125
S315080026800A4802F0CAFEF7E7B6EB940F01D804230E
S31508002690CDE740F29321054802F0BFFEF7E74FF475
S315080026A02671024802F0B9FEB1E700BFE0670008EC
S315080026B00000015B00000A50F8FF7F002DE9F04199
S315080026C09846436804460E4617461BB140F6FF7106
S315080026D002F0FCFE2046FFF7ABFEF189737B6269C8
S315080026E00B43318A22F44C5222F00F020B43134358
S315080026F06361A26896F818C0337B22F0804222F004
S31508002700E2024CEA0303134372691343B268A360F7
S315080027101AB9A36843F00043A360F06904F580532F
S31508002720002878D0857A017A6D04D4F808E045EA5D
S3150800273081556E490EEA01010D43818801F4C041B5
S315080027400D43417845EA8105417B45EAC105817B10
S3150800275045EA0115817845EA8125A560D4F80CE09B
S31508002760D0E904152943624D0EEA05052943857902
S3150800277041EA8521C57941EA4521E16001785D4D47
S31508002780012914D1E16841F00401E160AC4200F08E
S31508002790928059498C420CBF01214FF0FF31490103
S315080027A001F1A04142F2944501F5703114E0032984
S315080027B07BD1E16841F00401E160AC4279D04E4931
S315080027C08C420CBF01214FF0FF3141F2944549017B
S315080027D001F1A04101F570314FF0020E41F805E014
S315080027E0417A996219B1E16841F40061E160C17A00
S315080027F059B1E16841F40041E1603E498C425CD13F
S31508002800017B3E4D01F00F016967616AC07B21F0CB
S315080028100301014361622FB197F82010002956D0B1
S3150800282001211962B8F1000F2DD0BCF1000F02D0BA
S315080028304FF4004199652F49B8F822508C4298F810
S31508002840211051D02C48844213D10120112934BFBC
S315080028504FF0010C4FF0020C294FB5F5006F07F841
S3150800286000C094BF4FF0010C4FF0020C254F07F83B
S3150800287000C0A06D294320F4F95020F01E00014342
S31508002880A16501219965012159601AB1204671682F
S31508002890FFF72EFE20463178FFF7F4FDA36CDB43E5
S315080028A013F4405FFAD1BDE8F0810239012984D9D1
S315080028B06CE7002189E7002171E70F498C4201BFC7
S315080028C0017B0E4D01F00F01C5F880109DE7E06908
S315080028D097F8221097F8215020F009002943014360
S315080028E041F00101D9619DE70020AFE7E39BBDFFF9
S315080028F0FFF9F0870000015B00000A5000900350C2
S31508002900731500207115002070B5134B05469842C3
S315080029100C4606D0114B984203D07021104802F09D
S315080029207CFD1CB972210E4802F077FD237B802BB3
S3150800293003D176210A4802F070FD637B032B03D985
S315080029407921074802F069FD002321462846BDE89B
S3150800295070401A46FFF7B2BE0000015B00000A503D
S31508002960E067000870B52B4B054698420C4643D1E4
S3150800297019B98C21284802F050FD5620FEF712FF9F
S315080029800C2807D0A0F10903012B03D9A0F11103E4
S31508002990012B3AD8637B032B03D9AD211E4802F0DD
S315080029A03CFD237B802B03D0AF211B4802F035FD6D
S315080029B06369B3F1804F03D0B121174802F02DFDAA
S315080029C0238A23F400539BB2B3F5805F03D0B32167
S315080029D0114802F022FDA368013BB3F5165F03D345
S315080029E0B5210D4802F019FD002321462846BDE809
S315080029F070401A46FFF762BE8A21074802F00DFDAD
S31508002A001CB98C21044802F008FD9E21024802F0F8
S31508002A1004FDBFE70000015BE067000838B503283E
S31508002A2004460D4605D8094B33F81030CB40DB0772
S31508002A3004D440F28541064802F0EFFC3023012217
S31508002A405C43044BAA401A5138BD00BFC068000851
S31508002A501A68000840D0035038B5032804460D46C6
S31508002A6005D8094B33F81030CB40DB0704D440F2C5
S31508002A705641064802F0D1FC302301225C43044B40
S31508002A80AA401A5138BD00BFC06800081A68000875
S31508002A9040E003502DE9F041032804460D46174649
S31508002AA0984605D81D4B33F81030CB40DB0704D4C5
S31508002AB04FF4B0711A4802F0B0FC37B129462046E7
S31508002AC0B8F1000F20D0FFF7A9FF0F21072D04EB5F
S31508002AD0440688BFA5F108034FEA0616114895BFB4
S31508002AE0AB009B0004360C3607FA03F299403044D3
S31508002AF002F00FFD7FB929462046B8F1000F06D02F
S31508002B00BDE8F041FFF78ABFFFF7A6FFDDE7BDE89E
S31508002B10F041FFF7A1BFBDE8F08100BFC06800081B
S31508002B208868000830C00350F8B506460F461546B3
S31508002B30002A6AD003F00304836823F44073836091
S31508002B4003F099FCB26882EA042303F44073534005
S31508002B50B36003F08BFC37B9B6F1B64F0DD12E2012
S31508002B60FEF708FD0746B3689A0717D5012C1BD050
S31508002B70022C27D064B9264B17E0264B9E4201D17A
S31508002B802F20EDE740F22F11234802F046FCB368E8
S31508002B904FF4B271204802F040FC08E0012C13D033
S31508002BA0022CE7D11D4B00E01D4B9F42F0D91D4B6F
S31508002BB01B5D6B430AD140F27511BDE8F840164813
S31508002BC002F02BBC184BF0E7184BEEE7A3EBC50455
S31508002BD0013C3C44B4FBF3F4013C0CD540F27B11B8
S31508002BE00D4802F01AFC4FF4BE710B4802F015FCB2
S31508002BF0B368B461F8BDB4F5007FF4D2B3689B0737
S31508002C00F7D5002C08BF0124F3E740F21511D4E7E5
S31508002C1080841E0000800650C8680008002D310117
S31508002C20404B4C00FF680008809FD500405489003F
S31508002C3038B5B0F1B64F04460D4607D0084B984252
S31508002C4004D040F29511074802F0E7FB043425B199
S31508002C5004F580540123236038BD04F50054F9E7D0
S31508002C6000800650C868000838B5B0F1B64F04466B
S31508002C700D4607D0124B984204D04FF4D57111482F
S31508002C8002F0CBFB0023104A236404F50053DA63F1
S31508002C906A7804F108037AB903F5805302221A60A8
S31508002CA02046D5E901122B7BFFF73EFF20462978FF
S31508002CB0BDE83840FFF7BCBF03F50053EEE700BF99
S31508002CC000800650C8680008FFFF1F0070B5B0F105
S31508002CD0B64F0AD0824B98421DD0824840F2012155
S31508002CE002F09BFB6FF0030070BD7F4B9968C26BC7
S31508002CF012F4C06F15D091050FD5FD225A7009221E
S31508002D001A700022026493F90110012900D15A7041
S31508002D1093F90100E8E7754BE8E75605EFD5FE227B
S31508002D20ECE71C78082C00F2D680DFE814F00900DE
S31508002D301F004500530070007E009C00A700CB00D2
S31508002D404C880A88E5060AD5120A02F0060242F0FD
S31508002D50F002012119704263C1600120C4E702F044
S31508002D60FE02A10748BF42F00102F2E7160608D59F
S31508002D70802100F50052D1634FF608721A800223AB
S31508002D8018E05506E9D5402400F50052D4634A8870
S31508002D90D40604D502221A700B784363DDE796073A
S31508002DA06AD507221A701B7901EBC3031B89012B0D
S31508002DB0D3D10823C360D0E71506D9D45406CCD599
S31508002DC0402400F50052D4634A88920754D503225A
S31508002DD01A708CE74C880A88E60643BF120A02F086
S31508002DE0060242F0F00202F0FE02650709D51C79D8
S31508002DF042F0010201EBC4010989012904BF082137
S31508002E00C160042119700123C3604263A5E7140653
S31508002E10AED45206A1D5402400F50052D4634A88A0
S31508002E20560729D507221A7097E71A795D8801EBA4
S31508002E30C2042689AE420FD800240132D2B21A71D2
S31508002E405C804C886507C2D4E40702D4012A7FF661
S31508002E504EAF08221A7092E76268691C5980525D63
S31508002E6042630622DFE7160682D455067FF575AF5C
S31508002E70402400F50052D4630522A9E794067FF59D
S31508002E806CAF20261A7900F5005401EBC2010A89B5
S31508002E90456AE6635C88A24281BF4968661C5E8013
S31508002EA00D5559888A42D4D90424012AC46004D00D
S31508002EB0013A914201D10822C2601A78092A3FF4E0
S31508002EC020AF4AE7D2057FF548AF4FF4807100F589
S31508002ED00052D16313E74FF609321A8011E700BF93
S31508002EE000800650C8680008D4130020E0130020AC
S31508002EF038B5B0F1B64F04460D4607D121B940F2B0
S31508002F006D31264802F089FA254B13E0254B984285
S31508002F100DD04FF45B71214802F07FFA25B940F2D3
S31508002F206D311E4802F079FA6FF0030038BD0029AA
S31508002F302BD01D4B2269D00744BF2022E2606A8845
S31508002F40910702D529890029EED0520702D52A8A87
S31508002F50002AE9D04FF480721A6000229D601A7127
S31508002F60C023E3606369DB0515D4202204F500530A
S31508002F70DA630E4A2046DA634FF4FC6204F580539E
S31508002F801A64BDE83840FFF7A1BE40F26D31034828
S31508002F9002F043FACDE7636AE4E700BFC8680008B1
S31508002FA0D413002000800650E0130020FFFF1F0006
S31508002FB010B5152000F0BEFB0024FF22064B214663
S31508002FC05C6520209A625C60FEF7ACFA2146BDE893
S31508002FD010402120FEF7A6BA0000045038B507288D
S31508002FE004460D4603DD7721084802F016FA1F2C21
S31508002FF003D99121064802F010FA064A064B002D1D
S3150800300008BF13460122A2401A6038BD03690008AA
S315080030103B690008401004504020045010B504468F
S3150800302018B991211F4802F0F8F923781B0613F006
S31508003030604F03D092211B4802F0EFF9E3780F2B7B
S3150800304003D99521174802F0E8F901212020FEF757
S3150800305069FA01212120FEF765FA0122124B152093
S315080030605A60227812069A606178A27842EA01428A
S315080030709A61FF229A6200229A631A644FF000420C
S315080030805A654FF0FF3203F500531A6500F0A2FBAC
S315080030901520E17800F0ACFBBDE81040152000F0E3
S315080030A067BB00BF0369000800000450F8B5012695
S315080030B0C3B2072805460C46174606FA03F603DD8B
S315080030C0DE21344802F0A9F91CB9DF21314802F0A3
S315080030D0A4F9236823F47C1323F00F031BB1E22120
S315080030E02C4802F09AF9A37A1B0413F47C0F03D038
S315080030F0E721284802F091F9E37A1B0513F07E6F61
S3150800310003D0E921234802F088F9237B5B0513F0F5
S31508003110FE5F03D0EB211F4802F07FF91E4B27F014
S3150800312003071E65AB00226803F1A04303F5882355
S315080031305A60302202FB05F0637B00F1A04000F5DF
S3150800314080200366E37AA27A1B0543EA0243227BC0
S3150800315043EA4253C365076703F096F90F4B227A91
S315080031605E6502B11E64627A02B19E632279A37912
S3150800317043EA0243084A93616179E37943EA0143E2
S3150800318006498B61064B56639E64BDE8F84003F01A
S3150800319076B900BF036900080020045000100450E7
S315080031A00000045010B50124C3B2072804FA03F43A
S315080031B004DD40F27B11074802F02FF903F064F9A9
S315080031C0054B5A6D22EA04025A659C62BDE8104016
S315080031D003F055B9036900080000045010B501242E
S315080031E0C3B2072804FA03F404DD40F299110A4829
S315080031F002F013F903F048F9084BDA6A224208D1BB
S315080032005B6B9C430CBF0124002403F038F920466D
S3150800321010BD0024F9E700BF036900080000045048
S3150800322070B50125C3B20728044605FA03F504DD7F
S315080032304FF4E071094802F0F0F803F025F930225E
S31508003240074B5E6B02FB04335C6E03F018F93542DC
S315080032500ABFC4F30A100020013070BD03690008D4
S315080032600000045010B5044620B940F23A2110482F
S3150800327002F0D3F82378C3B1012B03D0022B14D064
S31508003280032B04D13F236278D340DB0704D440F2F2
S315080032903D21074802F0C1F80122637821789A4057
S315080032A030235943034B5A5010BD40F2FF33EAE727
S315080032B0A869000840E00350034BD3F82424D3F848
S315080032C020041040704700BF00C003502DE9F041AC
S315080032D0037804460D46164613B3012B03D0022B7A
S315080032E01ED0032B04D13F236278D340DB0703D4D7
S315080032F05D21274802F091F8264BD3F810331BB10D
S315080033006021234802F089F80F2D0CD8DFE805F074
S31508003310373232323232323232323232323232327A
S3150800332040F2FF33E0E7B421194802F076F84FF08F
S315080033300008204606B302F0B9FD0F216778237806
S31508003340072F03EB430388BF083F4FEA03131248CE
S3150800335095BFBF00BF0004330C3308FA07F2B94023
S31508003360184402F0E5F885B9204656B1BDE8F041A3
S3150800337002F09CBDA846DCE7FFF774FFDDE7A84628
S31508003380DBE7BDE8F041FFF76DBFBDE8F08100BFA0
S315080033901F6A000800C0035030C00350054B9A68E6
S315080033A09107FCD45A689207F9D4DA69002AF6D14B
S315080033B0704700BF00800A5010B5074C6368DB07EA
S315080033C004D44FF49F71054802F027F802F098FDDF
S315080033D00223236110BD00BF00800A50606A0008FE
S315080033E008B5FFF7DBFF0122024B03F580514A605F
S315080033F01A6108BD00800A5010B5044B5C68012CA0
S3150800340003D1FFF7D9FF024B5C6010BD00800A505C
S3150800341000A00A5038B5074DFFF7C0FF6B68044691
S31508003420012B03D1FFF7E8FFFFF7B8FF2378EB601E
S3150800343038BD00BF00800A5038B505460C4602F074
S3150800344069FDBDB96268237812B1127843EAC203EE
S31508003450627843EA4203A26812B1127843EA8213F9
S31508003460E27843EA8203226912B1127843EA4223D8
S31508003470014A936438BD00BF00800A5030B58BB04E
S315080034808C4803F00CF820B14FF44E718A4801F0CD
S31508003490C4FF6C46894D0FCD0FC42B68884A23603C
S315080034A0FF238DF80130D2F84C3113F4802340F015
S315080034B0F580D2F850218DF801309DF801306C4620
S315080034C0FF2B08BF252368467E4D8DF80130FEF791
S315080034D09DFB3220FEF7FCFB0FCD0FC40FCD0FC4AA
S315080034E095E8030084E80300754BD3F84C211203D2
S315080034F040F1B880A3F5FE431C88B4F5807F28BF49
S3150800350064248DF81940FEF77BFB044484F3080411
S315080035106D488DF81840FDF739F86846FEF75EFAEB
S315080035203220FEF7DBFB6948FEF7FEFC6848FEF72B
S3150800353089FD684802F0B3FF20B140F2CB115E481E
S3150800354001F06BFF644C0020FEF7CEFBFEF7A2FCF1
S31508003550236F002023F0070343F003032367FEF7D6
S31508003560C3FC236F5D4923F4744323675C4BD3F88C
S31508003570FC2012F0807279D1D4F8803023F003034E
S3150800358043F00103C4F88030C1F88020524CD4F8C7
S31508003590203123F0070343F00203C4F82031D4F89E
S315080035A0283123F0070343F00203C4F82831D4F87E
S315080035B0803123F0030343F00103C4F88031D4F8C3
S315080035C0403123F0030343F00203C4F84031D4F832
S315080035D0603123F0030343F00203C4F86031D4F8E2
S315080035E0403223F0030343F00203C4F84032D4F810
S315080035F0003223F0070343F00203C4F80032D4F87C
S31508003600083223F0070343F00203C4F80832D4F85B
S31508003610703223F0030343F00103C4F87032D4F880
S31508003620203223F0070343F00103C4F82032FEF7E3
S31508003630BDF94FF0E0220020136943F0040313613B
S31508003640D4F8603223F0070343F00103C4F860326C
S31508003650D4F8943223F0070343F00103C4F89432F4
S315080036600BB030BDD3F85041E4B24AE7D3F8FC209A
S3150800367022F08072C3F8FC20D4F8802022F00302DE
S3150800368042F00102C4F880200022C1F88020D3F855
S31508003690FC2042F08072C3F8FC2077E74FF07E6387
S315080036A093F89C2093F99C30002BFFF606AF8DF813
S315080036B0012002E7186C0008746B0008D46B000838
S315080036C00080E00FE86B0008C017530200B4C4047A
S315080036D0C0EA21011C6C00080080005000900050D0
S315080036E000ED00E007B5094B18689A889B790090A9
S315080036F06846ADF804208DF80630FEF72BFE0C2040
S31508003700FEF760FE002003B05DF804FB106C0008AD
S3150800371013B50024064A6846536F43F001035367FE
S3150800372000948DF80440FEF749FD204602B010BD0E
S315080037300040005010B54C2804460DD801220A490D
S31508003740630904F01F04A240203341F82320BFF385
S315080037504F8FBFF36F8F10BD40F22511034801F05C
S315080037605CFE002CF7DBE9E700E100E0486C0008A6
S3150800377010B54C28044608D801236109074A04F005
S315080037801F04A34042F8213010BD4FF49871044835
S3150800379001F043FE002CF7DBEEE700BF00E100E096
S315080037A0486C000810B54B28044604D940F23B1172
S315080037B0064801F032FE064B621153F8220004F067
S315080037C01F04E040C04300F0010010BD486C00082B
S315080037D000E100E0002808DB01224309034900F064
S315080037E01F008240603341F82320704700E100E063
S315080037F038B500F110035C2B04460D4604D94FF486
S31508003800EF710E4801F009FE0F2D04D940F2DF11C1
S315080038100A4801F002FE60B20028ACBF00F1604021
S31508003820074B4FEA0515EDB2ABBF00F5614000F056
S315080038300F0080F800531D5438BD00BF486C0008BF
S3150800384014ED00E010B502F01FFE0A4B1A786AB9AB
S3150800385001226FF004041A7002F011FE20460521B9
S315080038600134FFF7C5FF4C2CF8D110BDBDE8104058
S3150800387002F005BE7515002010B5044602F0FBFDE2
S31508003880024B1C6002F0F2FD002010BDEC13002074
S3150800389010B502F0F0FD034B1C6802F0E7FD204668
S315080038A010BD00BFEC1300202DE9F0438FB01D4674
S315080038B0136881461F6891F831308846144606AE6B
S315080038C01BB3DFF828C2BCE80F000FC69CE80F0040
S315080038D086E80F0018220021684601F0E0FFA36879
S315080038E00893237B012B13D0022B14D01BB1D921AB
S315080038F0774801F092FD0023ADF82630637B032B51
S315080039001FD8DFE803F00B25221BDFF8E4C1DAE74E
S315080039104FF40073F0E74FF44073EDE70023ADF87A
S31508003920283001238DF80630A37BCDF834D0042B3C
S3150800393011D8DFE803F01415151514004FF4405399
S31508003940EDE7EB21624801F068FD4FF48053E6E7A6
S315080039504FF40053E3E7FE215D4801F05EFD0023C6
S315080039608DF800305B4AD8F8383029461A605A4A2A
S3150800397048465A6000229A60584ADA60424600F081
S3150800398069FC0646002840F09B8023695448C5F820
S31508003990A430237E85F8AB30E37D85F8AA30A37D75
S315080039A085F8A930637D85F8A830A37E85F8AD3003
S315080039B0637E85F8AC30237F85F8AF30E37E85F8E3
S315080039C0AE302368C5F8A03002F069FD0123042251
S315080039D0A17D607DFFF75EF80123217E0222E07D4E
S315080039E0FFF758F885F8B060206902F058FD98F896
S315080039F03130384606A9002B66D0FEF785FF95F8C4
S31508003A00B03043F0040385F8B0301421227D354BDD
S31508003A1003EB4210C0F8941494F816C0617D253261
S31508003A2041EA0C41C0F8AC14207EE17D03EB421359
S31508003A3041EA00415960A37B03F0FD03012B0BD13A
S31508003A4095F8B030022243F0010385F8B030A17E24
S31508003A500023607EFFF71EF8A37B023B012B0BD8E1
S31508003A6095F8B030042243F0020385F8B030217F80
S31508003A700023E07EFFF70EF895F8B030DB0717D580
S31508003A80A17E627E237D42EA014241F29C415B01AE
S31508003A9003F1A04303F570335A5041F294420221D0
S31508003AA09950217FE27E03F5A55342EA01421A6046
S31508003AB00D4A07F5005305213846DA64FEF7E2FC9D
S31508003AC030460FB0BDE8F083FEF74CFF9DE700BF18
S31508003AD0A96C0008AD5500083F560008C3550008F4
S31508003AE0286C000800C00350FF3F0D03F86C00085F
S31508003AF0186D000840F24221014801F08EBC00BF53
S31508003B00A96C000810B50020144601F026FD02280D
S31508003B1004D018B1C321024801F07FFC204610BD2D
S31508003B20386D00083021037D02464B4303F1A0435C
S31508003B3003F58023D86E07491B6F884208D113F016
S31508003B40020006D0106A136D1B1A58425841704776
S31508003B50002070477615002037B53023007D0DF11B
S31508003B600701434303F1A04303F58023DD6E1C6F71
S31508003B7002F058F920B140F2F931084801F04DFC3D
S31508003B809DF8070040B9064B9D4203D184F0020414
S31508003B90C4F3400003B030BD0120FBE78E6D00087A
S31508003BA07615002037B504460DF10701007D02F0B1
S31508003BB039F920B140F24441114801F02EFC9DF834
S31508003BC00730A3B1256DD4E9122313449D4201D8C9
S31508003BD0AA4204D940F24F41094801F01EFCD4E933
S31508003BE0120303449D4218BF284603B030BD302255
S31508003BF0237D534303F1A04303F58023DD6EE2E7FB
S31508003C008E6D00082DE9F743D0E9043404F17C07EA
S31508003C10D0F80C90013B06461022002138469DB28A
S31508003C20D4F8748001F03BFE104BC5F30A0543EA4D
S31508003C300513C4E91F39012394F8780084F88C30F9
S31508003C40C4F884803A460A4B009604F16401FDF7ED
S31508003C5041F838B140F28D31064803B0BDE8F0436B
S31508003C6001F0DBBB03B0BDE8F08300BF00001030F5
S31508003C70ED3D00088E6D00082DE9F04385B000F192
S31508003C803806044610220021304601F008FE4FF49B
S31508003C904473534D207DC4E90F556387FDF740F8FB
S31508003CA020B140F2CA514F4801F0B7FB102200215B
S31508003CB0304601F0F4FD4FF4447363873023207DCA
S31508003CC0C4E90F55434303F1A04303F58023DB6E94
S31508003CD0AB420BD1FDF744F8002876D040F2D35119
S31508003CE0404805B0BDE8F04301F097BB0DF10B0164
S31508003CF002F098F820B140F2D9513A4801F08DFB0C
S31508003D009DF80B30002B63D12046FFF74BFF03A924
S31508003D100746207D02F0A8F820B140F2E15131486B
S31508003D2001F07BFB039B002B04DC40F2E3512D489A
S31508003D3001F073FB039B04F11808013B10220021D4
S31508003D4040469DB2D4F8109001F0A9FD3022237D9B
S31508003D50C5F30A0553432D0145F04075C4E90659D4
S31508003D6003F1A043276203F580231A6F94F8241001
S31508003D70520862F3410184F82410196F94F824203C
S31508003D8028F0030861F3000284F824201B6F626A96
S31508003D909B0863F39F0248F002036262636400941F
S31508003DA032462146104B207DFCF794FF20B140F2A5
S31508003DB004610C4801F031FB207DFCF7D1FF20B1EE
S31508003DC04FF4C161074801F028FB05B0BDE8F08350
S31508003DD094F844306FF3410384F84430DFE700BFBA
S31508003DE0761500208E6D00088F56000838B555697F
S31508003DF0144695F88C3023B940F26A310A4801F026
S31508003E000CFB002305F1900085F88C30FCF7E0FBED
S31508003E1008B1FFF7F7FE63681BB100212046A268C8
S31508003E209847002038BD00BF8E6D000838B5044697
S31508003E30007DFCF775FF20B140F22D41084801F0DE
S31508003E40ECFA2046FFF76EFE0546207DFCF788FF54
S31508003E5020B140F23241024801F0DFFA284638BD67
S31508003E608E6D00082DE9F04F8DB099460023044663
S31508003E7008910692C9F80030D9F80060069B9D1B88
S31508003E8000F0C580089B9E1900F0C1802046FFF708
S31508003E90CDFF8046002840F0BA802046FFF782FE14
S31508003EA0226D904240F2BC80801A854228BF0546A2
S31508003EB094F896A0BAF1000F00F0F28002F0E4FA46
S31508003EC0236D079020460993FFF746FE2F46099B68
S31508003ED0834658198342D4F8981040F0BC80D4E938
S31508003EE0122313448B4208BFC4F89820D4F89810BC
S31508003EF08A4201D88B4204D840F242518A4801F0DE
S31508003F008CFA079802F0BBFADA46207DFCF708FF20
S31508003F1020B140F28241844801F07FFA207D0DF1FC
S31508003F202F0101F07FFF20B140F286417E4801F063
S31508003F3074FA2046FFF736FE236D834698429DF8AD
S31508003F402F3040F2BC8023B140F28E41764801F012
S31508003F5064FAA26C236DAEB2934240F0A88009932E
S31508003F6004F128082369102200214046079301F02E
S31508003F7096FC3021079B013EE362099BC6F30A06BD
S31508003F802363237D36014B4328F0030803F1A0433E
S31508003F9046F0407648F0020203F58023A6621A67C7
S31508003FA0236DD4E912122B440A44934208BF0B46E8
S31508003FB09342236504D340F2DE415B4801F02DFAB3
S31508003FC0236D9B4505D10123204684F85430FFF71D
S31508003FD053FE207DFCF7C4FE20B140F2F74152485B
S31508003FE001F01BFA94F896303BB1BAF1000F04D0F1
S31508003FF0236E112120465B689847D9F8003037B1FF
S31508004000069A3B449342C9F80030FFF435AFD9F815
S315080040100030002B14BF00201B200DB0BDE8F08F28
S31508004020D4E912310B449A4204D340F26A413E481D
S3150800403001F0F3F9D4E912321344226D9B1A9D421A
S3150800404028BF1D46002D7FF433AF40F2165136487F
S3150800405001F0E3F92CE701335A1E914210D1C4F856
S31508004060983013F8012C112A01D0132A14D1013FD4
S31508004070A2F111014A424A41D04684F89C2029E718
S3150800408013F8012C02F0FD01112906D1013FB8F100
S31508004090000F3FF41FAFEBE7D04606F8012B19E7F0
S315080040A02A463046216D01F005FC2F462DE7238D63
S315080040B0C3F30A12164466F30E13238570E7207DB0
S315080040C093B93023584300F1A04000F58020426E92
S315080040D0436EC2F30A1223F4FF432A4423F0700303
S315080040E043EA021343665BE7104B049403930023E9
S315080040F0CDE90153012300935A462369216801F04B
S31508004100A7F920B140F2CB41074801F086F93022E1
S31508004110237D534303F1A04303F580235A6E22F40B
S3150800412080125A663CE700BF8E6D00088F5600085D
S315080041302DE9F84F90F8943004460D46002B40F0D0
S31508004140858090F89580DFF808918E18B54223D0BF
S3150800415094F896306BB12046FFF768FEF8B1D4F8AC
S315080041609820236D9A4204D040F2CD21484601F0AA
S3150800417054F994F89C30002BE8D0236E2F462A7801
S315080041805B68B8F1000F59D1236E20465B68397811
S31508004190013598470028D9D00020BDE8F88F02F0ED
S315080041A073F90746207DFCF7BBFD20B140F2D32109
S315080041B0274801F032F92046FFF7F4FCA26C00F11B
S315080041C0FF3A924538BFE36C207D3CBF03F1FF33CD
S315080041D002EB030A94F854B0FCF7C2FD20B140F292
S315080041E0DF211B4801F019F9D4F89810BBF1000F2C
S315080041F022D0236D8B4204D04FF43971144801F054
S315080042000CF9384602F03BF9B3E7A26C9A4202D998
S31508004210E36C013B134499420BD013F80129112A88
S3150800422001D0132AF1D1A2F111035A425A4184F856
S315080042309C20C4F898A0E4E75346ECE70A2AA3D1E1
S315080042400D212046984700289ED0A5E70E20A4E712
S315080042508E6D0008F0B589B00C4615460646A022B4
S315080042600021204601F01BFB2746AC46BCE80F00A0
S315080042700FC7DCF8003005F1140C3B6004F1640745
S31508004280BCE80F000FC7DCF80030EA6A3B60AB6A8F
S31508004290C4E9132395F83020A36484F8952095F88B
S315080042A03320C4F89830012384F8962084F89C308B
S315080042B084F85430AB6B2366324B34607360324BF0
S315080042C0B360324BF360324B7361324BB361324B9E
S315080042D03361FCF7CBFC10B1304B98420FD100216B
S315080042E007A8FCF74BFC014648B9079B07A82375A6
S315080042F0FCF744FC0346207D23B1FCF791FC102013
S3150800430009B0F0BD079B84F87830FCF709FD002852
S31508004310F5D1234B0494CDE90203E36C0193012301
S3150800432000932369A26C2168207D01F091F800288A
S31508004330E5D13022237D4FF48011534342F26402C3
S3150800434003F1A04303F580239950AB6B93F9100052
S31508004350FFF740FAAB6B93F91000FFF709FA04F17F
S31508004360900001F05BF83046FFF786FA2046FFF723
S3150800437083FC207DFCF7F4FC003818BF01200001FF
S31508004380BEE700BF31410008FF560008653E000839
S315080043908356000889560008A5430008038000F0E4
S315080043A08F56000870B50568044695F89460002E87
S315080043B03BD101F0C7F9FFF76BFA844202D13046C8
S315080043C0FFF75AFA2B6E93F91000FFF703FA2B6ED4
S315080043D093F91000FFF7AEF9287D01F003FD20B12F
S315080043E040F29721144801F018F8287DFCF718FCCC
S315080043F020B140F29B21104801F00FF8FCF7EEFBC4
S3150800440038B10E4B984204D040F29F210A4801F079
S3150800441004F80023C4E90033C4E90533E3602B6ECE
S315080044202846BDE87040DB68184740F26621024816
S3150800443000F0F3FF0F2070BD8E6D0008058000F0B8
S315080044400346054A0549106803448B428CBF4FF062
S31508004450FF301360704700BFCC1500200000042011
S3150800446070B502F011F8144E05463478FCB9134BB2
S315080044701C60134B1C60134B1C6000F047F80120AE
S3150800448002F0A0F801F08EFF0F4B0246186020B923
S31508004490284601F0F4FF232070BD234640F2E73199
S315080044A00A4800F095F80A4B18600123337028462D
S315080044B001F0E5FF0020EFE779150020F81300204A
S315080044C0F413002000140020FC13002018FCFFFF42
S315080044D0F013002000B58DB001238DF80F3001F0E0
S315080044E0A3FE00230146CDE90033074A0DF10F0369
S315080044F004A802F03FF818B99DF80F30002BFBD13D
S315080045000DB05DF804FB00BF6F65000810B586B0F6
S3150800451000241422214601A88DF8004001F0BFF9B5
S31508004520012313488DF8043001F0B9FFBFF34F8F0C
S315080045306846FEF76FFF204601A98DF80440FEF78E
S315080045407BFF20460F2101F005FD0F21204601F0D3
S315080045500FFDFEF745FF01F0D3FC064B43209C6197
S31508004560FFF738F94320FFF703F906B010BD00BF7F
S31508004570186C000800800A5010B5044601F0C0FB0C
S315080045804FF47A729042B0FBF2F105D23621BDE8BB
S3150800459010400C4800F041BF0B4BB3FBF1F30B493D
S315080045A0884201D93C21F2E702FB04F0B0FBF3F0A4
S315080045B0022806D9BDE810400323B0FBF3F0FBF749
S315080045C0D7BD10BD256E000840420F00E7CD9A3BC7
S315080045D053B94AB9002908BF00281CBF4FF0FF315C
S315080045E04FF0FF3000F082B9ADF1080C6DE904CE4A
S315080045F000F006F8DDF804E0DDE9022304B07047B0
S315080046002DE9F04F099D0C46002B4DD18A420F46E5
S3150800461084469646B2FA82F360D94BB102FA03FE93
S31508004620C3F120029F4000FA03FC20FA02F2174366
S315080046304FEA1E461FFA8EF44FEA1C42B7FBF6F104
S3150800464006FB117701FB04F042EA0742904208D9BB
S315080046501EEB020201F1FF3702D2904200F23181CD
S315080046603946121A1FFA8CFCB2FBF6F006FB10222A
S3150800467000FB04F44CEA024C644508D91EEB0C0C0A
S3150800468000F1FF3202D2644500F21E81104640EA6C
S315080046900140ACEB040C002125B12CFA03F30022EF
S315080046A0C5E90032BDE8F08F8B4205D90DB1C5E9E1
S315080046B0000100210846F5E7B3FA83F100294DD138
S315080046C0A342C0F0F380904280F0F080064623466D
S315080046D00846002DE6D0C5E90063E3E7002B40F065
S315080046E0A3808A1A4FEA1E471FFA8EF60121B2FBEB
S315080046F0F7F407FB14204FEA1C4242EA004206FB85
S3150800470004F090420FD91EEB020204F1FF382CBFC9
S315080047104FF001094FF00009904203D9B9F1000F93
S3150800472000F0CC804446121A1FFA8CFCB2FBF7F054
S3150800473007FB102200FB06F64CEA024C664508D930
S315080047401EEB0C0C00F1FF3202D2664500F2B38074
S315080047501046ACEB060C40EA04409DE7C1F1200682
S315080047608B4004FA01FE22FA06F720FA06FCF4400A
S315080047708A401F434EEA0C0300FA01FE4FEA174827
S315080047804FEA13491FFA87FCB4FBF8F008FB1044FC
S3150800479049EA044400FB0CF9A1450ED93C1900F17D
S315080047A0FF3A2CBF4FF0010B4FF0000BA14503D980
S315080047B0BBF1000F00F08B805046A4EB09041FFAEA
S315080047C083F9B4FBF8F308FB134403FB0CFC49EA32
S315080047D00444A44506D93C1903F1FF3801D2A4457F
S315080047E07BD8434643EA0040A4EB0C04A0FB02989E
S315080047F04445CC46434602D306D1CE4504D20138B9
S31508004800B9EB020C68EB0703002D6CD0BEEB0C026B
S3150800481064EB030422FA01F304FA06F6CC400021FD
S315080048201E43C5E900643DE702FA03FEC3F1200111
S3150800483004FA03F200FA03FCCC404FEA1E4720FABA
S3150800484001F11FFA8EF6B4FBF7F00A4307FB104492
S31508004850110C41EA044100FB06F48C420ED91EEB0A
S31508004860010100F1FF382CBF4FF001094FF0000994
S315080048708C4202D9B9F1000F2CD04046091B92B2DE
S31508004880B1FBF7F407FB141142EA014204FB06F1F7
S31508004890914207D91EEB020204F1FF3801D2914278
S315080048A01ED84446521A44EA004120E7861A64EBA9
S315080048B0030301200DE7F44402384AE7023C724438
S315080048C031E702397244CCE6F4440238DFE60238AE
S315080048D03C4472E702387144D0E7023B3C4481E726
S315080048E0023C7244DEE72946DCE600BF704700BF9B
S315080048F008B5064B044613B10021AFF30080044BFC
S315080049001B6803B19847204600F0A3FE000000008C
S315080049103C150020002310B50446836081811946A2
S315080049204366C28108228361C0E90033C0E90433C3
S315080049305C3000F0B4FF0D4B246263620C4BA3623B
S315080049400C4BE3620C4B23630C4B9C4206D003F1E1
S315080049506802944202D0D0339C4205D104F1580033
S31508004960BDE8104000F0A3BF10BD00BF19580008ED
S315080049703B5800087358000897580008041400208C
S31508004980024A0349034800F029BF00BFD01500209A
S315080049900B5B0008E015002041680C4B994210B5E6
S315080049A0044601D001F0B1F8A168094B994202D03A
S315080049B0204601F0AAF8E168064B994204D0204641
S315080049C0BDE8104001F0A1B810BD00BF04140020D6
S315080049D06C140020D414002010B50B4B04210B4C8A
S315080049E00B4A20461A600022FFF794FF04F168007C
S315080049F001220921FFF78EFF04F1D00002221221BD
S31508004A00BDE81040FFF786BF3C15002004140020BF
S31508004A1081490008014800F04BBF00BF7B15002004
S31508004A20014800F046BF00BF7B15002010B50446BC
S31508004A30FFF7F0FF236A1BB1BDE81040FFF7F0BF90
S31508004A40044B2362044B1B68002BF5D1FFF7C4FF08
S31508004A50F2E700BF994900083C1500200FB407B5D6
S31508004A60064904AB086853F8042B8168019300F0E3
S31508004A7061F903B05DF804EB04B07047DC1500205B
S31508004A8038B50023054D044608462B6000F0DFFDC7
S31508004A90431C02D12B6803B1236038BD40150020A2
S31508004AA038B50446064D0846114600222A601A46BD
S31508004AB000F0D7FD431C02D12B6803B1236038BD33
S31508004AC04015002038B50446064D08461146002212
S31508004AD02A601A4600F0C7FD431C02D12B6803B1B1
S31508004AE0236038BD4015002038B50446064D0846F3
S31508004AF0114600222A601A46FFF704F8431C02D121
S31508004B002B6803B1236038BD4015002070B50D4DE4
S31508004B1000260D4C641BA410A64209D10B4D002695
S31508004B200B4C01F07DFD641BA410A64205D170BD97
S31508004B3055F8043B01369847EEE755F8043B01362D
S31508004B409847F2E734160020341600203416002061
S31508004B503816002038B50546002941D051F8043CDE
S31508004B600C1F002BB8BFE41800F0D8F81D4A1368CC
S31508004B7033B9636014602846BDE8384000F0D4B8FD
S31508004B80A34208D9206821188B4201BF19685B68BF
S31508004B9009182160EDE71A465B680BB1A342FAD9FA
S31508004BA011685018A0420BD12068014450181160B2
S31508004BB08342E0D118685B68084453601060DAE7FE
S31508004BC002D90C232B60D6E7206821188B4202BF36
S31508004BD019685B680918636008BF21605460CAE7F2
S31508004BE038BD00BF4815002070B50F4E0C46054667
S31508004BF0316811B900F038FB30602146284600F0CC
S31508004C0033FB431C03D14FF0FF34204670BDC41C50
S31508004C1024F00304A042F8D0211A284600F024FB09
S31508004C200130F2D1EFE700BF441500202DE9F0412D
S31508004C30CD1C064625F0030508350C2D38BF0C2576
S31508004C40002D01DBA94204D90C2333600020BDE8FE
S31508004C50F081314F00F062F83B681C4644BB294698
S31508004C603046FFF7C1FF431C044650D13C68214635
S31508004C70002941D1002C44D02368304604EB0308B0
S31508004C8000F0F2FA80453CD1216830466D1A294673
S31508004C90FFF7AAFF013034D023682B4423603B6812
S31508004CA0002B36D05A68A24229D100225A600EE05B
S31508004CB02268521B1DD40B2A16D96119A3422560F6
S31508004CC018BF5960636808BF396062514B60304647
S31508004CD000F02AF804F10B00231D20F00700C21A81
S31508004CE0B5D01B1AA350B2E7A3426268DED13A6078
S31508004CF0EDE723466468B1E70C464968B8E713460A
S31508004D00CEE70C233046336000F00EF89EE70560C8
S31508004D10DDE75B60FFDE00BF48150020014800F0B4
S31508004D20C7BD00BF7A150020014800F0C2BD00BF0C
S31508004D307A1500202DE9F04F0D469DB01446984689
S31508004D40064618B1036A0BB9FFF770FE6B6ED907F2
S31508004D5005D4AB899A0502D4A86D00F0A9FDAB89E4
S31508004D601B0701D52B699BB92946304600F026FA60
S31508004D7070B16B6EDC0704D54FF0FF301DB0BDE88F
S31508004D80F08FAB899805F7D4A86D00F092FDF3E78C
S31508004D900023CDF80C804FF00109DFF8B4810993A0
S31508004DA020238DF8293030238DF82A3023469A4659
S31508004DB013F8012B0AB1252AF9D1BAEB040B0BD04B
S31508004DC05B4622462946304600F098FD013000F041
S31508004DD0A780099A5A4409929AF80030002B00F0E5
S31508004DE09F8000234FF0FF320AF1010A04930793CC
S31508004DF08DF853301A93CDE90523544605225448B5
S31508004E0014F8011B00F0E7FE049AD8B9D10644BF8E
S31508004E1020238DF85330130744BF2B238DF85330C6
S31508004E209AF800302A2B15D0079A544600204FF0DE
S31508004E300A0C214611F8013B303B092B4BD9B0B17E
S31508004E40079214E0A0EB0803A24609FA03F31343FA
S31508004E500493D2E7039B191D1B68002B0391BBBF64
S31508004E605B4242F0020207930793B8BF0492237885
S31508004E702E2B0AD163782A2B32D1039B02341A1DB2
S31508004E801B6843EAE37303920593DFF8D4A0032271
S31508004E902178504600F09FFE38B1A0EB0A00402268
S31508004EA0049B013482401343049314F8011B062221
S31508004EB028488DF8281000F08EFE00283FD0264B93
S31508004EC01BBB039B073323F0070308330393099B94
S31508004ED03B4409936AE70CFB02320C460120A8E71B
S31508004EE0002301344FF00A0C19460593204610F8A2
S31508004EF0012B303A092A03D9002BC6D00591C4E7FD
S31508004F000CFB012104460123F0E703AB2A4604A95A
S31508004F1030460093114BAFF300800746781CD6D174
S31508004F206B6ED90705D4AB899A0502D4A86D00F033
S31508004F30C0FCAB895B063FF51FAF09981EE703ABBC
S31508004F402A4604A930460093044B00F00BF8E4E720
S31508004F50686E0008726E000800000000FD58000820
S31508004F606E6E00082DE9FF470F7E914680460C4677
S31508004F70782F9A460C9E01F1430207D8622F0AD869
S31508004F80002F00F0DD80582F00F0C38004F14206A0
S31508004F9084F842703AE0A7F16303152BF6D801A10D
S31508004FA051F823F0FD4F0008115000088D4F0008F6
S31508004FB08D4F00088D4F00088D4F000811500008CE
S31508004FC08D4F00088D4F00088D4F00088D4F000843
S31508004FD0275100089F500008DF5000088D4F000831
S31508004FE08D4F0008495100088D4F00089F50000852
S31508004FF08D4F00088D4F0008E750000833681A1DCA
S315080050001B68326004F1420684F842300123A8E0A6
S3150800501031682368081D30601E0601D50D6803E057
S315080050205D06FBD5B1F90050002D616878DA2D20B0
S315080050300029A16084F843002DDA6D425D480A23F1
S315080050401646B5FBF3F103FB1157C75D06F8017D5C
S315080050502F460D46BB42F4D9082B0BD12368DF0730
S3150800506008D5236961689942DEBF302306F8013CFA
S3150800507006F1FF36921B22614B4603AA214640469B
S31508005080CDF800A000F04CFC01306FD14FF0FF3096
S3150800509004B0BDE8F08723F004032360CDE7216858
S315080050A03368080653F8045B02D4490648BFADB214
S315080050B06F2F33603F4814BF0A230823002184F862
S315080050C043106668002EA660BADB216821F0040149
S315080050D02160002DB4D1002EB2D11646BCE7236854
S315080050E043F02003236078273348236884F8457003
S315080050F01F06316851F8045B02D45F0648BFADB29B
S315080051003160D90744BF43F0200323601DB1102343
S31508005110D4E72848E9E7236823F020032360F6E765
S3150800512024480A23CDE733682568181D616930606D
S315080051302E061B6801D5196002E06806FBD51980A2
S3150800514000231646236197E7336800211A1D32604B
S315080051501E686268304600F03EFD08B1801B60603C
S3150800516063682361002384F8433085E72369324660
S3150800517049464046D047013088D023689B0714D457
S31508005180E068039B9842B8BF184681E70123324678
S3150800519049464046D04701303FF478AF0135E368C9
S315080051A003995B1AAB42F1DCEAE7002504F119061C
S315080051B0F5E700BF796E00088A6E000838B5294BF6
S315080051C005460C46186818B1036A0BB9FFF72EFC9A
S315080051D0B4F90C30190722D4DA0607D409222A6052
S315080051E043F040034FF0FF30A38133E0580712D550
S315080051F0616B41B104F14403994202D02846FFF796
S31508005200A9FC00236363A38923F02403A381002355
S31508005210636023692360A38943F00803A381236994
S315080052204BB9A38903F42073B3F5007F03D0214655
S31508005230284600F003FDB4F90C3013F001020AD039
S315080052400022A26062695242A261226942B913F041
S315080052508000C5D138BD990758BF6269A260F4E7D6
S315080052600020F7E7DC15002038B50023054D044675
S3150800527008462B60FFF7E4F8431C02D12B6803B1FC
S31508005280236038BD4015002038B50023064D044676
S31508005290084611462B6000F0DDF9431C02D12B6845
S315080052A003B1236038BD00BF4015002038B5002380
S315080052B0054D044608462B6000F0D1F9431C02D17F
S315080052C02B6803B1236038BD401500200022062153
S315080052D03320FAF7D7BF08B5FBF70EF8BDE8084044
S315080052E00120FFF7F7B808B500F049FAFFF7EEFF17
S315080052F000F069FAFFF7EFFFFAE770477047704763
S315080053007047704708B5FBF7BFF800F020F9BDE80D
S315080053100840FBF7AFB8704708B5FBF769F9FBF724
S315080053201DFAFBF729F8BDE8084000F051B808B5A2
S3150800533000F010F800F00AF8BDE80840FBF72AB8B4
S31508005340704770477047704770477047FBF734B827
S31508005350FBF78AB80F20704770B5002506462C461D
S31508005360052C20D8DFE804F003070B0F13175B2181
S315080053700820FBF7A3F90C210820FBF79FF9D12198
S315080053800820FBF79BF980210820FBF797F90021F5
S315080053900820FBF793F96C1C2946E4B20820254639
S315080053A0FBF78CF90624A4F10E03012B05D85A2124
S315080053B00820FBF783F90134D2E7102C05D1BDE8A4
S315080053C070405D210820FBF779B9B31F195DEFE737
S315080053D008B5082000F025F8BDE80840082000F0C8
S315080053E02BB807B5012320F07F4040EA8170019071
S315080053F068460093FFF7B0FF03B05DF804FBFEE7CD
S3150800540000239A4200D1704710B550F8234041F85E
S31508005410234001339A42F8D110BDFEE7002303600A
S3150800542070474FF060420123D2F8001E83400B43B9
S315080054300020C2F8003E70474FF060410122D1F8C3
S31508005440003E824023EA02030020C1F8003E70476E
S3150800545010B588B004460E98009207900D9822461B
S3150800546006909DF8300005900B9804909DF828004A
S3150800547003900020CDE901300B460121FBF7C0FA65
S3150800548008B010BD70B5054614460E4600F0F3FF89
S315080054902B685C4034405C402C60BDE8704000F0EE
S315080054A0E5BF08B500F03EFCBDE808400021FCF762
S315080054B00DB80029CCBF01210021FCF707B802214D
S315080054C04FF42070FCF750BC70477047436D0B4291
S315080054D0FCD1704708B54368DA0714D58368DB073B
S315080054E002D50369D90707D50A2350218363FFF735
S315080054F0EDFF836C9A07FCD1012200F500535A6030
